{
  "address": "0x19BaD69cB7f3396A832a23D7667Db1998736758d",
  "abi": [
    {
      "inputs": [],
      "stateMutability": "nonpayable",
      "type": "constructor"
    },
    {
      "anonymous": false,
      "inputs": [
        {
          "indexed": true,
          "internalType": "address",
          "name": "owner",
          "type": "address"
        },
        {
          "indexed": true,
          "internalType": "address",
          "name": "approved",
          "type": "address"
        },
        {
          "indexed": true,
          "internalType": "uint256",
          "name": "tokenId",
          "type": "uint256"
        }
      ],
      "name": "Approval",
      "type": "event"
    },
    {
      "anonymous": false,
      "inputs": [
        {
          "indexed": true,
          "internalType": "address",
          "name": "owner",
          "type": "address"
        },
        {
          "indexed": true,
          "internalType": "address",
          "name": "operator",
          "type": "address"
        },
        {
          "indexed": false,
          "internalType": "bool",
          "name": "approved",
          "type": "bool"
        }
      ],
      "name": "ApprovalForAll",
      "type": "event"
    },
    {
      "anonymous": false,
      "inputs": [
        {
          "indexed": true,
          "internalType": "address",
          "name": "previousOwner",
          "type": "address"
        },
        {
          "indexed": true,
          "internalType": "address",
          "name": "newOwner",
          "type": "address"
        }
      ],
      "name": "OwnershipTransferred",
      "type": "event"
    },
    {
      "anonymous": false,
      "inputs": [
        {
          "indexed": true,
          "internalType": "address",
          "name": "from",
          "type": "address"
        },
        {
          "indexed": true,
          "internalType": "address",
          "name": "to",
          "type": "address"
        },
        {
          "indexed": true,
          "internalType": "uint256",
          "name": "tokenId",
          "type": "uint256"
        }
      ],
      "name": "Transfer",
      "type": "event"
    },
    {
      "anonymous": false,
      "inputs": [
        {
          "indexed": false,
          "internalType": "address",
          "name": "owner",
          "type": "address"
        },
        {
          "indexed": false,
          "internalType": "uint256",
          "name": "numClaims",
          "type": "uint256"
        },
        {
          "indexed": false,
          "internalType": "uint256",
          "name": "totalClaim",
          "type": "uint256"
        }
      ],
      "name": "claimEvent",
      "type": "event"
    },
    {
      "anonymous": false,
      "inputs": [
        {
          "indexed": false,
          "internalType": "address",
          "name": "owner",
          "type": "address"
        },
        {
          "indexed": false,
          "internalType": "uint256",
          "name": "numPurchase",
          "type": "uint256"
        },
        {
          "indexed": false,
          "internalType": "uint256",
          "name": "totalSupply",
          "type": "uint256"
        }
      ],
      "name": "mintEvent",
      "type": "event"
    },
    {
      "inputs": [],
      "name": "ClaimSamurai",
      "outputs": [],
      "stateMutability": "nonpayable",
      "type": "function"
    },
    {
      "inputs": [],
      "name": "MAX_CLAIM",
      "outputs": [
        {
          "internalType": "uint256",
          "name": "",
          "type": "uint256"
        }
      ],
      "stateMutability": "view",
      "type": "function"
    },
    {
      "inputs": [],
      "name": "MAX_GIVEAWAYS",
      "outputs": [
        {
          "internalType": "uint256",
          "name": "",
          "type": "uint256"
        }
      ],
      "stateMutability": "view",
      "type": "function"
    },
    {
      "inputs": [],
      "name": "MAX_SAMURAI",
      "outputs": [
        {
          "internalType": "uint256",
          "name": "",
          "type": "uint256"
        }
      ],
      "stateMutability": "view",
      "type": "function"
    },
    {
      "inputs": [],
      "name": "PRICE",
      "outputs": [
        {
          "internalType": "uint256",
          "name": "",
          "type": "uint256"
        }
      ],
      "stateMutability": "view",
      "type": "function"
    },
    {
      "inputs": [
        {
          "internalType": "address",
          "name": "to",
          "type": "address"
        },
        {
          "internalType": "uint256",
          "name": "tokenId",
          "type": "uint256"
        }
      ],
      "name": "approve",
      "outputs": [],
      "stateMutability": "nonpayable",
      "type": "function"
    },
    {
      "inputs": [
        {
          "internalType": "address",
          "name": "owner",
          "type": "address"
        }
      ],
      "name": "balanceOf",
      "outputs": [
        {
          "internalType": "uint256",
          "name": "",
          "type": "uint256"
        }
      ],
      "stateMutability": "view",
      "type": "function"
    },
    {
      "inputs": [],
      "name": "baseURI",
      "outputs": [
        {
          "internalType": "string",
          "name": "",
          "type": "string"
        }
      ],
      "stateMutability": "view",
      "type": "function"
    },
    {
      "inputs": [
        {
          "internalType": "uint256",
          "name": "tokenId",
          "type": "uint256"
        }
      ],
      "name": "getApproved",
      "outputs": [
        {
          "internalType": "address",
          "name": "",
          "type": "address"
        }
      ],
      "stateMutability": "view",
      "type": "function"
    },
    {
      "inputs": [
        {
          "internalType": "address",
          "name": "_to",
          "type": "address"
        },
        {
          "internalType": "uint256",
          "name": "numPurchase",
          "type": "uint256"
        }
      ],
      "name": "giveawayMintSamurai",
      "outputs": [],
      "stateMutability": "nonpayable",
      "type": "function"
    },
    {
      "inputs": [
        {
          "internalType": "address",
          "name": "",
          "type": "address"
        }
      ],
      "name": "hasClaimed",
      "outputs": [
        {
          "internalType": "bool",
          "name": "",
          "type": "bool"
        }
      ],
      "stateMutability": "view",
      "type": "function"
    },
    {
      "inputs": [],
      "name": "hasSaleStarted",
      "outputs": [
        {
          "internalType": "bool",
          "name": "",
          "type": "bool"
        }
      ],
      "stateMutability": "view",
      "type": "function"
    },
    {
      "inputs": [
        {
          "internalType": "address",
          "name": "owner",
          "type": "address"
        },
        {
          "internalType": "address",
          "name": "operator",
          "type": "address"
        }
      ],
      "name": "isApprovedForAll",
      "outputs": [
        {
          "internalType": "bool",
          "name": "",
          "type": "bool"
        }
      ],
      "stateMutability": "view",
      "type": "function"
    },
    {
      "inputs": [
        {
          "internalType": "uint256",
          "name": "numPurchase",
          "type": "uint256"
        }
      ],
      "name": "mintSamurai",
      "outputs": [],
      "stateMutability": "payable",
      "type": "function"
    },
    {
      "inputs": [],
      "name": "name",
      "outputs": [
        {
          "internalType": "string",
          "name": "",
          "type": "string"
        }
      ],
      "stateMutability": "view",
      "type": "function"
    },
    {
      "inputs": [],
      "name": "numClaim",
      "outputs": [
        {
          "internalType": "uint256",
          "name": "",
          "type": "uint256"
        }
      ],
      "stateMutability": "view",
      "type": "function"
    },
    {
      "inputs": [],
      "name": "numGiveaways",
      "outputs": [
        {
          "internalType": "uint256",
          "name": "",
          "type": "uint256"
        }
      ],
      "stateMutability": "view",
      "type": "function"
    },
    {
      "inputs": [],
      "name": "numTokens",
      "outputs": [
        {
          "internalType": "uint256",
          "name": "",
          "type": "uint256"
        }
      ],
      "stateMutability": "view",
      "type": "function"
    },
    {
      "inputs": [],
      "name": "owner",
      "outputs": [
        {
          "internalType": "address",
          "name": "",
          "type": "address"
        }
      ],
      "stateMutability": "view",
      "type": "function"
    },
    {
      "inputs": [
        {
          "internalType": "uint256",
          "name": "tokenId",
          "type": "uint256"
        }
      ],
      "name": "ownerOf",
      "outputs": [
        {
          "internalType": "address",
          "name": "",
          "type": "address"
        }
      ],
      "stateMutability": "view",
      "type": "function"
    },
    {
      "inputs": [],
      "name": "pauseSale",
      "outputs": [],
      "stateMutability": "nonpayable",
      "type": "function"
    },
    {
      "inputs": [],
      "name": "renounceOwnership",
      "outputs": [],
      "stateMutability": "nonpayable",
      "type": "function"
    },
    {
      "inputs": [
        {
          "internalType": "address",
          "name": "from",
          "type": "address"
        },
        {
          "internalType": "address",
          "name": "to",
          "type": "address"
        },
        {
          "internalType": "uint256",
          "name": "tokenId",
          "type": "uint256"
        }
      ],
      "name": "safeTransferFrom",
      "outputs": [],
      "stateMutability": "nonpayable",
      "type": "function"
    },
    {
      "inputs": [
        {
          "internalType": "address",
          "name": "from",
          "type": "address"
        },
        {
          "internalType": "address",
          "name": "to",
          "type": "address"
        },
        {
          "internalType": "uint256",
          "name": "tokenId",
          "type": "uint256"
        },
        {
          "internalType": "bytes",
          "name": "_data",
          "type": "bytes"
        }
      ],
      "name": "safeTransferFrom",
      "outputs": [],
      "stateMutability": "nonpayable",
      "type": "function"
    },
    {
      "inputs": [
        {
          "internalType": "address",
          "name": "operator",
          "type": "address"
        },
        {
          "internalType": "bool",
          "name": "approved",
          "type": "bool"
        }
      ],
      "name": "setApprovalForAll",
      "outputs": [],
      "stateMutability": "nonpayable",
      "type": "function"
    },
    {
      "inputs": [
        {
          "internalType": "string",
          "name": "baseURI",
          "type": "string"
        }
      ],
      "name": "setBaseURI",
      "outputs": [],
      "stateMutability": "nonpayable",
      "type": "function"
    },
    {
      "inputs": [
        {
          "internalType": "uint256",
          "name": "_MAX_GA_num",
          "type": "uint256"
        }
      ],
      "name": "setMAX_GIVEAWAYS",
      "outputs": [],
      "stateMutability": "nonpayable",
      "type": "function"
    },
    {
      "inputs": [
        {
          "internalType": "uint256",
          "name": "_MAX_num",
          "type": "uint256"
        }
      ],
      "name": "setMAX_PUNKS",
      "outputs": [],
      "stateMutability": "nonpayable",
      "type": "function"
    },
    {
      "inputs": [
        {
          "internalType": "uint256",
          "name": "_price",
          "type": "uint256"
        }
      ],
      "name": "set_PRICE",
      "outputs": [],
      "stateMutability": "nonpayable",
      "type": "function"
    },
    {
      "inputs": [],
      "name": "startSale",
      "outputs": [],
      "stateMutability": "nonpayable",
      "type": "function"
    },
    {
      "inputs": [
        {
          "internalType": "bytes4",
          "name": "interfaceId",
          "type": "bytes4"
        }
      ],
      "name": "supportsInterface",
      "outputs": [
        {
          "internalType": "bool",
          "name": "",
          "type": "bool"
        }
      ],
      "stateMutability": "view",
      "type": "function"
    },
    {
      "inputs": [],
      "name": "symbol",
      "outputs": [
        {
          "internalType": "string",
          "name": "",
          "type": "string"
        }
      ],
      "stateMutability": "view",
      "type": "function"
    },
    {
      "inputs": [
        {
          "internalType": "uint256",
          "name": "index",
          "type": "uint256"
        }
      ],
      "name": "tokenByIndex",
      "outputs": [
        {
          "internalType": "uint256",
          "name": "",
          "type": "uint256"
        }
      ],
      "stateMutability": "view",
      "type": "function"
    },
    {
      "inputs": [
        {
          "internalType": "address",
          "name": "owner",
          "type": "address"
        },
        {
          "internalType": "uint256",
          "name": "index",
          "type": "uint256"
        }
      ],
      "name": "tokenOfOwnerByIndex",
      "outputs": [
        {
          "internalType": "uint256",
          "name": "",
          "type": "uint256"
        }
      ],
      "stateMutability": "view",
      "type": "function"
    },
    {
      "inputs": [
        {
          "internalType": "uint256",
          "name": "tokenId",
          "type": "uint256"
        }
      ],
      "name": "tokenURI",
      "outputs": [
        {
          "internalType": "string",
          "name": "",
          "type": "string"
        }
      ],
      "stateMutability": "view",
      "type": "function"
    },
    {
      "inputs": [
        {
          "internalType": "address",
          "name": "_owner",
          "type": "address"
        }
      ],
      "name": "tokensOfOwner",
      "outputs": [
        {
          "internalType": "uint256[]",
          "name": "",
          "type": "uint256[]"
        }
      ],
      "stateMutability": "view",
      "type": "function"
    },
    {
      "inputs": [],
      "name": "totalSupply",
      "outputs": [
        {
          "internalType": "uint256",
          "name": "",
          "type": "uint256"
        }
      ],
      "stateMutability": "view",
      "type": "function"
    },
    {
      "inputs": [
        {
          "internalType": "address",
          "name": "from",
          "type": "address"
        },
        {
          "internalType": "address",
          "name": "to",
          "type": "address"
        },
        {
          "internalType": "uint256",
          "name": "tokenId",
          "type": "uint256"
        }
      ],
      "name": "transferFrom",
      "outputs": [],
      "stateMutability": "nonpayable",
      "type": "function"
    },
    {
      "inputs": [
        {
          "internalType": "address",
          "name": "newOwner",
          "type": "address"
        }
      ],
      "name": "transferOwnership",
      "outputs": [],
      "stateMutability": "nonpayable",
      "type": "function"
    },
    {
      "inputs": [],
      "name": "withdrawAll",
      "outputs": [],
      "stateMutability": "payable",
      "type": "function"
    }
  ],
  "transactionHash": "0x2cc1ae3ef7b8437925d24375d38a65740fa9d2698cc7485dddeee73c29cfcd96",
  "args": [],
  "solcInputHash": "bdf224b20bc9fe21cece33d4641fb83f",
  "bytecode": "0x608060405273d6499dac79a48cf21b7a6344a551a52da943e10c600b60006101000a81548173ffffffffffffffffffffffffffffffffffffffff021916908373ffffffffffffffffffffffffffffffffffffffff160217905550600b60009054906101000a900473ffffffffffffffffffffffffffffffffffffffff16600c60006101000a81548173ffffffffffffffffffffffffffffffffffffffff021916908373ffffffffffffffffffffffffffffffffffffffff160217905550612990600d556101f4600e556107d0600f5566b1a2bc2ec5000060105560006011556107d060125560006013556001601460006101000a81548160ff0219169083151502179055503480156200011157600080fd5b506040518060400160405280600281526020017f4b310000000000000000000000000000000000000000000000000000000000008152506040518060400160405280600281526020017f4b31000000000000000000000000000000000000000000000000000000000000815250620001966301ffc9a760e01b620002f360201b60201c565b8160069080519060200190620001ae9291906200051e565b508060079080519060200190620001c79291906200051e565b50620001e06380ac58cd60e01b620002f360201b60201c565b620001f8635b5e139f60e01b620002f360201b60201c565b6200021063780e9d6360e01b620002f360201b60201c565b5050600062000224620003fc60201b60201c565b905080600a60006101000a81548173ffffffffffffffffffffffffffffffffffffffff021916908373ffffffffffffffffffffffffffffffffffffffff1602179055508073ffffffffffffffffffffffffffffffffffffffff16600073ffffffffffffffffffffffffffffffffffffffff167f8be0079c531659141344cd1fd0a4f28419497f9722a3daafe3b4186f6b6457e060405160405180910390a350620002ed60405180606001604052806027815260200162004e98602791396200040460201b60201c565b620005c4565b63ffffffff60e01b817bffffffffffffffffffffffffffffffffffffffffffffffffffffffff1916141562000390576040517f08c379a000000000000000000000000000000000000000000000000000000000815260040180806020018281038252601c8152602001807f4552433136353a20696e76616c696420696e746572666163652069640000000081525060200191505060405180910390fd5b6001600080837bffffffffffffffffffffffffffffffffffffffffffffffffffffffff19167bffffffffffffffffffffffffffffffffffffffffffffffffffffffff1916815260200190815260200160002060006101000a81548160ff02191690831515021790555050565b600033905090565b62000414620003fc60201b60201c565b73ffffffffffffffffffffffffffffffffffffffff166200043a620004d860201b60201c565b73ffffffffffffffffffffffffffffffffffffffff1614620004c4576040517f08c379a00000000000000000000000000000000000000000000000000000000081526004018080602001828103825260208152602001807f4f776e61626c653a2063616c6c6572206973206e6f7420746865206f776e657281525060200191505060405180910390fd5b620004d5816200050260201b60201c565b50565b6000600a60009054906101000a900473ffffffffffffffffffffffffffffffffffffffff16905090565b80600990805190602001906200051a9291906200051e565b5050565b828054600181600116156101000203166002900490600052602060002090601f016020900481019282601f106200056157805160ff191683800117855562000592565b8280016001018555821562000592579182015b828111156200059157825182559160200191906001019062000574565b5b509050620005a19190620005a5565b5090565b5b80821115620005c0576000816000905550600101620005a6565b5090565b6148c480620005d46000396000f3fe60806040526004361061023b5760003560e01c806373b2e80e1161012e578063a22cb465116100ab578063c87b56dd1161006f578063c87b56dd14610dc2578063de9af03814610e76578063e985e9c514610ed1578063ec8ed84914610f58578063f2fde38b14610f835761023b565b8063a22cb46514610bd3578063b66a0e5d14610c30578063b6791cfa14610c47578063b88d4fde14610c75578063be0f386614610d875761023b565b80638c800970116100f25780638c80097014610a815780638d859f3e14610aac5780638da5cb5b14610ad75780638e499bcf14610b1857806395d89b4114610b435761023b565b806373b2e80e14610904578063844803751461096b5780638462151c146109a6578063853828b614610a4c578063872b25b014610a565761023b565b806342842e0e116101bc5780636352211e116101805780636352211e146107585780636456c205146107bd5780636c0360eb146107f857806370a0823114610888578063715018a6146108ed5761023b565b806342842e0e146105845780634f6ccce7146105ff578063544657731461064e57806355367ba91461067957806355f804b3146106905761023b565b806318160ddd1161020357806318160ddd1461042b5780631c8b232d1461045657806323b872dd146104835780632f745c59146104fe5780633ea40fa41461056d5761023b565b806301b65b711461024057806301ffc9a71461026b57806306fdde03146102db578063081812fc1461036b578063095ea7b3146103d0575b600080fd5b34801561024c57600080fd5b50610255610fd4565b6040518082815260200191505060405180910390f35b34801561027757600080fd5b506102c36004803603602081101561028e57600080fd5b8101908080357bffffffffffffffffffffffffffffffffffffffffffffffffffffffff19169060200190929190505050610fda565b60405180821515815260200191505060405180910390f35b3480156102e757600080fd5b506102f0611041565b6040518080602001828103825283818151815260200191508051906020019080838360005b83811015610330578082015181840152602081019050610315565b50505050905090810190601f16801561035d5780820380516001836020036101000a031916815260200191505b509250505060405180910390f35b34801561037757600080fd5b506103a46004803603602081101561038e57600080fd5b81019080803590602001909291905050506110e3565b604051808273ffffffffffffffffffffffffffffffffffffffff16815260200191505060405180910390f35b3480156103dc57600080fd5b50610429600480360360408110156103f357600080fd5b81019080803573ffffffffffffffffffffffffffffffffffffffff1690602001909291908035906020019092919050505061117e565b005b34801561043757600080fd5b506104406112c2565b6040518082815260200191505060405180910390f35b34801561046257600080fd5b5061046b6112d3565b60405180821515815260200191505060405180910390f35b34801561048f57600080fd5b506104fc600480360360608110156104a657600080fd5b81019080803573ffffffffffffffffffffffffffffffffffffffff169060200190929190803573ffffffffffffffffffffffffffffffffffffffff169060200190929190803590602001909291905050506112e6565b005b34801561050a57600080fd5b506105576004803603604081101561052157600080fd5b81019080803573ffffffffffffffffffffffffffffffffffffffff1690602001909291908035906020019092919050505061135c565b6040518082815260200191505060405180910390f35b34801561057957600080fd5b506105826113b7565b005b34801561059057600080fd5b506105fd600480360360608110156105a757600080fd5b81019080803573ffffffffffffffffffffffffffffffffffffffff169060200190929190803573ffffffffffffffffffffffffffffffffffffffff1690602001909291908035906020019092919050505061180b565b005b34801561060b57600080fd5b506106386004803603602081101561062257600080fd5b810190808035906020019092919050505061182b565b6040518082815260200191505060405180910390f35b34801561065a57600080fd5b5061066361184e565b6040518082815260200191505060405180910390f35b34801561068557600080fd5b5061068e611854565b005b34801561069c57600080fd5b50610756600480360360208110156106b357600080fd5b81019080803590602001906401000000008111156106d057600080fd5b8201836020820111156106e257600080fd5b8035906020019184600183028401116401000000008311171561070457600080fd5b91908080601f016020809104026020016040519081016040528093929190818152602001838380828437600081840152601f19601f820116905080830192505050505050509192919290505050611920565b005b34801561076457600080fd5b506107916004803603602081101561077b57600080fd5b81019080803590602001909291905050506119db565b604051808273ffffffffffffffffffffffffffffffffffffffff16815260200191505060405180910390f35b3480156107c957600080fd5b506107f6600480360360208110156107e057600080fd5b8101908080359060200190929190505050611a12565b005b34801561080457600080fd5b5061080d611acb565b6040518080602001828103825283818151815260200191508051906020019080838360005b8381101561084d578082015181840152602081019050610832565b50505050905090810190601f16801561087a5780820380516001836020036101000a031916815260200191505b509250505060405180910390f35b34801561089457600080fd5b506108d7600480360360208110156108ab57600080fd5b81019080803573ffffffffffffffffffffffffffffffffffffffff169060200190929190505050611b6d565b6040518082815260200191505060405180910390f35b3480156108f957600080fd5b50610902611c42565b005b34801561091057600080fd5b506109536004803603602081101561092757600080fd5b81019080803573ffffffffffffffffffffffffffffffffffffffff169060200190929190505050611db2565b60405180821515815260200191505060405180910390f35b34801561097757600080fd5b506109a46004803603602081101561098e57600080fd5b8101908080359060200190929190505050611dd2565b005b3480156109b257600080fd5b506109f5600480360360208110156109c957600080fd5b81019080803573ffffffffffffffffffffffffffffffffffffffff169060200190929190505050611e8b565b6040518080602001828103825283818151815260200191508051906020019060200280838360005b83811015610a38578082015181840152602081019050610a1d565b505050509050019250505060405180910390f35b610a54611f84565b005b348015610a6257600080fd5b50610a6b612073565b6040518082815260200191505060405180910390f35b348015610a8d57600080fd5b50610a96612079565b6040518082815260200191505060405180910390f35b348015610ab857600080fd5b50610ac161207f565b6040518082815260200191505060405180910390f35b348015610ae357600080fd5b50610aec612085565b604051808273ffffffffffffffffffffffffffffffffffffffff16815260200191505060405180910390f35b348015610b2457600080fd5b50610b2d6120af565b6040518082815260200191505060405180910390f35b348015610b4f57600080fd5b50610b586120b5565b6040518080602001828103825283818151815260200191508051906020019080838360005b83811015610b98578082015181840152602081019050610b7d565b50505050905090810190601f168015610bc55780820380516001836020036101000a031916815260200191505b509250505060405180910390f35b348015610bdf57600080fd5b50610c2e60048036036040811015610bf657600080fd5b81019080803573ffffffffffffffffffffffffffffffffffffffff169060200190929190803515159060200190929190505050612157565b005b348015610c3c57600080fd5b50610c4561230d565b005b610c7360048036036020811015610c5d57600080fd5b81019080803590602001909291905050506123d9565b005b348015610c8157600080fd5b50610d8560048036036080811015610c9857600080fd5b81019080803573ffffffffffffffffffffffffffffffffffffffff169060200190929190803573ffffffffffffffffffffffffffffffffffffffff1690602001909291908035906020019092919080359060200190640100000000811115610cff57600080fd5b820183602082011115610d1157600080fd5b80359060200191846001830284011164010000000083111715610d3357600080fd5b91908080601f016020809104026020016040519081016040528093929190818152602001838380828437600081840152601f19601f820116905080830192505050505050509192919290505050612700565b005b348015610d9357600080fd5b50610dc060048036036020811015610daa57600080fd5b8101908080359060200190929190505050612778565b005b348015610dce57600080fd5b50610dfb60048036036020811015610de557600080fd5b8101908080359060200190929190505050612831565b6040518080602001828103825283818151815260200191508051906020019080838360005b83811015610e3b578082015181840152602081019050610e20565b50505050905090810190601f168015610e685780820380516001836020036101000a031916815260200191505b509250505060405180910390f35b348015610e8257600080fd5b50610ecf60048036036040811015610e9957600080fd5b81019080803573ffffffffffffffffffffffffffffffffffffffff16906020019092919080359060200190929190505050612b02565b005b348015610edd57600080fd5b50610f4060048036036040811015610ef457600080fd5b81019080803573ffffffffffffffffffffffffffffffffffffffff169060200190929190803573ffffffffffffffffffffffffffffffffffffffff169060200190929190505050612e8a565b60405180821515815260200191505060405180910390f35b348015610f6457600080fd5b50610f6d612f1e565b6040518082815260200191505060405180910390f35b348015610f8f57600080fd5b50610fd260048036036020811015610fa657600080fd5b81019080803573ffffffffffffffffffffffffffffffffffffffff169060200190929190505050612f24565b005b600f5481565b6000806000837bffffffffffffffffffffffffffffffffffffffffffffffffffffffff19167bffffffffffffffffffffffffffffffffffffffffffffffffffffffff1916815260200190815260200160002060009054906101000a900460ff169050919050565b606060068054600181600116156101000203166002900480601f0160208091040260200160405190810160405280929190818152602001828054600181600116156101000203166002900480156110d95780601f106110ae576101008083540402835291602001916110d9565b820191906000526020600020905b8154815290600101906020018083116110bc57829003601f168201915b5050505050905090565b60006110ee82613119565b611143576040517f08c379a000000000000000000000000000000000000000000000000000000000815260040180806020018281038252602c81526020018061476c602c913960400191505060405180910390fd5b6004600083815260200190815260200160002060009054906101000a900473ffffffffffffffffffffffffffffffffffffffff169050919050565b6000611189826119db565b90508073ffffffffffffffffffffffffffffffffffffffff168373ffffffffffffffffffffffffffffffffffffffff161415611210576040517f08c379a00000000000000000000000000000000000000000000000000000000081526004018080602001828103825260218152602001806148196021913960400191505060405180910390fd5b8073ffffffffffffffffffffffffffffffffffffffff1661122f613136565b73ffffffffffffffffffffffffffffffffffffffff16148061125e575061125d81611258613136565b612e8a565b5b6112b3576040517f08c379a000000000000000000000000000000000000000000000000000000000815260040180806020018281038252603881526020018061469e6038913960400191505060405180910390fd5b6112bd838361313e565b505050565b60006112ce60026131f7565b905090565b601460009054906101000a900460ff1681565b6112f76112f1613136565b8261320c565b61134c576040517f08c379a000000000000000000000000000000000000000000000000000000000815260040180806020018281038252603181526020018061485e6031913960400191505060405180910390fd5b611357838383613300565b505050565b60006113af82600160008673ffffffffffffffffffffffffffffffffffffffff1673ffffffffffffffffffffffffffffffffffffffff16815260200190815260200160002061354390919063ffffffff16565b905092915050565b6060600c60009054906101000a900473ffffffffffffffffffffffffffffffffffffffff1673ffffffffffffffffffffffffffffffffffffffff16638462151c336040518263ffffffff1660e01b8152600401808273ffffffffffffffffffffffffffffffffffffffff16815260200191505060006040518083038186803b15801561144257600080fd5b505afa158015611456573d6000803e3d6000fd5b505050506040513d6000823e3d601f19601f82011682018060405250602081101561148057600080fd5b81019080805160405193929190846401000000008211156114a057600080fd5b838201915060208201858111156114b657600080fd5b82518660208202830111640100000000821117156114d357600080fd5b8083526020830192505050908051906020019060200280838360005b8381101561150a5780820151818401526020810190506114ef565b505050509050016040525050509050600f54611532825160135461355d90919063ffffffff16565b11156115a6576040517f08c379a00000000000000000000000000000000000000000000000000000000081526004018080602001828103825260168152602001807f4578636565647320746865204d41585f434c41494d2e0000000000000000000081525060200191505060405180910390fd5b60001515601560003373ffffffffffffffffffffffffffffffffffffffff1673ffffffffffffffffffffffffffffffffffffffff16815260200190815260200160002060009054906101000a900460ff1615151461166c576040517f08c379a00000000000000000000000000000000000000000000000000000000081526004018080602001828103825260198152602001807f43616e206f6e6c7920626520636c61696d6564206f6e63652e0000000000000081525060200191505060405180910390fd5b60011515601460009054906101000a900460ff161515146116f5576040517f08c379a00000000000000000000000000000000000000000000000000000000081526004018080602001828103825260148152602001807f53616c65206861736e277420737461727465642e00000000000000000000000081525060200191505060405180910390fd5b60005b815181101561174f576000611719600160135461355d90919063ffffffff16565b905061172533826135e5565b61173b600160135461355d90919063ffffffff16565b6013819055505080806001019150506116f8565b506001601560003373ffffffffffffffffffffffffffffffffffffffff1673ffffffffffffffffffffffffffffffffffffffff16815260200190815260200160002060006101000a81548160ff0219169083151502179055507f983bf7148e3e9ebde769e6a1d5b19b34b9c318555cfb03836448a9376bd68d45338251601354604051808473ffffffffffffffffffffffffffffffffffffffff168152602001838152602001828152602001935050505060405180910390a150565b61182683838360405180602001604052806000815250612700565b505050565b60008061184283600261360390919063ffffffff16565b50905080915050919050565b60135481565b61185c613136565b73ffffffffffffffffffffffffffffffffffffffff1661187a612085565b73ffffffffffffffffffffffffffffffffffffffff1614611903576040517f08c379a00000000000000000000000000000000000000000000000000000000081526004018080602001828103825260208152602001807f4f776e61626c653a2063616c6c6572206973206e6f7420746865206f776e657281525060200191505060405180910390fd5b6000601460006101000a81548160ff021916908315150217905550565b611928613136565b73ffffffffffffffffffffffffffffffffffffffff16611946612085565b73ffffffffffffffffffffffffffffffffffffffff16146119cf576040517f08c379a00000000000000000000000000000000000000000000000000000000081526004018080602001828103825260208152602001807f4f776e61626c653a2063616c6c6572206973206e6f7420746865206f776e657281525060200191505060405180910390fd5b6119d88161362f565b50565b6000611a0b826040518060600160405280602981526020016147006029913960026136499092919063ffffffff16565b9050919050565b611a1a613136565b73ffffffffffffffffffffffffffffffffffffffff16611a38612085565b73ffffffffffffffffffffffffffffffffffffffff1614611ac1576040517f08c379a00000000000000000000000000000000000000000000000000000000081526004018080602001828103825260208152602001807f4f776e61626c653a2063616c6c6572206973206e6f7420746865206f776e657281525060200191505060405180910390fd5b8060108190555050565b606060098054600181600116156101000203166002900480601f016020809104026020016040519081016040528092919081815260200182805460018160011615610100020316600290048015611b635780601f10611b3857610100808354040283529160200191611b63565b820191906000526020600020905b815481529060010190602001808311611b4657829003601f168201915b5050505050905090565b60008073ffffffffffffffffffffffffffffffffffffffff168273ffffffffffffffffffffffffffffffffffffffff161415611bf4576040517f08c379a000000000000000000000000000000000000000000000000000000000815260040180806020018281038252602a8152602001806146d6602a913960400191505060405180910390fd5b611c3b600160008473ffffffffffffffffffffffffffffffffffffffff1673ffffffffffffffffffffffffffffffffffffffff168152602001908152602001600020613668565b9050919050565b611c4a613136565b73ffffffffffffffffffffffffffffffffffffffff16611c68612085565b73ffffffffffffffffffffffffffffffffffffffff1614611cf1576040517f08c379a00000000000000000000000000000000000000000000000000000000081526004018080602001828103825260208152602001807f4f776e61626c653a2063616c6c6572206973206e6f7420746865206f776e657281525060200191505060405180910390fd5b600073ffffffffffffffffffffffffffffffffffffffff16600a60009054906101000a900473ffffffffffffffffffffffffffffffffffffffff1673ffffffffffffffffffffffffffffffffffffffff167f8be0079c531659141344cd1fd0a4f28419497f9722a3daafe3b4186f6b6457e060405160405180910390a36000600a60006101000a81548173ffffffffffffffffffffffffffffffffffffffff021916908373ffffffffffffffffffffffffffffffffffffffff160217905550565b60156020528060005260406000206000915054906101000a900460ff1681565b611dda613136565b73ffffffffffffffffffffffffffffffffffffffff16611df8612085565b73ffffffffffffffffffffffffffffffffffffffff1614611e81576040517f08c379a00000000000000000000000000000000000000000000000000000000081526004018080602001828103825260208152602001807f4f776e61626c653a2063616c6c6572206973206e6f7420746865206f776e657281525060200191505060405180910390fd5b80600d8190555050565b60606000611e9883611b6d565b90506000811415611ef357600067ffffffffffffffff81118015611ebb57600080fd5b50604051908082528060200260200182016040528015611eea5781602001602082028036833780820191505090505b50915050611f7f565b60608167ffffffffffffffff81118015611f0c57600080fd5b50604051908082528060200260200182016040528015611f3b5781602001602082028036833780820191505090505b50905060005b82811015611f7857611f53858261135c565b828281518110611f5f57fe5b6020026020010181815250508080600101915050611f41565b8193505050505b919050565b611f8c613136565b73ffffffffffffffffffffffffffffffffffffffff16611faa612085565b73ffffffffffffffffffffffffffffffffffffffff1614612033576040517f08c379a00000000000000000000000000000000000000000000000000000000081526004018080602001828103825260208152602001807f4f776e61626c653a2063616c6c6572206973206e6f7420746865206f776e657281525060200191505060405180910390fd5b3373ffffffffffffffffffffffffffffffffffffffff166108fc479081150290604051600060405180830381858888f1935050505061207157600080fd5b565b600d5481565b600e5481565b60105481565b6000600a60009054906101000a900473ffffffffffffffffffffffffffffffffffffffff16905090565b60125481565b606060078054600181600116156101000203166002900480601f01602080910402602001604051908101604052809291908181526020018280546001816001161561010002031660029004801561214d5780601f106121225761010080835404028352916020019161214d565b820191906000526020600020905b81548152906001019060200180831161213057829003601f168201915b5050505050905090565b61215f613136565b73ffffffffffffffffffffffffffffffffffffffff168273ffffffffffffffffffffffffffffffffffffffff161415612200576040517f08c379a00000000000000000000000000000000000000000000000000000000081526004018080602001828103825260198152602001807f4552433732313a20617070726f766520746f2063616c6c65720000000000000081525060200191505060405180910390fd5b806005600061220d613136565b73ffffffffffffffffffffffffffffffffffffffff1673ffffffffffffffffffffffffffffffffffffffff16815260200190815260200160002060008473ffffffffffffffffffffffffffffffffffffffff1673ffffffffffffffffffffffffffffffffffffffff16815260200190815260200160002060006101000a81548160ff0219169083151502179055508173ffffffffffffffffffffffffffffffffffffffff166122ba613136565b73ffffffffffffffffffffffffffffffffffffffff167f17307eab39ab6107e8899845ad3d59bd9653f200f220920489ca2b5937696c318360405180821515815260200191505060405180910390a35050565b612315613136565b73ffffffffffffffffffffffffffffffffffffffff16612333612085565b73ffffffffffffffffffffffffffffffffffffffff16146123bc576040517f08c379a00000000000000000000000000000000000000000000000000000000081526004018080602001828103825260208152602001807f4f776e61626c653a2063616c6c6572206973206e6f7420746865206f776e657281525060200191505060405180910390fd5b6001601460006101000a81548160ff021916908315150217905550565b60011515601460009054906101000a900460ff16151514612462576040517f08c379a00000000000000000000000000000000000000000000000000000000081526004018080602001828103825260148152602001807f53616c65206861736e277420737461727465642e00000000000000000000000081525060200191505060405180910390fd5b600d5461246d6112c2565b106124e0576040517f08c379a00000000000000000000000000000000000000000000000000000000081526004018080602001828103825260098152602001807f536f6c64206f757421000000000000000000000000000000000000000000000081525060200191505060405180910390fd5b6000811180156124f1575060328111155b612546576040517f08c379a00000000000000000000000000000000000000000000000000000000081526004018080602001828103825260298152602001806147986029913960400191505060405180910390fd5b600d54612563826125556112c2565b61355d90919063ffffffff16565b11156125d7576040517f08c379a00000000000000000000000000000000000000000000000000000000081526004018080602001828103825260148152602001807f45786365656473204d41585f53414d555241492e00000000000000000000000081525060200191505060405180910390fd5b6125ec8160105461367d90919063ffffffff16565b341015612644576040517f08c379a000000000000000000000000000000000000000000000000000000000815260040180806020018281038252602481526020018061483a6024913960400191505060405180910390fd5b60005b8181101561269d576000612667600160125461355d90919063ffffffff16565b905061267333826135e5565b612689600160125461355d90919063ffffffff16565b601281905550508080600101915050612647565b507f9670c8b300c38cd3db8d3f9429dd902e67f418c4dd193e2497f06d20efc795603382601254604051808473ffffffffffffffffffffffffffffffffffffffff168152602001838152602001828152602001935050505060405180910390a150565b61271161270b613136565b8361320c565b612766576040517f08c379a000000000000000000000000000000000000000000000000000000000815260040180806020018281038252603181526020018061485e6031913960400191505060405180910390fd5b61277284848484613703565b50505050565b612780613136565b73ffffffffffffffffffffffffffffffffffffffff1661279e612085565b73ffffffffffffffffffffffffffffffffffffffff1614612827576040517f08c379a00000000000000000000000000000000000000000000000000000000081526004018080602001828103825260208152602001807f4f776e61626c653a2063616c6c6572206973206e6f7420746865206f776e657281525060200191505060405180910390fd5b80600e8190555050565b606061283c82613119565b612891576040517f08c379a000000000000000000000000000000000000000000000000000000000815260040180806020018281038252602f8152602001806147ea602f913960400191505060405180910390fd5b6060600860008481526020019081526020016000208054600181600116156101000203166002900480601f01602080910402602001604051908101604052809291908181526020018280546001816001161561010002031660029004801561293a5780601f1061290f5761010080835404028352916020019161293a565b820191906000526020600020905b81548152906001019060200180831161291d57829003601f168201915b50505050509050606061294b611acb565b9050600081511415612961578192505050612afd565b600082511115612a325780826040516020018083805190602001908083835b602083106129a35780518252602082019150602081019050602083039250612980565b6001836020036101000a03801982511681845116808217855250505050505090500182805190602001908083835b602083106129f457805182526020820191506020810190506020830392506129d1565b6001836020036101000a0380198251168184511680821785525050505050509050019250505060405160208183030381529060405292505050612afd565b80612a3c85613775565b6040516020018083805190602001908083835b60208310612a725780518252602082019150602081019050602083039250612a4f565b6001836020036101000a03801982511681845116808217855250505050505090500182805190602001908083835b60208310612ac35780518252602082019150602081019050602083039250612aa0565b6001836020036101000a03801982511681845116808217855250505050505090500192505050604051602081830303815290604052925050505b919050565b612b0a613136565b73ffffffffffffffffffffffffffffffffffffffff16612b28612085565b73ffffffffffffffffffffffffffffffffffffffff1614612bb1576040517f08c379a00000000000000000000000000000000000000000000000000000000081526004018080602001828103825260208152602001807f4f776e61626c653a2063616c6c6572206973206e6f7420746865206f776e657281525060200191505060405180910390fd5b600d54612bbc6112c2565b10612c2f576040517f08c379a000000000000000000000000000000000000000000000000000000000815260040180806020018281038252600a8152602001807f536f6c64206f757421210000000000000000000000000000000000000000000081525060200191505060405180910390fd5b600081118015612c40575060328111155b612c95576040517f08c379a00000000000000000000000000000000000000000000000000000000081526004018080602001828103825260298152602001806147986029913960400191505060405180910390fd5b600d54612cb282612ca46112c2565b61355d90919063ffffffff16565b1115612d26576040517f08c379a00000000000000000000000000000000000000000000000000000000081526004018080602001828103825260148152602001807f45786365656473204d41585f53414d555241492e00000000000000000000000081525060200191505060405180910390fd5b600e54612d3e8260115461355d90919063ffffffff16565b1115612db2576040517f08c379a000000000000000000000000000000000000000000000000000000000815260040180806020018281038252601a8152602001807f4578636565647320746865204d41585f4749564541574159532e00000000000081525060200191505060405180910390fd5b60005b81811015612e0b576000612dd5600160125461355d90919063ffffffff16565b9050612de184826135e5565b612df7600160125461355d90919063ffffffff16565b601281905550508080600101915050612db5565b50612e218160115461355d90919063ffffffff16565b6011819055507f9670c8b300c38cd3db8d3f9429dd902e67f418c4dd193e2497f06d20efc795608282601254604051808473ffffffffffffffffffffffffffffffffffffffff168152602001838152602001828152602001935050505060405180910390a15050565b6000600560008473ffffffffffffffffffffffffffffffffffffffff1673ffffffffffffffffffffffffffffffffffffffff16815260200190815260200160002060008373ffffffffffffffffffffffffffffffffffffffff1673ffffffffffffffffffffffffffffffffffffffff16815260200190815260200160002060009054906101000a900460ff16905092915050565b60115481565b612f2c613136565b73ffffffffffffffffffffffffffffffffffffffff16612f4a612085565b73ffffffffffffffffffffffffffffffffffffffff1614612fd3576040517f08c379a00000000000000000000000000000000000000000000000000000000081526004018080602001828103825260208152602001807f4f776e61626c653a2063616c6c6572206973206e6f7420746865206f776e657281525060200191505060405180910390fd5b600073ffffffffffffffffffffffffffffffffffffffff168173ffffffffffffffffffffffffffffffffffffffff161415613059576040517f08c379a00000000000000000000000000000000000000000000000000000000081526004018080602001828103825260268152602001806146026026913960400191505060405180910390fd5b8073ffffffffffffffffffffffffffffffffffffffff16600a60009054906101000a900473ffffffffffffffffffffffffffffffffffffffff1673ffffffffffffffffffffffffffffffffffffffff167f8be0079c531659141344cd1fd0a4f28419497f9722a3daafe3b4186f6b6457e060405160405180910390a380600a60006101000a81548173ffffffffffffffffffffffffffffffffffffffff021916908373ffffffffffffffffffffffffffffffffffffffff16021790555050565b600061312f8260026138bc90919063ffffffff16565b9050919050565b600033905090565b816004600083815260200190815260200160002060006101000a81548173ffffffffffffffffffffffffffffffffffffffff021916908373ffffffffffffffffffffffffffffffffffffffff160217905550808273ffffffffffffffffffffffffffffffffffffffff166131b1836119db565b73ffffffffffffffffffffffffffffffffffffffff167f8c5be1e5ebec7d5bd14f71427d1e84f3dd0314c0f7b2291e5b200ac8c7c3b92560405160405180910390a45050565b6000613205826000016138d6565b9050919050565b600061321782613119565b61326c576040517f08c379a000000000000000000000000000000000000000000000000000000000815260040180806020018281038252602c815260200180614672602c913960400191505060405180910390fd5b6000613277836119db565b90508073ffffffffffffffffffffffffffffffffffffffff168473ffffffffffffffffffffffffffffffffffffffff1614806132e657508373ffffffffffffffffffffffffffffffffffffffff166132ce846110e3565b73ffffffffffffffffffffffffffffffffffffffff16145b806132f757506132f68185612e8a565b5b91505092915050565b8273ffffffffffffffffffffffffffffffffffffffff16613320826119db565b73ffffffffffffffffffffffffffffffffffffffff161461338c576040517f08c379a00000000000000000000000000000000000000000000000000000000081526004018080602001828103825260298152602001806147c16029913960400191505060405180910390fd5b600073ffffffffffffffffffffffffffffffffffffffff168273ffffffffffffffffffffffffffffffffffffffff161415613412576040517f08c379a00000000000000000000000000000000000000000000000000000000081526004018080602001828103825260248152602001806146286024913960400191505060405180910390fd5b61341d8383836138e7565b61342860008261313e565b61347981600160008673ffffffffffffffffffffffffffffffffffffffff1673ffffffffffffffffffffffffffffffffffffffff1681526020019081526020016000206138ec90919063ffffffff16565b506134cb81600160008573ffffffffffffffffffffffffffffffffffffffff1673ffffffffffffffffffffffffffffffffffffffff16815260200190815260200160002061390690919063ffffffff16565b506134e2818360026139209092919063ffffffff16565b50808273ffffffffffffffffffffffffffffffffffffffff168473ffffffffffffffffffffffffffffffffffffffff167fddf252ad1be2c89b69c2b068fc378daa952ba7f163c4a11628f55a4df523b3ef60405160405180910390a4505050565b60006135528360000183613955565b60001c905092915050565b6000808284019050838110156135db576040517f08c379a000000000000000000000000000000000000000000000000000000000815260040180806020018281038252601b8152602001807f536166654d6174683a206164646974696f6e206f766572666c6f77000000000081525060200191505060405180910390fd5b8091505092915050565b6135ff8282604051806020016040528060008152506139d8565b5050565b6000806000806136168660000186613a49565b915091508160001c8160001c9350935050509250929050565b8060099080519060200190613645929190614510565b5050565b600061365c846000018460001b84613ae2565b60001c90509392505050565b600061367682600001613bd8565b9050919050565b60008083141561369057600090506136fd565b60008284029050828482816136a157fe5b04146136f8576040517f08c379a000000000000000000000000000000000000000000000000000000000815260040180806020018281038252602181526020018061474b6021913960400191505060405180910390fd5b809150505b92915050565b61370e848484613300565b61371a84848484613be9565b61376f576040517f08c379a00000000000000000000000000000000000000000000000000000000081526004018080602001828103825260328152602001806145d06032913960400191505060405180910390fd5b50505050565b606060008214156137bd576040518060400160405280600181526020017f300000000000000000000000000000000000000000000000000000000000000081525090506138b7565b600082905060005b600082146137e7578080600101915050600a82816137df57fe5b0491506137c5565b60608167ffffffffffffffff8111801561380057600080fd5b506040519080825280601f01601f1916602001820160405280156138335781602001600182028036833780820191505090505b50905060006001830390508593505b600084146138af57600a848161385457fe5b0660300160f81b8282806001900393508151811061386e57fe5b60200101907effffffffffffffffffffffffffffffffffffffffffffffffffffffffffffff1916908160001a905350600a84816138a757fe5b049350613842565b819450505050505b919050565b60006138ce836000018360001b613e02565b905092915050565b600081600001805490509050919050565b505050565b60006138fe836000018360001b613e25565b905092915050565b6000613918836000018360001b613f0d565b905092915050565b600061394c846000018460001b8473ffffffffffffffffffffffffffffffffffffffff1660001b613f7d565b90509392505050565b6000818360000180549050116139b6576040517f08c379a00000000000000000000000000000000000000000000000000000000081526004018080602001828103825260228152602001806145ae6022913960400191505060405180910390fd5b8260000182815481106139c557fe5b9060005260206000200154905092915050565b6139e28383614059565b6139ef6000848484613be9565b613a44576040517f08c379a00000000000000000000000000000000000000000000000000000000081526004018080602001828103825260328152602001806145d06032913960400191505060405180910390fd5b505050565b60008082846000018054905011613aab576040517f08c379a00000000000000000000000000000000000000000000000000000000081526004018080602001828103825260228152602001806147296022913960400191505060405180910390fd5b6000846000018481548110613abc57fe5b906000526020600020906002020190508060000154816001015492509250509250929050565b60008084600101600085815260200190815260200160002054905060008114158390613ba9576040517f08c379a00000000000000000000000000000000000000000000000000000000081526004018080602001828103825283818151815260200191508051906020019080838360005b83811015613b6e578082015181840152602081019050613b53565b50505050905090810190601f168015613b9b5780820380516001836020036101000a031916815260200191505b509250505060405180910390fd5b50846000016001820381548110613bbc57fe5b9060005260206000209060020201600101549150509392505050565b600081600001805490509050919050565b6000613c0a8473ffffffffffffffffffffffffffffffffffffffff1661424d565b613c175760019050613dfa565b6060613d8163150b7a0260e01b613c2c613136565b888787604051602401808573ffffffffffffffffffffffffffffffffffffffff1681526020018473ffffffffffffffffffffffffffffffffffffffff16815260200183815260200180602001828103825283818151815260200191508051906020019080838360005b83811015613cb0578082015181840152602081019050613c95565b50505050905090810190601f168015613cdd5780820380516001836020036101000a031916815260200191505b5095505050505050604051602081830303815290604052907bffffffffffffffffffffffffffffffffffffffffffffffffffffffff19166020820180517bffffffffffffffffffffffffffffffffffffffffffffffffffffffff83818316178352505050506040518060600160405280603281526020016145d0603291398773ffffffffffffffffffffffffffffffffffffffff166142609092919063ffffffff16565b90506000818060200190516020811015613d9a57600080fd5b8101908080519060200190929190505050905063150b7a0260e01b7bffffffffffffffffffffffffffffffffffffffffffffffffffffffff1916817bffffffffffffffffffffffffffffffffffffffffffffffffffffffff191614925050505b949350505050565b600080836001016000848152602001908152602001600020541415905092915050565b60008083600101600084815260200190815260200160002054905060008114613f015760006001820390506000600186600001805490500390506000866000018281548110613e7057fe5b9060005260206000200154905080876000018481548110613e8d57fe5b9060005260206000200181905550600183018760010160008381526020019081526020016000208190555086600001805480613ec557fe5b60019003818190600052602060002001600090559055866001016000878152602001908152602001600020600090556001945050505050613f07565b60009150505b92915050565b6000613f198383614278565b613f72578260000182908060018154018082558091505060019003906000526020600020016000909190919091505582600001805490508360010160008481526020019081526020016000208190555060019050613f77565b600090505b92915050565b600080846001016000858152602001908152602001600020549050600081141561402457846000016040518060400160405280868152602001858152509080600181540180825580915050600190039060005260206000209060020201600090919091909150600082015181600001556020820151816001015550508460000180549050856001016000868152602001908152602001600020819055506001915050614052565b8285600001600183038154811061403757fe5b90600052602060002090600202016001018190555060009150505b9392505050565b600073ffffffffffffffffffffffffffffffffffffffff168273ffffffffffffffffffffffffffffffffffffffff1614156140fc576040517f08c379a00000000000000000000000000000000000000000000000000000000081526004018080602001828103825260208152602001807f4552433732313a206d696e7420746f20746865207a65726f206164647265737381525060200191505060405180910390fd5b61410581613119565b15614178576040517f08c379a000000000000000000000000000000000000000000000000000000000815260040180806020018281038252601c8152602001807f4552433732313a20746f6b656e20616c7265616479206d696e7465640000000081525060200191505060405180910390fd5b614184600083836138e7565b6141d581600160008573ffffffffffffffffffffffffffffffffffffffff1673ffffffffffffffffffffffffffffffffffffffff16815260200190815260200160002061390690919063ffffffff16565b506141ec818360026139209092919063ffffffff16565b50808273ffffffffffffffffffffffffffffffffffffffff16600073ffffffffffffffffffffffffffffffffffffffff167fddf252ad1be2c89b69c2b068fc378daa952ba7f163c4a11628f55a4df523b3ef60405160405180910390a45050565b600080823b905060008111915050919050565b606061426f848460008561429b565b90509392505050565b600080836001016000848152602001908152602001600020541415905092915050565b6060824710156142f6576040517f08c379a000000000000000000000000000000000000000000000000000000000815260040180806020018281038252602681526020018061464c6026913960400191505060405180910390fd5b6142ff8561424d565b614371576040517f08c379a000000000000000000000000000000000000000000000000000000000815260040180806020018281038252601d8152602001807f416464726573733a2063616c6c20746f206e6f6e2d636f6e747261637400000081525060200191505060405180910390fd5b600060608673ffffffffffffffffffffffffffffffffffffffff1685876040518082805190602001908083835b602083106143c1578051825260208201915060208101905060208303925061439e565b6001836020036101000a03801982511681845116808217855250505050505090500191505060006040518083038185875af1925050503d8060008114614423576040519150601f19603f3d011682016040523d82523d6000602084013e614428565b606091505b5091509150614438828286614444565b92505050949350505050565b6060831561445457829050614509565b6000835111156144675782518084602001fd5b816040517f08c379a00000000000000000000000000000000000000000000000000000000081526004018080602001828103825283818151815260200191508051906020019080838360005b838110156144ce5780820151818401526020810190506144b3565b50505050905090810190601f1680156144fb5780820380516001836020036101000a031916815260200191505b509250505060405180910390fd5b9392505050565b828054600181600116156101000203166002900490600052602060002090601f016020900481019282601f1061455157805160ff191683800117855561457f565b8280016001018555821561457f579182015b8281111561457e578251825591602001919060010190614563565b5b50905061458c9190614590565b5090565b5b808211156145a9576000816000905550600101614591565b509056fe456e756d657261626c655365743a20696e646578206f7574206f6620626f756e64734552433732313a207472616e7366657220746f206e6f6e20455243373231526563656976657220696d706c656d656e7465724f776e61626c653a206e6577206f776e657220697320746865207a65726f20616464726573734552433732313a207472616e7366657220746f20746865207a65726f2061646472657373416464726573733a20696e73756666696369656e742062616c616e636520666f722063616c6c4552433732313a206f70657261746f7220717565727920666f72206e6f6e6578697374656e7420746f6b656e4552433732313a20617070726f76652063616c6c6572206973206e6f74206f776e6572206e6f7220617070726f76656420666f7220616c6c4552433732313a2062616c616e636520717565727920666f7220746865207a65726f20616464726573734552433732313a206f776e657220717565727920666f72206e6f6e6578697374656e7420746f6b656e456e756d657261626c654d61703a20696e646578206f7574206f6620626f756e6473536166654d6174683a206d756c7469706c69636174696f6e206f766572666c6f774552433732313a20617070726f76656420717565727920666f72206e6f6e6578697374656e7420746f6b656e596f752063616e206d696e74206d696e696d756d20312c206d6178696d756d2035302070756e6b732e4552433732313a207472616e73666572206f6620746f6b656e2074686174206973206e6f74206f776e4552433732314d657461646174613a2055524920717565727920666f72206e6f6e6578697374656e7420746f6b656e4552433732313a20617070726f76616c20746f2063757272656e74206f776e657245746865722076616c75652073656e742069732062656c6f77207468652070726963652e4552433732313a207472616e736665722063616c6c6572206973206e6f74206f776e6572206e6f7220617070726f766564a2646970667358221220cccf33c97bd3b30fe1b63f9eaf7823e30523ee233fd496144758367419e977c164736f6c63430007030033687474703a2f2f6170692e6b6174616e616e73616d757261692e6172742f4d657461646174612f",
  "devdoc": {
    "kind": "dev",
    "methods": {
      "approve(address,uint256)": {
        "details": "See {IERC721-approve}."
      },
      "balanceOf(address)": {
        "details": "See {IERC721-balanceOf}."
      },
      "baseURI()": {
        "details": "Returns the base URI set via {_setBaseURI}. This will be automatically added as a prefix in {tokenURI} to each token's URI, or to the token ID if no specific URI is set for that token ID."
      },
      "getApproved(uint256)": {
        "details": "See {IERC721-getApproved}."
      },
      "isApprovedForAll(address,address)": {
        "details": "See {IERC721-isApprovedForAll}."
      },
      "name()": {
        "details": "See {IERC721Metadata-name}."
      },
      "owner()": {
        "details": "Returns the address of the current owner."
      },
      "ownerOf(uint256)": {
        "details": "See {IERC721-ownerOf}."
      },
      "renounceOwnership()": {
        "details": "Leaves the contract without owner. It will not be possible to call `onlyOwner` functions anymore. Can only be called by the current owner. NOTE: Renouncing ownership will leave the contract without an owner, thereby removing any functionality that is only available to the owner."
      },
      "safeTransferFrom(address,address,uint256)": {
        "details": "See {IERC721-safeTransferFrom}."
      },
      "safeTransferFrom(address,address,uint256,bytes)": {
        "details": "See {IERC721-safeTransferFrom}."
      },
      "setApprovalForAll(address,bool)": {
        "details": "See {IERC721-setApprovalForAll}."
      },
      "supportsInterface(bytes4)": {
        "details": "See {IERC165-supportsInterface}. Time complexity O(1), guaranteed to always use less than 30 000 gas."
      },
      "symbol()": {
        "details": "See {IERC721Metadata-symbol}."
      },
      "tokenByIndex(uint256)": {
        "details": "See {IERC721Enumerable-tokenByIndex}."
      },
      "tokenOfOwnerByIndex(address,uint256)": {
        "details": "See {IERC721Enumerable-tokenOfOwnerByIndex}."
      },
      "tokenURI(uint256)": {
        "details": "See {IERC721Metadata-tokenURI}."
      },
      "totalSupply()": {
        "details": "See {IERC721Enumerable-totalSupply}."
      },
      "transferFrom(address,address,uint256)": {
        "details": "See {IERC721-transferFrom}."
      },
      "transferOwnership(address)": {
        "details": "Transfers ownership of the contract to a new account (`newOwner`). Can only be called by the current owner."
      }
    },
    "version": 1
  },
  "userdoc": {
    "kind": "user",
    "methods": {},
    "version": 1
  },
  "storageLayout": {
    "storage": [
      {
        "astId": 123,
        "contract": "contracts/KatanaNSamurai2.sol:KatanaNSamurai2",
        "label": "_supportedInterfaces",
        "offset": 0,
        "slot": "0",
        "type": "t_mapping(t_bytes4,t_bool)"
      },
      {
        "astId": 579,
        "contract": "contracts/KatanaNSamurai2.sol:KatanaNSamurai2",
        "label": "_holderTokens",
        "offset": 0,
        "slot": "1",
        "type": "t_mapping(t_address,t_struct(UintSet)2944_storage)"
      },
      {
        "astId": 581,
        "contract": "contracts/KatanaNSamurai2.sol:KatanaNSamurai2",
        "label": "_tokenOwners",
        "offset": 0,
        "slot": "2",
        "type": "t_struct(UintToAddressMap)2321_storage"
      },
      {
        "astId": 585,
        "contract": "contracts/KatanaNSamurai2.sol:KatanaNSamurai2",
        "label": "_tokenApprovals",
        "offset": 0,
        "slot": "4",
        "type": "t_mapping(t_uint256,t_address)"
      },
      {
        "astId": 591,
        "contract": "contracts/KatanaNSamurai2.sol:KatanaNSamurai2",
        "label": "_operatorApprovals",
        "offset": 0,
        "slot": "5",
        "type": "t_mapping(t_address,t_mapping(t_address,t_bool))"
      },
      {
        "astId": 593,
        "contract": "contracts/KatanaNSamurai2.sol:KatanaNSamurai2",
        "label": "_name",
        "offset": 0,
        "slot": "6",
        "type": "t_string_storage"
      },
      {
        "astId": 595,
        "contract": "contracts/KatanaNSamurai2.sol:KatanaNSamurai2",
        "label": "_symbol",
        "offset": 0,
        "slot": "7",
        "type": "t_string_storage"
      },
      {
        "astId": 599,
        "contract": "contracts/KatanaNSamurai2.sol:KatanaNSamurai2",
        "label": "_tokenURIs",
        "offset": 0,
        "slot": "8",
        "type": "t_mapping(t_uint256,t_string_storage)"
      },
      {
        "astId": 601,
        "contract": "contracts/KatanaNSamurai2.sol:KatanaNSamurai2",
        "label": "_baseURI",
        "offset": 0,
        "slot": "9",
        "type": "t_string_storage"
      },
      {
        "astId": 7,
        "contract": "contracts/KatanaNSamurai2.sol:KatanaNSamurai2",
        "label": "_owner",
        "offset": 0,
        "slot": "10",
        "type": "t_address"
      },
      {
        "astId": 3149,
        "contract": "contracts/KatanaNSamurai2.sol:KatanaNSamurai2",
        "label": "KNS1Address",
        "offset": 0,
        "slot": "11",
        "type": "t_address"
      },
      {
        "astId": 3154,
        "contract": "contracts/KatanaNSamurai2.sol:KatanaNSamurai2",
        "label": "KNS1Contract",
        "offset": 0,
        "slot": "12",
        "type": "t_contract(KNS1Interface)3139"
      },
      {
        "astId": 3157,
        "contract": "contracts/KatanaNSamurai2.sol:KatanaNSamurai2",
        "label": "MAX_SAMURAI",
        "offset": 0,
        "slot": "13",
        "type": "t_uint256"
      },
      {
        "astId": 3160,
        "contract": "contracts/KatanaNSamurai2.sol:KatanaNSamurai2",
        "label": "MAX_GIVEAWAYS",
        "offset": 0,
        "slot": "14",
        "type": "t_uint256"
      },
      {
        "astId": 3163,
        "contract": "contracts/KatanaNSamurai2.sol:KatanaNSamurai2",
        "label": "MAX_CLAIM",
        "offset": 0,
        "slot": "15",
        "type": "t_uint256"
      },
      {
        "astId": 3166,
        "contract": "contracts/KatanaNSamurai2.sol:KatanaNSamurai2",
        "label": "PRICE",
        "offset": 0,
        "slot": "16",
        "type": "t_uint256"
      },
      {
        "astId": 3169,
        "contract": "contracts/KatanaNSamurai2.sol:KatanaNSamurai2",
        "label": "numGiveaways",
        "offset": 0,
        "slot": "17",
        "type": "t_uint256"
      },
      {
        "astId": 3172,
        "contract": "contracts/KatanaNSamurai2.sol:KatanaNSamurai2",
        "label": "numTokens",
        "offset": 0,
        "slot": "18",
        "type": "t_uint256"
      },
      {
        "astId": 3175,
        "contract": "contracts/KatanaNSamurai2.sol:KatanaNSamurai2",
        "label": "numClaim",
        "offset": 0,
        "slot": "19",
        "type": "t_uint256"
      },
      {
        "astId": 3178,
        "contract": "contracts/KatanaNSamurai2.sol:KatanaNSamurai2",
        "label": "hasSaleStarted",
        "offset": 0,
        "slot": "20",
        "type": "t_bool"
      },
      {
        "astId": 3182,
        "contract": "contracts/KatanaNSamurai2.sol:KatanaNSamurai2",
        "label": "hasClaimed",
        "offset": 0,
        "slot": "21",
        "type": "t_mapping(t_address,t_bool)"
      }
    ],
    "types": {
      "t_address": {
        "encoding": "inplace",
        "label": "address",
        "numberOfBytes": "20"
      },
      "t_array(t_bytes32)dyn_storage": {
        "base": "t_bytes32",
        "encoding": "dynamic_array",
        "label": "bytes32[]",
        "numberOfBytes": "32"
      },
      "t_array(t_struct(MapEntry)1995_storage)dyn_storage": {
        "base": "t_struct(MapEntry)1995_storage",
        "encoding": "dynamic_array",
        "label": "struct EnumerableMap.MapEntry[]",
        "numberOfBytes": "32"
      },
      "t_bool": {
        "encoding": "inplace",
        "label": "bool",
        "numberOfBytes": "1"
      },
      "t_bytes32": {
        "encoding": "inplace",
        "label": "bytes32",
        "numberOfBytes": "32"
      },
      "t_bytes4": {
        "encoding": "inplace",
        "label": "bytes4",
        "numberOfBytes": "4"
      },
      "t_contract(KNS1Interface)3139": {
        "encoding": "inplace",
        "label": "contract KNS1Interface",
        "numberOfBytes": "20"
      },
      "t_mapping(t_address,t_bool)": {
        "encoding": "mapping",
        "key": "t_address",
        "label": "mapping(address => bool)",
        "numberOfBytes": "32",
        "value": "t_bool"
      },
      "t_mapping(t_address,t_mapping(t_address,t_bool))": {
        "encoding": "mapping",
        "key": "t_address",
        "label": "mapping(address => mapping(address => bool))",
        "numberOfBytes": "32",
        "value": "t_mapping(t_address,t_bool)"
      },
      "t_mapping(t_address,t_struct(UintSet)2944_storage)": {
        "encoding": "mapping",
        "key": "t_address",
        "label": "mapping(address => struct EnumerableSet.UintSet)",
        "numberOfBytes": "32",
        "value": "t_struct(UintSet)2944_storage"
      },
      "t_mapping(t_bytes32,t_uint256)": {
        "encoding": "mapping",
        "key": "t_bytes32",
        "label": "mapping(bytes32 => uint256)",
        "numberOfBytes": "32",
        "value": "t_uint256"
      },
      "t_mapping(t_bytes4,t_bool)": {
        "encoding": "mapping",
        "key": "t_bytes4",
        "label": "mapping(bytes4 => bool)",
        "numberOfBytes": "32",
        "value": "t_bool"
      },
      "t_mapping(t_uint256,t_address)": {
        "encoding": "mapping",
        "key": "t_uint256",
        "label": "mapping(uint256 => address)",
        "numberOfBytes": "32",
        "value": "t_address"
      },
      "t_mapping(t_uint256,t_string_storage)": {
        "encoding": "mapping",
        "key": "t_uint256",
        "label": "mapping(uint256 => string)",
        "numberOfBytes": "32",
        "value": "t_string_storage"
      },
      "t_string_storage": {
        "encoding": "bytes",
        "label": "string",
        "numberOfBytes": "32"
      },
      "t_struct(Map)2003_storage": {
        "encoding": "inplace",
        "label": "struct EnumerableMap.Map",
        "members": [
          {
            "astId": 1998,
            "contract": "contracts/KatanaNSamurai2.sol:KatanaNSamurai2",
            "label": "_entries",
            "offset": 0,
            "slot": "0",
            "type": "t_array(t_struct(MapEntry)1995_storage)dyn_storage"
          },
          {
            "astId": 2002,
            "contract": "contracts/KatanaNSamurai2.sol:KatanaNSamurai2",
            "label": "_indexes",
            "offset": 0,
            "slot": "1",
            "type": "t_mapping(t_bytes32,t_uint256)"
          }
        ],
        "numberOfBytes": "64"
      },
      "t_struct(MapEntry)1995_storage": {
        "encoding": "inplace",
        "label": "struct EnumerableMap.MapEntry",
        "members": [
          {
            "astId": 1992,
            "contract": "contracts/KatanaNSamurai2.sol:KatanaNSamurai2",
            "label": "_key",
            "offset": 0,
            "slot": "0",
            "type": "t_bytes32"
          },
          {
            "astId": 1994,
            "contract": "contracts/KatanaNSamurai2.sol:KatanaNSamurai2",
            "label": "_value",
            "offset": 0,
            "slot": "1",
            "type": "t_bytes32"
          }
        ],
        "numberOfBytes": "64"
      },
      "t_struct(Set)2558_storage": {
        "encoding": "inplace",
        "label": "struct EnumerableSet.Set",
        "members": [
          {
            "astId": 2553,
            "contract": "contracts/KatanaNSamurai2.sol:KatanaNSamurai2",
            "label": "_values",
            "offset": 0,
            "slot": "0",
            "type": "t_array(t_bytes32)dyn_storage"
          },
          {
            "astId": 2557,
            "contract": "contracts/KatanaNSamurai2.sol:KatanaNSamurai2",
            "label": "_indexes",
            "offset": 0,
            "slot": "1",
            "type": "t_mapping(t_bytes32,t_uint256)"
          }
        ],
        "numberOfBytes": "64"
      },
      "t_struct(UintSet)2944_storage": {
        "encoding": "inplace",
        "label": "struct EnumerableSet.UintSet",
        "members": [
          {
            "astId": 2943,
            "contract": "contracts/KatanaNSamurai2.sol:KatanaNSamurai2",
            "label": "_inner",
            "offset": 0,
            "slot": "0",
            "type": "t_struct(Set)2558_storage"
          }
        ],
        "numberOfBytes": "64"
      },
      "t_struct(UintToAddressMap)2321_storage": {
        "encoding": "inplace",
        "label": "struct EnumerableMap.UintToAddressMap",
        "members": [
          {
            "astId": 2320,
            "contract": "contracts/KatanaNSamurai2.sol:KatanaNSamurai2",
            "label": "_inner",
            "offset": 0,
            "slot": "0",
            "type": "t_struct(Map)2003_storage"
          }
        ],
        "numberOfBytes": "64"
      },
      "t_uint256": {
        "encoding": "inplace",
        "label": "uint256",
        "numberOfBytes": "32"
      }
    }
  }
}