{
  "address": "0xF8a1883F1b84964Dc4444333FdbA9805BF9215e5",
  "abi": [
    {
      "inputs": [],
      "stateMutability": "nonpayable",
      "type": "constructor"
    },
    {
      "anonymous": false,
      "inputs": [
        {
          "indexed": true,
          "internalType": "address",
          "name": "owner",
          "type": "address"
        },
        {
          "indexed": true,
          "internalType": "address",
          "name": "approved",
          "type": "address"
        },
        {
          "indexed": true,
          "internalType": "uint256",
          "name": "tokenId",
          "type": "uint256"
        }
      ],
      "name": "Approval",
      "type": "event"
    },
    {
      "anonymous": false,
      "inputs": [
        {
          "indexed": true,
          "internalType": "address",
          "name": "owner",
          "type": "address"
        },
        {
          "indexed": true,
          "internalType": "address",
          "name": "operator",
          "type": "address"
        },
        {
          "indexed": false,
          "internalType": "bool",
          "name": "approved",
          "type": "bool"
        }
      ],
      "name": "ApprovalForAll",
      "type": "event"
    },
    {
      "anonymous": false,
      "inputs": [
        {
          "indexed": true,
          "internalType": "address",
          "name": "previousOwner",
          "type": "address"
        },
        {
          "indexed": true,
          "internalType": "address",
          "name": "newOwner",
          "type": "address"
        }
      ],
      "name": "OwnershipTransferred",
      "type": "event"
    },
    {
      "anonymous": false,
      "inputs": [
        {
          "indexed": true,
          "internalType": "address",
          "name": "from",
          "type": "address"
        },
        {
          "indexed": true,
          "internalType": "address",
          "name": "to",
          "type": "address"
        },
        {
          "indexed": true,
          "internalType": "uint256",
          "name": "tokenId",
          "type": "uint256"
        }
      ],
      "name": "Transfer",
      "type": "event"
    },
    {
      "anonymous": false,
      "inputs": [
        {
          "indexed": false,
          "internalType": "address",
          "name": "owner",
          "type": "address"
        },
        {
          "indexed": false,
          "internalType": "uint256",
          "name": "numClaims",
          "type": "uint256"
        },
        {
          "indexed": false,
          "internalType": "uint256",
          "name": "totalClaim",
          "type": "uint256"
        }
      ],
      "name": "claimEvent",
      "type": "event"
    },
    {
      "anonymous": false,
      "inputs": [
        {
          "indexed": false,
          "internalType": "address",
          "name": "owner",
          "type": "address"
        },
        {
          "indexed": false,
          "internalType": "uint256",
          "name": "numPurchase",
          "type": "uint256"
        },
        {
          "indexed": false,
          "internalType": "uint256",
          "name": "totalSupply",
          "type": "uint256"
        }
      ],
      "name": "mintEvent",
      "type": "event"
    },
    {
      "anonymous": false,
      "inputs": [
        {
          "indexed": false,
          "internalType": "address",
          "name": "owner",
          "type": "address"
        },
        {
          "indexed": false,
          "internalType": "uint256",
          "name": "numPresale",
          "type": "uint256"
        },
        {
          "indexed": false,
          "internalType": "uint256",
          "name": "totalSupply",
          "type": "uint256"
        }
      ],
      "name": "presaleEvent",
      "type": "event"
    },
    {
      "inputs": [],
      "name": "MAX_PRESALE",
      "outputs": [
        {
          "internalType": "uint256",
          "name": "",
          "type": "uint256"
        }
      ],
      "stateMutability": "view",
      "type": "function"
    },
    {
      "inputs": [],
      "name": "MAX_SAMURAI",
      "outputs": [
        {
          "internalType": "uint256",
          "name": "",
          "type": "uint256"
        }
      ],
      "stateMutability": "view",
      "type": "function"
    },
    {
      "inputs": [],
      "name": "PRICE",
      "outputs": [
        {
          "internalType": "uint256",
          "name": "",
          "type": "uint256"
        }
      ],
      "stateMutability": "view",
      "type": "function"
    },
    {
      "inputs": [
        {
          "internalType": "address",
          "name": "to",
          "type": "address"
        },
        {
          "internalType": "uint256",
          "name": "tokenId",
          "type": "uint256"
        }
      ],
      "name": "approve",
      "outputs": [],
      "stateMutability": "nonpayable",
      "type": "function"
    },
    {
      "inputs": [
        {
          "internalType": "address",
          "name": "owner",
          "type": "address"
        }
      ],
      "name": "balanceOf",
      "outputs": [
        {
          "internalType": "uint256",
          "name": "",
          "type": "uint256"
        }
      ],
      "stateMutability": "view",
      "type": "function"
    },
    {
      "inputs": [
        {
          "internalType": "uint256",
          "name": "quantity",
          "type": "uint256"
        }
      ],
      "name": "claimSamurai",
      "outputs": [],
      "stateMutability": "nonpayable",
      "type": "function"
    },
    {
      "inputs": [
        {
          "internalType": "uint256",
          "name": "tokenId",
          "type": "uint256"
        }
      ],
      "name": "getApproved",
      "outputs": [
        {
          "internalType": "address",
          "name": "",
          "type": "address"
        }
      ],
      "stateMutability": "view",
      "type": "function"
    },
    {
      "inputs": [
        {
          "internalType": "address",
          "name": "_to",
          "type": "address"
        },
        {
          "internalType": "uint256",
          "name": "quantity",
          "type": "uint256"
        }
      ],
      "name": "giveawayMintSamurai",
      "outputs": [],
      "stateMutability": "nonpayable",
      "type": "function"
    },
    {
      "inputs": [
        {
          "internalType": "address",
          "name": "",
          "type": "address"
        }
      ],
      "name": "hasClaimed",
      "outputs": [
        {
          "internalType": "uint256",
          "name": "",
          "type": "uint256"
        }
      ],
      "stateMutability": "view",
      "type": "function"
    },
    {
      "inputs": [
        {
          "internalType": "address",
          "name": "",
          "type": "address"
        }
      ],
      "name": "hasPresale",
      "outputs": [
        {
          "internalType": "uint256",
          "name": "",
          "type": "uint256"
        }
      ],
      "stateMutability": "view",
      "type": "function"
    },
    {
      "inputs": [],
      "name": "hasPresaleStarted",
      "outputs": [
        {
          "internalType": "bool",
          "name": "",
          "type": "bool"
        }
      ],
      "stateMutability": "view",
      "type": "function"
    },
    {
      "inputs": [],
      "name": "hasSaleStarted",
      "outputs": [
        {
          "internalType": "bool",
          "name": "",
          "type": "bool"
        }
      ],
      "stateMutability": "view",
      "type": "function"
    },
    {
      "inputs": [
        {
          "internalType": "address",
          "name": "owner",
          "type": "address"
        },
        {
          "internalType": "address",
          "name": "operator",
          "type": "address"
        }
      ],
      "name": "isApprovedForAll",
      "outputs": [
        {
          "internalType": "bool",
          "name": "",
          "type": "bool"
        }
      ],
      "stateMutability": "view",
      "type": "function"
    },
    {
      "inputs": [
        {
          "internalType": "uint256",
          "name": "maxClaimNumOnPresale",
          "type": "uint256"
        },
        {
          "internalType": "bytes",
          "name": "SIGNATURE",
          "type": "bytes"
        }
      ],
      "name": "isPresaleEligible",
      "outputs": [
        {
          "internalType": "bool",
          "name": "",
          "type": "bool"
        }
      ],
      "stateMutability": "view",
      "type": "function"
    },
    {
      "inputs": [
        {
          "internalType": "uint256",
          "name": "quantity",
          "type": "uint256"
        },
        {
          "internalType": "uint256",
          "name": "maxClaimNumOnPresale",
          "type": "uint256"
        },
        {
          "internalType": "bytes",
          "name": "SIGNATURE",
          "type": "bytes"
        }
      ],
      "name": "mintPresaleSamurai",
      "outputs": [],
      "stateMutability": "payable",
      "type": "function"
    },
    {
      "inputs": [
        {
          "internalType": "uint256",
          "name": "numPurchase",
          "type": "uint256"
        }
      ],
      "name": "mintSamurai",
      "outputs": [],
      "stateMutability": "payable",
      "type": "function"
    },
    {
      "inputs": [],
      "name": "name",
      "outputs": [
        {
          "internalType": "string",
          "name": "",
          "type": "string"
        }
      ],
      "stateMutability": "view",
      "type": "function"
    },
    {
      "inputs": [],
      "name": "numClaim",
      "outputs": [
        {
          "internalType": "uint256",
          "name": "",
          "type": "uint256"
        }
      ],
      "stateMutability": "view",
      "type": "function"
    },
    {
      "inputs": [],
      "name": "numPresale",
      "outputs": [
        {
          "internalType": "uint256",
          "name": "",
          "type": "uint256"
        }
      ],
      "stateMutability": "view",
      "type": "function"
    },
    {
      "inputs": [],
      "name": "numTokens",
      "outputs": [
        {
          "internalType": "uint256",
          "name": "",
          "type": "uint256"
        }
      ],
      "stateMutability": "view",
      "type": "function"
    },
    {
      "inputs": [],
      "name": "owner",
      "outputs": [
        {
          "internalType": "address",
          "name": "",
          "type": "address"
        }
      ],
      "stateMutability": "view",
      "type": "function"
    },
    {
      "inputs": [
        {
          "internalType": "uint256",
          "name": "tokenId",
          "type": "uint256"
        }
      ],
      "name": "ownerOf",
      "outputs": [
        {
          "internalType": "address",
          "name": "",
          "type": "address"
        }
      ],
      "stateMutability": "view",
      "type": "function"
    },
    {
      "inputs": [],
      "name": "pausePresale",
      "outputs": [],
      "stateMutability": "nonpayable",
      "type": "function"
    },
    {
      "inputs": [],
      "name": "pauseSale",
      "outputs": [],
      "stateMutability": "nonpayable",
      "type": "function"
    },
    {
      "inputs": [],
      "name": "renounceOwnership",
      "outputs": [],
      "stateMutability": "nonpayable",
      "type": "function"
    },
    {
      "inputs": [
        {
          "internalType": "address",
          "name": "from",
          "type": "address"
        },
        {
          "internalType": "address",
          "name": "to",
          "type": "address"
        },
        {
          "internalType": "uint256",
          "name": "tokenId",
          "type": "uint256"
        }
      ],
      "name": "safeTransferFrom",
      "outputs": [],
      "stateMutability": "nonpayable",
      "type": "function"
    },
    {
      "inputs": [
        {
          "internalType": "address",
          "name": "from",
          "type": "address"
        },
        {
          "internalType": "address",
          "name": "to",
          "type": "address"
        },
        {
          "internalType": "uint256",
          "name": "tokenId",
          "type": "uint256"
        },
        {
          "internalType": "bytes",
          "name": "_data",
          "type": "bytes"
        }
      ],
      "name": "safeTransferFrom",
      "outputs": [],
      "stateMutability": "nonpayable",
      "type": "function"
    },
    {
      "inputs": [
        {
          "internalType": "address",
          "name": "operator",
          "type": "address"
        },
        {
          "internalType": "bool",
          "name": "approved",
          "type": "bool"
        }
      ],
      "name": "setApprovalForAll",
      "outputs": [],
      "stateMutability": "nonpayable",
      "type": "function"
    },
    {
      "inputs": [
        {
          "internalType": "uint256",
          "name": "_MAX_PS_num",
          "type": "uint256"
        }
      ],
      "name": "setMAX_PRESALE",
      "outputs": [],
      "stateMutability": "nonpayable",
      "type": "function"
    },
    {
      "inputs": [
        {
          "internalType": "uint256",
          "name": "_MAX_num",
          "type": "uint256"
        }
      ],
      "name": "setMAX_SAMURAI",
      "outputs": [],
      "stateMutability": "nonpayable",
      "type": "function"
    },
    {
      "inputs": [
        {
          "internalType": "string",
          "name": "_tokenURI",
          "type": "string"
        }
      ],
      "name": "setURI",
      "outputs": [],
      "stateMutability": "nonpayable",
      "type": "function"
    },
    {
      "inputs": [
        {
          "internalType": "uint256",
          "name": "_price",
          "type": "uint256"
        }
      ],
      "name": "set_PRICE",
      "outputs": [],
      "stateMutability": "nonpayable",
      "type": "function"
    },
    {
      "inputs": [],
      "name": "startPresale",
      "outputs": [],
      "stateMutability": "nonpayable",
      "type": "function"
    },
    {
      "inputs": [],
      "name": "startSale",
      "outputs": [],
      "stateMutability": "nonpayable",
      "type": "function"
    },
    {
      "inputs": [
        {
          "internalType": "bytes4",
          "name": "interfaceId",
          "type": "bytes4"
        }
      ],
      "name": "supportsInterface",
      "outputs": [
        {
          "internalType": "bool",
          "name": "",
          "type": "bool"
        }
      ],
      "stateMutability": "view",
      "type": "function"
    },
    {
      "inputs": [],
      "name": "symbol",
      "outputs": [
        {
          "internalType": "string",
          "name": "",
          "type": "string"
        }
      ],
      "stateMutability": "view",
      "type": "function"
    },
    {
      "inputs": [
        {
          "internalType": "uint256",
          "name": "index",
          "type": "uint256"
        }
      ],
      "name": "tokenByIndex",
      "outputs": [
        {
          "internalType": "uint256",
          "name": "",
          "type": "uint256"
        }
      ],
      "stateMutability": "view",
      "type": "function"
    },
    {
      "inputs": [
        {
          "internalType": "address",
          "name": "owner",
          "type": "address"
        },
        {
          "internalType": "uint256",
          "name": "index",
          "type": "uint256"
        }
      ],
      "name": "tokenOfOwnerByIndex",
      "outputs": [
        {
          "internalType": "uint256",
          "name": "",
          "type": "uint256"
        }
      ],
      "stateMutability": "view",
      "type": "function"
    },
    {
      "inputs": [
        {
          "internalType": "uint256",
          "name": "tokenId",
          "type": "uint256"
        }
      ],
      "name": "tokenURI",
      "outputs": [
        {
          "internalType": "string",
          "name": "",
          "type": "string"
        }
      ],
      "stateMutability": "view",
      "type": "function"
    },
    {
      "inputs": [
        {
          "internalType": "address",
          "name": "_owner",
          "type": "address"
        }
      ],
      "name": "tokensOfOwner",
      "outputs": [
        {
          "internalType": "uint256[]",
          "name": "",
          "type": "uint256[]"
        }
      ],
      "stateMutability": "view",
      "type": "function"
    },
    {
      "inputs": [],
      "name": "totalSupply",
      "outputs": [
        {
          "internalType": "uint256",
          "name": "",
          "type": "uint256"
        }
      ],
      "stateMutability": "view",
      "type": "function"
    },
    {
      "inputs": [
        {
          "internalType": "address",
          "name": "from",
          "type": "address"
        },
        {
          "internalType": "address",
          "name": "to",
          "type": "address"
        },
        {
          "internalType": "uint256",
          "name": "tokenId",
          "type": "uint256"
        }
      ],
      "name": "transferFrom",
      "outputs": [],
      "stateMutability": "nonpayable",
      "type": "function"
    },
    {
      "inputs": [
        {
          "internalType": "address",
          "name": "newOwner",
          "type": "address"
        }
      ],
      "name": "transferOwnership",
      "outputs": [],
      "stateMutability": "nonpayable",
      "type": "function"
    },
    {
      "inputs": [],
      "name": "withdrawAll",
      "outputs": [],
      "stateMutability": "payable",
      "type": "function"
    }
  ],
  "transactionHash": "0x028682a48717bf6cb32c429df46b0e2365632b9f32936a2a960875dd563c7f2b",
  "args": [],
  "solcInputHash": "dbee2ccf5332cd0466b03b5c8be16826",
  "bytecode": "0x61012060405273d6499dac79a48cf21b7a6344a551a52da943e10c600b60006101000a81548173ffffffffffffffffffffffffffffffffffffffff021916908373ffffffffffffffffffffffffffffffffffffffff160217905550600b60009054906101000a900473ffffffffffffffffffffffffffffffffffffffff16600c60006101000a81548173ffffffffffffffffffffffffffffffffffffffff021916908373ffffffffffffffffffffffffffffffffffffffff160217905550612990600d55611770600e5566b1a2bc2ec50000600f5560006010556107d060115560006012556001601360006101000a81548160ff0219169083151502179055506001601360016101000a81548160ff0219169083151502179055506040518060600160405280602781526020016200648760279139601490805190602001906200014b92919062000411565b503480156200015957600080fd5b506040518060400160405280601281526020017f4b6174616e61204e2053616d75726169203200000000000000000000000000008152506040518060400160405280600681526020017f4b4e53322e3000000000000000000000000000000000000000000000000000008152506040518060400160405280601281526020017f4b6174616e61204e2053616d75726169203200000000000000000000000000008152506040518060400160405280600581526020017f312e302e3000000000000000000000000000000000000000000000000000000081525062000252620002466200030960201b60201c565b6200031160201b60201c565b60008280519060200120905060008280519060200120905060007f8b73c3c69bb8fe3d512ecc4cf759cc79239f7b179b0ffacaa9a75d522b39400f90508260c081815250508160e081815250504660a08181525050620002ba818484620003d560201b60201c565b6080818152505080610100818152505050505050508160019080519060200190620002e792919062000411565b5080600290805190602001906200030092919062000411565b505050620005fe565b600033905090565b60008060009054906101000a900473ffffffffffffffffffffffffffffffffffffffff169050816000806101000a81548173ffffffffffffffffffffffffffffffffffffffff021916908373ffffffffffffffffffffffffffffffffffffffff1602179055508173ffffffffffffffffffffffffffffffffffffffff168173ffffffffffffffffffffffffffffffffffffffff167f8be0079c531659141344cd1fd0a4f28419497f9722a3daafe3b4186f6b6457e060405160405180910390a35050565b60008383834630604051602001620003f2959493929190620004f4565b6040516020818303038152906040528051906020012090509392505050565b8280546200041f9062000599565b90600052602060002090601f0160209004810192826200044357600085556200048f565b82601f106200045e57805160ff19168380011785556200048f565b828001600101855582156200048f579182015b828111156200048e57825182559160200191906001019062000471565b5b5090506200049e9190620004a2565b5090565b5b80821115620004bd576000816000905550600101620004a3565b5090565b620004cc8162000551565b82525050565b620004dd8162000565565b82525050565b620004ee816200058f565b82525050565b600060a0820190506200050b6000830188620004d2565b6200051a6020830187620004d2565b620005296040830186620004d2565b620005386060830185620004e3565b620005476080830184620004c1565b9695505050505050565b60006200055e826200056f565b9050919050565b6000819050919050565b600073ffffffffffffffffffffffffffffffffffffffff82169050919050565b6000819050919050565b60006002820490506001821680620005b257607f821691505b60208210811415620005c957620005c8620005cf565b5b50919050565b7f4e487b7100000000000000000000000000000000000000000000000000000000600052602260045260246000fd5b60805160a05160c05160e05161010051615e4462000643600039600061300e015260006130500152600061302f01526000612fbb01526000612fe30152615e446000f3fe6080604052600436106102675760003560e01c806369cff34711610144578063a22cb465116100b6578063c87b56dd1161007a578063c87b56dd146108cf578063de9af0381461090c578063e136fe7314610935578063e985e9c51461095e578063f2fde38b1461099b578063f69b66ef146109c457610267565b8063a22cb4651461081f578063b022001514610848578063b66a0e5d14610873578063b6791cfa1461088a578063b88d4fde146108a657610267565b8063853828b611610108578063853828b61461073e578063872b25b0146107485780638d859f3e146107735780638da5cb5b1461079e5780638e499bcf146107c957806395d89b41146107f457610267565b806369cff3471461063357806370a0823114610670578063715018a6146106ad57806373b2e80e146106c45780638462151c1461070157610267565b806323b872dd116101dd5780634f6ccce7116101a15780634f6ccce714610523578063544657731461056057806355367ba91461058b5780635edbad0a146105a25780636352211e146105cd5780636456c2051461060a57610267565b806323b872dd1461044d5780632bf831f0146104765780632f745c591461049257806342842e0e146104cf5780634d4c4e99146104f857610267565b8063070f5c091161022f578063070f5c091461033d578063081812fc14610354578063095ea7b31461039157806317376bfa146103ba57806318160ddd146103f75780631c8b232d1461042257610267565b806301ffc9a71461026c57806302fe5305146102a957806304c98b2b146102d257806306331592146102e957806306fdde0314610312575b600080fd5b34801561027857600080fd5b50610293600480360381019061028e91906142cb565b6109ed565b6040516102a09190614bed565b60405180910390f35b3480156102b557600080fd5b506102d060048036038101906102cb919061431d565b610a67565b005b3480156102de57600080fd5b506102e7610af9565b005b3480156102f557600080fd5b50610310600480360381019061030b9190614362565b610b92565b005b34801561031e57600080fd5b50610327610c18565b6040516103349190614cd7565b60405180910390f35b34801561034957600080fd5b50610352610caa565b005b34801561036057600080fd5b5061037b60048036038101906103769190614362565b610d43565b6040516103889190614b2d565b60405180910390f35b34801561039d57600080fd5b506103b860048036038101906103b3919061424e565b610dc8565b005b3480156103c657600080fd5b506103e160048036038101906103dc919061438b565b610ee0565b6040516103ee9190614bed565b60405180910390f35b34801561040357600080fd5b5061040c610f87565b60405161041991906150f9565b60405180910390f35b34801561042e57600080fd5b50610437610f94565b6040516104449190614bed565b60405180910390f35b34801561045957600080fd5b50610474600480360381019061046f9190614148565b610fa7565b005b610490600480360381019061048b91906143df565b611007565b005b34801561049e57600080fd5b506104b960048036038101906104b4919061424e565b611334565b6040516104c691906150f9565b60405180910390f35b3480156104db57600080fd5b506104f660048036038101906104f19190614148565b6113d9565b005b34801561050457600080fd5b5061050d6113f9565b60405161051a91906150f9565b60405180910390f35b34801561052f57600080fd5b5061054a60048036038101906105459190614362565b6113ff565b60405161055791906150f9565b60405180910390f35b34801561056c57600080fd5b50610575611496565b60405161058291906150f9565b60405180910390f35b34801561059757600080fd5b506105a061149c565b005b3480156105ae57600080fd5b506105b7611535565b6040516105c491906150f9565b60405180910390f35b3480156105d957600080fd5b506105f460048036038101906105ef9190614362565b61153b565b6040516106019190614b2d565b60405180910390f35b34801561061657600080fd5b50610631600480360381019061062c9190614362565b6115ed565b005b34801561063f57600080fd5b5061065a600480360381019061065591906140e3565b611673565b60405161066791906150f9565b60405180910390f35b34801561067c57600080fd5b50610697600480360381019061069291906140e3565b61168b565b6040516106a491906150f9565b60405180910390f35b3480156106b957600080fd5b506106c2611743565b005b3480156106d057600080fd5b506106eb60048036038101906106e691906140e3565b6117cb565b6040516106f891906150f9565b60405180910390f35b34801561070d57600080fd5b50610728600480360381019061072391906140e3565b6117e3565b6040516107359190614bcb565b60405180910390f35b61074661195f565b005b34801561075457600080fd5b5061075d611a1b565b60405161076a91906150f9565b60405180910390f35b34801561077f57600080fd5b50610788611a21565b60405161079591906150f9565b60405180910390f35b3480156107aa57600080fd5b506107b3611a27565b6040516107c09190614b2d565b60405180910390f35b3480156107d557600080fd5b506107de611a50565b6040516107eb91906150f9565b60405180910390f35b34801561080057600080fd5b50610809611a56565b6040516108169190614cd7565b60405180910390f35b34801561082b57600080fd5b5061084660048036038101906108419190614212565b611ae8565b005b34801561085457600080fd5b5061085d611c69565b60405161086a9190614bed565b60405180910390f35b34801561087f57600080fd5b50610888611c7c565b005b6108a4600480360381019061089f9190614362565b611d15565b005b3480156108b257600080fd5b506108cd60048036038101906108c89190614197565b611ef7565b005b3480156108db57600080fd5b506108f660048036038101906108f19190614362565b611f59565b6040516109039190614cd7565b60405180910390f35b34801561091857600080fd5b50610933600480360381019061092e919061424e565b611fd5565b005b34801561094157600080fd5b5061095c60048036038101906109579190614362565b612137565b005b34801561096a57600080fd5b506109856004803603810190610980919061410c565b6121bd565b6040516109929190614bed565b60405180910390f35b3480156109a757600080fd5b506109c260048036038101906109bd91906140e3565b612251565b005b3480156109d057600080fd5b506109eb60048036038101906109e69190614362565b612349565b005b60007f780e9d63000000000000000000000000000000000000000000000000000000007bffffffffffffffffffffffffffffffffffffffffffffffffffffffff1916827bffffffffffffffffffffffffffffffffffffffffffffffffffffffff19161480610a605750610a5f82612696565b5b9050919050565b610a6f612778565b73ffffffffffffffffffffffffffffffffffffffff16610a8d611a27565b73ffffffffffffffffffffffffffffffffffffffff1614610ae3576040517f08c379a0000000000000000000000000000000000000000000000000000000008152600401610ada90614f79565b60405180910390fd5b818160149190610af4929190613e7a565b505050565b610b01612778565b73ffffffffffffffffffffffffffffffffffffffff16610b1f611a27565b73ffffffffffffffffffffffffffffffffffffffff1614610b75576040517f08c379a0000000000000000000000000000000000000000000000000000000008152600401610b6c90614f79565b60405180910390fd5b6001601360016101000a81548160ff021916908315150217905550565b610b9a612778565b73ffffffffffffffffffffffffffffffffffffffff16610bb8611a27565b73ffffffffffffffffffffffffffffffffffffffff1614610c0e576040517f08c379a0000000000000000000000000000000000000000000000000000000008152600401610c0590614f79565b60405180910390fd5b80600d8190555050565b606060018054610c2790615409565b80601f0160208091040260200160405190810160405280929190818152602001828054610c5390615409565b8015610ca05780601f10610c7557610100808354040283529160200191610ca0565b820191906000526020600020905b815481529060010190602001808311610c8357829003601f168201915b5050505050905090565b610cb2612778565b73ffffffffffffffffffffffffffffffffffffffff16610cd0611a27565b73ffffffffffffffffffffffffffffffffffffffff1614610d26576040517f08c379a0000000000000000000000000000000000000000000000000000000008152600401610d1d90614f79565b60405180910390fd5b6000601360016101000a81548160ff021916908315150217905550565b6000610d4e82612780565b610d8d576040517f08c379a0000000000000000000000000000000000000000000000000000000008152600401610d8490614f59565b60405180910390fd5b6005600083815260200190815260200160002060009054906101000a900473ffffffffffffffffffffffffffffffffffffffff169050919050565b6000610dd38261153b565b90508073ffffffffffffffffffffffffffffffffffffffff168373ffffffffffffffffffffffffffffffffffffffff161415610e44576040517f08c379a0000000000000000000000000000000000000000000000000000000008152600401610e3b90614ff9565b60405180910390fd5b8073ffffffffffffffffffffffffffffffffffffffff16610e63612778565b73ffffffffffffffffffffffffffffffffffffffff161480610e925750610e9181610e8c612778565b6121bd565b5b610ed1576040517f08c379a0000000000000000000000000000000000000000000000000000000008152600401610ec890614e99565b60405180910390fd5b610edb83836127ec565b505050565b600080610f46610f407f0824ba0e012705adec60b593e76a70b3db1e906d8666c54be5c764b993b68a1b610f12612778565b87604051602001610f2593929190614c08565b604051602081830303815290604052805190602001206128a5565b846128bf565b90508073ffffffffffffffffffffffffffffffffffffffff16610f67611a27565b73ffffffffffffffffffffffffffffffffffffffff161491505092915050565b6000600980549050905090565b601360009054906101000a900460ff1681565b610fb8610fb2612778565b826128e6565b610ff7576040517f08c379a0000000000000000000000000000000000000000000000000000000008152600401610fee90615059565b60405180910390fd5b6110028383836129c4565b505050565b60011515601360019054906101000a900460ff1615151461105d576040517f08c379a000000000000000000000000000000000000000000000000000000000815260040161105490614e19565b60405180910390fd5b6110678282610ee0565b6110a6576040517f08c379a000000000000000000000000000000000000000000000000000000000815260040161109d90615079565b60405180910390fd5b60008311801561110757508161110484601660003373ffffffffffffffffffffffffffffffffffffffff1673ffffffffffffffffffffffffffffffffffffffff16815260200190815260200160002054612c2090919063ffffffff16565b11155b611146576040517f08c379a000000000000000000000000000000000000000000000000000000000815260040161113d906150b9565b60405180910390fd5b61115b83600f54612c3690919063ffffffff16565b34101561119d576040517f08c379a000000000000000000000000000000000000000000000000000000000815260040161119490615019565b60405180910390fd5b600d546111ba846111ac610f87565b612c2090919063ffffffff16565b11156111fb576040517f08c379a00000000000000000000000000000000000000000000000000000000081526004016111f290614e79565b60405180910390fd5b60005b838110156112415761121c6001601154612c2090919063ffffffff16565b60118190555061122e33601154612c4c565b80806112399061546c565b9150506111fe565b5061129483601660003373ffffffffffffffffffffffffffffffffffffffff1673ffffffffffffffffffffffffffffffffffffffff16815260200190815260200160002054612c2090919063ffffffff16565b601660003373ffffffffffffffffffffffffffffffffffffffff1673ffffffffffffffffffffffffffffffffffffffff168152602001908152602001600020819055506112ec83601054612c2090919063ffffffff16565b6010819055507f419e309f560f752a40940b5f0d8003dec1c40dfff1789fbcd18195a51b16dcf2338460115460405161132793929190614b94565b60405180910390a1505050565b600061133f8361168b565b8210611380576040517f08c379a000000000000000000000000000000000000000000000000000000000815260040161137790614d59565b60405180910390fd5b600760008473ffffffffffffffffffffffffffffffffffffffff1673ffffffffffffffffffffffffffffffffffffffff168152602001908152602001600020600083815260200190815260200160002054905092915050565b6113f483838360405180602001604052806000815250611ef7565b505050565b600e5481565b6000611409610f87565b821061144a576040517f08c379a000000000000000000000000000000000000000000000000000000000815260040161144190615099565b60405180910390fd5b60098281548110611484577f4e487b7100000000000000000000000000000000000000000000000000000000600052603260045260246000fd5b90600052602060002001549050919050565b60125481565b6114a4612778565b73ffffffffffffffffffffffffffffffffffffffff166114c2611a27565b73ffffffffffffffffffffffffffffffffffffffff1614611518576040517f08c379a000000000000000000000000000000000000000000000000000000000815260040161150f90614f79565b60405180910390fd5b6000601360006101000a81548160ff021916908315150217905550565b60105481565b6000806003600084815260200190815260200160002060009054906101000a900473ffffffffffffffffffffffffffffffffffffffff169050600073ffffffffffffffffffffffffffffffffffffffff168173ffffffffffffffffffffffffffffffffffffffff1614156115e4576040517f08c379a00000000000000000000000000000000000000000000000000000000081526004016115db90614ed9565b60405180910390fd5b80915050919050565b6115f5612778565b73ffffffffffffffffffffffffffffffffffffffff16611613611a27565b73ffffffffffffffffffffffffffffffffffffffff1614611669576040517f08c379a000000000000000000000000000000000000000000000000000000000815260040161166090614f79565b60405180910390fd5b80600f8190555050565b60166020528060005260406000206000915090505481565b60008073ffffffffffffffffffffffffffffffffffffffff168273ffffffffffffffffffffffffffffffffffffffff1614156116fc576040517f08c379a00000000000000000000000000000000000000000000000000000000081526004016116f390614eb9565b60405180910390fd5b600460008373ffffffffffffffffffffffffffffffffffffffff1673ffffffffffffffffffffffffffffffffffffffff168152602001908152602001600020549050919050565b61174b612778565b73ffffffffffffffffffffffffffffffffffffffff16611769611a27565b73ffffffffffffffffffffffffffffffffffffffff16146117bf576040517f08c379a00000000000000000000000000000000000000000000000000000000081526004016117b690614f79565b60405180910390fd5b6117c96000612c6a565b565b60156020528060005260406000206000915090505481565b606060006117f08361168b565b9050600081141561187357600067ffffffffffffffff81111561183c577f4e487b7100000000000000000000000000000000000000000000000000000000600052604160045260246000fd5b60405190808252806020026020018201604052801561186a5781602001602082028036833780820191505090505b5091505061195a565b60008167ffffffffffffffff8111156118b5577f4e487b7100000000000000000000000000000000000000000000000000000000600052604160045260246000fd5b6040519080825280602002602001820160405280156118e35781602001602082028036833780820191505090505b50905060005b82811015611953576118fb8582611334565b828281518110611934577f4e487b7100000000000000000000000000000000000000000000000000000000600052603260045260246000fd5b602002602001018181525050808061194b9061546c565b9150506118e9565b8193505050505b919050565b611967612778565b73ffffffffffffffffffffffffffffffffffffffff16611985611a27565b73ffffffffffffffffffffffffffffffffffffffff16146119db576040517f08c379a00000000000000000000000000000000000000000000000000000000081526004016119d290614f79565b60405180910390fd5b3373ffffffffffffffffffffffffffffffffffffffff166108fc479081150290604051600060405180830381858888f19350505050611a1957600080fd5b565b600d5481565b600f5481565b60008060009054906101000a900473ffffffffffffffffffffffffffffffffffffffff16905090565b60115481565b606060028054611a6590615409565b80601f0160208091040260200160405190810160405280929190818152602001828054611a9190615409565b8015611ade5780601f10611ab357610100808354040283529160200191611ade565b820191906000526020600020905b815481529060010190602001808311611ac157829003601f168201915b5050505050905090565b611af0612778565b73ffffffffffffffffffffffffffffffffffffffff168273ffffffffffffffffffffffffffffffffffffffff161415611b5e576040517f08c379a0000000000000000000000000000000000000000000000000000000008152600401611b5590614df9565b60405180910390fd5b8060066000611b6b612778565b73ffffffffffffffffffffffffffffffffffffffff1673ffffffffffffffffffffffffffffffffffffffff16815260200190815260200160002060008473ffffffffffffffffffffffffffffffffffffffff1673ffffffffffffffffffffffffffffffffffffffff16815260200190815260200160002060006101000a81548160ff0219169083151502179055508173ffffffffffffffffffffffffffffffffffffffff16611c18612778565b73ffffffffffffffffffffffffffffffffffffffff167f17307eab39ab6107e8899845ad3d59bd9653f200f220920489ca2b5937696c3183604051611c5d9190614bed565b60405180910390a35050565b601360019054906101000a900460ff1681565b611c84612778565b73ffffffffffffffffffffffffffffffffffffffff16611ca2611a27565b73ffffffffffffffffffffffffffffffffffffffff1614611cf8576040517f08c379a0000000000000000000000000000000000000000000000000000000008152600401611cef90614f79565b60405180910390fd5b6001601360006101000a81548160ff021916908315150217905550565b60011515601360009054906101000a900460ff16151514611d6b576040517f08c379a0000000000000000000000000000000000000000000000000000000008152600401611d6290614d19565b60405180910390fd5b600081118015611d7c575060328111155b611dbb576040517f08c379a0000000000000000000000000000000000000000000000000000000008152600401611db290614f99565b60405180910390fd5b600d54611dd882611dca610f87565b612c2090919063ffffffff16565b1115611e19576040517f08c379a0000000000000000000000000000000000000000000000000000000008152600401611e10906150d9565b60405180910390fd5b611e2e81600f54612c3690919063ffffffff16565b341015611e70576040517f08c379a0000000000000000000000000000000000000000000000000000000008152600401611e6790615019565b60405180910390fd5b60005b81811015611eb657611e916001601154612c2090919063ffffffff16565b601181905550611ea333601154612c4c565b8080611eae9061546c565b915050611e73565b507f9670c8b300c38cd3db8d3f9429dd902e67f418c4dd193e2497f06d20efc795603382601154604051611eec93929190614b94565b60405180910390a150565b611f08611f02612778565b836128e6565b611f47576040517f08c379a0000000000000000000000000000000000000000000000000000000008152600401611f3e90615059565b60405180910390fd5b611f5384848484612d2e565b50505050565b6060611f6482612780565b611fa3576040517f08c379a0000000000000000000000000000000000000000000000000000000008152600401611f9a90614ef9565b60405180910390fd5b6014611fae83612d8a565b604051602001611fbf929190614ad2565b6040516020818303038152906040529050919050565b611fdd612778565b73ffffffffffffffffffffffffffffffffffffffff16611ffb611a27565b73ffffffffffffffffffffffffffffffffffffffff1614612051576040517f08c379a000000000000000000000000000000000000000000000000000000000815260040161204890614f79565b60405180910390fd5b600d5461206e82612060610f87565b612c2090919063ffffffff16565b11156120af576040517f08c379a00000000000000000000000000000000000000000000000000000000081526004016120a690615039565b60405180910390fd5b60005b818110156120f5576120d06001601154612c2090919063ffffffff16565b6011819055506120e283601154612c4c565b80806120ed9061546c565b9150506120b2565b507f9670c8b300c38cd3db8d3f9429dd902e67f418c4dd193e2497f06d20efc79560828260115460405161212b93929190614b94565b60405180910390a15050565b61213f612778565b73ffffffffffffffffffffffffffffffffffffffff1661215d611a27565b73ffffffffffffffffffffffffffffffffffffffff16146121b3576040517f08c379a00000000000000000000000000000000000000000000000000000000081526004016121aa90614f79565b60405180910390fd5b80600e8190555050565b6000600660008473ffffffffffffffffffffffffffffffffffffffff1673ffffffffffffffffffffffffffffffffffffffff16815260200190815260200160002060008373ffffffffffffffffffffffffffffffffffffffff1673ffffffffffffffffffffffffffffffffffffffff16815260200190815260200160002060009054906101000a900460ff16905092915050565b612259612778565b73ffffffffffffffffffffffffffffffffffffffff16612277611a27565b73ffffffffffffffffffffffffffffffffffffffff16146122cd576040517f08c379a00000000000000000000000000000000000000000000000000000000081526004016122c490614f79565b60405180910390fd5b600073ffffffffffffffffffffffffffffffffffffffff168173ffffffffffffffffffffffffffffffffffffffff16141561233d576040517f08c379a000000000000000000000000000000000000000000000000000000000815260040161233490614d99565b60405180910390fd5b61234681612c6a565b50565b6060600c60009054906101000a900473ffffffffffffffffffffffffffffffffffffffff1673ffffffffffffffffffffffffffffffffffffffff16638462151c336040518263ffffffff1660e01b81526004016123a69190614b2d565b60006040518083038186803b1580156123be57600080fd5b505afa1580156123d2573d6000803e3d6000fd5b505050506040513d6000823e3d601f19601f820116820180604052508101906123fb919061428a565b905060011515601360009054906101000a900460ff16151514612453576040517f08c379a000000000000000000000000000000000000000000000000000000000815260040161244a90614d19565b60405180910390fd5b80516124a783601560003373ffffffffffffffffffffffffffffffffffffffff1673ffffffffffffffffffffffffffffffffffffffff16815260200190815260200160002054612c2090919063ffffffff16565b11156124e8576040517f08c379a00000000000000000000000000000000000000000000000000000000081526004016124df90614fd9565b60405180910390fd5b60005b82811015612654576125466001601560003373ffffffffffffffffffffffffffffffffffffffff1673ffffffffffffffffffffffffffffffffffffffff16815260200190815260200160002054612c2090919063ffffffff16565b601560003373ffffffffffffffffffffffffffffffffffffffff1673ffffffffffffffffffffffffffffffffffffffff1681526020019081526020016000208190555061262533836125e16001601560003373ffffffffffffffffffffffffffffffffffffffff1673ffffffffffffffffffffffffffffffffffffffff16815260200190815260200160002054612f3790919063ffffffff16565b81518110612618577f4e487b7100000000000000000000000000000000000000000000000000000000600052603260045260246000fd5b6020026020010151612c4c565b61263b6001601254612c2090919063ffffffff16565b601281905550808061264c9061546c565b9150506124eb565b507f983bf7148e3e9ebde769e6a1d5b19b34b9c318555cfb03836448a9376bd68d45338360125460405161268a93929190614b94565b60405180910390a15050565b60007f80ac58cd000000000000000000000000000000000000000000000000000000007bffffffffffffffffffffffffffffffffffffffffffffffffffffffff1916827bffffffffffffffffffffffffffffffffffffffffffffffffffffffff1916148061276157507f5b5e139f000000000000000000000000000000000000000000000000000000007bffffffffffffffffffffffffffffffffffffffffffffffffffffffff1916827bffffffffffffffffffffffffffffffffffffffffffffffffffffffff1916145b80612771575061277082612f4d565b5b9050919050565b600033905090565b60008073ffffffffffffffffffffffffffffffffffffffff166003600084815260200190815260200160002060009054906101000a900473ffffffffffffffffffffffffffffffffffffffff1673ffffffffffffffffffffffffffffffffffffffff1614159050919050565b816005600083815260200190815260200160002060006101000a81548173ffffffffffffffffffffffffffffffffffffffff021916908373ffffffffffffffffffffffffffffffffffffffff160217905550808273ffffffffffffffffffffffffffffffffffffffff1661285f8361153b565b73ffffffffffffffffffffffffffffffffffffffff167f8c5be1e5ebec7d5bd14f71427d1e84f3dd0314c0f7b2291e5b200ac8c7c3b92560405160405180910390a45050565b60006128b86128b2612fb7565b8361307a565b9050919050565b60008060006128ce85856130ad565b915091506128db81613130565b819250505092915050565b60006128f182612780565b612930576040517f08c379a000000000000000000000000000000000000000000000000000000000815260040161292790614e59565b60405180910390fd5b600061293b8361153b565b90508073ffffffffffffffffffffffffffffffffffffffff168473ffffffffffffffffffffffffffffffffffffffff1614806129aa57508373ffffffffffffffffffffffffffffffffffffffff1661299284610d43565b73ffffffffffffffffffffffffffffffffffffffff16145b806129bb57506129ba81856121bd565b5b91505092915050565b8273ffffffffffffffffffffffffffffffffffffffff166129e48261153b565b73ffffffffffffffffffffffffffffffffffffffff1614612a3a576040517f08c379a0000000000000000000000000000000000000000000000000000000008152600401612a3190614fb9565b60405180910390fd5b600073ffffffffffffffffffffffffffffffffffffffff168273ffffffffffffffffffffffffffffffffffffffff161415612aaa576040517f08c379a0000000000000000000000000000000000000000000000000000000008152600401612aa190614dd9565b60405180910390fd5b612ab5838383613481565b612ac06000826127ec565b6001600460008573ffffffffffffffffffffffffffffffffffffffff1673ffffffffffffffffffffffffffffffffffffffff1681526020019081526020016000206000828254612b109190615308565b925050819055506001600460008473ffffffffffffffffffffffffffffffffffffffff1673ffffffffffffffffffffffffffffffffffffffff1681526020019081526020016000206000828254612b679190615227565b92505081905550816003600083815260200190815260200160002060006101000a81548173ffffffffffffffffffffffffffffffffffffffff021916908373ffffffffffffffffffffffffffffffffffffffff160217905550808273ffffffffffffffffffffffffffffffffffffffff168473ffffffffffffffffffffffffffffffffffffffff167fddf252ad1be2c89b69c2b068fc378daa952ba7f163c4a11628f55a4df523b3ef60405160405180910390a4505050565b60008183612c2e9190615227565b905092915050565b60008183612c4491906152ae565b905092915050565b612c66828260405180602001604052806000815250613595565b5050565b60008060009054906101000a900473ffffffffffffffffffffffffffffffffffffffff169050816000806101000a81548173ffffffffffffffffffffffffffffffffffffffff021916908373ffffffffffffffffffffffffffffffffffffffff1602179055508173ffffffffffffffffffffffffffffffffffffffff168173ffffffffffffffffffffffffffffffffffffffff167f8be0079c531659141344cd1fd0a4f28419497f9722a3daafe3b4186f6b6457e060405160405180910390a35050565b612d398484846129c4565b612d45848484846135f0565b612d84576040517f08c379a0000000000000000000000000000000000000000000000000000000008152600401612d7b90614d79565b60405180910390fd5b50505050565b60606000821415612dd2576040518060400160405280600181526020017f30000000000000000000000000000000000000000000000000000000000000008152509050612f32565b600082905060005b60008214612e04578080612ded9061546c565b915050600a82612dfd919061527d565b9150612dda565b60008167ffffffffffffffff811115612e46577f4e487b7100000000000000000000000000000000000000000000000000000000600052604160045260246000fd5b6040519080825280601f01601f191660200182016040528015612e785781602001600182028036833780820191505090505b5090505b60008514612f2b57600182612e919190615308565b9150600a85612ea091906154bf565b6030612eac9190615227565b60f81b818381518110612ee8577f4e487b7100000000000000000000000000000000000000000000000000000000600052603260045260246000fd5b60200101907effffffffffffffffffffffffffffffffffffffffffffffffffffffffffffff1916908160001a905350600a85612f24919061527d565b9450612e7c565b8093505050505b919050565b60008183612f459190615308565b905092915050565b60007f01ffc9a7000000000000000000000000000000000000000000000000000000007bffffffffffffffffffffffffffffffffffffffffffffffffffffffff1916827bffffffffffffffffffffffffffffffffffffffffffffffffffffffff1916149050919050565b60007f0000000000000000000000000000000000000000000000000000000000000000461415613009577f00000000000000000000000000000000000000000000000000000000000000009050613077565b6130747f00000000000000000000000000000000000000000000000000000000000000007f00000000000000000000000000000000000000000000000000000000000000007f0000000000000000000000000000000000000000000000000000000000000000613787565b90505b90565b6000828260405160200161308f929190614af6565b60405160208183030381529060405280519060200120905092915050565b6000806041835114156130ef5760008060006020860151925060408601519150606086015160001a90506130e3878285856137c1565b94509450505050613129565b6040835114156131205760008060208501519150604085015190506131158683836138ce565b935093505050613129565b60006002915091505b9250929050565b6000600481111561316a577f4e487b7100000000000000000000000000000000000000000000000000000000600052602160045260246000fd5b8160048111156131a3577f4e487b7100000000000000000000000000000000000000000000000000000000600052602160045260246000fd5b14156131ae5761347e565b600160048111156131e8577f4e487b7100000000000000000000000000000000000000000000000000000000600052602160045260246000fd5b816004811115613221577f4e487b7100000000000000000000000000000000000000000000000000000000600052602160045260246000fd5b1415613262576040517f08c379a000000000000000000000000000000000000000000000000000000000815260040161325990614cf9565b60405180910390fd5b6002600481111561329c577f4e487b7100000000000000000000000000000000000000000000000000000000600052602160045260246000fd5b8160048111156132d5577f4e487b7100000000000000000000000000000000000000000000000000000000600052602160045260246000fd5b1415613316576040517f08c379a000000000000000000000000000000000000000000000000000000000815260040161330d90614d39565b60405180910390fd5b60036004811115613350577f4e487b7100000000000000000000000000000000000000000000000000000000600052602160045260246000fd5b816004811115613389577f4e487b7100000000000000000000000000000000000000000000000000000000600052602160045260246000fd5b14156133ca576040517f08c379a00000000000000000000000000000000000000000000000000000000081526004016133c190614e39565b60405180910390fd5b600480811115613403577f4e487b7100000000000000000000000000000000000000000000000000000000600052602160045260246000fd5b81600481111561343c577f4e487b7100000000000000000000000000000000000000000000000000000000600052602160045260246000fd5b141561347d576040517f08c379a000000000000000000000000000000000000000000000000000000000815260040161347490614f19565b60405180910390fd5b5b50565b61348c83838361391c565b600073ffffffffffffffffffffffffffffffffffffffff168373ffffffffffffffffffffffffffffffffffffffff1614156134cf576134ca81613921565b61350e565b8173ffffffffffffffffffffffffffffffffffffffff168373ffffffffffffffffffffffffffffffffffffffff161461350d5761350c838261396a565b5b5b600073ffffffffffffffffffffffffffffffffffffffff168273ffffffffffffffffffffffffffffffffffffffff1614156135515761354c81613ad7565b613590565b8273ffffffffffffffffffffffffffffffffffffffff168273ffffffffffffffffffffffffffffffffffffffff161461358f5761358e8282613c1a565b5b5b505050565b61359f8383613c99565b6135ac60008484846135f0565b6135eb576040517f08c379a00000000000000000000000000000000000000000000000000000000081526004016135e290614d79565b60405180910390fd5b505050565b60006136118473ffffffffffffffffffffffffffffffffffffffff16613e67565b1561377a578373ffffffffffffffffffffffffffffffffffffffff1663150b7a0261363a612778565b8786866040518563ffffffff1660e01b815260040161365c9493929190614b48565b602060405180830381600087803b15801561367657600080fd5b505af19250505080156136a757506040513d601f19601f820116820180604052508101906136a491906142f4565b60015b61372a573d80600081146136d7576040519150601f19603f3d011682016040523d82523d6000602084013e6136dc565b606091505b50600081511415613722576040517f08c379a000000000000000000000000000000000000000000000000000000000815260040161371990614d79565b60405180910390fd5b805181602001fd5b63150b7a0260e01b7bffffffffffffffffffffffffffffffffffffffffffffffffffffffff1916817bffffffffffffffffffffffffffffffffffffffffffffffffffffffff19161491505061377f565b600190505b949350505050565b600083838346306040516020016137a2959493929190614c3f565b6040516020818303038152906040528051906020012090509392505050565b6000807f7fffffffffffffffffffffffffffffff5d576e7357a4501ddfe92f46681b20a08360001c11156137fc5760006003915091506138c5565b601b8560ff16141580156138145750601c8560ff1614155b156138265760006004915091506138c5565b60006001878787876040516000815260200160405260405161384b9493929190614c92565b6020604051602081039080840390855afa15801561386d573d6000803e3d6000fd5b505050602060405103519050600073ffffffffffffffffffffffffffffffffffffffff168173ffffffffffffffffffffffffffffffffffffffff1614156138bc576000600192509250506138c5565b80600092509250505b94509492505050565b6000806000807f7fffffffffffffffffffffffffffffffffffffffffffffffffffffffffffffff85169150601b8560ff1c01905061390e878288856137c1565b935093505050935093915050565b505050565b600980549050600a600083815260200190815260200160002081905550600981908060018154018082558091505060019003906000526020600020016000909190919091505550565b600060016139778461168b565b6139819190615308565b9050600060086000848152602001908152602001600020549050818114613a66576000600760008673ffffffffffffffffffffffffffffffffffffffff1673ffffffffffffffffffffffffffffffffffffffff168152602001908152602001600020600084815260200190815260200160002054905080600760008773ffffffffffffffffffffffffffffffffffffffff1673ffffffffffffffffffffffffffffffffffffffff168152602001908152602001600020600084815260200190815260200160002081905550816008600083815260200190815260200160002081905550505b6008600084815260200190815260200160002060009055600760008573ffffffffffffffffffffffffffffffffffffffff1673ffffffffffffffffffffffffffffffffffffffff16815260200190815260200160002060008381526020019081526020016000206000905550505050565b60006001600980549050613aeb9190615308565b90506000600a6000848152602001908152602001600020549050600060098381548110613b41577f4e487b7100000000000000000000000000000000000000000000000000000000600052603260045260246000fd5b906000526020600020015490508060098381548110613b89577f4e487b7100000000000000000000000000000000000000000000000000000000600052603260045260246000fd5b906000526020600020018190555081600a600083815260200190815260200160002081905550600a6000858152602001908152602001600020600090556009805480613bfe577f4e487b7100000000000000000000000000000000000000000000000000000000600052603160045260246000fd5b6001900381819060005260206000200160009055905550505050565b6000613c258361168b565b905081600760008573ffffffffffffffffffffffffffffffffffffffff1673ffffffffffffffffffffffffffffffffffffffff168152602001908152602001600020600083815260200190815260200160002081905550806008600084815260200190815260200160002081905550505050565b600073ffffffffffffffffffffffffffffffffffffffff168273ffffffffffffffffffffffffffffffffffffffff161415613d09576040517f08c379a0000000000000000000000000000000000000000000000000000000008152600401613d0090614f39565b60405180910390fd5b613d1281612780565b15613d52576040517f08c379a0000000000000000000000000000000000000000000000000000000008152600401613d4990614db9565b60405180910390fd5b613d5e60008383613481565b6001600460008473ffffffffffffffffffffffffffffffffffffffff1673ffffffffffffffffffffffffffffffffffffffff1681526020019081526020016000206000828254613dae9190615227565b92505081905550816003600083815260200190815260200160002060006101000a81548173ffffffffffffffffffffffffffffffffffffffff021916908373ffffffffffffffffffffffffffffffffffffffff160217905550808273ffffffffffffffffffffffffffffffffffffffff16600073ffffffffffffffffffffffffffffffffffffffff167fddf252ad1be2c89b69c2b068fc378daa952ba7f163c4a11628f55a4df523b3ef60405160405180910390a45050565b600080823b905060008111915050919050565b828054613e8690615409565b90600052602060002090601f016020900481019282613ea85760008555613eef565b82601f10613ec157803560ff1916838001178555613eef565b82800160010185558215613eef579182015b82811115613eee578235825591602001919060010190613ed3565b5b509050613efc9190613f00565b5090565b5b80821115613f19576000816000905550600101613f01565b5090565b6000613f30613f2b84615139565b615114565b90508083825260208201905082856020860282011115613f4f57600080fd5b60005b85811015613f7f5781613f6588826140ce565b845260208401935060208301925050600181019050613f52565b5050509392505050565b6000613f9c613f9784615165565b615114565b905082815260208101848484011115613fb457600080fd5b613fbf8482856153c7565b509392505050565b600081359050613fd681615db2565b92915050565b600082601f830112613fed57600080fd5b8151613ffd848260208601613f1d565b91505092915050565b60008135905061401581615dc9565b92915050565b60008135905061402a81615de0565b92915050565b60008151905061403f81615de0565b92915050565b600082601f83011261405657600080fd5b8135614066848260208601613f89565b91505092915050565b60008083601f84011261408157600080fd5b8235905067ffffffffffffffff81111561409a57600080fd5b6020830191508360018202830111156140b257600080fd5b9250929050565b6000813590506140c881615df7565b92915050565b6000815190506140dd81615df7565b92915050565b6000602082840312156140f557600080fd5b600061410384828501613fc7565b91505092915050565b6000806040838503121561411f57600080fd5b600061412d85828601613fc7565b925050602061413e85828601613fc7565b9150509250929050565b60008060006060848603121561415d57600080fd5b600061416b86828701613fc7565b935050602061417c86828701613fc7565b925050604061418d868287016140b9565b9150509250925092565b600080600080608085870312156141ad57600080fd5b60006141bb87828801613fc7565b94505060206141cc87828801613fc7565b93505060406141dd878288016140b9565b925050606085013567ffffffffffffffff8111156141fa57600080fd5b61420687828801614045565b91505092959194509250565b6000806040838503121561422557600080fd5b600061423385828601613fc7565b925050602061424485828601614006565b9150509250929050565b6000806040838503121561426157600080fd5b600061426f85828601613fc7565b9250506020614280858286016140b9565b9150509250929050565b60006020828403121561429c57600080fd5b600082015167ffffffffffffffff8111156142b657600080fd5b6142c284828501613fdc565b91505092915050565b6000602082840312156142dd57600080fd5b60006142eb8482850161401b565b91505092915050565b60006020828403121561430657600080fd5b600061431484828501614030565b91505092915050565b6000806020838503121561433057600080fd5b600083013567ffffffffffffffff81111561434a57600080fd5b6143568582860161406f565b92509250509250929050565b60006020828403121561437457600080fd5b6000614382848285016140b9565b91505092915050565b6000806040838503121561439e57600080fd5b60006143ac858286016140b9565b925050602083013567ffffffffffffffff8111156143c957600080fd5b6143d585828601614045565b9150509250929050565b6000806000606084860312156143f457600080fd5b6000614402868287016140b9565b9350506020614413868287016140b9565b925050604084013567ffffffffffffffff81111561443057600080fd5b61443c86828701614045565b9150509250925092565b60006144528383614aa5565b60208301905092915050565b6144678161533c565b82525050565b6000614478826151bb565b61448281856151e9565b935061448d83615196565b8060005b838110156144be5781516144a58882614446565b97506144b0836151dc565b925050600181019050614491565b5085935050505092915050565b6144d48161534e565b82525050565b6144e38161535a565b82525050565b6144fa6144f58261535a565b6154b5565b82525050565b600061450b826151c6565b61451581856151fa565b93506145258185602086016153d6565b61452e816155ac565b840191505092915050565b6000614544826151d1565b61454e818561520b565b935061455e8185602086016153d6565b614567816155ac565b840191505092915050565b600061457d826151d1565b614587818561521c565b93506145978185602086016153d6565b80840191505092915050565b600081546145b081615409565b6145ba818661521c565b945060018216600081146145d557600181146145e657614619565b60ff19831686528186019350614619565b6145ef856151a6565b60005b83811015614611578154818901526001820191506020810190506145f2565b838801955050505b50505092915050565b600061462f60188361520b565b915061463a826155bd565b602082019050919050565b600061465260148361520b565b915061465d826155e6565b602082019050919050565b6000614675601f8361520b565b91506146808261560f565b602082019050919050565b6000614698602b8361520b565b91506146a382615638565b604082019050919050565b60006146bb60328361520b565b91506146c682615687565b604082019050919050565b60006146de60268361520b565b91506146e9826156d6565b604082019050919050565b6000614701601c8361520b565b915061470c82615725565b602082019050919050565b600061472460028361521c565b915061472f8261574e565b600282019050919050565b600061474760248361520b565b915061475282615777565b604082019050919050565b600061476a60198361520b565b9150614775826157c6565b602082019050919050565b600061478d60178361520b565b9150614798826157ef565b602082019050919050565b60006147b060228361520b565b91506147bb82615818565b604082019050919050565b60006147d3602c8361520b565b91506147de82615867565b604082019050919050565b60006147f660188361520b565b9150614801826158b6565b602082019050919050565b600061481960388361520b565b9150614824826158df565b604082019050919050565b600061483c602a8361520b565b91506148478261592e565b604082019050919050565b600061485f60298361520b565b915061486a8261597d565b604082019050919050565b600061488260108361520b565b915061488d826159cc565b602082019050919050565b60006148a560228361520b565b91506148b0826159f5565b604082019050919050565b60006148c860208361520b565b91506148d382615a44565b602082019050919050565b60006148eb602c8361520b565b91506148f682615a6d565b604082019050919050565b600061490e60208361520b565b915061491982615abc565b602082019050919050565b600061493160298361520b565b915061493c82615ae5565b604082019050919050565b600061495460298361520b565b915061495f82615b34565b604082019050919050565b600061497760278361520b565b915061498282615b83565b604082019050919050565b600061499a60218361520b565b91506149a582615bd2565b604082019050919050565b60006149bd60248361520b565b91506149c882615c21565b604082019050919050565b60006149e060148361520b565b91506149eb82615c70565b602082019050919050565b6000614a0360318361520b565b9150614a0e82615c99565b604082019050919050565b6000614a2660198361520b565b9150614a3182615ce8565b602082019050919050565b6000614a49602c8361520b565b9150614a5482615d11565b604082019050919050565b6000614a6c601b8361520b565b9150614a7782615d60565b602082019050919050565b6000614a8f60098361520b565b9150614a9a82615d89565b602082019050919050565b614aae816153b0565b82525050565b614abd816153b0565b82525050565b614acc816153ba565b82525050565b6000614ade82856145a3565b9150614aea8284614572565b91508190509392505050565b6000614b0182614717565b9150614b0d82856144e9565b602082019150614b1d82846144e9565b6020820191508190509392505050565b6000602082019050614b42600083018461445e565b92915050565b6000608082019050614b5d600083018761445e565b614b6a602083018661445e565b614b776040830185614ab4565b8181036060830152614b898184614500565b905095945050505050565b6000606082019050614ba9600083018661445e565b614bb66020830185614ab4565b614bc36040830184614ab4565b949350505050565b60006020820190508181036000830152614be5818461446d565b905092915050565b6000602082019050614c0260008301846144cb565b92915050565b6000606082019050614c1d60008301866144da565b614c2a602083018561445e565b614c376040830184614ab4565b949350505050565b600060a082019050614c5460008301886144da565b614c6160208301876144da565b614c6e60408301866144da565b614c7b6060830185614ab4565b614c88608083018461445e565b9695505050505050565b6000608082019050614ca760008301876144da565b614cb46020830186614ac3565b614cc160408301856144da565b614cce60608301846144da565b95945050505050565b60006020820190508181036000830152614cf18184614539565b905092915050565b60006020820190508181036000830152614d1281614622565b9050919050565b60006020820190508181036000830152614d3281614645565b9050919050565b60006020820190508181036000830152614d5281614668565b9050919050565b60006020820190508181036000830152614d728161468b565b9050919050565b60006020820190508181036000830152614d92816146ae565b9050919050565b60006020820190508181036000830152614db2816146d1565b9050919050565b60006020820190508181036000830152614dd2816146f4565b9050919050565b60006020820190508181036000830152614df28161473a565b9050919050565b60006020820190508181036000830152614e128161475d565b9050919050565b60006020820190508181036000830152614e3281614780565b9050919050565b60006020820190508181036000830152614e52816147a3565b9050919050565b60006020820190508181036000830152614e72816147c6565b9050919050565b60006020820190508181036000830152614e92816147e9565b9050919050565b60006020820190508181036000830152614eb28161480c565b9050919050565b60006020820190508181036000830152614ed28161482f565b9050919050565b60006020820190508181036000830152614ef281614852565b9050919050565b60006020820190508181036000830152614f1281614875565b9050919050565b60006020820190508181036000830152614f3281614898565b9050919050565b60006020820190508181036000830152614f52816148bb565b9050919050565b60006020820190508181036000830152614f72816148de565b9050919050565b60006020820190508181036000830152614f9281614901565b9050919050565b60006020820190508181036000830152614fb281614924565b9050919050565b60006020820190508181036000830152614fd281614947565b9050919050565b60006020820190508181036000830152614ff28161496a565b9050919050565b600060208201905081810360008301526150128161498d565b9050919050565b60006020820190508181036000830152615032816149b0565b9050919050565b60006020820190508181036000830152615052816149d3565b9050919050565b60006020820190508181036000830152615072816149f6565b9050919050565b6000602082019050818103600083015261509281614a19565b9050919050565b600060208201905081810360008301526150b281614a3c565b9050919050565b600060208201905081810360008301526150d281614a5f565b9050919050565b600060208201905081810360008301526150f281614a82565b9050919050565b600060208201905061510e6000830184614ab4565b92915050565b600061511e61512f565b905061512a828261543b565b919050565b6000604051905090565b600067ffffffffffffffff8211156151545761515361557d565b5b602082029050602081019050919050565b600067ffffffffffffffff8211156151805761517f61557d565b5b615189826155ac565b9050602081019050919050565b6000819050602082019050919050565b60008190508160005260206000209050919050565b600081519050919050565b600081519050919050565b600081519050919050565b6000602082019050919050565b600082825260208201905092915050565b600082825260208201905092915050565b600082825260208201905092915050565b600081905092915050565b6000615232826153b0565b915061523d836153b0565b9250827fffffffffffffffffffffffffffffffffffffffffffffffffffffffffffffffff03821115615272576152716154f0565b5b828201905092915050565b6000615288826153b0565b9150615293836153b0565b9250826152a3576152a261551f565b5b828204905092915050565b60006152b9826153b0565b91506152c4836153b0565b9250817fffffffffffffffffffffffffffffffffffffffffffffffffffffffffffffffff04831182151516156152fd576152fc6154f0565b5b828202905092915050565b6000615313826153b0565b915061531e836153b0565b925082821015615331576153306154f0565b5b828203905092915050565b600061534782615390565b9050919050565b60008115159050919050565b6000819050919050565b60007fffffffff0000000000000000000000000000000000000000000000000000000082169050919050565b600073ffffffffffffffffffffffffffffffffffffffff82169050919050565b6000819050919050565b600060ff82169050919050565b82818337600083830152505050565b60005b838110156153f45780820151818401526020810190506153d9565b83811115615403576000848401525b50505050565b6000600282049050600182168061542157607f821691505b602082108114156154355761543461554e565b5b50919050565b615444826155ac565b810181811067ffffffffffffffff821117156154635761546261557d565b5b80604052505050565b6000615477826153b0565b91507fffffffffffffffffffffffffffffffffffffffffffffffffffffffffffffffff8214156154aa576154a96154f0565b5b600182019050919050565b6000819050919050565b60006154ca826153b0565b91506154d5836153b0565b9250826154e5576154e461551f565b5b828206905092915050565b7f4e487b7100000000000000000000000000000000000000000000000000000000600052601160045260246000fd5b7f4e487b7100000000000000000000000000000000000000000000000000000000600052601260045260246000fd5b7f4e487b7100000000000000000000000000000000000000000000000000000000600052602260045260246000fd5b7f4e487b7100000000000000000000000000000000000000000000000000000000600052604160045260246000fd5b6000601f19601f8301169050919050565b7f45434453413a20696e76616c6964207369676e61747572650000000000000000600082015250565b7f53616c65206861736e277420737461727465642e000000000000000000000000600082015250565b7f45434453413a20696e76616c6964207369676e6174757265206c656e67746800600082015250565b7f455243373231456e756d657261626c653a206f776e657220696e646578206f7560008201527f74206f6620626f756e6473000000000000000000000000000000000000000000602082015250565b7f4552433732313a207472616e7366657220746f206e6f6e20455243373231526560008201527f63656976657220696d706c656d656e7465720000000000000000000000000000602082015250565b7f4f776e61626c653a206e6577206f776e657220697320746865207a65726f206160008201527f6464726573730000000000000000000000000000000000000000000000000000602082015250565b7f4552433732313a20746f6b656e20616c7265616479206d696e74656400000000600082015250565b7f1901000000000000000000000000000000000000000000000000000000000000600082015250565b7f4552433732313a207472616e7366657220746f20746865207a65726f2061646460008201527f7265737300000000000000000000000000000000000000000000000000000000602082015250565b7f4552433732313a20617070726f766520746f2063616c6c657200000000000000600082015250565b7f50726573616c65206861736e277420737461727465642e000000000000000000600082015250565b7f45434453413a20696e76616c6964207369676e6174757265202773272076616c60008201527f7565000000000000000000000000000000000000000000000000000000000000602082015250565b7f4552433732313a206f70657261746f7220717565727920666f72206e6f6e657860008201527f697374656e7420746f6b656e0000000000000000000000000000000000000000602082015250565b7f4578636565647320746865204d41585f53414d555241492e0000000000000000600082015250565b7f4552433732313a20617070726f76652063616c6c6572206973206e6f74206f7760008201527f6e6572206e6f7220617070726f76656420666f7220616c6c0000000000000000602082015250565b7f4552433732313a2062616c616e636520717565727920666f7220746865207a6560008201527f726f206164647265737300000000000000000000000000000000000000000000602082015250565b7f4552433732313a206f776e657220717565727920666f72206e6f6e657869737460008201527f656e7420746f6b656e0000000000000000000000000000000000000000000000602082015250565b7f544f4b454e5f4e4f545f45584953545300000000000000000000000000000000600082015250565b7f45434453413a20696e76616c6964207369676e6174757265202776272076616c60008201527f7565000000000000000000000000000000000000000000000000000000000000602082015250565b7f4552433732313a206d696e7420746f20746865207a65726f2061646472657373600082015250565b7f4552433732313a20617070726f76656420717565727920666f72206e6f6e657860008201527f697374656e7420746f6b656e0000000000000000000000000000000000000000602082015250565b7f4f776e61626c653a2063616c6c6572206973206e6f7420746865206f776e6572600082015250565b7f596f752063616e206d696e74206d696e696d756d20312c206d6178696d756d2060008201527f35302070756e6b732e0000000000000000000000000000000000000000000000602082015250565b7f4552433732313a207472616e73666572206f6620746f6b656e2074686174206960008201527f73206e6f74206f776e0000000000000000000000000000000000000000000000602082015250565b7f45786365656420746865207175616e7469747920746861742063616e2062652060008201527f636c61696d656400000000000000000000000000000000000000000000000000602082015250565b7f4552433732313a20617070726f76616c20746f2063757272656e74206f776e6560008201527f7200000000000000000000000000000000000000000000000000000000000000602082015250565b7f45746865722076616c75652073656e742069732062656c6f772074686520707260008201527f6963652e00000000000000000000000000000000000000000000000000000000602082015250565b7f45786365656473204d41585f53414d555241492e000000000000000000000000600082015250565b7f4552433732313a207472616e736665722063616c6c6572206973206e6f74206f60008201527f776e6572206e6f7220617070726f766564000000000000000000000000000000602082015250565b7f4e6f7420656c696769626c6520666f722070726573616c652e00000000000000600082015250565b7f455243373231456e756d657261626c653a20676c6f62616c20696e646578206f60008201527f7574206f6620626f756e64730000000000000000000000000000000000000000602082015250565b7f45786365656473206d61782070726573616c65206e756d6265722e0000000000600082015250565b7f536f6c64206f7574210000000000000000000000000000000000000000000000600082015250565b615dbb8161533c565b8114615dc657600080fd5b50565b615dd28161534e565b8114615ddd57600080fd5b50565b615de981615364565b8114615df457600080fd5b50565b615e00816153b0565b8114615e0b57600080fd5b5056fea264697066735822122034f7800f02e450980395ceb1cbeabfa85ff9c34d7366a85cb206b3217307bd1464736f6c63430008040033687474703a2f2f6170692e6b6174616e616e73616d757261692e6172742f4d657461646174612f",
  "devdoc": {
    "kind": "dev",
    "methods": {
      "approve(address,uint256)": {
        "details": "See {IERC721-approve}."
      },
      "balanceOf(address)": {
        "details": "See {IERC721-balanceOf}."
      },
      "getApproved(uint256)": {
        "details": "See {IERC721-getApproved}."
      },
      "isApprovedForAll(address,address)": {
        "details": "See {IERC721-isApprovedForAll}."
      },
      "name()": {
        "details": "See {IERC721Metadata-name}."
      },
      "owner()": {
        "details": "Returns the address of the current owner."
      },
      "ownerOf(uint256)": {
        "details": "See {IERC721-ownerOf}."
      },
      "renounceOwnership()": {
        "details": "Leaves the contract without owner. It will not be possible to call `onlyOwner` functions anymore. Can only be called by the current owner. NOTE: Renouncing ownership will leave the contract without an owner, thereby removing any functionality that is only available to the owner."
      },
      "safeTransferFrom(address,address,uint256)": {
        "details": "See {IERC721-safeTransferFrom}."
      },
      "safeTransferFrom(address,address,uint256,bytes)": {
        "details": "See {IERC721-safeTransferFrom}."
      },
      "setApprovalForAll(address,bool)": {
        "details": "See {IERC721-setApprovalForAll}."
      },
      "supportsInterface(bytes4)": {
        "details": "See {IERC165-supportsInterface}."
      },
      "symbol()": {
        "details": "See {IERC721Metadata-symbol}."
      },
      "tokenByIndex(uint256)": {
        "details": "See {IERC721Enumerable-tokenByIndex}."
      },
      "tokenOfOwnerByIndex(address,uint256)": {
        "details": "See {IERC721Enumerable-tokenOfOwnerByIndex}."
      },
      "tokenURI(uint256)": {
        "details": "See {IERC721Metadata-tokenURI}."
      },
      "totalSupply()": {
        "details": "See {IERC721Enumerable-totalSupply}."
      },
      "transferFrom(address,address,uint256)": {
        "details": "See {IERC721-transferFrom}."
      },
      "transferOwnership(address)": {
        "details": "Transfers ownership of the contract to a new account (`newOwner`). Can only be called by the current owner."
      }
    },
    "version": 1
  },
  "userdoc": {
    "kind": "user",
    "methods": {},
    "version": 1
  },
  "storageLayout": {
    "storage": [
      {
        "astId": 7,
        "contract": "contracts/KatanaNSamurai2.sol:KatanaNSamurai2",
        "label": "_owner",
        "offset": 0,
        "slot": "0",
        "type": "t_address"
      },
      {
        "astId": 129,
        "contract": "contracts/KatanaNSamurai2.sol:KatanaNSamurai2",
        "label": "_name",
        "offset": 0,
        "slot": "1",
        "type": "t_string_storage"
      },
      {
        "astId": 131,
        "contract": "contracts/KatanaNSamurai2.sol:KatanaNSamurai2",
        "label": "_symbol",
        "offset": 0,
        "slot": "2",
        "type": "t_string_storage"
      },
      {
        "astId": 135,
        "contract": "contracts/KatanaNSamurai2.sol:KatanaNSamurai2",
        "label": "_owners",
        "offset": 0,
        "slot": "3",
        "type": "t_mapping(t_uint256,t_address)"
      },
      {
        "astId": 139,
        "contract": "contracts/KatanaNSamurai2.sol:KatanaNSamurai2",
        "label": "_balances",
        "offset": 0,
        "slot": "4",
        "type": "t_mapping(t_address,t_uint256)"
      },
      {
        "astId": 143,
        "contract": "contracts/KatanaNSamurai2.sol:KatanaNSamurai2",
        "label": "_tokenApprovals",
        "offset": 0,
        "slot": "5",
        "type": "t_mapping(t_uint256,t_address)"
      },
      {
        "astId": 149,
        "contract": "contracts/KatanaNSamurai2.sol:KatanaNSamurai2",
        "label": "_operatorApprovals",
        "offset": 0,
        "slot": "6",
        "type": "t_mapping(t_address,t_mapping(t_address,t_bool))"
      },
      {
        "astId": 1068,
        "contract": "contracts/KatanaNSamurai2.sol:KatanaNSamurai2",
        "label": "_ownedTokens",
        "offset": 0,
        "slot": "7",
        "type": "t_mapping(t_address,t_mapping(t_uint256,t_uint256))"
      },
      {
        "astId": 1072,
        "contract": "contracts/KatanaNSamurai2.sol:KatanaNSamurai2",
        "label": "_ownedTokensIndex",
        "offset": 0,
        "slot": "8",
        "type": "t_mapping(t_uint256,t_uint256)"
      },
      {
        "astId": 1075,
        "contract": "contracts/KatanaNSamurai2.sol:KatanaNSamurai2",
        "label": "_allTokens",
        "offset": 0,
        "slot": "9",
        "type": "t_array(t_uint256)dyn_storage"
      },
      {
        "astId": 1079,
        "contract": "contracts/KatanaNSamurai2.sol:KatanaNSamurai2",
        "label": "_allTokensIndex",
        "offset": 0,
        "slot": "10",
        "type": "t_mapping(t_uint256,t_uint256)"
      },
      {
        "astId": 2857,
        "contract": "contracts/KatanaNSamurai2.sol:KatanaNSamurai2",
        "label": "KNS1Address",
        "offset": 0,
        "slot": "11",
        "type": "t_address"
      },
      {
        "astId": 2863,
        "contract": "contracts/KatanaNSamurai2.sol:KatanaNSamurai2",
        "label": "KNS1Contract",
        "offset": 0,
        "slot": "12",
        "type": "t_contract(KNS1Interface)2842"
      },
      {
        "astId": 2866,
        "contract": "contracts/KatanaNSamurai2.sol:KatanaNSamurai2",
        "label": "MAX_SAMURAI",
        "offset": 0,
        "slot": "13",
        "type": "t_uint256"
      },
      {
        "astId": 2869,
        "contract": "contracts/KatanaNSamurai2.sol:KatanaNSamurai2",
        "label": "MAX_PRESALE",
        "offset": 0,
        "slot": "14",
        "type": "t_uint256"
      },
      {
        "astId": 2872,
        "contract": "contracts/KatanaNSamurai2.sol:KatanaNSamurai2",
        "label": "PRICE",
        "offset": 0,
        "slot": "15",
        "type": "t_uint256"
      },
      {
        "astId": 2875,
        "contract": "contracts/KatanaNSamurai2.sol:KatanaNSamurai2",
        "label": "numPresale",
        "offset": 0,
        "slot": "16",
        "type": "t_uint256"
      },
      {
        "astId": 2878,
        "contract": "contracts/KatanaNSamurai2.sol:KatanaNSamurai2",
        "label": "numTokens",
        "offset": 0,
        "slot": "17",
        "type": "t_uint256"
      },
      {
        "astId": 2881,
        "contract": "contracts/KatanaNSamurai2.sol:KatanaNSamurai2",
        "label": "numClaim",
        "offset": 0,
        "slot": "18",
        "type": "t_uint256"
      },
      {
        "astId": 2884,
        "contract": "contracts/KatanaNSamurai2.sol:KatanaNSamurai2",
        "label": "hasSaleStarted",
        "offset": 0,
        "slot": "19",
        "type": "t_bool"
      },
      {
        "astId": 2887,
        "contract": "contracts/KatanaNSamurai2.sol:KatanaNSamurai2",
        "label": "hasPresaleStarted",
        "offset": 1,
        "slot": "19",
        "type": "t_bool"
      },
      {
        "astId": 2890,
        "contract": "contracts/KatanaNSamurai2.sol:KatanaNSamurai2",
        "label": "_baseTokenURI",
        "offset": 0,
        "slot": "20",
        "type": "t_string_storage"
      },
      {
        "astId": 2894,
        "contract": "contracts/KatanaNSamurai2.sol:KatanaNSamurai2",
        "label": "hasClaimed",
        "offset": 0,
        "slot": "21",
        "type": "t_mapping(t_address,t_uint256)"
      },
      {
        "astId": 2898,
        "contract": "contracts/KatanaNSamurai2.sol:KatanaNSamurai2",
        "label": "hasPresale",
        "offset": 0,
        "slot": "22",
        "type": "t_mapping(t_address,t_uint256)"
      }
    ],
    "types": {
      "t_address": {
        "encoding": "inplace",
        "label": "address",
        "numberOfBytes": "20"
      },
      "t_array(t_uint256)dyn_storage": {
        "base": "t_uint256",
        "encoding": "dynamic_array",
        "label": "uint256[]",
        "numberOfBytes": "32"
      },
      "t_bool": {
        "encoding": "inplace",
        "label": "bool",
        "numberOfBytes": "1"
      },
      "t_contract(KNS1Interface)2842": {
        "encoding": "inplace",
        "label": "contract KNS1Interface",
        "numberOfBytes": "20"
      },
      "t_mapping(t_address,t_bool)": {
        "encoding": "mapping",
        "key": "t_address",
        "label": "mapping(address => bool)",
        "numberOfBytes": "32",
        "value": "t_bool"
      },
      "t_mapping(t_address,t_mapping(t_address,t_bool))": {
        "encoding": "mapping",
        "key": "t_address",
        "label": "mapping(address => mapping(address => bool))",
        "numberOfBytes": "32",
        "value": "t_mapping(t_address,t_bool)"
      },
      "t_mapping(t_address,t_mapping(t_uint256,t_uint256))": {
        "encoding": "mapping",
        "key": "t_address",
        "label": "mapping(address => mapping(uint256 => uint256))",
        "numberOfBytes": "32",
        "value": "t_mapping(t_uint256,t_uint256)"
      },
      "t_mapping(t_address,t_uint256)": {
        "encoding": "mapping",
        "key": "t_address",
        "label": "mapping(address => uint256)",
        "numberOfBytes": "32",
        "value": "t_uint256"
      },
      "t_mapping(t_uint256,t_address)": {
        "encoding": "mapping",
        "key": "t_uint256",
        "label": "mapping(uint256 => address)",
        "numberOfBytes": "32",
        "value": "t_address"
      },
      "t_mapping(t_uint256,t_uint256)": {
        "encoding": "mapping",
        "key": "t_uint256",
        "label": "mapping(uint256 => uint256)",
        "numberOfBytes": "32",
        "value": "t_uint256"
      },
      "t_string_storage": {
        "encoding": "bytes",
        "label": "string",
        "numberOfBytes": "32"
      },
      "t_uint256": {
        "encoding": "inplace",
        "label": "uint256",
        "numberOfBytes": "32"
      }
    }
  }
}