{
  "address": "0xCB65F8E529bE16b3e2fc647d1B6890521676aAae",
  "abi": [
    {
      "inputs": [],
      "stateMutability": "nonpayable",
      "type": "constructor"
    },
    {
      "anonymous": false,
      "inputs": [
        {
          "indexed": true,
          "internalType": "address",
          "name": "owner",
          "type": "address"
        },
        {
          "indexed": true,
          "internalType": "address",
          "name": "approved",
          "type": "address"
        },
        {
          "indexed": true,
          "internalType": "uint256",
          "name": "tokenId",
          "type": "uint256"
        }
      ],
      "name": "Approval",
      "type": "event"
    },
    {
      "anonymous": false,
      "inputs": [
        {
          "indexed": true,
          "internalType": "address",
          "name": "owner",
          "type": "address"
        },
        {
          "indexed": true,
          "internalType": "address",
          "name": "operator",
          "type": "address"
        },
        {
          "indexed": false,
          "internalType": "bool",
          "name": "approved",
          "type": "bool"
        }
      ],
      "name": "ApprovalForAll",
      "type": "event"
    },
    {
      "anonymous": false,
      "inputs": [
        {
          "indexed": true,
          "internalType": "address",
          "name": "previousOwner",
          "type": "address"
        },
        {
          "indexed": true,
          "internalType": "address",
          "name": "newOwner",
          "type": "address"
        }
      ],
      "name": "OwnershipTransferred",
      "type": "event"
    },
    {
      "anonymous": false,
      "inputs": [
        {
          "indexed": true,
          "internalType": "address",
          "name": "from",
          "type": "address"
        },
        {
          "indexed": true,
          "internalType": "address",
          "name": "to",
          "type": "address"
        },
        {
          "indexed": true,
          "internalType": "uint256",
          "name": "tokenId",
          "type": "uint256"
        }
      ],
      "name": "Transfer",
      "type": "event"
    },
    {
      "anonymous": false,
      "inputs": [
        {
          "indexed": false,
          "internalType": "address",
          "name": "owner",
          "type": "address"
        },
        {
          "indexed": false,
          "internalType": "uint256",
          "name": "numClaims",
          "type": "uint256"
        },
        {
          "indexed": false,
          "internalType": "uint256",
          "name": "totalClaim",
          "type": "uint256"
        }
      ],
      "name": "claimEvent",
      "type": "event"
    },
    {
      "anonymous": false,
      "inputs": [
        {
          "indexed": false,
          "internalType": "address",
          "name": "owner",
          "type": "address"
        },
        {
          "indexed": false,
          "internalType": "uint256",
          "name": "numPurchase",
          "type": "uint256"
        },
        {
          "indexed": false,
          "internalType": "uint256",
          "name": "totalSale",
          "type": "uint256"
        }
      ],
      "name": "mintEvent",
      "type": "event"
    },
    {
      "inputs": [],
      "name": "MAX_PRESALE",
      "outputs": [
        {
          "internalType": "uint256",
          "name": "",
          "type": "uint256"
        }
      ],
      "stateMutability": "view",
      "type": "function"
    },
    {
      "inputs": [],
      "name": "MAX_SAMURAI",
      "outputs": [
        {
          "internalType": "uint256",
          "name": "",
          "type": "uint256"
        }
      ],
      "stateMutability": "view",
      "type": "function"
    },
    {
      "inputs": [],
      "name": "PRICE",
      "outputs": [
        {
          "internalType": "uint256",
          "name": "",
          "type": "uint256"
        }
      ],
      "stateMutability": "view",
      "type": "function"
    },
    {
      "inputs": [
        {
          "internalType": "address",
          "name": "to",
          "type": "address"
        },
        {
          "internalType": "uint256",
          "name": "tokenId",
          "type": "uint256"
        }
      ],
      "name": "approve",
      "outputs": [],
      "stateMutability": "nonpayable",
      "type": "function"
    },
    {
      "inputs": [
        {
          "internalType": "address",
          "name": "owner",
          "type": "address"
        }
      ],
      "name": "balanceOf",
      "outputs": [
        {
          "internalType": "uint256",
          "name": "",
          "type": "uint256"
        }
      ],
      "stateMutability": "view",
      "type": "function"
    },
    {
      "inputs": [
        {
          "internalType": "uint256",
          "name": "quantity",
          "type": "uint256"
        }
      ],
      "name": "claimSamurai",
      "outputs": [],
      "stateMutability": "nonpayable",
      "type": "function"
    },
    {
      "inputs": [
        {
          "internalType": "uint256",
          "name": "tokenId",
          "type": "uint256"
        }
      ],
      "name": "getApproved",
      "outputs": [
        {
          "internalType": "address",
          "name": "",
          "type": "address"
        }
      ],
      "stateMutability": "view",
      "type": "function"
    },
    {
      "inputs": [
        {
          "internalType": "address",
          "name": "_to",
          "type": "address"
        },
        {
          "internalType": "uint256",
          "name": "quantity",
          "type": "uint256"
        }
      ],
      "name": "giveawayMintSamurai",
      "outputs": [],
      "stateMutability": "nonpayable",
      "type": "function"
    },
    {
      "inputs": [],
      "name": "hasClaimeStarted",
      "outputs": [
        {
          "internalType": "bool",
          "name": "",
          "type": "bool"
        }
      ],
      "stateMutability": "view",
      "type": "function"
    },
    {
      "inputs": [
        {
          "internalType": "address",
          "name": "",
          "type": "address"
        }
      ],
      "name": "hasClaimed",
      "outputs": [
        {
          "internalType": "uint256",
          "name": "",
          "type": "uint256"
        }
      ],
      "stateMutability": "view",
      "type": "function"
    },
    {
      "inputs": [
        {
          "internalType": "address",
          "name": "",
          "type": "address"
        }
      ],
      "name": "hasPresale",
      "outputs": [
        {
          "internalType": "uint256",
          "name": "",
          "type": "uint256"
        }
      ],
      "stateMutability": "view",
      "type": "function"
    },
    {
      "inputs": [],
      "name": "hasPresaleStarted",
      "outputs": [
        {
          "internalType": "bool",
          "name": "",
          "type": "bool"
        }
      ],
      "stateMutability": "view",
      "type": "function"
    },
    {
      "inputs": [],
      "name": "hasSaleStarted",
      "outputs": [
        {
          "internalType": "bool",
          "name": "",
          "type": "bool"
        }
      ],
      "stateMutability": "view",
      "type": "function"
    },
    {
      "inputs": [
        {
          "internalType": "address",
          "name": "owner",
          "type": "address"
        },
        {
          "internalType": "address",
          "name": "operator",
          "type": "address"
        }
      ],
      "name": "isApprovedForAll",
      "outputs": [
        {
          "internalType": "bool",
          "name": "",
          "type": "bool"
        }
      ],
      "stateMutability": "view",
      "type": "function"
    },
    {
      "inputs": [
        {
          "internalType": "uint256",
          "name": "maxClaimNumOnPresale",
          "type": "uint256"
        },
        {
          "internalType": "bytes",
          "name": "SIGNATURE",
          "type": "bytes"
        }
      ],
      "name": "isPresaleEligible",
      "outputs": [
        {
          "internalType": "bool",
          "name": "",
          "type": "bool"
        }
      ],
      "stateMutability": "view",
      "type": "function"
    },
    {
      "inputs": [
        {
          "internalType": "uint256",
          "name": "quantity",
          "type": "uint256"
        },
        {
          "internalType": "uint256",
          "name": "maxClaimNumOnPresale",
          "type": "uint256"
        },
        {
          "internalType": "bytes",
          "name": "SIGNATURE",
          "type": "bytes"
        }
      ],
      "name": "mintPresaleSamurai",
      "outputs": [],
      "stateMutability": "payable",
      "type": "function"
    },
    {
      "inputs": [
        {
          "internalType": "uint256",
          "name": "numPurchase",
          "type": "uint256"
        }
      ],
      "name": "mintSamurai",
      "outputs": [],
      "stateMutability": "payable",
      "type": "function"
    },
    {
      "inputs": [],
      "name": "name",
      "outputs": [
        {
          "internalType": "string",
          "name": "",
          "type": "string"
        }
      ],
      "stateMutability": "view",
      "type": "function"
    },
    {
      "inputs": [],
      "name": "numClaim",
      "outputs": [
        {
          "internalType": "uint256",
          "name": "",
          "type": "uint256"
        }
      ],
      "stateMutability": "view",
      "type": "function"
    },
    {
      "inputs": [],
      "name": "numPresale",
      "outputs": [
        {
          "internalType": "uint256",
          "name": "",
          "type": "uint256"
        }
      ],
      "stateMutability": "view",
      "type": "function"
    },
    {
      "inputs": [],
      "name": "numTokens",
      "outputs": [
        {
          "internalType": "uint256",
          "name": "",
          "type": "uint256"
        }
      ],
      "stateMutability": "view",
      "type": "function"
    },
    {
      "inputs": [],
      "name": "owner",
      "outputs": [
        {
          "internalType": "address",
          "name": "",
          "type": "address"
        }
      ],
      "stateMutability": "view",
      "type": "function"
    },
    {
      "inputs": [
        {
          "internalType": "uint256",
          "name": "tokenId",
          "type": "uint256"
        }
      ],
      "name": "ownerOf",
      "outputs": [
        {
          "internalType": "address",
          "name": "",
          "type": "address"
        }
      ],
      "stateMutability": "view",
      "type": "function"
    },
    {
      "inputs": [],
      "name": "pausePresale",
      "outputs": [],
      "stateMutability": "nonpayable",
      "type": "function"
    },
    {
      "inputs": [],
      "name": "pauseSale",
      "outputs": [],
      "stateMutability": "nonpayable",
      "type": "function"
    },
    {
      "inputs": [],
      "name": "renounceOwnership",
      "outputs": [],
      "stateMutability": "nonpayable",
      "type": "function"
    },
    {
      "inputs": [
        {
          "internalType": "address",
          "name": "from",
          "type": "address"
        },
        {
          "internalType": "address",
          "name": "to",
          "type": "address"
        },
        {
          "internalType": "uint256",
          "name": "tokenId",
          "type": "uint256"
        }
      ],
      "name": "safeTransferFrom",
      "outputs": [],
      "stateMutability": "nonpayable",
      "type": "function"
    },
    {
      "inputs": [
        {
          "internalType": "address",
          "name": "from",
          "type": "address"
        },
        {
          "internalType": "address",
          "name": "to",
          "type": "address"
        },
        {
          "internalType": "uint256",
          "name": "tokenId",
          "type": "uint256"
        },
        {
          "internalType": "bytes",
          "name": "_data",
          "type": "bytes"
        }
      ],
      "name": "safeTransferFrom",
      "outputs": [],
      "stateMutability": "nonpayable",
      "type": "function"
    },
    {
      "inputs": [
        {
          "internalType": "address",
          "name": "operator",
          "type": "address"
        },
        {
          "internalType": "bool",
          "name": "approved",
          "type": "bool"
        }
      ],
      "name": "setApprovalForAll",
      "outputs": [],
      "stateMutability": "nonpayable",
      "type": "function"
    },
    {
      "inputs": [
        {
          "internalType": "uint256",
          "name": "_MAX_PS_num",
          "type": "uint256"
        }
      ],
      "name": "setMAX_PRESALE",
      "outputs": [],
      "stateMutability": "nonpayable",
      "type": "function"
    },
    {
      "inputs": [
        {
          "internalType": "uint256",
          "name": "_MAX_num",
          "type": "uint256"
        }
      ],
      "name": "setMAX_SAMURAI",
      "outputs": [],
      "stateMutability": "nonpayable",
      "type": "function"
    },
    {
      "inputs": [
        {
          "internalType": "string",
          "name": "_tokenURI",
          "type": "string"
        }
      ],
      "name": "setURI",
      "outputs": [],
      "stateMutability": "nonpayable",
      "type": "function"
    },
    {
      "inputs": [
        {
          "internalType": "uint256",
          "name": "_price",
          "type": "uint256"
        }
      ],
      "name": "set_PRICE",
      "outputs": [],
      "stateMutability": "nonpayable",
      "type": "function"
    },
    {
      "inputs": [],
      "name": "startPresale",
      "outputs": [],
      "stateMutability": "nonpayable",
      "type": "function"
    },
    {
      "inputs": [],
      "name": "startSale",
      "outputs": [],
      "stateMutability": "nonpayable",
      "type": "function"
    },
    {
      "inputs": [
        {
          "internalType": "bytes4",
          "name": "interfaceId",
          "type": "bytes4"
        }
      ],
      "name": "supportsInterface",
      "outputs": [
        {
          "internalType": "bool",
          "name": "",
          "type": "bool"
        }
      ],
      "stateMutability": "view",
      "type": "function"
    },
    {
      "inputs": [],
      "name": "symbol",
      "outputs": [
        {
          "internalType": "string",
          "name": "",
          "type": "string"
        }
      ],
      "stateMutability": "view",
      "type": "function"
    },
    {
      "inputs": [
        {
          "internalType": "uint256",
          "name": "index",
          "type": "uint256"
        }
      ],
      "name": "tokenByIndex",
      "outputs": [
        {
          "internalType": "uint256",
          "name": "",
          "type": "uint256"
        }
      ],
      "stateMutability": "view",
      "type": "function"
    },
    {
      "inputs": [
        {
          "internalType": "address",
          "name": "owner",
          "type": "address"
        },
        {
          "internalType": "uint256",
          "name": "index",
          "type": "uint256"
        }
      ],
      "name": "tokenOfOwnerByIndex",
      "outputs": [
        {
          "internalType": "uint256",
          "name": "",
          "type": "uint256"
        }
      ],
      "stateMutability": "view",
      "type": "function"
    },
    {
      "inputs": [
        {
          "internalType": "uint256",
          "name": "tokenId",
          "type": "uint256"
        }
      ],
      "name": "tokenURI",
      "outputs": [
        {
          "internalType": "string",
          "name": "",
          "type": "string"
        }
      ],
      "stateMutability": "view",
      "type": "function"
    },
    {
      "inputs": [
        {
          "internalType": "address",
          "name": "_owner",
          "type": "address"
        }
      ],
      "name": "tokensOfOwner",
      "outputs": [
        {
          "internalType": "uint256[]",
          "name": "",
          "type": "uint256[]"
        }
      ],
      "stateMutability": "view",
      "type": "function"
    },
    {
      "inputs": [],
      "name": "totalSupply",
      "outputs": [
        {
          "internalType": "uint256",
          "name": "",
          "type": "uint256"
        }
      ],
      "stateMutability": "view",
      "type": "function"
    },
    {
      "inputs": [
        {
          "internalType": "address",
          "name": "from",
          "type": "address"
        },
        {
          "internalType": "address",
          "name": "to",
          "type": "address"
        },
        {
          "internalType": "uint256",
          "name": "tokenId",
          "type": "uint256"
        }
      ],
      "name": "transferFrom",
      "outputs": [],
      "stateMutability": "nonpayable",
      "type": "function"
    },
    {
      "inputs": [
        {
          "internalType": "address",
          "name": "newOwner",
          "type": "address"
        }
      ],
      "name": "transferOwnership",
      "outputs": [],
      "stateMutability": "nonpayable",
      "type": "function"
    },
    {
      "inputs": [],
      "name": "withdrawAll",
      "outputs": [],
      "stateMutability": "payable",
      "type": "function"
    }
  ],
  "transactionHash": "0x8208ec79ec9eb8229f21ecc12f1ce00457a6f95f26fb89c6770cd2bdd9eb05c3",
  "args": [],
  "solcInputHash": "895b6eb22ab1aaec946c61681b413cfa",
  "bytecode": "0x61012060405273d6499dac79a48cf21b7a6344a551a52da943e10c600b60006101000a81548173ffffffffffffffffffffffffffffffffffffffff021916908373ffffffffffffffffffffffffffffffffffffffff160217905550600b60009054906101000a900473ffffffffffffffffffffffffffffffffffffffff16600c60006101000a81548173ffffffffffffffffffffffffffffffffffffffff021916908373ffffffffffffffffffffffffffffffffffffffff160217905550612990600d55611770600e5566b1a2bc2ec50000600f5560006010556107d060115560006012556001601360006101000a81548160ff0219169083151502179055506001601360016101000a81548160ff0219169083151502179055506001601360026101000a81548160ff021916908315150217905550604051806060016040528060278152602001620065636027913960149080519060200190620001669291906200042c565b503480156200017457600080fd5b506040518060400160405280601281526020017f4b6174616e61204e2053616d75726169203200000000000000000000000000008152506040518060400160405280600681526020017f4b4e53322e3000000000000000000000000000000000000000000000000000008152506040518060400160405280601281526020017f4b6174616e61204e2053616d75726169203200000000000000000000000000008152506040518060400160405280600581526020017f312e302e300000000000000000000000000000000000000000000000000000008152506200026d620002616200032460201b60201c565b6200032c60201b60201c565b60008280519060200120905060008280519060200120905060007f8b73c3c69bb8fe3d512ecc4cf759cc79239f7b179b0ffacaa9a75d522b39400f90508260c081815250508160e081815250504660a08181525050620002d5818484620003f060201b60201c565b6080818152505080610100818152505050505050508160019080519060200190620003029291906200042c565b5080600290805190602001906200031b9291906200042c565b50505062000619565b600033905090565b60008060009054906101000a900473ffffffffffffffffffffffffffffffffffffffff169050816000806101000a81548173ffffffffffffffffffffffffffffffffffffffff021916908373ffffffffffffffffffffffffffffffffffffffff1602179055508173ffffffffffffffffffffffffffffffffffffffff168173ffffffffffffffffffffffffffffffffffffffff167f8be0079c531659141344cd1fd0a4f28419497f9722a3daafe3b4186f6b6457e060405160405180910390a35050565b600083838346306040516020016200040d9594939291906200050f565b6040516020818303038152906040528051906020012090509392505050565b8280546200043a90620005b4565b90600052602060002090601f0160209004810192826200045e5760008555620004aa565b82601f106200047957805160ff1916838001178555620004aa565b82800160010185558215620004aa579182015b82811115620004a95782518255916020019190600101906200048c565b5b509050620004b99190620004bd565b5090565b5b80821115620004d8576000816000905550600101620004be565b5090565b620004e7816200056c565b82525050565b620004f88162000580565b82525050565b6200050981620005aa565b82525050565b600060a082019050620005266000830188620004ed565b620005356020830187620004ed565b620005446040830186620004ed565b620005536060830185620004fe565b620005626080830184620004dc565b9695505050505050565b600062000579826200058a565b9050919050565b6000819050919050565b600073ffffffffffffffffffffffffffffffffffffffff82169050919050565b6000819050919050565b60006002820490506001821680620005cd57607f821691505b60208210811415620005e457620005e3620005ea565b5b50919050565b7f4e487b7100000000000000000000000000000000000000000000000000000000600052602260045260246000fd5b60805160a05160c05160e05161010051615f056200065e6000396000613063015260006130a50152600061308401526000613010015260006130380152615f056000f3fe6080604052600436106102725760003560e01c80636456c2051161014f57806395d89b41116100c1578063c87b56dd1161007a578063c87b56dd14610905578063de9af03814610942578063e136fe731461096b578063e985e9c514610994578063f2fde38b146109d1578063f69b66ef146109fa57610272565b806395d89b411461082a578063a22cb46514610855578063b02200151461087e578063b66a0e5d146108a9578063b6791cfa146108c0578063b88d4fde146108dc57610272565b80638462151c116101135780638462151c14610737578063853828b614610774578063872b25b01461077e5780638d859f3e146107a95780638da5cb5b146107d45780638e499bcf146107ff57610272565b80636456c2051461064057806369cff3471461066957806370a08231146106a6578063715018a6146106e357806373b2e80e146106fa57610272565b80631c8b232d116101e85780634d4c4e99116101ac5780634d4c4e991461052e5780634f6ccce714610559578063544657731461059657806355367ba9146105c15780635edbad0a146105d85780636352211e1461060357610272565b80631c8b232d1461045857806323b872dd146104835780632bf831f0146104ac5780632f745c59146104c857806342842e0e1461050557610272565b806306fdde031161023a57806306fdde0314610348578063070f5c0914610373578063081812fc1461038a578063095ea7b3146103c757806317376bfa146103f057806318160ddd1461042d57610272565b806301ffc9a71461027757806302fe5305146102b457806304c98b2b146102dd57806304f60205146102f4578063063315921461031f575b600080fd5b34801561028357600080fd5b5061029e60048036038101906102999190614320565b610a23565b6040516102ab9190614c65565b60405180910390f35b3480156102c057600080fd5b506102db60048036038101906102d69190614372565b610a9d565b005b3480156102e957600080fd5b506102f2610b2f565b005b34801561030057600080fd5b50610309610bc8565b6040516103169190614c65565b60405180910390f35b34801561032b57600080fd5b50610346600480360381019061034191906143b7565b610bdb565b005b34801561035457600080fd5b5061035d610c61565b60405161036a9190614d4f565b60405180910390f35b34801561037f57600080fd5b50610388610cf3565b005b34801561039657600080fd5b506103b160048036038101906103ac91906143b7565b610d8c565b6040516103be9190614ba5565b60405180910390f35b3480156103d357600080fd5b506103ee60048036038101906103e991906142a3565b610e11565b005b3480156103fc57600080fd5b50610417600480360381019061041291906143e0565b610f29565b6040516104249190614c65565b60405180910390f35b34801561043957600080fd5b50610442610fd0565b60405161044f9190615191565b60405180910390f35b34801561046457600080fd5b5061046d610fdd565b60405161047a9190614c65565b60405180910390f35b34801561048f57600080fd5b506104aa60048036038101906104a5919061419d565b610ff0565b005b6104c660048036038101906104c19190614434565b611050565b005b3480156104d457600080fd5b506104ef60048036038101906104ea91906142a3565b61137d565b6040516104fc9190615191565b60405180910390f35b34801561051157600080fd5b5061052c6004803603810190610527919061419d565b611422565b005b34801561053a57600080fd5b50610543611442565b6040516105509190615191565b60405180910390f35b34801561056557600080fd5b50610580600480360381019061057b91906143b7565b611448565b60405161058d9190615191565b60405180910390f35b3480156105a257600080fd5b506105ab6114df565b6040516105b89190615191565b60405180910390f35b3480156105cd57600080fd5b506105d66114e5565b005b3480156105e457600080fd5b506105ed61157e565b6040516105fa9190615191565b60405180910390f35b34801561060f57600080fd5b5061062a600480360381019061062591906143b7565b611584565b6040516106379190614ba5565b60405180910390f35b34801561064c57600080fd5b50610667600480360381019061066291906143b7565b611636565b005b34801561067557600080fd5b50610690600480360381019061068b9190614138565b6116bc565b60405161069d9190615191565b60405180910390f35b3480156106b257600080fd5b506106cd60048036038101906106c89190614138565b6116d4565b6040516106da9190615191565b60405180910390f35b3480156106ef57600080fd5b506106f861178c565b005b34801561070657600080fd5b50610721600480360381019061071c9190614138565b611814565b60405161072e9190615191565b60405180910390f35b34801561074357600080fd5b5061075e60048036038101906107599190614138565b61182c565b60405161076b9190614c43565b60405180910390f35b61077c6119a8565b005b34801561078a57600080fd5b50610793611a64565b6040516107a09190615191565b60405180910390f35b3480156107b557600080fd5b506107be611a6a565b6040516107cb9190615191565b60405180910390f35b3480156107e057600080fd5b506107e9611a70565b6040516107f69190614ba5565b60405180910390f35b34801561080b57600080fd5b50610814611a99565b6040516108219190615191565b60405180910390f35b34801561083657600080fd5b5061083f611a9f565b60405161084c9190614d4f565b60405180910390f35b34801561086157600080fd5b5061087c60048036038101906108779190614267565b611b31565b005b34801561088a57600080fd5b50610893611cb2565b6040516108a09190614c65565b60405180910390f35b3480156108b557600080fd5b506108be611cc5565b005b6108da60048036038101906108d591906143b7565b611d5e565b005b3480156108e857600080fd5b5061090360048036038101906108fe91906141ec565b611f40565b005b34801561091157600080fd5b5061092c600480360381019061092791906143b7565b611fa2565b6040516109399190614d4f565b60405180910390f35b34801561094e57600080fd5b50610969600480360381019061096491906142a3565b61201e565b005b34801561097757600080fd5b50610992600480360381019061098d91906143b7565b612180565b005b3480156109a057600080fd5b506109bb60048036038101906109b69190614161565b612206565b6040516109c89190614c65565b60405180910390f35b3480156109dd57600080fd5b506109f860048036038101906109f39190614138565b61229a565b005b348015610a0657600080fd5b50610a216004803603810190610a1c91906143b7565b612392565b005b60007f780e9d63000000000000000000000000000000000000000000000000000000007bffffffffffffffffffffffffffffffffffffffffffffffffffffffff1916827bffffffffffffffffffffffffffffffffffffffffffffffffffffffff19161480610a965750610a95826126eb565b5b9050919050565b610aa56127cd565b73ffffffffffffffffffffffffffffffffffffffff16610ac3611a70565b73ffffffffffffffffffffffffffffffffffffffff1614610b19576040517f08c379a0000000000000000000000000000000000000000000000000000000008152600401610b1090615031565b60405180910390fd5b818160149190610b2a929190613ecf565b505050565b610b376127cd565b73ffffffffffffffffffffffffffffffffffffffff16610b55611a70565b73ffffffffffffffffffffffffffffffffffffffff1614610bab576040517f08c379a0000000000000000000000000000000000000000000000000000000008152600401610ba290615031565b60405180910390fd5b6001601360016101000a81548160ff021916908315150217905550565b601360029054906101000a900460ff1681565b610be36127cd565b73ffffffffffffffffffffffffffffffffffffffff16610c01611a70565b73ffffffffffffffffffffffffffffffffffffffff1614610c57576040517f08c379a0000000000000000000000000000000000000000000000000000000008152600401610c4e90615031565b60405180910390fd5b80600d8190555050565b606060018054610c70906154a1565b80601f0160208091040260200160405190810160405280929190818152602001828054610c9c906154a1565b8015610ce95780601f10610cbe57610100808354040283529160200191610ce9565b820191906000526020600020905b815481529060010190602001808311610ccc57829003601f168201915b5050505050905090565b610cfb6127cd565b73ffffffffffffffffffffffffffffffffffffffff16610d19611a70565b73ffffffffffffffffffffffffffffffffffffffff1614610d6f576040517f08c379a0000000000000000000000000000000000000000000000000000000008152600401610d6690615031565b60405180910390fd5b6000601360016101000a81548160ff021916908315150217905550565b6000610d97826127d5565b610dd6576040517f08c379a0000000000000000000000000000000000000000000000000000000008152600401610dcd90615011565b60405180910390fd5b6005600083815260200190815260200160002060009054906101000a900473ffffffffffffffffffffffffffffffffffffffff169050919050565b6000610e1c82611584565b90508073ffffffffffffffffffffffffffffffffffffffff168373ffffffffffffffffffffffffffffffffffffffff161415610e8d576040517f08c379a0000000000000000000000000000000000000000000000000000000008152600401610e8490615091565b60405180910390fd5b8073ffffffffffffffffffffffffffffffffffffffff16610eac6127cd565b73ffffffffffffffffffffffffffffffffffffffff161480610edb5750610eda81610ed56127cd565b612206565b5b610f1a576040517f08c379a0000000000000000000000000000000000000000000000000000000008152600401610f1190614f51565b60405180910390fd5b610f248383612841565b505050565b600080610f8f610f897f0824ba0e012705adec60b593e76a70b3db1e906d8666c54be5c764b993b68a1b610f5b6127cd565b87604051602001610f6e93929190614c80565b604051602081830303815290604052805190602001206128fa565b84612914565b90508073ffffffffffffffffffffffffffffffffffffffff16610fb0611a70565b73ffffffffffffffffffffffffffffffffffffffff161491505092915050565b6000600980549050905090565b601360009054906101000a900460ff1681565b611001610ffb6127cd565b8261293b565b611040576040517f08c379a0000000000000000000000000000000000000000000000000000000008152600401611037906150f1565b60405180910390fd5b61104b838383612a19565b505050565b60011515601360019054906101000a900460ff161515146110a6576040517f08c379a000000000000000000000000000000000000000000000000000000000815260040161109d90614ed1565b60405180910390fd5b6110b08282610f29565b6110ef576040517f08c379a00000000000000000000000000000000000000000000000000000000081526004016110e690615111565b60405180910390fd5b60008311801561115057508161114d84601660003373ffffffffffffffffffffffffffffffffffffffff1673ffffffffffffffffffffffffffffffffffffffff16815260200190815260200160002054612c7590919063ffffffff16565b11155b61118f576040517f08c379a000000000000000000000000000000000000000000000000000000000815260040161118690615151565b60405180910390fd5b6111a483600f54612c8b90919063ffffffff16565b3410156111e6576040517f08c379a00000000000000000000000000000000000000000000000000000000081526004016111dd906150b1565b60405180910390fd5b600d54611203846111f5610fd0565b612c7590919063ffffffff16565b1115611244576040517f08c379a000000000000000000000000000000000000000000000000000000000815260040161123b90614f31565b60405180910390fd5b60005b8381101561128a576112656001601154612c7590919063ffffffff16565b60118190555061127733601154612ca1565b808061128290615504565b915050611247565b506112dd83601660003373ffffffffffffffffffffffffffffffffffffffff1673ffffffffffffffffffffffffffffffffffffffff16815260200190815260200160002054612c7590919063ffffffff16565b601660003373ffffffffffffffffffffffffffffffffffffffff1673ffffffffffffffffffffffffffffffffffffffff1681526020019081526020016000208190555061133583601054612c7590919063ffffffff16565b6010819055507f9670c8b300c38cd3db8d3f9429dd902e67f418c4dd193e2497f06d20efc79560338460115460405161137093929190614c0c565b60405180910390a1505050565b6000611388836116d4565b82106113c9576040517f08c379a00000000000000000000000000000000000000000000000000000000081526004016113c090614df1565b60405180910390fd5b600760008473ffffffffffffffffffffffffffffffffffffffff1673ffffffffffffffffffffffffffffffffffffffff168152602001908152602001600020600083815260200190815260200160002054905092915050565b61143d83838360405180602001604052806000815250611f40565b505050565b600e5481565b6000611452610fd0565b8210611493576040517f08c379a000000000000000000000000000000000000000000000000000000000815260040161148a90615131565b60405180910390fd5b600982815481106114cd577f4e487b7100000000000000000000000000000000000000000000000000000000600052603260045260246000fd5b90600052602060002001549050919050565b60125481565b6114ed6127cd565b73ffffffffffffffffffffffffffffffffffffffff1661150b611a70565b73ffffffffffffffffffffffffffffffffffffffff1614611561576040517f08c379a000000000000000000000000000000000000000000000000000000000815260040161155890615031565b60405180910390fd5b6000601360006101000a81548160ff021916908315150217905550565b60105481565b6000806003600084815260200190815260200160002060009054906101000a900473ffffffffffffffffffffffffffffffffffffffff169050600073ffffffffffffffffffffffffffffffffffffffff168173ffffffffffffffffffffffffffffffffffffffff16141561162d576040517f08c379a000000000000000000000000000000000000000000000000000000000815260040161162490614f91565b60405180910390fd5b80915050919050565b61163e6127cd565b73ffffffffffffffffffffffffffffffffffffffff1661165c611a70565b73ffffffffffffffffffffffffffffffffffffffff16146116b2576040517f08c379a00000000000000000000000000000000000000000000000000000000081526004016116a990615031565b60405180910390fd5b80600f8190555050565b60166020528060005260406000206000915090505481565b60008073ffffffffffffffffffffffffffffffffffffffff168273ffffffffffffffffffffffffffffffffffffffff161415611745576040517f08c379a000000000000000000000000000000000000000000000000000000000815260040161173c90614f71565b60405180910390fd5b600460008373ffffffffffffffffffffffffffffffffffffffff1673ffffffffffffffffffffffffffffffffffffffff168152602001908152602001600020549050919050565b6117946127cd565b73ffffffffffffffffffffffffffffffffffffffff166117b2611a70565b73ffffffffffffffffffffffffffffffffffffffff1614611808576040517f08c379a00000000000000000000000000000000000000000000000000000000081526004016117ff90615031565b60405180910390fd5b6118126000612cbf565b565b60156020528060005260406000206000915090505481565b60606000611839836116d4565b905060008114156118bc57600067ffffffffffffffff811115611885577f4e487b7100000000000000000000000000000000000000000000000000000000600052604160045260246000fd5b6040519080825280602002602001820160405280156118b35781602001602082028036833780820191505090505b509150506119a3565b60008167ffffffffffffffff8111156118fe577f4e487b7100000000000000000000000000000000000000000000000000000000600052604160045260246000fd5b60405190808252806020026020018201604052801561192c5781602001602082028036833780820191505090505b50905060005b8281101561199c57611944858261137d565b82828151811061197d577f4e487b7100000000000000000000000000000000000000000000000000000000600052603260045260246000fd5b602002602001018181525050808061199490615504565b915050611932565b8193505050505b919050565b6119b06127cd565b73ffffffffffffffffffffffffffffffffffffffff166119ce611a70565b73ffffffffffffffffffffffffffffffffffffffff1614611a24576040517f08c379a0000000000000000000000000000000000000000000000000000000008152600401611a1b90615031565b60405180910390fd5b3373ffffffffffffffffffffffffffffffffffffffff166108fc479081150290604051600060405180830381858888f19350505050611a6257600080fd5b565b600d5481565b600f5481565b60008060009054906101000a900473ffffffffffffffffffffffffffffffffffffffff16905090565b60115481565b606060028054611aae906154a1565b80601f0160208091040260200160405190810160405280929190818152602001828054611ada906154a1565b8015611b275780601f10611afc57610100808354040283529160200191611b27565b820191906000526020600020905b815481529060010190602001808311611b0a57829003601f168201915b5050505050905090565b611b396127cd565b73ffffffffffffffffffffffffffffffffffffffff168273ffffffffffffffffffffffffffffffffffffffff161415611ba7576040517f08c379a0000000000000000000000000000000000000000000000000000000008152600401611b9e90614eb1565b60405180910390fd5b8060066000611bb46127cd565b73ffffffffffffffffffffffffffffffffffffffff1673ffffffffffffffffffffffffffffffffffffffff16815260200190815260200160002060008473ffffffffffffffffffffffffffffffffffffffff1673ffffffffffffffffffffffffffffffffffffffff16815260200190815260200160002060006101000a81548160ff0219169083151502179055508173ffffffffffffffffffffffffffffffffffffffff16611c616127cd565b73ffffffffffffffffffffffffffffffffffffffff167f17307eab39ab6107e8899845ad3d59bd9653f200f220920489ca2b5937696c3183604051611ca69190614c65565b60405180910390a35050565b601360019054906101000a900460ff1681565b611ccd6127cd565b73ffffffffffffffffffffffffffffffffffffffff16611ceb611a70565b73ffffffffffffffffffffffffffffffffffffffff1614611d41576040517f08c379a0000000000000000000000000000000000000000000000000000000008152600401611d3890615031565b60405180910390fd5b6001601360006101000a81548160ff021916908315150217905550565b60011515601360009054906101000a900460ff16151514611db4576040517f08c379a0000000000000000000000000000000000000000000000000000000008152600401611dab90614db1565b60405180910390fd5b600081118015611dc5575060328111155b611e04576040517f08c379a0000000000000000000000000000000000000000000000000000000008152600401611dfb90614d91565b60405180910390fd5b600d54611e2182611e13610fd0565b612c7590919063ffffffff16565b1115611e62576040517f08c379a0000000000000000000000000000000000000000000000000000000008152600401611e5990615171565b60405180910390fd5b611e7781600f54612c8b90919063ffffffff16565b341015611eb9576040517f08c379a0000000000000000000000000000000000000000000000000000000008152600401611eb0906150b1565b60405180910390fd5b60005b81811015611eff57611eda6001601154612c7590919063ffffffff16565b601181905550611eec33601154612ca1565b8080611ef790615504565b915050611ebc565b507f9670c8b300c38cd3db8d3f9429dd902e67f418c4dd193e2497f06d20efc795603382601154604051611f3593929190614c0c565b60405180910390a150565b611f51611f4b6127cd565b8361293b565b611f90576040517f08c379a0000000000000000000000000000000000000000000000000000000008152600401611f87906150f1565b60405180910390fd5b611f9c84848484612d83565b50505050565b6060611fad826127d5565b611fec576040517f08c379a0000000000000000000000000000000000000000000000000000000008152600401611fe390614fb1565b60405180910390fd5b6014611ff783612ddf565b604051602001612008929190614b4a565b6040516020818303038152906040529050919050565b6120266127cd565b73ffffffffffffffffffffffffffffffffffffffff16612044611a70565b73ffffffffffffffffffffffffffffffffffffffff161461209a576040517f08c379a000000000000000000000000000000000000000000000000000000000815260040161209190615031565b60405180910390fd5b600d546120b7826120a9610fd0565b612c7590919063ffffffff16565b11156120f8576040517f08c379a00000000000000000000000000000000000000000000000000000000081526004016120ef906150d1565b60405180910390fd5b60005b8181101561213e576121196001601154612c7590919063ffffffff16565b60118190555061212b83601154612ca1565b808061213690615504565b9150506120fb565b507f9670c8b300c38cd3db8d3f9429dd902e67f418c4dd193e2497f06d20efc79560828260115460405161217493929190614c0c565b60405180910390a15050565b6121886127cd565b73ffffffffffffffffffffffffffffffffffffffff166121a6611a70565b73ffffffffffffffffffffffffffffffffffffffff16146121fc576040517f08c379a00000000000000000000000000000000000000000000000000000000081526004016121f390615031565b60405180910390fd5b80600e8190555050565b6000600660008473ffffffffffffffffffffffffffffffffffffffff1673ffffffffffffffffffffffffffffffffffffffff16815260200190815260200160002060008373ffffffffffffffffffffffffffffffffffffffff1673ffffffffffffffffffffffffffffffffffffffff16815260200190815260200160002060009054906101000a900460ff16905092915050565b6122a26127cd565b73ffffffffffffffffffffffffffffffffffffffff166122c0611a70565b73ffffffffffffffffffffffffffffffffffffffff1614612316576040517f08c379a000000000000000000000000000000000000000000000000000000000815260040161230d90615031565b60405180910390fd5b600073ffffffffffffffffffffffffffffffffffffffff168173ffffffffffffffffffffffffffffffffffffffff161415612386576040517f08c379a000000000000000000000000000000000000000000000000000000000815260040161237d90614e31565b60405180910390fd5b61238f81612cbf565b50565b6000600c60009054906101000a900473ffffffffffffffffffffffffffffffffffffffff1673ffffffffffffffffffffffffffffffffffffffff16638462151c336040518263ffffffff1660e01b81526004016123ef9190614ba5565b60006040518083038186803b15801561240757600080fd5b505afa15801561241b573d6000803e3d6000fd5b505050506040513d6000823e3d601f19601f8201168201806040525081019061244491906142df565b905060011515601360019054906101000a900460ff1615151461249c576040517f08c379a000000000000000000000000000000000000000000000000000000000815260040161249390614e71565b60405180910390fd5b6000821180156124fe575080516124fb83601560003373ffffffffffffffffffffffffffffffffffffffff1673ffffffffffffffffffffffffffffffffffffffff16815260200190815260200160002054612c7590919063ffffffff16565b11155b61253d576040517f08c379a000000000000000000000000000000000000000000000000000000000815260040161253490615071565b60405180910390fd5b60005b828110156126a95761259b6001601560003373ffffffffffffffffffffffffffffffffffffffff1673ffffffffffffffffffffffffffffffffffffffff16815260200190815260200160002054612c7590919063ffffffff16565b601560003373ffffffffffffffffffffffffffffffffffffffff1673ffffffffffffffffffffffffffffffffffffffff1681526020019081526020016000208190555061267a33836126366001601560003373ffffffffffffffffffffffffffffffffffffffff1673ffffffffffffffffffffffffffffffffffffffff16815260200190815260200160002054612f8c90919063ffffffff16565b8151811061266d577f4e487b7100000000000000000000000000000000000000000000000000000000600052603260045260246000fd5b6020026020010151612ca1565b6126906001601254612c7590919063ffffffff16565b60128190555080806126a190615504565b915050612540565b507f983bf7148e3e9ebde769e6a1d5b19b34b9c318555cfb03836448a9376bd68d4533836012546040516126df93929190614c0c565b60405180910390a15050565b60007f80ac58cd000000000000000000000000000000000000000000000000000000007bffffffffffffffffffffffffffffffffffffffffffffffffffffffff1916827bffffffffffffffffffffffffffffffffffffffffffffffffffffffff191614806127b657507f5b5e139f000000000000000000000000000000000000000000000000000000007bffffffffffffffffffffffffffffffffffffffffffffffffffffffff1916827bffffffffffffffffffffffffffffffffffffffffffffffffffffffff1916145b806127c657506127c582612fa2565b5b9050919050565b600033905090565b60008073ffffffffffffffffffffffffffffffffffffffff166003600084815260200190815260200160002060009054906101000a900473ffffffffffffffffffffffffffffffffffffffff1673ffffffffffffffffffffffffffffffffffffffff1614159050919050565b816005600083815260200190815260200160002060006101000a81548173ffffffffffffffffffffffffffffffffffffffff021916908373ffffffffffffffffffffffffffffffffffffffff160217905550808273ffffffffffffffffffffffffffffffffffffffff166128b483611584565b73ffffffffffffffffffffffffffffffffffffffff167f8c5be1e5ebec7d5bd14f71427d1e84f3dd0314c0f7b2291e5b200ac8c7c3b92560405160405180910390a45050565b600061290d61290761300c565b836130cf565b9050919050565b60008060006129238585613102565b9150915061293081613185565b819250505092915050565b6000612946826127d5565b612985576040517f08c379a000000000000000000000000000000000000000000000000000000000815260040161297c90614f11565b60405180910390fd5b600061299083611584565b90508073ffffffffffffffffffffffffffffffffffffffff168473ffffffffffffffffffffffffffffffffffffffff1614806129ff57508373ffffffffffffffffffffffffffffffffffffffff166129e784610d8c565b73ffffffffffffffffffffffffffffffffffffffff16145b80612a105750612a0f8185612206565b5b91505092915050565b8273ffffffffffffffffffffffffffffffffffffffff16612a3982611584565b73ffffffffffffffffffffffffffffffffffffffff1614612a8f576040517f08c379a0000000000000000000000000000000000000000000000000000000008152600401612a8690615051565b60405180910390fd5b600073ffffffffffffffffffffffffffffffffffffffff168273ffffffffffffffffffffffffffffffffffffffff161415612aff576040517f08c379a0000000000000000000000000000000000000000000000000000000008152600401612af690614e91565b60405180910390fd5b612b0a8383836134d6565b612b15600082612841565b6001600460008573ffffffffffffffffffffffffffffffffffffffff1673ffffffffffffffffffffffffffffffffffffffff1681526020019081526020016000206000828254612b6591906153a0565b925050819055506001600460008473ffffffffffffffffffffffffffffffffffffffff1673ffffffffffffffffffffffffffffffffffffffff1681526020019081526020016000206000828254612bbc91906152bf565b92505081905550816003600083815260200190815260200160002060006101000a81548173ffffffffffffffffffffffffffffffffffffffff021916908373ffffffffffffffffffffffffffffffffffffffff160217905550808273ffffffffffffffffffffffffffffffffffffffff168473ffffffffffffffffffffffffffffffffffffffff167fddf252ad1be2c89b69c2b068fc378daa952ba7f163c4a11628f55a4df523b3ef60405160405180910390a4505050565b60008183612c8391906152bf565b905092915050565b60008183612c999190615346565b905092915050565b612cbb8282604051806020016040528060008152506135ea565b5050565b60008060009054906101000a900473ffffffffffffffffffffffffffffffffffffffff169050816000806101000a81548173ffffffffffffffffffffffffffffffffffffffff021916908373ffffffffffffffffffffffffffffffffffffffff1602179055508173ffffffffffffffffffffffffffffffffffffffff168173ffffffffffffffffffffffffffffffffffffffff167f8be0079c531659141344cd1fd0a4f28419497f9722a3daafe3b4186f6b6457e060405160405180910390a35050565b612d8e848484612a19565b612d9a84848484613645565b612dd9576040517f08c379a0000000000000000000000000000000000000000000000000000000008152600401612dd090614e11565b60405180910390fd5b50505050565b60606000821415612e27576040518060400160405280600181526020017f30000000000000000000000000000000000000000000000000000000000000008152509050612f87565b600082905060005b60008214612e59578080612e4290615504565b915050600a82612e529190615315565b9150612e2f565b60008167ffffffffffffffff811115612e9b577f4e487b7100000000000000000000000000000000000000000000000000000000600052604160045260246000fd5b6040519080825280601f01601f191660200182016040528015612ecd5781602001600182028036833780820191505090505b5090505b60008514612f8057600182612ee691906153a0565b9150600a85612ef59190615557565b6030612f0191906152bf565b60f81b818381518110612f3d577f4e487b7100000000000000000000000000000000000000000000000000000000600052603260045260246000fd5b60200101907effffffffffffffffffffffffffffffffffffffffffffffffffffffffffffff1916908160001a905350600a85612f799190615315565b9450612ed1565b8093505050505b919050565b60008183612f9a91906153a0565b905092915050565b60007f01ffc9a7000000000000000000000000000000000000000000000000000000007bffffffffffffffffffffffffffffffffffffffffffffffffffffffff1916827bffffffffffffffffffffffffffffffffffffffffffffffffffffffff1916149050919050565b60007f000000000000000000000000000000000000000000000000000000000000000046141561305e577f000000000000000000000000000000000000000000000000000000000000000090506130cc565b6130c97f00000000000000000000000000000000000000000000000000000000000000007f00000000000000000000000000000000000000000000000000000000000000007f00000000000000000000000000000000000000000000000000000000000000006137dc565b90505b90565b600082826040516020016130e4929190614b6e565b60405160208183030381529060405280519060200120905092915050565b6000806041835114156131445760008060006020860151925060408601519150606086015160001a905061313887828585613816565b9450945050505061317e565b60408351141561317557600080602085015191506040850151905061316a868383613923565b93509350505061317e565b60006002915091505b9250929050565b600060048111156131bf577f4e487b7100000000000000000000000000000000000000000000000000000000600052602160045260246000fd5b8160048111156131f8577f4e487b7100000000000000000000000000000000000000000000000000000000600052602160045260246000fd5b1415613203576134d3565b6001600481111561323d577f4e487b7100000000000000000000000000000000000000000000000000000000600052602160045260246000fd5b816004811115613276577f4e487b7100000000000000000000000000000000000000000000000000000000600052602160045260246000fd5b14156132b7576040517f08c379a00000000000000000000000000000000000000000000000000000000081526004016132ae90614d71565b60405180910390fd5b600260048111156132f1577f4e487b7100000000000000000000000000000000000000000000000000000000600052602160045260246000fd5b81600481111561332a577f4e487b7100000000000000000000000000000000000000000000000000000000600052602160045260246000fd5b141561336b576040517f08c379a000000000000000000000000000000000000000000000000000000000815260040161336290614dd1565b60405180910390fd5b600360048111156133a5577f4e487b7100000000000000000000000000000000000000000000000000000000600052602160045260246000fd5b8160048111156133de577f4e487b7100000000000000000000000000000000000000000000000000000000600052602160045260246000fd5b141561341f576040517f08c379a000000000000000000000000000000000000000000000000000000000815260040161341690614ef1565b60405180910390fd5b600480811115613458577f4e487b7100000000000000000000000000000000000000000000000000000000600052602160045260246000fd5b816004811115613491577f4e487b7100000000000000000000000000000000000000000000000000000000600052602160045260246000fd5b14156134d2576040517f08c379a00000000000000000000000000000000000000000000000000000000081526004016134c990614fd1565b60405180910390fd5b5b50565b6134e1838383613971565b600073ffffffffffffffffffffffffffffffffffffffff168373ffffffffffffffffffffffffffffffffffffffff1614156135245761351f81613976565b613563565b8173ffffffffffffffffffffffffffffffffffffffff168373ffffffffffffffffffffffffffffffffffffffff16146135625761356183826139bf565b5b5b600073ffffffffffffffffffffffffffffffffffffffff168273ffffffffffffffffffffffffffffffffffffffff1614156135a6576135a181613b2c565b6135e5565b8273ffffffffffffffffffffffffffffffffffffffff168273ffffffffffffffffffffffffffffffffffffffff16146135e4576135e38282613c6f565b5b5b505050565b6135f48383613cee565b6136016000848484613645565b613640576040517f08c379a000000000000000000000000000000000000000000000000000000000815260040161363790614e11565b60405180910390fd5b505050565b60006136668473ffffffffffffffffffffffffffffffffffffffff16613ebc565b156137cf578373ffffffffffffffffffffffffffffffffffffffff1663150b7a0261368f6127cd565b8786866040518563ffffffff1660e01b81526004016136b19493929190614bc0565b602060405180830381600087803b1580156136cb57600080fd5b505af19250505080156136fc57506040513d601f19601f820116820180604052508101906136f99190614349565b60015b61377f573d806000811461372c576040519150601f19603f3d011682016040523d82523d6000602084013e613731565b606091505b50600081511415613777576040517f08c379a000000000000000000000000000000000000000000000000000000000815260040161376e90614e11565b60405180910390fd5b805181602001fd5b63150b7a0260e01b7bffffffffffffffffffffffffffffffffffffffffffffffffffffffff1916817bffffffffffffffffffffffffffffffffffffffffffffffffffffffff1916149150506137d4565b600190505b949350505050565b600083838346306040516020016137f7959493929190614cb7565b6040516020818303038152906040528051906020012090509392505050565b6000807f7fffffffffffffffffffffffffffffff5d576e7357a4501ddfe92f46681b20a08360001c111561385157600060039150915061391a565b601b8560ff16141580156138695750601c8560ff1614155b1561387b57600060049150915061391a565b6000600187878787604051600081526020016040526040516138a09493929190614d0a565b6020604051602081039080840390855afa1580156138c2573d6000803e3d6000fd5b505050602060405103519050600073ffffffffffffffffffffffffffffffffffffffff168173ffffffffffffffffffffffffffffffffffffffff1614156139115760006001925092505061391a565b80600092509250505b94509492505050565b6000806000807f7fffffffffffffffffffffffffffffffffffffffffffffffffffffffffffffff85169150601b8560ff1c01905061396387828885613816565b935093505050935093915050565b505050565b600980549050600a600083815260200190815260200160002081905550600981908060018154018082558091505060019003906000526020600020016000909190919091505550565b600060016139cc846116d4565b6139d691906153a0565b9050600060086000848152602001908152602001600020549050818114613abb576000600760008673ffffffffffffffffffffffffffffffffffffffff1673ffffffffffffffffffffffffffffffffffffffff168152602001908152602001600020600084815260200190815260200160002054905080600760008773ffffffffffffffffffffffffffffffffffffffff1673ffffffffffffffffffffffffffffffffffffffff168152602001908152602001600020600084815260200190815260200160002081905550816008600083815260200190815260200160002081905550505b6008600084815260200190815260200160002060009055600760008573ffffffffffffffffffffffffffffffffffffffff1673ffffffffffffffffffffffffffffffffffffffff16815260200190815260200160002060008381526020019081526020016000206000905550505050565b60006001600980549050613b4091906153a0565b90506000600a6000848152602001908152602001600020549050600060098381548110613b96577f4e487b7100000000000000000000000000000000000000000000000000000000600052603260045260246000fd5b906000526020600020015490508060098381548110613bde577f4e487b7100000000000000000000000000000000000000000000000000000000600052603260045260246000fd5b906000526020600020018190555081600a600083815260200190815260200160002081905550600a6000858152602001908152602001600020600090556009805480613c53577f4e487b7100000000000000000000000000000000000000000000000000000000600052603160045260246000fd5b6001900381819060005260206000200160009055905550505050565b6000613c7a836116d4565b905081600760008573ffffffffffffffffffffffffffffffffffffffff1673ffffffffffffffffffffffffffffffffffffffff168152602001908152602001600020600083815260200190815260200160002081905550806008600084815260200190815260200160002081905550505050565b600073ffffffffffffffffffffffffffffffffffffffff168273ffffffffffffffffffffffffffffffffffffffff161415613d5e576040517f08c379a0000000000000000000000000000000000000000000000000000000008152600401613d5590614ff1565b60405180910390fd5b613d67816127d5565b15613da7576040517f08c379a0000000000000000000000000000000000000000000000000000000008152600401613d9e90614e51565b60405180910390fd5b613db3600083836134d6565b6001600460008473ffffffffffffffffffffffffffffffffffffffff1673ffffffffffffffffffffffffffffffffffffffff1681526020019081526020016000206000828254613e0391906152bf565b92505081905550816003600083815260200190815260200160002060006101000a81548173ffffffffffffffffffffffffffffffffffffffff021916908373ffffffffffffffffffffffffffffffffffffffff160217905550808273ffffffffffffffffffffffffffffffffffffffff16600073ffffffffffffffffffffffffffffffffffffffff167fddf252ad1be2c89b69c2b068fc378daa952ba7f163c4a11628f55a4df523b3ef60405160405180910390a45050565b600080823b905060008111915050919050565b828054613edb906154a1565b90600052602060002090601f016020900481019282613efd5760008555613f44565b82601f10613f1657803560ff1916838001178555613f44565b82800160010185558215613f44579182015b82811115613f43578235825591602001919060010190613f28565b5b509050613f519190613f55565b5090565b5b80821115613f6e576000816000905550600101613f56565b5090565b6000613f85613f80846151d1565b6151ac565b90508083825260208201905082856020860282011115613fa457600080fd5b60005b85811015613fd45781613fba8882614123565b845260208401935060208301925050600181019050613fa7565b5050509392505050565b6000613ff1613fec846151fd565b6151ac565b90508281526020810184848401111561400957600080fd5b61401484828561545f565b509392505050565b60008135905061402b81615e73565b92915050565b600082601f83011261404257600080fd5b8151614052848260208601613f72565b91505092915050565b60008135905061406a81615e8a565b92915050565b60008135905061407f81615ea1565b92915050565b60008151905061409481615ea1565b92915050565b600082601f8301126140ab57600080fd5b81356140bb848260208601613fde565b91505092915050565b60008083601f8401126140d657600080fd5b8235905067ffffffffffffffff8111156140ef57600080fd5b60208301915083600182028301111561410757600080fd5b9250929050565b60008135905061411d81615eb8565b92915050565b60008151905061413281615eb8565b92915050565b60006020828403121561414a57600080fd5b60006141588482850161401c565b91505092915050565b6000806040838503121561417457600080fd5b60006141828582860161401c565b92505060206141938582860161401c565b9150509250929050565b6000806000606084860312156141b257600080fd5b60006141c08682870161401c565b93505060206141d18682870161401c565b92505060406141e28682870161410e565b9150509250925092565b6000806000806080858703121561420257600080fd5b60006142108782880161401c565b94505060206142218782880161401c565b93505060406142328782880161410e565b925050606085013567ffffffffffffffff81111561424f57600080fd5b61425b8782880161409a565b91505092959194509250565b6000806040838503121561427a57600080fd5b60006142888582860161401c565b92505060206142998582860161405b565b9150509250929050565b600080604083850312156142b657600080fd5b60006142c48582860161401c565b92505060206142d58582860161410e565b9150509250929050565b6000602082840312156142f157600080fd5b600082015167ffffffffffffffff81111561430b57600080fd5b61431784828501614031565b91505092915050565b60006020828403121561433257600080fd5b600061434084828501614070565b91505092915050565b60006020828403121561435b57600080fd5b600061436984828501614085565b91505092915050565b6000806020838503121561438557600080fd5b600083013567ffffffffffffffff81111561439f57600080fd5b6143ab858286016140c4565b92509250509250929050565b6000602082840312156143c957600080fd5b60006143d78482850161410e565b91505092915050565b600080604083850312156143f357600080fd5b60006144018582860161410e565b925050602083013567ffffffffffffffff81111561441e57600080fd5b61442a8582860161409a565b9150509250929050565b60008060006060848603121561444957600080fd5b60006144578682870161410e565b93505060206144688682870161410e565b925050604084013567ffffffffffffffff81111561448557600080fd5b6144918682870161409a565b9150509250925092565b60006144a78383614b1d565b60208301905092915050565b6144bc816153d4565b82525050565b60006144cd82615253565b6144d78185615281565b93506144e28361522e565b8060005b838110156145135781516144fa888261449b565b975061450583615274565b9250506001810190506144e6565b5085935050505092915050565b614529816153e6565b82525050565b614538816153f2565b82525050565b61454f61454a826153f2565b61554d565b82525050565b60006145608261525e565b61456a8185615292565b935061457a81856020860161546e565b61458381615644565b840191505092915050565b600061459982615269565b6145a381856152a3565b93506145b381856020860161546e565b6145bc81615644565b840191505092915050565b60006145d282615269565b6145dc81856152b4565b93506145ec81856020860161546e565b80840191505092915050565b60008154614605816154a1565b61460f81866152b4565b9450600182166000811461462a576001811461463b5761466e565b60ff1983168652818601935061466e565b6146448561523e565b60005b8381101561466657815481890152600182019150602081019050614647565b838801955050505b50505092915050565b60006146846018836152a3565b915061468f82615655565b602082019050919050565b60006146a7602c836152a3565b91506146b28261567e565b604082019050919050565b60006146ca6014836152a3565b91506146d5826156cd565b602082019050919050565b60006146ed601f836152a3565b91506146f8826156f6565b602082019050919050565b6000614710602b836152a3565b915061471b8261571f565b604082019050919050565b60006147336032836152a3565b915061473e8261576e565b604082019050919050565b60006147566026836152a3565b9150614761826157bd565b604082019050919050565b6000614779601c836152a3565b91506147848261580c565b602082019050919050565b600061479c6002836152b4565b91506147a782615835565b600282019050919050565b60006147bf6016836152a3565b91506147ca8261585e565b602082019050919050565b60006147e26024836152a3565b91506147ed82615887565b604082019050919050565b60006148056019836152a3565b9150614810826158d6565b602082019050919050565b60006148286017836152a3565b9150614833826158ff565b602082019050919050565b600061484b6022836152a3565b915061485682615928565b604082019050919050565b600061486e602c836152a3565b915061487982615977565b604082019050919050565b60006148916018836152a3565b915061489c826159c6565b602082019050919050565b60006148b46038836152a3565b91506148bf826159ef565b604082019050919050565b60006148d7602a836152a3565b91506148e282615a3e565b604082019050919050565b60006148fa6029836152a3565b915061490582615a8d565b604082019050919050565b600061491d6010836152a3565b915061492882615adc565b602082019050919050565b60006149406022836152a3565b915061494b82615b05565b604082019050919050565b60006149636020836152a3565b915061496e82615b54565b602082019050919050565b6000614986602c836152a3565b915061499182615b7d565b604082019050919050565b60006149a96020836152a3565b91506149b482615bcc565b602082019050919050565b60006149cc6029836152a3565b91506149d782615bf5565b604082019050919050565b60006149ef6027836152a3565b91506149fa82615c44565b604082019050919050565b6000614a126021836152a3565b9150614a1d82615c93565b604082019050919050565b6000614a356024836152a3565b9150614a4082615ce2565b604082019050919050565b6000614a586014836152a3565b9150614a6382615d31565b602082019050919050565b6000614a7b6031836152a3565b9150614a8682615d5a565b604082019050919050565b6000614a9e6019836152a3565b9150614aa982615da9565b602082019050919050565b6000614ac1602c836152a3565b9150614acc82615dd2565b604082019050919050565b6000614ae4601b836152a3565b9150614aef82615e21565b602082019050919050565b6000614b076009836152a3565b9150614b1282615e4a565b602082019050919050565b614b2681615448565b82525050565b614b3581615448565b82525050565b614b4481615452565b82525050565b6000614b5682856145f8565b9150614b6282846145c7565b91508190509392505050565b6000614b798261478f565b9150614b85828561453e565b602082019150614b95828461453e565b6020820191508190509392505050565b6000602082019050614bba60008301846144b3565b92915050565b6000608082019050614bd560008301876144b3565b614be260208301866144b3565b614bef6040830185614b2c565b8181036060830152614c018184614555565b905095945050505050565b6000606082019050614c2160008301866144b3565b614c2e6020830185614b2c565b614c3b6040830184614b2c565b949350505050565b60006020820190508181036000830152614c5d81846144c2565b905092915050565b6000602082019050614c7a6000830184614520565b92915050565b6000606082019050614c95600083018661452f565b614ca260208301856144b3565b614caf6040830184614b2c565b949350505050565b600060a082019050614ccc600083018861452f565b614cd9602083018761452f565b614ce6604083018661452f565b614cf36060830185614b2c565b614d0060808301846144b3565b9695505050505050565b6000608082019050614d1f600083018761452f565b614d2c6020830186614b3b565b614d39604083018561452f565b614d46606083018461452f565b95945050505050565b60006020820190508181036000830152614d69818461458e565b905092915050565b60006020820190508181036000830152614d8a81614677565b9050919050565b60006020820190508181036000830152614daa8161469a565b9050919050565b60006020820190508181036000830152614dca816146bd565b9050919050565b60006020820190508181036000830152614dea816146e0565b9050919050565b60006020820190508181036000830152614e0a81614703565b9050919050565b60006020820190508181036000830152614e2a81614726565b9050919050565b60006020820190508181036000830152614e4a81614749565b9050919050565b60006020820190508181036000830152614e6a8161476c565b9050919050565b60006020820190508181036000830152614e8a816147b2565b9050919050565b60006020820190508181036000830152614eaa816147d5565b9050919050565b60006020820190508181036000830152614eca816147f8565b9050919050565b60006020820190508181036000830152614eea8161481b565b9050919050565b60006020820190508181036000830152614f0a8161483e565b9050919050565b60006020820190508181036000830152614f2a81614861565b9050919050565b60006020820190508181036000830152614f4a81614884565b9050919050565b60006020820190508181036000830152614f6a816148a7565b9050919050565b60006020820190508181036000830152614f8a816148ca565b9050919050565b60006020820190508181036000830152614faa816148ed565b9050919050565b60006020820190508181036000830152614fca81614910565b9050919050565b60006020820190508181036000830152614fea81614933565b9050919050565b6000602082019050818103600083015261500a81614956565b9050919050565b6000602082019050818103600083015261502a81614979565b9050919050565b6000602082019050818103600083015261504a8161499c565b9050919050565b6000602082019050818103600083015261506a816149bf565b9050919050565b6000602082019050818103600083015261508a816149e2565b9050919050565b600060208201905081810360008301526150aa81614a05565b9050919050565b600060208201905081810360008301526150ca81614a28565b9050919050565b600060208201905081810360008301526150ea81614a4b565b9050919050565b6000602082019050818103600083015261510a81614a6e565b9050919050565b6000602082019050818103600083015261512a81614a91565b9050919050565b6000602082019050818103600083015261514a81614ab4565b9050919050565b6000602082019050818103600083015261516a81614ad7565b9050919050565b6000602082019050818103600083015261518a81614afa565b9050919050565b60006020820190506151a66000830184614b2c565b92915050565b60006151b66151c7565b90506151c282826154d3565b919050565b6000604051905090565b600067ffffffffffffffff8211156151ec576151eb615615565b5b602082029050602081019050919050565b600067ffffffffffffffff82111561521857615217615615565b5b61522182615644565b9050602081019050919050565b6000819050602082019050919050565b60008190508160005260206000209050919050565b600081519050919050565b600081519050919050565b600081519050919050565b6000602082019050919050565b600082825260208201905092915050565b600082825260208201905092915050565b600082825260208201905092915050565b600081905092915050565b60006152ca82615448565b91506152d583615448565b9250827fffffffffffffffffffffffffffffffffffffffffffffffffffffffffffffffff0382111561530a57615309615588565b5b828201905092915050565b600061532082615448565b915061532b83615448565b92508261533b5761533a6155b7565b5b828204905092915050565b600061535182615448565b915061535c83615448565b9250817fffffffffffffffffffffffffffffffffffffffffffffffffffffffffffffffff048311821515161561539557615394615588565b5b828202905092915050565b60006153ab82615448565b91506153b683615448565b9250828210156153c9576153c8615588565b5b828203905092915050565b60006153df82615428565b9050919050565b60008115159050919050565b6000819050919050565b60007fffffffff0000000000000000000000000000000000000000000000000000000082169050919050565b600073ffffffffffffffffffffffffffffffffffffffff82169050919050565b6000819050919050565b600060ff82169050919050565b82818337600083830152505050565b60005b8381101561548c578082015181840152602081019050615471565b8381111561549b576000848401525b50505050565b600060028204905060018216806154b957607f821691505b602082108114156154cd576154cc6155e6565b5b50919050565b6154dc82615644565b810181811067ffffffffffffffff821117156154fb576154fa615615565b5b80604052505050565b600061550f82615448565b91507fffffffffffffffffffffffffffffffffffffffffffffffffffffffffffffffff82141561554257615541615588565b5b600182019050919050565b6000819050919050565b600061556282615448565b915061556d83615448565b92508261557d5761557c6155b7565b5b828206905092915050565b7f4e487b7100000000000000000000000000000000000000000000000000000000600052601160045260246000fd5b7f4e487b7100000000000000000000000000000000000000000000000000000000600052601260045260246000fd5b7f4e487b7100000000000000000000000000000000000000000000000000000000600052602260045260246000fd5b7f4e487b7100000000000000000000000000000000000000000000000000000000600052604160045260246000fd5b6000601f19601f8301169050919050565b7f45434453413a20696e76616c6964207369676e61747572650000000000000000600082015250565b7f596f752063616e206d696e74206d696e696d756d20312c206d6178696d756d2060008201527f35302073616d75726169732e0000000000000000000000000000000000000000602082015250565b7f53616c65206861736e277420737461727465642e000000000000000000000000600082015250565b7f45434453413a20696e76616c6964207369676e6174757265206c656e67746800600082015250565b7f455243373231456e756d657261626c653a206f776e657220696e646578206f7560008201527f74206f6620626f756e6473000000000000000000000000000000000000000000602082015250565b7f4552433732313a207472616e7366657220746f206e6f6e20455243373231526560008201527f63656976657220696d706c656d656e7465720000000000000000000000000000602082015250565b7f4f776e61626c653a206e6577206f776e657220697320746865207a65726f206160008201527f6464726573730000000000000000000000000000000000000000000000000000602082015250565b7f4552433732313a20746f6b656e20616c7265616479206d696e74656400000000600082015250565b7f1901000000000000000000000000000000000000000000000000000000000000600082015250565b7f436c61696d65206861736e277420737461727465642e00000000000000000000600082015250565b7f4552433732313a207472616e7366657220746f20746865207a65726f2061646460008201527f7265737300000000000000000000000000000000000000000000000000000000602082015250565b7f4552433732313a20617070726f766520746f2063616c6c657200000000000000600082015250565b7f50726573616c65206861736e277420737461727465642e000000000000000000600082015250565b7f45434453413a20696e76616c6964207369676e6174757265202773272076616c60008201527f7565000000000000000000000000000000000000000000000000000000000000602082015250565b7f4552433732313a206f70657261746f7220717565727920666f72206e6f6e657860008201527f697374656e7420746f6b656e0000000000000000000000000000000000000000602082015250565b7f4578636565647320746865204d41585f53414d555241492e0000000000000000600082015250565b7f4552433732313a20617070726f76652063616c6c6572206973206e6f74206f7760008201527f6e6572206e6f7220617070726f76656420666f7220616c6c0000000000000000602082015250565b7f4552433732313a2062616c616e636520717565727920666f7220746865207a6560008201527f726f206164647265737300000000000000000000000000000000000000000000602082015250565b7f4552433732313a206f776e657220717565727920666f72206e6f6e657869737460008201527f656e7420746f6b656e0000000000000000000000000000000000000000000000602082015250565b7f544f4b454e5f4e4f545f45584953545300000000000000000000000000000000600082015250565b7f45434453413a20696e76616c6964207369676e6174757265202776272076616c60008201527f7565000000000000000000000000000000000000000000000000000000000000602082015250565b7f4552433732313a206d696e7420746f20746865207a65726f2061646472657373600082015250565b7f4552433732313a20617070726f76656420717565727920666f72206e6f6e657860008201527f697374656e7420746f6b656e0000000000000000000000000000000000000000602082015250565b7f4f776e61626c653a2063616c6c6572206973206e6f7420746865206f776e6572600082015250565b7f4552433732313a207472616e73666572206f6620746f6b656e2074686174206960008201527f73206e6f74206f776e0000000000000000000000000000000000000000000000602082015250565b7f45786365656420746865207175616e7469747920746861742063616e2062652060008201527f636c61696d656400000000000000000000000000000000000000000000000000602082015250565b7f4552433732313a20617070726f76616c20746f2063757272656e74206f776e6560008201527f7200000000000000000000000000000000000000000000000000000000000000602082015250565b7f45746865722076616c75652073656e742069732062656c6f772074686520707260008201527f6963652e00000000000000000000000000000000000000000000000000000000602082015250565b7f45786365656473204d41585f53414d555241492e000000000000000000000000600082015250565b7f4552433732313a207472616e736665722063616c6c6572206973206e6f74206f60008201527f776e6572206e6f7220617070726f766564000000000000000000000000000000602082015250565b7f4e6f7420656c696769626c6520666f722070726573616c652e00000000000000600082015250565b7f455243373231456e756d657261626c653a20676c6f62616c20696e646578206f60008201527f7574206f6620626f756e64730000000000000000000000000000000000000000602082015250565b7f45786365656473206d61782070726573616c65206e756d6265722e0000000000600082015250565b7f536f6c64206f7574210000000000000000000000000000000000000000000000600082015250565b615e7c816153d4565b8114615e8757600080fd5b50565b615e93816153e6565b8114615e9e57600080fd5b50565b615eaa816153fc565b8114615eb557600080fd5b50565b615ec181615448565b8114615ecc57600080fd5b5056fea2646970667358221220cc9474d8f052385a210224428223fb6856444457f45b468d7c5d5ae7a7992e8d64736f6c63430008040033687474703a2f2f6170692e6b6174616e616e73616d757261692e6172742f4d657461646174612f",
  "devdoc": {
    "kind": "dev",
    "methods": {
      "approve(address,uint256)": {
        "details": "See {IERC721-approve}."
      },
      "balanceOf(address)": {
        "details": "See {IERC721-balanceOf}."
      },
      "getApproved(uint256)": {
        "details": "See {IERC721-getApproved}."
      },
      "isApprovedForAll(address,address)": {
        "details": "See {IERC721-isApprovedForAll}."
      },
      "name()": {
        "details": "See {IERC721Metadata-name}."
      },
      "owner()": {
        "details": "Returns the address of the current owner."
      },
      "ownerOf(uint256)": {
        "details": "See {IERC721-ownerOf}."
      },
      "renounceOwnership()": {
        "details": "Leaves the contract without owner. It will not be possible to call `onlyOwner` functions anymore. Can only be called by the current owner. NOTE: Renouncing ownership will leave the contract without an owner, thereby removing any functionality that is only available to the owner."
      },
      "safeTransferFrom(address,address,uint256)": {
        "details": "See {IERC721-safeTransferFrom}."
      },
      "safeTransferFrom(address,address,uint256,bytes)": {
        "details": "See {IERC721-safeTransferFrom}."
      },
      "setApprovalForAll(address,bool)": {
        "details": "See {IERC721-setApprovalForAll}."
      },
      "supportsInterface(bytes4)": {
        "details": "See {IERC165-supportsInterface}."
      },
      "symbol()": {
        "details": "See {IERC721Metadata-symbol}."
      },
      "tokenByIndex(uint256)": {
        "details": "See {IERC721Enumerable-tokenByIndex}."
      },
      "tokenOfOwnerByIndex(address,uint256)": {
        "details": "See {IERC721Enumerable-tokenOfOwnerByIndex}."
      },
      "tokenURI(uint256)": {
        "details": "See {IERC721Metadata-tokenURI}."
      },
      "totalSupply()": {
        "details": "See {IERC721Enumerable-totalSupply}."
      },
      "transferFrom(address,address,uint256)": {
        "details": "See {IERC721-transferFrom}."
      },
      "transferOwnership(address)": {
        "details": "Transfers ownership of the contract to a new account (`newOwner`). Can only be called by the current owner."
      }
    },
    "version": 1
  },
  "userdoc": {
    "kind": "user",
    "methods": {},
    "version": 1
  },
  "storageLayout": {
    "storage": [
      {
        "astId": 7,
        "contract": "contracts/KatanaNSamurai2.sol:KatanaNSamurai2",
        "label": "_owner",
        "offset": 0,
        "slot": "0",
        "type": "t_address"
      },
      {
        "astId": 129,
        "contract": "contracts/KatanaNSamurai2.sol:KatanaNSamurai2",
        "label": "_name",
        "offset": 0,
        "slot": "1",
        "type": "t_string_storage"
      },
      {
        "astId": 131,
        "contract": "contracts/KatanaNSamurai2.sol:KatanaNSamurai2",
        "label": "_symbol",
        "offset": 0,
        "slot": "2",
        "type": "t_string_storage"
      },
      {
        "astId": 135,
        "contract": "contracts/KatanaNSamurai2.sol:KatanaNSamurai2",
        "label": "_owners",
        "offset": 0,
        "slot": "3",
        "type": "t_mapping(t_uint256,t_address)"
      },
      {
        "astId": 139,
        "contract": "contracts/KatanaNSamurai2.sol:KatanaNSamurai2",
        "label": "_balances",
        "offset": 0,
        "slot": "4",
        "type": "t_mapping(t_address,t_uint256)"
      },
      {
        "astId": 143,
        "contract": "contracts/KatanaNSamurai2.sol:KatanaNSamurai2",
        "label": "_tokenApprovals",
        "offset": 0,
        "slot": "5",
        "type": "t_mapping(t_uint256,t_address)"
      },
      {
        "astId": 149,
        "contract": "contracts/KatanaNSamurai2.sol:KatanaNSamurai2",
        "label": "_operatorApprovals",
        "offset": 0,
        "slot": "6",
        "type": "t_mapping(t_address,t_mapping(t_address,t_bool))"
      },
      {
        "astId": 1068,
        "contract": "contracts/KatanaNSamurai2.sol:KatanaNSamurai2",
        "label": "_ownedTokens",
        "offset": 0,
        "slot": "7",
        "type": "t_mapping(t_address,t_mapping(t_uint256,t_uint256))"
      },
      {
        "astId": 1072,
        "contract": "contracts/KatanaNSamurai2.sol:KatanaNSamurai2",
        "label": "_ownedTokensIndex",
        "offset": 0,
        "slot": "8",
        "type": "t_mapping(t_uint256,t_uint256)"
      },
      {
        "astId": 1075,
        "contract": "contracts/KatanaNSamurai2.sol:KatanaNSamurai2",
        "label": "_allTokens",
        "offset": 0,
        "slot": "9",
        "type": "t_array(t_uint256)dyn_storage"
      },
      {
        "astId": 1079,
        "contract": "contracts/KatanaNSamurai2.sol:KatanaNSamurai2",
        "label": "_allTokensIndex",
        "offset": 0,
        "slot": "10",
        "type": "t_mapping(t_uint256,t_uint256)"
      },
      {
        "astId": 2856,
        "contract": "contracts/KatanaNSamurai2.sol:KatanaNSamurai2",
        "label": "KNS1Address",
        "offset": 0,
        "slot": "11",
        "type": "t_address"
      },
      {
        "astId": 2862,
        "contract": "contracts/KatanaNSamurai2.sol:KatanaNSamurai2",
        "label": "KNS1Contract",
        "offset": 0,
        "slot": "12",
        "type": "t_contract(KNS1Interface)2841"
      },
      {
        "astId": 2865,
        "contract": "contracts/KatanaNSamurai2.sol:KatanaNSamurai2",
        "label": "MAX_SAMURAI",
        "offset": 0,
        "slot": "13",
        "type": "t_uint256"
      },
      {
        "astId": 2868,
        "contract": "contracts/KatanaNSamurai2.sol:KatanaNSamurai2",
        "label": "MAX_PRESALE",
        "offset": 0,
        "slot": "14",
        "type": "t_uint256"
      },
      {
        "astId": 2871,
        "contract": "contracts/KatanaNSamurai2.sol:KatanaNSamurai2",
        "label": "PRICE",
        "offset": 0,
        "slot": "15",
        "type": "t_uint256"
      },
      {
        "astId": 2874,
        "contract": "contracts/KatanaNSamurai2.sol:KatanaNSamurai2",
        "label": "numPresale",
        "offset": 0,
        "slot": "16",
        "type": "t_uint256"
      },
      {
        "astId": 2877,
        "contract": "contracts/KatanaNSamurai2.sol:KatanaNSamurai2",
        "label": "numTokens",
        "offset": 0,
        "slot": "17",
        "type": "t_uint256"
      },
      {
        "astId": 2880,
        "contract": "contracts/KatanaNSamurai2.sol:KatanaNSamurai2",
        "label": "numClaim",
        "offset": 0,
        "slot": "18",
        "type": "t_uint256"
      },
      {
        "astId": 2883,
        "contract": "contracts/KatanaNSamurai2.sol:KatanaNSamurai2",
        "label": "hasSaleStarted",
        "offset": 0,
        "slot": "19",
        "type": "t_bool"
      },
      {
        "astId": 2886,
        "contract": "contracts/KatanaNSamurai2.sol:KatanaNSamurai2",
        "label": "hasPresaleStarted",
        "offset": 1,
        "slot": "19",
        "type": "t_bool"
      },
      {
        "astId": 2889,
        "contract": "contracts/KatanaNSamurai2.sol:KatanaNSamurai2",
        "label": "hasClaimeStarted",
        "offset": 2,
        "slot": "19",
        "type": "t_bool"
      },
      {
        "astId": 2892,
        "contract": "contracts/KatanaNSamurai2.sol:KatanaNSamurai2",
        "label": "_baseTokenURI",
        "offset": 0,
        "slot": "20",
        "type": "t_string_storage"
      },
      {
        "astId": 2896,
        "contract": "contracts/KatanaNSamurai2.sol:KatanaNSamurai2",
        "label": "hasClaimed",
        "offset": 0,
        "slot": "21",
        "type": "t_mapping(t_address,t_uint256)"
      },
      {
        "astId": 2900,
        "contract": "contracts/KatanaNSamurai2.sol:KatanaNSamurai2",
        "label": "hasPresale",
        "offset": 0,
        "slot": "22",
        "type": "t_mapping(t_address,t_uint256)"
      }
    ],
    "types": {
      "t_address": {
        "encoding": "inplace",
        "label": "address",
        "numberOfBytes": "20"
      },
      "t_array(t_uint256)dyn_storage": {
        "base": "t_uint256",
        "encoding": "dynamic_array",
        "label": "uint256[]",
        "numberOfBytes": "32"
      },
      "t_bool": {
        "encoding": "inplace",
        "label": "bool",
        "numberOfBytes": "1"
      },
      "t_contract(KNS1Interface)2841": {
        "encoding": "inplace",
        "label": "contract KNS1Interface",
        "numberOfBytes": "20"
      },
      "t_mapping(t_address,t_bool)": {
        "encoding": "mapping",
        "key": "t_address",
        "label": "mapping(address => bool)",
        "numberOfBytes": "32",
        "value": "t_bool"
      },
      "t_mapping(t_address,t_mapping(t_address,t_bool))": {
        "encoding": "mapping",
        "key": "t_address",
        "label": "mapping(address => mapping(address => bool))",
        "numberOfBytes": "32",
        "value": "t_mapping(t_address,t_bool)"
      },
      "t_mapping(t_address,t_mapping(t_uint256,t_uint256))": {
        "encoding": "mapping",
        "key": "t_address",
        "label": "mapping(address => mapping(uint256 => uint256))",
        "numberOfBytes": "32",
        "value": "t_mapping(t_uint256,t_uint256)"
      },
      "t_mapping(t_address,t_uint256)": {
        "encoding": "mapping",
        "key": "t_address",
        "label": "mapping(address => uint256)",
        "numberOfBytes": "32",
        "value": "t_uint256"
      },
      "t_mapping(t_uint256,t_address)": {
        "encoding": "mapping",
        "key": "t_uint256",
        "label": "mapping(uint256 => address)",
        "numberOfBytes": "32",
        "value": "t_address"
      },
      "t_mapping(t_uint256,t_uint256)": {
        "encoding": "mapping",
        "key": "t_uint256",
        "label": "mapping(uint256 => uint256)",
        "numberOfBytes": "32",
        "value": "t_uint256"
      },
      "t_string_storage": {
        "encoding": "bytes",
        "label": "string",
        "numberOfBytes": "32"
      },
      "t_uint256": {
        "encoding": "inplace",
        "label": "uint256",
        "numberOfBytes": "32"
      }
    }
  }
}