{
  "address": "0x7E4b19a74F79168B7004BFFCd066bCA2308A1641",
  "abi": [
    {
      "inputs": [],
      "stateMutability": "nonpayable",
      "type": "constructor"
    },
    {
      "anonymous": false,
      "inputs": [
        {
          "indexed": true,
          "internalType": "address",
          "name": "owner",
          "type": "address"
        },
        {
          "indexed": true,
          "internalType": "address",
          "name": "approved",
          "type": "address"
        },
        {
          "indexed": true,
          "internalType": "uint256",
          "name": "tokenId",
          "type": "uint256"
        }
      ],
      "name": "Approval",
      "type": "event"
    },
    {
      "anonymous": false,
      "inputs": [
        {
          "indexed": true,
          "internalType": "address",
          "name": "owner",
          "type": "address"
        },
        {
          "indexed": true,
          "internalType": "address",
          "name": "operator",
          "type": "address"
        },
        {
          "indexed": false,
          "internalType": "bool",
          "name": "approved",
          "type": "bool"
        }
      ],
      "name": "ApprovalForAll",
      "type": "event"
    },
    {
      "anonymous": false,
      "inputs": [
        {
          "indexed": true,
          "internalType": "address",
          "name": "previousOwner",
          "type": "address"
        },
        {
          "indexed": true,
          "internalType": "address",
          "name": "newOwner",
          "type": "address"
        }
      ],
      "name": "OwnershipTransferred",
      "type": "event"
    },
    {
      "anonymous": false,
      "inputs": [
        {
          "indexed": true,
          "internalType": "address",
          "name": "from",
          "type": "address"
        },
        {
          "indexed": true,
          "internalType": "address",
          "name": "to",
          "type": "address"
        },
        {
          "indexed": true,
          "internalType": "uint256",
          "name": "tokenId",
          "type": "uint256"
        }
      ],
      "name": "Transfer",
      "type": "event"
    },
    {
      "anonymous": false,
      "inputs": [
        {
          "indexed": false,
          "internalType": "address",
          "name": "owner",
          "type": "address"
        },
        {
          "indexed": false,
          "internalType": "uint256",
          "name": "quantity",
          "type": "uint256"
        },
        {
          "indexed": false,
          "internalType": "uint256",
          "name": "totalSupply",
          "type": "uint256"
        }
      ],
      "name": "mintEvent",
      "type": "event"
    },
    {
      "inputs": [],
      "name": "MAX_SAMURAI",
      "outputs": [
        {
          "internalType": "uint256",
          "name": "",
          "type": "uint256"
        }
      ],
      "stateMutability": "view",
      "type": "function"
    },
    {
      "inputs": [],
      "name": "PRICE",
      "outputs": [
        {
          "internalType": "uint256",
          "name": "",
          "type": "uint256"
        }
      ],
      "stateMutability": "view",
      "type": "function"
    },
    {
      "inputs": [
        {
          "internalType": "address",
          "name": "to",
          "type": "address"
        },
        {
          "internalType": "uint256",
          "name": "tokenId",
          "type": "uint256"
        }
      ],
      "name": "approve",
      "outputs": [],
      "stateMutability": "nonpayable",
      "type": "function"
    },
    {
      "inputs": [
        {
          "internalType": "address",
          "name": "owner",
          "type": "address"
        }
      ],
      "name": "balanceOf",
      "outputs": [
        {
          "internalType": "uint256",
          "name": "",
          "type": "uint256"
        }
      ],
      "stateMutability": "view",
      "type": "function"
    },
    {
      "inputs": [
        {
          "internalType": "uint256",
          "name": "tokenId",
          "type": "uint256"
        }
      ],
      "name": "burn",
      "outputs": [],
      "stateMutability": "nonpayable",
      "type": "function"
    },
    {
      "inputs": [
        {
          "internalType": "uint256",
          "name": "quantity",
          "type": "uint256"
        },
        {
          "internalType": "uint256",
          "name": "maxClaimNum",
          "type": "uint256"
        },
        {
          "internalType": "bytes",
          "name": "SIGNATURE",
          "type": "bytes"
        }
      ],
      "name": "claimSamurai",
      "outputs": [],
      "stateMutability": "nonpayable",
      "type": "function"
    },
    {
      "inputs": [
        {
          "internalType": "uint256",
          "name": "tokenId",
          "type": "uint256"
        }
      ],
      "name": "getApproved",
      "outputs": [
        {
          "internalType": "address",
          "name": "",
          "type": "address"
        }
      ],
      "stateMutability": "view",
      "type": "function"
    },
    {
      "inputs": [
        {
          "internalType": "address",
          "name": "_to",
          "type": "address"
        },
        {
          "internalType": "uint256",
          "name": "quantity",
          "type": "uint256"
        }
      ],
      "name": "giveawayMintSamurai",
      "outputs": [],
      "stateMutability": "nonpayable",
      "type": "function"
    },
    {
      "inputs": [],
      "name": "hasClaimStarted",
      "outputs": [
        {
          "internalType": "bool",
          "name": "",
          "type": "bool"
        }
      ],
      "stateMutability": "view",
      "type": "function"
    },
    {
      "inputs": [
        {
          "internalType": "address",
          "name": "",
          "type": "address"
        }
      ],
      "name": "hasClaimed",
      "outputs": [
        {
          "internalType": "uint256",
          "name": "",
          "type": "uint256"
        }
      ],
      "stateMutability": "view",
      "type": "function"
    },
    {
      "inputs": [
        {
          "internalType": "address",
          "name": "",
          "type": "address"
        }
      ],
      "name": "hasPresale",
      "outputs": [
        {
          "internalType": "uint256",
          "name": "",
          "type": "uint256"
        }
      ],
      "stateMutability": "view",
      "type": "function"
    },
    {
      "inputs": [],
      "name": "hasPresaleStarted",
      "outputs": [
        {
          "internalType": "bool",
          "name": "",
          "type": "bool"
        }
      ],
      "stateMutability": "view",
      "type": "function"
    },
    {
      "inputs": [],
      "name": "hasSaleStarted",
      "outputs": [
        {
          "internalType": "bool",
          "name": "",
          "type": "bool"
        }
      ],
      "stateMutability": "view",
      "type": "function"
    },
    {
      "inputs": [
        {
          "internalType": "address",
          "name": "owner",
          "type": "address"
        },
        {
          "internalType": "address",
          "name": "operator",
          "type": "address"
        }
      ],
      "name": "isApprovedForAll",
      "outputs": [
        {
          "internalType": "bool",
          "name": "",
          "type": "bool"
        }
      ],
      "stateMutability": "view",
      "type": "function"
    },
    {
      "inputs": [
        {
          "internalType": "uint256",
          "name": "quantity",
          "type": "uint256"
        },
        {
          "internalType": "uint256",
          "name": "maxClaimNumOnPresale",
          "type": "uint256"
        },
        {
          "internalType": "bytes",
          "name": "SIGNATURE",
          "type": "bytes"
        }
      ],
      "name": "mintPresaleSamurai",
      "outputs": [],
      "stateMutability": "payable",
      "type": "function"
    },
    {
      "inputs": [],
      "name": "name",
      "outputs": [
        {
          "internalType": "string",
          "name": "",
          "type": "string"
        }
      ],
      "stateMutability": "view",
      "type": "function"
    },
    {
      "inputs": [],
      "name": "numClaim",
      "outputs": [
        {
          "internalType": "uint256",
          "name": "",
          "type": "uint256"
        }
      ],
      "stateMutability": "view",
      "type": "function"
    },
    {
      "inputs": [],
      "name": "numGiveaway",
      "outputs": [
        {
          "internalType": "uint256",
          "name": "",
          "type": "uint256"
        }
      ],
      "stateMutability": "view",
      "type": "function"
    },
    {
      "inputs": [],
      "name": "numPresale",
      "outputs": [
        {
          "internalType": "uint256",
          "name": "",
          "type": "uint256"
        }
      ],
      "stateMutability": "view",
      "type": "function"
    },
    {
      "inputs": [],
      "name": "numSale",
      "outputs": [
        {
          "internalType": "uint256",
          "name": "",
          "type": "uint256"
        }
      ],
      "stateMutability": "view",
      "type": "function"
    },
    {
      "inputs": [],
      "name": "owner",
      "outputs": [
        {
          "internalType": "address",
          "name": "",
          "type": "address"
        }
      ],
      "stateMutability": "view",
      "type": "function"
    },
    {
      "inputs": [
        {
          "internalType": "uint256",
          "name": "tokenId",
          "type": "uint256"
        }
      ],
      "name": "ownerOf",
      "outputs": [
        {
          "internalType": "address",
          "name": "",
          "type": "address"
        }
      ],
      "stateMutability": "view",
      "type": "function"
    },
    {
      "inputs": [],
      "name": "presaleStartTimestamp",
      "outputs": [
        {
          "internalType": "uint256",
          "name": "",
          "type": "uint256"
        }
      ],
      "stateMutability": "view",
      "type": "function"
    },
    {
      "inputs": [
        {
          "internalType": "uint256",
          "name": "numPurchase",
          "type": "uint256"
        }
      ],
      "name": "publicMintSamurai",
      "outputs": [],
      "stateMutability": "payable",
      "type": "function"
    },
    {
      "inputs": [],
      "name": "renounceOwnership",
      "outputs": [],
      "stateMutability": "nonpayable",
      "type": "function"
    },
    {
      "inputs": [
        {
          "internalType": "address",
          "name": "from",
          "type": "address"
        },
        {
          "internalType": "address",
          "name": "to",
          "type": "address"
        },
        {
          "internalType": "uint256",
          "name": "tokenId",
          "type": "uint256"
        }
      ],
      "name": "safeTransferFrom",
      "outputs": [],
      "stateMutability": "nonpayable",
      "type": "function"
    },
    {
      "inputs": [
        {
          "internalType": "address",
          "name": "from",
          "type": "address"
        },
        {
          "internalType": "address",
          "name": "to",
          "type": "address"
        },
        {
          "internalType": "uint256",
          "name": "tokenId",
          "type": "uint256"
        },
        {
          "internalType": "bytes",
          "name": "_data",
          "type": "bytes"
        }
      ],
      "name": "safeTransferFrom",
      "outputs": [],
      "stateMutability": "nonpayable",
      "type": "function"
    },
    {
      "inputs": [],
      "name": "saleStartTimestamp",
      "outputs": [
        {
          "internalType": "uint256",
          "name": "",
          "type": "uint256"
        }
      ],
      "stateMutability": "view",
      "type": "function"
    },
    {
      "inputs": [
        {
          "internalType": "address",
          "name": "operator",
          "type": "address"
        },
        {
          "internalType": "bool",
          "name": "approved",
          "type": "bool"
        }
      ],
      "name": "setApprovalForAll",
      "outputs": [],
      "stateMutability": "nonpayable",
      "type": "function"
    },
    {
      "inputs": [
        {
          "internalType": "bool",
          "name": "_hasClaimStarted",
          "type": "bool"
        }
      ],
      "name": "setClaim",
      "outputs": [],
      "stateMutability": "nonpayable",
      "type": "function"
    },
    {
      "inputs": [
        {
          "internalType": "uint256",
          "name": "_MAX_num",
          "type": "uint256"
        }
      ],
      "name": "setMAX_SAMURAI",
      "outputs": [],
      "stateMutability": "nonpayable",
      "type": "function"
    },
    {
      "inputs": [
        {
          "internalType": "bool",
          "name": "_hasPresaleStarted",
          "type": "bool"
        },
        {
          "internalType": "uint256",
          "name": "_presaleStartTimestamp",
          "type": "uint256"
        }
      ],
      "name": "setPresale",
      "outputs": [],
      "stateMutability": "nonpayable",
      "type": "function"
    },
    {
      "inputs": [
        {
          "internalType": "bool",
          "name": "_hasSaleStarted",
          "type": "bool"
        },
        {
          "internalType": "uint256",
          "name": "_saleStartTimestamp",
          "type": "uint256"
        }
      ],
      "name": "setPublicSale",
      "outputs": [],
      "stateMutability": "nonpayable",
      "type": "function"
    },
    {
      "inputs": [
        {
          "internalType": "string",
          "name": "_tokenURI",
          "type": "string"
        }
      ],
      "name": "setURI",
      "outputs": [],
      "stateMutability": "nonpayable",
      "type": "function"
    },
    {
      "inputs": [
        {
          "internalType": "uint256",
          "name": "_price",
          "type": "uint256"
        }
      ],
      "name": "set_PRICE",
      "outputs": [],
      "stateMutability": "nonpayable",
      "type": "function"
    },
    {
      "inputs": [
        {
          "internalType": "bytes4",
          "name": "interfaceId",
          "type": "bytes4"
        }
      ],
      "name": "supportsInterface",
      "outputs": [
        {
          "internalType": "bool",
          "name": "",
          "type": "bool"
        }
      ],
      "stateMutability": "view",
      "type": "function"
    },
    {
      "inputs": [],
      "name": "symbol",
      "outputs": [
        {
          "internalType": "string",
          "name": "",
          "type": "string"
        }
      ],
      "stateMutability": "view",
      "type": "function"
    },
    {
      "inputs": [
        {
          "internalType": "uint256",
          "name": "tokenId",
          "type": "uint256"
        }
      ],
      "name": "tokenURI",
      "outputs": [
        {
          "internalType": "string",
          "name": "",
          "type": "string"
        }
      ],
      "stateMutability": "view",
      "type": "function"
    },
    {
      "inputs": [],
      "name": "totalSupply",
      "outputs": [
        {
          "internalType": "uint256",
          "name": "",
          "type": "uint256"
        }
      ],
      "stateMutability": "view",
      "type": "function"
    },
    {
      "inputs": [
        {
          "internalType": "address",
          "name": "from",
          "type": "address"
        },
        {
          "internalType": "address",
          "name": "to",
          "type": "address"
        },
        {
          "internalType": "uint256",
          "name": "tokenId",
          "type": "uint256"
        }
      ],
      "name": "transferFrom",
      "outputs": [],
      "stateMutability": "nonpayable",
      "type": "function"
    },
    {
      "inputs": [
        {
          "internalType": "address",
          "name": "newOwner",
          "type": "address"
        }
      ],
      "name": "transferOwnership",
      "outputs": [],
      "stateMutability": "nonpayable",
      "type": "function"
    },
    {
      "inputs": [
        {
          "internalType": "uint256",
          "name": "maxClaimNum",
          "type": "uint256"
        },
        {
          "internalType": "bytes",
          "name": "SIGNATURE",
          "type": "bytes"
        }
      ],
      "name": "verify",
      "outputs": [
        {
          "internalType": "bool",
          "name": "",
          "type": "bool"
        }
      ],
      "stateMutability": "view",
      "type": "function"
    },
    {
      "inputs": [],
      "name": "withdrawAll",
      "outputs": [],
      "stateMutability": "payable",
      "type": "function"
    }
  ],
  "transactionHash": "0x48c1302e397c6488131f03e91d5f463497361c97b02d0339483f23314d54f47b",
  "args": [],
  "solcInputHash": "8f45c31c73db704aee66532237319af0",
  "bytecode": "0x610120604052611a0a60065567010a741a46278000600755600060085560006009556000600a556000600b556000600c556001600d60006101000a81548160ff0219169083151502179055506001600d60016101000a81548160ff0219169083151502179055506000600d60026101000a81548160ff0219169083151502179055506040518060600160405280602d815260200162005b4e602d9139600e9080519060200190620000b292919062000388565b506361e7c5006011556361e67380601255348015620000d057600080fd5b506040518060400160405280601281526020017f4b6174616e61204e2053616d75726169203200000000000000000000000000008152506040518060400160405280600681526020017f4b4e53322e3000000000000000000000000000000000000000000000000000008152506040518060400160405280601281526020017f4b6174616e61204e2053616d75726169203200000000000000000000000000008152506040518060400160405280600581526020017f312e302e30000000000000000000000000000000000000000000000000000000815250620001c9620001bd6200028060201b60201c565b6200028860201b60201c565b60008280519060200120905060008280519060200120905060007f8b73c3c69bb8fe3d512ecc4cf759cc79239f7b179b0ffacaa9a75d522b39400f90508260c081815250508160e081815250504660a08181525050620002318184846200034c60201b60201c565b60808181525050806101008181525050505050505081600190805190602001906200025e92919062000388565b5080600290805190602001906200027792919062000388565b50505062000575565b600033905090565b60008060009054906101000a900473ffffffffffffffffffffffffffffffffffffffff169050816000806101000a81548173ffffffffffffffffffffffffffffffffffffffff021916908373ffffffffffffffffffffffffffffffffffffffff1602179055508173ffffffffffffffffffffffffffffffffffffffff168173ffffffffffffffffffffffffffffffffffffffff167f8be0079c531659141344cd1fd0a4f28419497f9722a3daafe3b4186f6b6457e060405160405180910390a35050565b60008383834630604051602001620003699594939291906200046b565b6040516020818303038152906040528051906020012090509392505050565b828054620003969062000510565b90600052602060002090601f016020900481019282620003ba576000855562000406565b82601f10620003d557805160ff191683800117855562000406565b8280016001018555821562000406579182015b8281111562000405578251825591602001919060010190620003e8565b5b50905062000415919062000419565b5090565b5b80821115620004345760008160009055506001016200041a565b5090565b6200044381620004c8565b82525050565b6200045481620004dc565b82525050565b620004658162000506565b82525050565b600060a08201905062000482600083018862000449565b62000491602083018762000449565b620004a0604083018662000449565b620004af60608301856200045a565b620004be608083018462000438565b9695505050505050565b6000620004d582620004e6565b9050919050565b6000819050919050565b600073ffffffffffffffffffffffffffffffffffffffff82169050919050565b6000819050919050565b600060028204905060018216806200052957607f821691505b6020821081141562000540576200053f62000546565b5b50919050565b7f4e487b7100000000000000000000000000000000000000000000000000000000600052602260045260246000fd5b60805160a05160c05160e05161010051615594620005ba6000396000612e0301526000612e4501526000612e2401526000612db001526000612dd801526155946000f3fe60806040526004361061025c5760003560e01c8063715018a611610144578063b3c6214f116100b6578063de4f48471161007a578063de4f4847146108ce578063de9af038146108ea578063e985e9c514610913578063eaeed92014610950578063ee38c8b714610979578063f2fde38b146109a25761025c565b8063b3c6214f146107e9578063b88d4fde14610812578063c341526b1461083b578063c854431214610866578063c87b56dd146108915761025c565b8063872b25b011610108578063872b25b0146106e95780638d859f3e146107145780638da5cb5b1461073f57806395d89b411461076a578063a22cb46514610795578063b0220015146107be5761025c565b8063715018a614610623578063717bf3361461063a57806373b2e80e14610665578063853828b6146106a257806385852ce4146106ac5761025c565b80632bf831f0116101dd57806354465773116101a157806354465773146104ed5780635edbad0a146105185780636352211e146105435780636456c2051461058057806369cff347146105a957806370a08231146105e65761025c565b80632bf831f0146104295780633c276d861461044557806342842e0e1461047057806342966c68146104995780634ea37fec146104c25761025c565b8063095ea7b311610224578063095ea7b31461035857806318160ddd146103815780631c8b232d146103ac578063211418ab146103d757806323b872dd146104005761025c565b806301ffc9a71461026157806302fe53051461029e57806306331592146102c757806306fdde03146102f0578063081812fc1461031b575b600080fd5b34801561026d57600080fd5b5061028860048036038101906102839190613b07565b6109cb565b60405161029591906143a5565b60405180910390f35b3480156102aa57600080fd5b506102c560048036038101906102c09190613b59565b610aad565b005b3480156102d357600080fd5b506102ee60048036038101906102e99190613b9e565b610b3f565b005b3480156102fc57600080fd5b50610305610bc5565b604051610312919061448f565b60405180910390f35b34801561032757600080fd5b50610342600480360381019061033d9190613b9e565b610c57565b60405161034f9190614307565b60405180910390f35b34801561036457600080fd5b5061037f600480360381019061037a9190613a66565b610cdc565b005b34801561038d57600080fd5b50610396610df4565b6040516103a391906148d1565b60405180910390f35b3480156103b857600080fd5b506103c1610dfa565b6040516103ce91906143a5565b60405180910390f35b3480156103e357600080fd5b506103fe60048036038101906103f99190613aa2565b610e0d565b005b34801561040c57600080fd5b5061042760048036038101906104229190613960565b610ea6565b005b610443600480360381019061043e9190613c1b565b610f06565b005b34801561045157600080fd5b5061045a611273565b60405161046791906148d1565b60405180910390f35b34801561047c57600080fd5b5061049760048036038101906104929190613960565b611279565b005b3480156104a557600080fd5b506104c060048036038101906104bb9190613b9e565b611299565b005b3480156104ce57600080fd5b506104d7611321565b6040516104e491906148d1565b60405180910390f35b3480156104f957600080fd5b50610502611327565b60405161050f91906148d1565b60405180910390f35b34801561052457600080fd5b5061052d61132d565b60405161053a91906148d1565b60405180910390f35b34801561054f57600080fd5b5061056a60048036038101906105659190613b9e565b611333565b6040516105779190614307565b60405180910390f35b34801561058c57600080fd5b506105a760048036038101906105a29190613b9e565b611416565b005b3480156105b557600080fd5b506105d060048036038101906105cb91906138fb565b61149c565b6040516105dd91906148d1565b60405180910390f35b3480156105f257600080fd5b5061060d600480360381019061060891906138fb565b6114b4565b60405161061a91906148d1565b60405180910390f35b34801561062f57600080fd5b50610638611600565b005b34801561064657600080fd5b5061064f611688565b60405161065c91906143a5565b60405180910390f35b34801561067157600080fd5b5061068c600480360381019061068791906138fb565b61169b565b60405161069991906148d1565b60405180910390f35b6106aa6116b3565b005b3480156106b857600080fd5b506106d360048036038101906106ce9190613bc7565b61176f565b6040516106e091906143a5565b60405180910390f35b3480156106f557600080fd5b506106fe611816565b60405161070b91906148d1565b60405180910390f35b34801561072057600080fd5b5061072961181c565b60405161073691906148d1565b60405180910390f35b34801561074b57600080fd5b50610754611822565b6040516107619190614307565b60405180910390f35b34801561077657600080fd5b5061077f61184b565b60405161078c919061448f565b60405180910390f35b3480156107a157600080fd5b506107bc60048036038101906107b79190613a2a565b6118dd565b005b3480156107ca57600080fd5b506107d3611a5e565b6040516107e091906143a5565b60405180910390f35b3480156107f557600080fd5b50610810600480360381019061080b9190613acb565b611a71565b005b34801561081e57600080fd5b50610839600480360381019061083491906139af565b611b12565b005b34801561084757600080fd5b50610850611b74565b60405161085d91906148d1565b60405180910390f35b34801561087257600080fd5b5061087b611b7a565b60405161088891906148d1565b60405180910390f35b34801561089d57600080fd5b506108b860048036038101906108b39190613b9e565b611b80565b6040516108c5919061448f565b60405180910390f35b6108e860048036038101906108e39190613b9e565b611bfc565b005b3480156108f657600080fd5b50610911600480360381019061090c9190613a66565b611e39565b005b34801561091f57600080fd5b5061093a60048036038101906109359190613924565b611fb1565b60405161094791906143a5565b60405180910390f35b34801561095c57600080fd5b5061097760048036038101906109729190613acb565b612045565b005b34801561098557600080fd5b506109a0600480360381019061099b9190613c1b565b6120e6565b005b3480156109ae57600080fd5b506109c960048036038101906109c491906138fb565b61235e565b005b60007f80ac58cd000000000000000000000000000000000000000000000000000000007bffffffffffffffffffffffffffffffffffffffffffffffffffffffff1916827bffffffffffffffffffffffffffffffffffffffffffffffffffffffff19161480610a9657507f5b5e139f000000000000000000000000000000000000000000000000000000007bffffffffffffffffffffffffffffffffffffffffffffffffffffffff1916827bffffffffffffffffffffffffffffffffffffffffffffffffffffffff1916145b80610aa65750610aa582612456565b5b9050919050565b610ab56124c0565b73ffffffffffffffffffffffffffffffffffffffff16610ad3611822565b73ffffffffffffffffffffffffffffffffffffffff1614610b29576040517f08c379a0000000000000000000000000000000000000000000000000000000008152600401610b2090614751565b60405180910390fd5b8181600e9190610b3a92919061373d565b505050565b610b476124c0565b73ffffffffffffffffffffffffffffffffffffffff16610b65611822565b73ffffffffffffffffffffffffffffffffffffffff1614610bbb576040517f08c379a0000000000000000000000000000000000000000000000000000000008152600401610bb290614751565b60405180910390fd5b8060068190555050565b606060018054610bd490614b7c565b80601f0160208091040260200160405190810160405280929190818152602001828054610c0090614b7c565b8015610c4d5780601f10610c2257610100808354040283529160200191610c4d565b820191906000526020600020905b815481529060010190602001808311610c3057829003601f168201915b5050505050905090565b6000610c62826124c8565b610ca1576040517f08c379a0000000000000000000000000000000000000000000000000000000008152600401610c9890614731565b60405180910390fd5b6004600083815260200190815260200160002060009054906101000a900473ffffffffffffffffffffffffffffffffffffffff169050919050565b6000610ce782611333565b90508073ffffffffffffffffffffffffffffffffffffffff168373ffffffffffffffffffffffffffffffffffffffff161415610d58576040517f08c379a0000000000000000000000000000000000000000000000000000000008152600401610d4f906147f1565b60405180910390fd5b8073ffffffffffffffffffffffffffffffffffffffff16610d776124c0565b73ffffffffffffffffffffffffffffffffffffffff161480610da65750610da581610da06124c0565b611fb1565b5b610de5576040517f08c379a0000000000000000000000000000000000000000000000000000000008152600401610ddc90614671565b60405180910390fd5b610def8383612576565b505050565b600c5481565b600d60009054906101000a900460ff1681565b610e156124c0565b73ffffffffffffffffffffffffffffffffffffffff16610e33611822565b73ffffffffffffffffffffffffffffffffffffffff1614610e89576040517f08c379a0000000000000000000000000000000000000000000000000000000008152600401610e8090614751565b60405180910390fd5b80600d60026101000a81548160ff02191690831515021790555050565b610eb7610eb16124c0565b8261262f565b610ef6576040517f08c379a0000000000000000000000000000000000000000000000000000000008152600401610eed90614851565b60405180910390fd5b610f0183838361270d565b505050565b60011515600d60019054906101000a900460ff16151514610f5c576040517f08c379a0000000000000000000000000000000000000000000000000000000008152600401610f53906145b1565b60405180910390fd5b601254421015610fa1576040517f08c379a0000000000000000000000000000000000000000000000000000000008152600401610f9890614651565b60405180910390fd5b610fab828261176f565b610fea576040517f08c379a0000000000000000000000000000000000000000000000000000000008152600401610fe190614871565b60405180910390fd5b60008311801561104b57508161104884601060003373ffffffffffffffffffffffffffffffffffffffff1673ffffffffffffffffffffffffffffffffffffffff168152602001908152602001600020546128ec90919063ffffffff16565b11155b61108a576040517f08c379a000000000000000000000000000000000000000000000000000000000815260040161108190614891565b60405180910390fd5b61109f8360075461290290919063ffffffff16565b3410156110e1576040517f08c379a00000000000000000000000000000000000000000000000000000000081526004016110d890614811565b60405180910390fd5b6006546110f984600c546128ec90919063ffffffff16565b111561113a576040517f08c379a000000000000000000000000000000000000000000000000000000000815260040161113190614831565b60405180910390fd5b60005b838110156111805761115133600c54612918565b6111676001600c546128ec90919063ffffffff16565b600c81905550808061117890614bdf565b91505061113d565b50611196836008546128ec90919063ffffffff16565b6008819055506111ee83601060003373ffffffffffffffffffffffffffffffffffffffff1673ffffffffffffffffffffffffffffffffffffffff168152602001908152602001600020546128ec90919063ffffffff16565b601060003373ffffffffffffffffffffffffffffffffffffffff1673ffffffffffffffffffffffffffffffffffffffff168152602001908152602001600020819055507f9670c8b300c38cd3db8d3f9429dd902e67f418c4dd193e2497f06d20efc795603384600c546040516112669392919061436e565b60405180910390a1505050565b60115481565b61129483838360405180602001604052806000815250611b12565b505050565b6112a16124c0565b73ffffffffffffffffffffffffffffffffffffffff166112bf611822565b73ffffffffffffffffffffffffffffffffffffffff1614611315576040517f08c379a000000000000000000000000000000000000000000000000000000000815260040161130c90614751565b60405180910390fd5b61131e81612936565b50565b60125481565b600a5481565b60085481565b60008060038381548110611370577f4e487b7100000000000000000000000000000000000000000000000000000000600052603260045260246000fd5b9060005260206000200160009054906101000a900473ffffffffffffffffffffffffffffffffffffffff169050600073ffffffffffffffffffffffffffffffffffffffff168173ffffffffffffffffffffffffffffffffffffffff16141561140d576040517f08c379a0000000000000000000000000000000000000000000000000000000008152600401611404906146b1565b60405180910390fd5b80915050919050565b61141e6124c0565b73ffffffffffffffffffffffffffffffffffffffff1661143c611822565b73ffffffffffffffffffffffffffffffffffffffff1614611492576040517f08c379a000000000000000000000000000000000000000000000000000000000815260040161148990614751565b60405180910390fd5b8060078190555050565b60106020528060005260406000206000915090505481565b60008073ffffffffffffffffffffffffffffffffffffffff168273ffffffffffffffffffffffffffffffffffffffff161415611525576040517f08c379a000000000000000000000000000000000000000000000000000000000815260040161151c90614691565b60405180910390fd5b600080600380549050905060005b818110156115f15760038181548110611575577f4e487b7100000000000000000000000000000000000000000000000000000000600052603260045260246000fd5b9060005260206000200160009054906101000a900473ffffffffffffffffffffffffffffffffffffffff1673ffffffffffffffffffffffffffffffffffffffff168573ffffffffffffffffffffffffffffffffffffffff1614156115e057826115dd90614bdf565b92505b806115ea90614bdf565b9050611533565b50600090508192505050919050565b6116086124c0565b73ffffffffffffffffffffffffffffffffffffffff16611626611822565b73ffffffffffffffffffffffffffffffffffffffff161461167c576040517f08c379a000000000000000000000000000000000000000000000000000000000815260040161167390614751565b60405180910390fd5b6116866000612a3e565b565b600d60029054906101000a900460ff1681565b600f6020528060005260406000206000915090505481565b6116bb6124c0565b73ffffffffffffffffffffffffffffffffffffffff166116d9611822565b73ffffffffffffffffffffffffffffffffffffffff161461172f576040517f08c379a000000000000000000000000000000000000000000000000000000000815260040161172690614751565b60405180910390fd5b3373ffffffffffffffffffffffffffffffffffffffff166108fc479081150290604051600060405180830381858888f1935050505061176d57600080fd5b565b6000806117d56117cf7f159b8fd053f2ba91664d2db8a48c1216e475560cbaf9c4dc06e5f32265b785236117a16124c0565b876040516020016117b4939291906143c0565b60405160208183030381529060405280519060200120612b02565b84612b1c565b90508073ffffffffffffffffffffffffffffffffffffffff166117f6611822565b73ffffffffffffffffffffffffffffffffffffffff161491505092915050565b60065481565b60075481565b60008060009054906101000a900473ffffffffffffffffffffffffffffffffffffffff16905090565b60606002805461185a90614b7c565b80601f016020809104026020016040519081016040528092919081815260200182805461188690614b7c565b80156118d35780601f106118a8576101008083540402835291602001916118d3565b820191906000526020600020905b8154815290600101906020018083116118b657829003601f168201915b5050505050905090565b6118e56124c0565b73ffffffffffffffffffffffffffffffffffffffff168273ffffffffffffffffffffffffffffffffffffffff161415611953576040517f08c379a000000000000000000000000000000000000000000000000000000000815260040161194a906145f1565b60405180910390fd5b80600560006119606124c0565b73ffffffffffffffffffffffffffffffffffffffff1673ffffffffffffffffffffffffffffffffffffffff16815260200190815260200160002060008473ffffffffffffffffffffffffffffffffffffffff1673ffffffffffffffffffffffffffffffffffffffff16815260200190815260200160002060006101000a81548160ff0219169083151502179055508173ffffffffffffffffffffffffffffffffffffffff16611a0d6124c0565b73ffffffffffffffffffffffffffffffffffffffff167f17307eab39ab6107e8899845ad3d59bd9653f200f220920489ca2b5937696c3183604051611a5291906143a5565b60405180910390a35050565b600d60019054906101000a900460ff1681565b611a796124c0565b73ffffffffffffffffffffffffffffffffffffffff16611a97611822565b73ffffffffffffffffffffffffffffffffffffffff1614611aed576040517f08c379a0000000000000000000000000000000000000000000000000000000008152600401611ae490614751565b60405180910390fd5b81600d60006101000a81548160ff021916908315150217905550806011819055505050565b611b23611b1d6124c0565b8361262f565b611b62576040517f08c379a0000000000000000000000000000000000000000000000000000000008152600401611b5990614851565b60405180910390fd5b611b6e84848484612b43565b50505050565b600b5481565b60095481565b6060611b8b826124c8565b611bca576040517f08c379a0000000000000000000000000000000000000000000000000000000008152600401611bc1906146d1565b60405180910390fd5b600e611bd583612b9f565b604051602001611be69291906142ac565b6040516020818303038152906040529050919050565b60011515600d60009054906101000a900460ff16151514611c52576040517f08c379a0000000000000000000000000000000000000000000000000000000008152600401611c49906147d1565b60405180910390fd5b601154421015611c97576040517f08c379a0000000000000000000000000000000000000000000000000000000008152600401611c8e906144f1565b60405180910390fd5b600081118015611ca8575060328111155b611ce7576040517f08c379a0000000000000000000000000000000000000000000000000000000008152600401611cde906144d1565b60405180910390fd5b600654611cff82600c546128ec90919063ffffffff16565b1115611d40576040517f08c379a0000000000000000000000000000000000000000000000000000000008152600401611d37906148b1565b60405180910390fd5b611d558160075461290290919063ffffffff16565b341015611d97576040517f08c379a0000000000000000000000000000000000000000000000000000000008152600401611d8e90614811565b60405180910390fd5b60005b81811015611ddd57611dae33600c54612918565b611dc46001600c546128ec90919063ffffffff16565b600c819055508080611dd590614bdf565b915050611d9a565b50611df3816009546128ec90919063ffffffff16565b6009819055507f9670c8b300c38cd3db8d3f9429dd902e67f418c4dd193e2497f06d20efc795603382600c54604051611e2e9392919061436e565b60405180910390a150565b611e416124c0565b73ffffffffffffffffffffffffffffffffffffffff16611e5f611822565b73ffffffffffffffffffffffffffffffffffffffff1614611eb5576040517f08c379a0000000000000000000000000000000000000000000000000000000008152600401611eac90614751565b60405180910390fd5b600654611ecd82600c546128ec90919063ffffffff16565b1115611f0e576040517f08c379a0000000000000000000000000000000000000000000000000000000008152600401611f0590614831565b60405180910390fd5b60005b81811015611f5457611f2583600c54612918565b611f3b6001600c546128ec90919063ffffffff16565b600c819055508080611f4c90614bdf565b915050611f11565b50611f6a81600b546128ec90919063ffffffff16565b600b819055507f9670c8b300c38cd3db8d3f9429dd902e67f418c4dd193e2497f06d20efc795608282600c54604051611fa59392919061436e565b60405180910390a15050565b6000600560008473ffffffffffffffffffffffffffffffffffffffff1673ffffffffffffffffffffffffffffffffffffffff16815260200190815260200160002060008373ffffffffffffffffffffffffffffffffffffffff1673ffffffffffffffffffffffffffffffffffffffff16815260200190815260200160002060009054906101000a900460ff16905092915050565b61204d6124c0565b73ffffffffffffffffffffffffffffffffffffffff1661206b611822565b73ffffffffffffffffffffffffffffffffffffffff16146120c1576040517f08c379a00000000000000000000000000000000000000000000000000000000081526004016120b890614751565b60405180910390fd5b81600d60016101000a81548160ff021916908315150217905550806012819055505050565b60011515600d60029054906101000a900460ff1615151461213c576040517f08c379a000000000000000000000000000000000000000000000000000000000815260040161213390614591565b60405180910390fd5b612146828261176f565b612185576040517f08c379a000000000000000000000000000000000000000000000000000000000815260040161217c906147b1565b60405180910390fd5b6000831180156121e65750816121e384600f60003373ffffffffffffffffffffffffffffffffffffffff1673ffffffffffffffffffffffffffffffffffffffff168152602001908152602001600020546128ec90919063ffffffff16565b11155b612225576040517f08c379a000000000000000000000000000000000000000000000000000000000815260040161221c90614791565b60405180910390fd5b60005b8381101561226b5761223c33600c54612918565b6122526001600c546128ec90919063ffffffff16565b600c81905550808061226390614bdf565b915050612228565b5061228183600a546128ec90919063ffffffff16565b600a819055506122d983600f60003373ffffffffffffffffffffffffffffffffffffffff1673ffffffffffffffffffffffffffffffffffffffff168152602001908152602001600020546128ec90919063ffffffff16565b600f60003373ffffffffffffffffffffffffffffffffffffffff1673ffffffffffffffffffffffffffffffffffffffff168152602001908152602001600020819055507f9670c8b300c38cd3db8d3f9429dd902e67f418c4dd193e2497f06d20efc795603384600c546040516123519392919061436e565b60405180910390a1505050565b6123666124c0565b73ffffffffffffffffffffffffffffffffffffffff16612384611822565b73ffffffffffffffffffffffffffffffffffffffff16146123da576040517f08c379a00000000000000000000000000000000000000000000000000000000081526004016123d190614751565b60405180910390fd5b600073ffffffffffffffffffffffffffffffffffffffff168173ffffffffffffffffffffffffffffffffffffffff16141561244a576040517f08c379a000000000000000000000000000000000000000000000000000000000815260040161244190614551565b60405180910390fd5b61245381612a3e565b50565b60007f01ffc9a7000000000000000000000000000000000000000000000000000000007bffffffffffffffffffffffffffffffffffffffffffffffffffffffff1916827bffffffffffffffffffffffffffffffffffffffffffffffffffffffff1916149050919050565b600033905090565b60006003805490508210801561256f5750600073ffffffffffffffffffffffffffffffffffffffff166003838154811061252b577f4e487b7100000000000000000000000000000000000000000000000000000000600052603260045260246000fd5b9060005260206000200160009054906101000a900473ffffffffffffffffffffffffffffffffffffffff1673ffffffffffffffffffffffffffffffffffffffff1614155b9050919050565b816004600083815260200190815260200160002060006101000a81548173ffffffffffffffffffffffffffffffffffffffff021916908373ffffffffffffffffffffffffffffffffffffffff160217905550808273ffffffffffffffffffffffffffffffffffffffff166125e983611333565b73ffffffffffffffffffffffffffffffffffffffff167f8c5be1e5ebec7d5bd14f71427d1e84f3dd0314c0f7b2291e5b200ac8c7c3b92560405160405180910390a45050565b600061263a826124c8565b612679576040517f08c379a000000000000000000000000000000000000000000000000000000000815260040161267090614631565b60405180910390fd5b600061268483611333565b90508073ffffffffffffffffffffffffffffffffffffffff168473ffffffffffffffffffffffffffffffffffffffff1614806126f357508373ffffffffffffffffffffffffffffffffffffffff166126db84610c57565b73ffffffffffffffffffffffffffffffffffffffff16145b8061270457506127038185611fb1565b5b91505092915050565b8273ffffffffffffffffffffffffffffffffffffffff1661272d82611333565b73ffffffffffffffffffffffffffffffffffffffff1614612783576040517f08c379a000000000000000000000000000000000000000000000000000000000815260040161277a90614771565b60405180910390fd5b600073ffffffffffffffffffffffffffffffffffffffff168273ffffffffffffffffffffffffffffffffffffffff1614156127f3576040517f08c379a00000000000000000000000000000000000000000000000000000000081526004016127ea906145d1565b60405180910390fd5b6127fe838383612d4c565b612809600082612576565b8160038281548110612844577f4e487b7100000000000000000000000000000000000000000000000000000000600052603260045260246000fd5b9060005260206000200160006101000a81548173ffffffffffffffffffffffffffffffffffffffff021916908373ffffffffffffffffffffffffffffffffffffffff160217905550808273ffffffffffffffffffffffffffffffffffffffff168473ffffffffffffffffffffffffffffffffffffffff167fddf252ad1be2c89b69c2b068fc378daa952ba7f163c4a11628f55a4df523b3ef60405160405180910390a4505050565b600081836128fa919061499a565b905092915050565b600081836129109190614a21565b905092915050565b612932828260405180602001604052806000815250612d51565b5050565b600061294182611333565b905061294f81600084612d4c565b61295a600083612576565b600060038381548110612996577f4e487b7100000000000000000000000000000000000000000000000000000000600052603260045260246000fd5b9060005260206000200160006101000a81548173ffffffffffffffffffffffffffffffffffffffff021916908373ffffffffffffffffffffffffffffffffffffffff16021790555081600073ffffffffffffffffffffffffffffffffffffffff168273ffffffffffffffffffffffffffffffffffffffff167fddf252ad1be2c89b69c2b068fc378daa952ba7f163c4a11628f55a4df523b3ef60405160405180910390a45050565b60008060009054906101000a900473ffffffffffffffffffffffffffffffffffffffff169050816000806101000a81548173ffffffffffffffffffffffffffffffffffffffff021916908373ffffffffffffffffffffffffffffffffffffffff1602179055508173ffffffffffffffffffffffffffffffffffffffff168173ffffffffffffffffffffffffffffffffffffffff167f8be0079c531659141344cd1fd0a4f28419497f9722a3daafe3b4186f6b6457e060405160405180910390a35050565b6000612b15612b0f612dac565b83612e6f565b9050919050565b6000806000612b2b8585612ea2565b91509150612b3881612f25565b819250505092915050565b612b4e84848461270d565b612b5a84848484613276565b612b99576040517f08c379a0000000000000000000000000000000000000000000000000000000008152600401612b9090614531565b60405180910390fd5b50505050565b60606000821415612be7576040518060400160405280600181526020017f30000000000000000000000000000000000000000000000000000000000000008152509050612d47565b600082905060005b60008214612c19578080612c0290614bdf565b915050600a82612c1291906149f0565b9150612bef565b60008167ffffffffffffffff811115612c5b577f4e487b7100000000000000000000000000000000000000000000000000000000600052604160045260246000fd5b6040519080825280601f01601f191660200182016040528015612c8d5781602001600182028036833780820191505090505b5090505b60008514612d4057600182612ca69190614a7b565b9150600a85612cb59190614c32565b6030612cc1919061499a565b60f81b818381518110612cfd577f4e487b7100000000000000000000000000000000000000000000000000000000600052603260045260246000fd5b60200101907effffffffffffffffffffffffffffffffffffffffffffffffffffffffffffff1916908160001a905350600a85612d3991906149f0565b9450612c91565b8093505050505b919050565b505050565b612d5b838361340d565b612d686000848484613276565b612da7576040517f08c379a0000000000000000000000000000000000000000000000000000000008152600401612d9e90614531565b60405180910390fd5b505050565b60007f0000000000000000000000000000000000000000000000000000000000000000461415612dfe577f00000000000000000000000000000000000000000000000000000000000000009050612e6c565b612e697f00000000000000000000000000000000000000000000000000000000000000007f00000000000000000000000000000000000000000000000000000000000000007f0000000000000000000000000000000000000000000000000000000000000000613595565b90505b90565b60008282604051602001612e849291906142d0565b60405160208183030381529060405280519060200120905092915050565b600080604183511415612ee45760008060006020860151925060408601519150606086015160001a9050612ed8878285856135cf565b94509450505050612f1e565b604083511415612f15576000806020850151915060408501519050612f0a8683836136dc565b935093505050612f1e565b60006002915091505b9250929050565b60006004811115612f5f577f4e487b7100000000000000000000000000000000000000000000000000000000600052602160045260246000fd5b816004811115612f98577f4e487b7100000000000000000000000000000000000000000000000000000000600052602160045260246000fd5b1415612fa357613273565b60016004811115612fdd577f4e487b7100000000000000000000000000000000000000000000000000000000600052602160045260246000fd5b816004811115613016577f4e487b7100000000000000000000000000000000000000000000000000000000600052602160045260246000fd5b1415613057576040517f08c379a000000000000000000000000000000000000000000000000000000000815260040161304e906144b1565b60405180910390fd5b60026004811115613091577f4e487b7100000000000000000000000000000000000000000000000000000000600052602160045260246000fd5b8160048111156130ca577f4e487b7100000000000000000000000000000000000000000000000000000000600052602160045260246000fd5b141561310b576040517f08c379a000000000000000000000000000000000000000000000000000000000815260040161310290614511565b60405180910390fd5b60036004811115613145577f4e487b7100000000000000000000000000000000000000000000000000000000600052602160045260246000fd5b81600481111561317e577f4e487b7100000000000000000000000000000000000000000000000000000000600052602160045260246000fd5b14156131bf576040517f08c379a00000000000000000000000000000000000000000000000000000000081526004016131b690614611565b60405180910390fd5b6004808111156131f8577f4e487b7100000000000000000000000000000000000000000000000000000000600052602160045260246000fd5b816004811115613231577f4e487b7100000000000000000000000000000000000000000000000000000000600052602160045260246000fd5b1415613272576040517f08c379a0000000000000000000000000000000000000000000000000000000008152600401613269906146f1565b60405180910390fd5b5b50565b60006132978473ffffffffffffffffffffffffffffffffffffffff1661372a565b15613400578373ffffffffffffffffffffffffffffffffffffffff1663150b7a026132c06124c0565b8786866040518563ffffffff1660e01b81526004016132e29493929190614322565b602060405180830381600087803b1580156132fc57600080fd5b505af192505050801561332d57506040513d601f19601f8201168201806040525081019061332a9190613b30565b60015b6133b0573d806000811461335d576040519150601f19603f3d011682016040523d82523d6000602084013e613362565b606091505b506000815114156133a8576040517f08c379a000000000000000000000000000000000000000000000000000000000815260040161339f90614531565b60405180910390fd5b805181602001fd5b63150b7a0260e01b7bffffffffffffffffffffffffffffffffffffffffffffffffffffffff1916817bffffffffffffffffffffffffffffffffffffffffffffffffffffffff191614915050613405565b600190505b949350505050565b600073ffffffffffffffffffffffffffffffffffffffff168273ffffffffffffffffffffffffffffffffffffffff16141561347d576040517f08c379a000000000000000000000000000000000000000000000000000000000815260040161347490614711565b60405180910390fd5b613486816124c8565b156134c6576040517f08c379a00000000000000000000000000000000000000000000000000000000081526004016134bd90614571565b60405180910390fd5b6134d260008383612d4c565b6003829080600181540180825580915050600190039060005260206000200160009091909190916101000a81548173ffffffffffffffffffffffffffffffffffffffff021916908373ffffffffffffffffffffffffffffffffffffffff160217905550808273ffffffffffffffffffffffffffffffffffffffff16600073ffffffffffffffffffffffffffffffffffffffff167fddf252ad1be2c89b69c2b068fc378daa952ba7f163c4a11628f55a4df523b3ef60405160405180910390a45050565b600083838346306040516020016135b09594939291906143f7565b6040516020818303038152906040528051906020012090509392505050565b6000807f7fffffffffffffffffffffffffffffff5d576e7357a4501ddfe92f46681b20a08360001c111561360a5760006003915091506136d3565b601b8560ff16141580156136225750601c8560ff1614155b156136345760006004915091506136d3565b600060018787878760405160008152602001604052604051613659949392919061444a565b6020604051602081039080840390855afa15801561367b573d6000803e3d6000fd5b505050602060405103519050600073ffffffffffffffffffffffffffffffffffffffff168173ffffffffffffffffffffffffffffffffffffffff1614156136ca576000600192509250506136d3565b80600092509250505b94509492505050565b6000806000807f7fffffffffffffffffffffffffffffffffffffffffffffffffffffffffffffff85169150601b8560ff1c01905061371c878288856135cf565b935093505050935093915050565b600080823b905060008111915050919050565b82805461374990614b7c565b90600052602060002090601f01602090048101928261376b57600085556137b2565b82601f1061378457803560ff19168380011785556137b2565b828001600101855582156137b2579182015b828111156137b1578235825591602001919060010190613796565b5b5090506137bf91906137c3565b5090565b5b808211156137dc5760008160009055506001016137c4565b5090565b60006137f36137ee84614911565b6148ec565b90508281526020810184848401111561380b57600080fd5b613816848285614b3a565b509392505050565b60008135905061382d81615502565b92915050565b60008135905061384281615519565b92915050565b60008135905061385781615530565b92915050565b60008151905061386c81615530565b92915050565b600082601f83011261388357600080fd5b81356138938482602086016137e0565b91505092915050565b60008083601f8401126138ae57600080fd5b8235905067ffffffffffffffff8111156138c757600080fd5b6020830191508360018202830111156138df57600080fd5b9250929050565b6000813590506138f581615547565b92915050565b60006020828403121561390d57600080fd5b600061391b8482850161381e565b91505092915050565b6000806040838503121561393757600080fd5b60006139458582860161381e565b92505060206139568582860161381e565b9150509250929050565b60008060006060848603121561397557600080fd5b60006139838682870161381e565b93505060206139948682870161381e565b92505060406139a5868287016138e6565b9150509250925092565b600080600080608085870312156139c557600080fd5b60006139d38782880161381e565b94505060206139e48782880161381e565b93505060406139f5878288016138e6565b925050606085013567ffffffffffffffff811115613a1257600080fd5b613a1e87828801613872565b91505092959194509250565b60008060408385031215613a3d57600080fd5b6000613a4b8582860161381e565b9250506020613a5c85828601613833565b9150509250929050565b60008060408385031215613a7957600080fd5b6000613a878582860161381e565b9250506020613a98858286016138e6565b9150509250929050565b600060208284031215613ab457600080fd5b6000613ac284828501613833565b91505092915050565b60008060408385031215613ade57600080fd5b6000613aec85828601613833565b9250506020613afd858286016138e6565b9150509250929050565b600060208284031215613b1957600080fd5b6000613b2784828501613848565b91505092915050565b600060208284031215613b4257600080fd5b6000613b508482850161385d565b91505092915050565b60008060208385031215613b6c57600080fd5b600083013567ffffffffffffffff811115613b8657600080fd5b613b928582860161389c565b92509250509250929050565b600060208284031215613bb057600080fd5b6000613bbe848285016138e6565b91505092915050565b60008060408385031215613bda57600080fd5b6000613be8858286016138e6565b925050602083013567ffffffffffffffff811115613c0557600080fd5b613c1185828601613872565b9150509250929050565b600080600060608486031215613c3057600080fd5b6000613c3e868287016138e6565b9350506020613c4f868287016138e6565b925050604084013567ffffffffffffffff811115613c6c57600080fd5b613c7886828701613872565b9150509250925092565b613c8b81614aaf565b82525050565b613c9a81614ac1565b82525050565b613ca981614acd565b82525050565b613cc0613cbb82614acd565b614c28565b82525050565b6000613cd182614957565b613cdb818561496d565b9350613ceb818560208601614b49565b613cf481614d1f565b840191505092915050565b6000613d0a82614962565b613d14818561497e565b9350613d24818560208601614b49565b613d2d81614d1f565b840191505092915050565b6000613d4382614962565b613d4d818561498f565b9350613d5d818560208601614b49565b80840191505092915050565b60008154613d7681614b7c565b613d80818661498f565b94506001821660008114613d9b5760018114613dac57613ddf565b60ff19831686528186019350613ddf565b613db585614942565b60005b83811015613dd757815481890152600182019150602081019050613db8565b838801955050505b50505092915050565b6000613df560188361497e565b9150613e0082614d30565b602082019050919050565b6000613e18602c8361497e565b9150613e2382614d59565b604082019050919050565b6000613e3b60178361497e565b9150613e4682614da8565b602082019050919050565b6000613e5e601f8361497e565b9150613e6982614dd1565b602082019050919050565b6000613e8160328361497e565b9150613e8c82614dfa565b604082019050919050565b6000613ea460268361497e565b9150613eaf82614e49565b604082019050919050565b6000613ec7601c8361497e565b9150613ed282614e98565b602082019050919050565b6000613eea60028361498f565b9150613ef582614ec1565b600282019050919050565b6000613f0d60168361497e565b9150613f1882614eea565b602082019050919050565b6000613f3060128361497e565b9150613f3b82614f13565b602082019050919050565b6000613f5360248361497e565b9150613f5e82614f3c565b604082019050919050565b6000613f7660198361497e565b9150613f8182614f8b565b602082019050919050565b6000613f9960228361497e565b9150613fa482614fb4565b604082019050919050565b6000613fbc602c8361497e565b9150613fc782615003565b604082019050919050565b6000613fdf60138361497e565b9150613fea82615052565b602082019050919050565b600061400260388361497e565b915061400d8261507b565b604082019050919050565b6000614025602a8361497e565b9150614030826150ca565b604082019050919050565b600061404860298361497e565b915061405382615119565b604082019050919050565b600061406b60108361497e565b915061407682615168565b602082019050919050565b600061408e60228361497e565b915061409982615191565b604082019050919050565b60006140b160208361497e565b91506140bc826151e0565b602082019050919050565b60006140d4602c8361497e565b91506140df82615209565b604082019050919050565b60006140f760208361497e565b915061410282615258565b602082019050919050565b600061411a60298361497e565b915061412582615281565b604082019050919050565b600061413d60278361497e565b9150614148826152d0565b604082019050919050565b600061416060178361497e565b915061416b8261531f565b602082019050919050565b600061418360168361497e565b915061418e82615348565b602082019050919050565b60006141a660218361497e565b91506141b182615371565b604082019050919050565b60006141c960248361497e565b91506141d4826153c0565b604082019050919050565b60006141ec60148361497e565b91506141f78261540f565b602082019050919050565b600061420f60318361497e565b915061421a82615438565b604082019050919050565b600061423260198361497e565b915061423d82615487565b602082019050919050565b6000614255601b8361497e565b9150614260826154b0565b602082019050919050565b600061427860098361497e565b9150614283826154d9565b602082019050919050565b61429781614b23565b82525050565b6142a681614b2d565b82525050565b60006142b88285613d69565b91506142c48284613d38565b91508190509392505050565b60006142db82613edd565b91506142e78285613caf565b6020820191506142f78284613caf565b6020820191508190509392505050565b600060208201905061431c6000830184613c82565b92915050565b60006080820190506143376000830187613c82565b6143446020830186613c82565b614351604083018561428e565b81810360608301526143638184613cc6565b905095945050505050565b60006060820190506143836000830186613c82565b614390602083018561428e565b61439d604083018461428e565b949350505050565b60006020820190506143ba6000830184613c91565b92915050565b60006060820190506143d56000830186613ca0565b6143e26020830185613c82565b6143ef604083018461428e565b949350505050565b600060a08201905061440c6000830188613ca0565b6144196020830187613ca0565b6144266040830186613ca0565b614433606083018561428e565b6144406080830184613c82565b9695505050505050565b600060808201905061445f6000830187613ca0565b61446c602083018661429d565b6144796040830185613ca0565b6144866060830184613ca0565b95945050505050565b600060208201905081810360008301526144a98184613cff565b905092915050565b600060208201905081810360008301526144ca81613de8565b9050919050565b600060208201905081810360008301526144ea81613e0b565b9050919050565b6000602082019050818103600083015261450a81613e2e565b9050919050565b6000602082019050818103600083015261452a81613e51565b9050919050565b6000602082019050818103600083015261454a81613e74565b9050919050565b6000602082019050818103600083015261456a81613e97565b9050919050565b6000602082019050818103600083015261458a81613eba565b9050919050565b600060208201905081810360008301526145aa81613f00565b9050919050565b600060208201905081810360008301526145ca81613f23565b9050919050565b600060208201905081810360008301526145ea81613f46565b9050919050565b6000602082019050818103600083015261460a81613f69565b9050919050565b6000602082019050818103600083015261462a81613f8c565b9050919050565b6000602082019050818103600083015261464a81613faf565b9050919050565b6000602082019050818103600083015261466a81613fd2565b9050919050565b6000602082019050818103600083015261468a81613ff5565b9050919050565b600060208201905081810360008301526146aa81614018565b9050919050565b600060208201905081810360008301526146ca8161403b565b9050919050565b600060208201905081810360008301526146ea8161405e565b9050919050565b6000602082019050818103600083015261470a81614081565b9050919050565b6000602082019050818103600083015261472a816140a4565b9050919050565b6000602082019050818103600083015261474a816140c7565b9050919050565b6000602082019050818103600083015261476a816140ea565b9050919050565b6000602082019050818103600083015261478a8161410d565b9050919050565b600060208201905081810360008301526147aa81614130565b9050919050565b600060208201905081810360008301526147ca81614153565b9050919050565b600060208201905081810360008301526147ea81614176565b9050919050565b6000602082019050818103600083015261480a81614199565b9050919050565b6000602082019050818103600083015261482a816141bc565b9050919050565b6000602082019050818103600083015261484a816141df565b9050919050565b6000602082019050818103600083015261486a81614202565b9050919050565b6000602082019050818103600083015261488a81614225565b9050919050565b600060208201905081810360008301526148aa81614248565b9050919050565b600060208201905081810360008301526148ca8161426b565b9050919050565b60006020820190506148e6600083018461428e565b92915050565b60006148f6614907565b90506149028282614bae565b919050565b6000604051905090565b600067ffffffffffffffff82111561492c5761492b614cf0565b5b61493582614d1f565b9050602081019050919050565b60008190508160005260206000209050919050565b600081519050919050565b600081519050919050565b600082825260208201905092915050565b600082825260208201905092915050565b600081905092915050565b60006149a582614b23565b91506149b083614b23565b9250827fffffffffffffffffffffffffffffffffffffffffffffffffffffffffffffffff038211156149e5576149e4614c63565b5b828201905092915050565b60006149fb82614b23565b9150614a0683614b23565b925082614a1657614a15614c92565b5b828204905092915050565b6000614a2c82614b23565b9150614a3783614b23565b9250817fffffffffffffffffffffffffffffffffffffffffffffffffffffffffffffffff0483118215151615614a7057614a6f614c63565b5b828202905092915050565b6000614a8682614b23565b9150614a9183614b23565b925082821015614aa457614aa3614c63565b5b828203905092915050565b6000614aba82614b03565b9050919050565b60008115159050919050565b6000819050919050565b60007fffffffff0000000000000000000000000000000000000000000000000000000082169050919050565b600073ffffffffffffffffffffffffffffffffffffffff82169050919050565b6000819050919050565b600060ff82169050919050565b82818337600083830152505050565b60005b83811015614b67578082015181840152602081019050614b4c565b83811115614b76576000848401525b50505050565b60006002820490506001821680614b9457607f821691505b60208210811415614ba857614ba7614cc1565b5b50919050565b614bb782614d1f565b810181811067ffffffffffffffff82111715614bd657614bd5614cf0565b5b80604052505050565b6000614bea82614b23565b91507fffffffffffffffffffffffffffffffffffffffffffffffffffffffffffffffff821415614c1d57614c1c614c63565b5b600182019050919050565b6000819050919050565b6000614c3d82614b23565b9150614c4883614b23565b925082614c5857614c57614c92565b5b828206905092915050565b7f4e487b7100000000000000000000000000000000000000000000000000000000600052601160045260246000fd5b7f4e487b7100000000000000000000000000000000000000000000000000000000600052601260045260246000fd5b7f4e487b7100000000000000000000000000000000000000000000000000000000600052602260045260246000fd5b7f4e487b7100000000000000000000000000000000000000000000000000000000600052604160045260246000fd5b6000601f19601f8301169050919050565b7f45434453413a20696e76616c6964207369676e61747572650000000000000000600082015250565b7f596f752063616e206d696e74206d696e696d756d20312c206d6178696d756d2060008201527f35302073616d75726169732e0000000000000000000000000000000000000000602082015250565b7f4e4f545f494e5f5055424c49435f53414c455f54494d45000000000000000000600082015250565b7f45434453413a20696e76616c6964207369676e6174757265206c656e67746800600082015250565b7f4552433732313a207472616e7366657220746f206e6f6e20455243373231526560008201527f63656976657220696d706c656d656e7465720000000000000000000000000000602082015250565b7f4f776e61626c653a206e6577206f776e657220697320746865207a65726f206160008201527f6464726573730000000000000000000000000000000000000000000000000000602082015250565b7f4552433732313a20746f6b656e20616c7265616479206d696e74656400000000600082015250565b7f1901000000000000000000000000000000000000000000000000000000000000600082015250565b7f436c61696d65206861736e277420737461727465642e00000000000000000000600082015250565b7f50524553414c455f4e4f545f4143544956450000000000000000000000000000600082015250565b7f4552433732313a207472616e7366657220746f20746865207a65726f2061646460008201527f7265737300000000000000000000000000000000000000000000000000000000602082015250565b7f4552433732313a20617070726f766520746f2063616c6c657200000000000000600082015250565b7f45434453413a20696e76616c6964207369676e6174757265202773272076616c60008201527f7565000000000000000000000000000000000000000000000000000000000000602082015250565b7f4552433732313a206f70657261746f7220717565727920666f72206e6f6e657860008201527f697374656e7420746f6b656e0000000000000000000000000000000000000000602082015250565b7f4e4f545f494e5f50524553414c455f54494d4500000000000000000000000000600082015250565b7f4552433732313a20617070726f76652063616c6c6572206973206e6f74206f7760008201527f6e6572206e6f7220617070726f76656420666f7220616c6c0000000000000000602082015250565b7f4552433732313a2062616c616e636520717565727920666f7220746865207a6560008201527f726f206164647265737300000000000000000000000000000000000000000000602082015250565b7f4552433732313a206f776e657220717565727920666f72206e6f6e657869737460008201527f656e7420746f6b656e0000000000000000000000000000000000000000000000602082015250565b7f544f4b454e5f4e4f545f45584953545300000000000000000000000000000000600082015250565b7f45434453413a20696e76616c6964207369676e6174757265202776272076616c60008201527f7565000000000000000000000000000000000000000000000000000000000000602082015250565b7f4552433732313a206d696e7420746f20746865207a65726f2061646472657373600082015250565b7f4552433732313a20617070726f76656420717565727920666f72206e6f6e657860008201527f697374656e7420746f6b656e0000000000000000000000000000000000000000602082015250565b7f4f776e61626c653a2063616c6c6572206973206e6f7420746865206f776e6572600082015250565b7f4552433732313a207472616e73666572206f6620746f6b656e2074686174206960008201527f73206e6f74206f776e0000000000000000000000000000000000000000000000602082015250565b7f45786365656420746865207175616e7469747920746861742063616e2062652060008201527f636c61696d656400000000000000000000000000000000000000000000000000602082015250565b7f4e6f7420656c696769626c6520666f7220636c61696d2e000000000000000000600082015250565b7f5055424c49435f53414c455f4e4f545f41435449564500000000000000000000600082015250565b7f4552433732313a20617070726f76616c20746f2063757272656e74206f776e6560008201527f7200000000000000000000000000000000000000000000000000000000000000602082015250565b7f45746865722076616c75652073656e742069732062656c6f772074686520707260008201527f6963652e00000000000000000000000000000000000000000000000000000000602082015250565b7f45786365656473204d41585f53414d555241492e000000000000000000000000600082015250565b7f4552433732313a207472616e736665722063616c6c6572206973206e6f74206f60008201527f776e6572206e6f7220617070726f766564000000000000000000000000000000602082015250565b7f4e6f7420656c696769626c6520666f722070726573616c652e00000000000000600082015250565b7f45786365656473206d61782070726573616c65206e756d6265722e0000000000600082015250565b7f536f6c64206f7574210000000000000000000000000000000000000000000000600082015250565b61550b81614aaf565b811461551657600080fd5b50565b61552281614ac1565b811461552d57600080fd5b50565b61553981614ad7565b811461554457600080fd5b50565b61555081614b23565b811461555b57600080fd5b5056fea264697066735822122005a35dcffb5e478931a3c21df170787500411c6fc50087cb46453ea621696dae64736f6c63430008040033687474703a2f2f6170692e72616d656e2e6b6174616e616e73616d757261692e6172742f4d657461646174612f",
  "devdoc": {
    "kind": "dev",
    "methods": {
      "approve(address,uint256)": {
        "details": "See {IERC721-approve}."
      },
      "balanceOf(address)": {
        "details": "See {IERC721-balanceOf}."
      },
      "getApproved(uint256)": {
        "details": "See {IERC721-getApproved}."
      },
      "isApprovedForAll(address,address)": {
        "details": "See {IERC721-isApprovedForAll}."
      },
      "name()": {
        "details": "See {IERC721Metadata-name}."
      },
      "owner()": {
        "details": "Returns the address of the current owner."
      },
      "ownerOf(uint256)": {
        "details": "See {IERC721-ownerOf}."
      },
      "renounceOwnership()": {
        "details": "Leaves the contract without owner. It will not be possible to call `onlyOwner` functions anymore. Can only be called by the current owner. NOTE: Renouncing ownership will leave the contract without an owner, thereby removing any functionality that is only available to the owner."
      },
      "safeTransferFrom(address,address,uint256)": {
        "details": "See {IERC721-safeTransferFrom}."
      },
      "safeTransferFrom(address,address,uint256,bytes)": {
        "details": "See {IERC721-safeTransferFrom}."
      },
      "setApprovalForAll(address,bool)": {
        "details": "See {IERC721-setApprovalForAll}."
      },
      "supportsInterface(bytes4)": {
        "details": "See {IERC165-supportsInterface}."
      },
      "symbol()": {
        "details": "See {IERC721Metadata-symbol}."
      },
      "tokenURI(uint256)": {
        "details": "Returns the Uniform Resource Identifier (URI) for `tokenId` token."
      },
      "transferFrom(address,address,uint256)": {
        "details": "See {IERC721-transferFrom}."
      },
      "transferOwnership(address)": {
        "details": "Transfers ownership of the contract to a new account (`newOwner`). Can only be called by the current owner."
      }
    },
    "version": 1
  },
  "userdoc": {
    "kind": "user",
    "methods": {},
    "version": 1
  },
  "storageLayout": {
    "storage": [
      {
        "astId": 7,
        "contract": "contracts/KatanaNSamurai2.sol:KatanaNSamurai2",
        "label": "_owner",
        "offset": 0,
        "slot": "0",
        "type": "t_address"
      },
      {
        "astId": 2845,
        "contract": "contracts/KatanaNSamurai2.sol:KatanaNSamurai2",
        "label": "_name",
        "offset": 0,
        "slot": "1",
        "type": "t_string_storage"
      },
      {
        "astId": 2847,
        "contract": "contracts/KatanaNSamurai2.sol:KatanaNSamurai2",
        "label": "_symbol",
        "offset": 0,
        "slot": "2",
        "type": "t_string_storage"
      },
      {
        "astId": 2850,
        "contract": "contracts/KatanaNSamurai2.sol:KatanaNSamurai2",
        "label": "_owners",
        "offset": 0,
        "slot": "3",
        "type": "t_array(t_address)dyn_storage"
      },
      {
        "astId": 2854,
        "contract": "contracts/KatanaNSamurai2.sol:KatanaNSamurai2",
        "label": "_tokenApprovals",
        "offset": 0,
        "slot": "4",
        "type": "t_mapping(t_uint256,t_address)"
      },
      {
        "astId": 2860,
        "contract": "contracts/KatanaNSamurai2.sol:KatanaNSamurai2",
        "label": "_operatorApprovals",
        "offset": 0,
        "slot": "5",
        "type": "t_mapping(t_address,t_mapping(t_address,t_bool))"
      },
      {
        "astId": 3619,
        "contract": "contracts/KatanaNSamurai2.sol:KatanaNSamurai2",
        "label": "MAX_SAMURAI",
        "offset": 0,
        "slot": "6",
        "type": "t_uint256"
      },
      {
        "astId": 3622,
        "contract": "contracts/KatanaNSamurai2.sol:KatanaNSamurai2",
        "label": "PRICE",
        "offset": 0,
        "slot": "7",
        "type": "t_uint256"
      },
      {
        "astId": 3625,
        "contract": "contracts/KatanaNSamurai2.sol:KatanaNSamurai2",
        "label": "numPresale",
        "offset": 0,
        "slot": "8",
        "type": "t_uint256"
      },
      {
        "astId": 3628,
        "contract": "contracts/KatanaNSamurai2.sol:KatanaNSamurai2",
        "label": "numSale",
        "offset": 0,
        "slot": "9",
        "type": "t_uint256"
      },
      {
        "astId": 3631,
        "contract": "contracts/KatanaNSamurai2.sol:KatanaNSamurai2",
        "label": "numClaim",
        "offset": 0,
        "slot": "10",
        "type": "t_uint256"
      },
      {
        "astId": 3634,
        "contract": "contracts/KatanaNSamurai2.sol:KatanaNSamurai2",
        "label": "numGiveaway",
        "offset": 0,
        "slot": "11",
        "type": "t_uint256"
      },
      {
        "astId": 3637,
        "contract": "contracts/KatanaNSamurai2.sol:KatanaNSamurai2",
        "label": "totalSupply",
        "offset": 0,
        "slot": "12",
        "type": "t_uint256"
      },
      {
        "astId": 3640,
        "contract": "contracts/KatanaNSamurai2.sol:KatanaNSamurai2",
        "label": "hasSaleStarted",
        "offset": 0,
        "slot": "13",
        "type": "t_bool"
      },
      {
        "astId": 3643,
        "contract": "contracts/KatanaNSamurai2.sol:KatanaNSamurai2",
        "label": "hasPresaleStarted",
        "offset": 1,
        "slot": "13",
        "type": "t_bool"
      },
      {
        "astId": 3646,
        "contract": "contracts/KatanaNSamurai2.sol:KatanaNSamurai2",
        "label": "hasClaimStarted",
        "offset": 2,
        "slot": "13",
        "type": "t_bool"
      },
      {
        "astId": 3649,
        "contract": "contracts/KatanaNSamurai2.sol:KatanaNSamurai2",
        "label": "_baseTokenURI",
        "offset": 0,
        "slot": "14",
        "type": "t_string_storage"
      },
      {
        "astId": 3653,
        "contract": "contracts/KatanaNSamurai2.sol:KatanaNSamurai2",
        "label": "hasClaimed",
        "offset": 0,
        "slot": "15",
        "type": "t_mapping(t_address,t_uint256)"
      },
      {
        "astId": 3657,
        "contract": "contracts/KatanaNSamurai2.sol:KatanaNSamurai2",
        "label": "hasPresale",
        "offset": 0,
        "slot": "16",
        "type": "t_mapping(t_address,t_uint256)"
      },
      {
        "astId": 3660,
        "contract": "contracts/KatanaNSamurai2.sol:KatanaNSamurai2",
        "label": "saleStartTimestamp",
        "offset": 0,
        "slot": "17",
        "type": "t_uint256"
      },
      {
        "astId": 3663,
        "contract": "contracts/KatanaNSamurai2.sol:KatanaNSamurai2",
        "label": "presaleStartTimestamp",
        "offset": 0,
        "slot": "18",
        "type": "t_uint256"
      }
    ],
    "types": {
      "t_address": {
        "encoding": "inplace",
        "label": "address",
        "numberOfBytes": "20"
      },
      "t_array(t_address)dyn_storage": {
        "base": "t_address",
        "encoding": "dynamic_array",
        "label": "address[]",
        "numberOfBytes": "32"
      },
      "t_bool": {
        "encoding": "inplace",
        "label": "bool",
        "numberOfBytes": "1"
      },
      "t_mapping(t_address,t_bool)": {
        "encoding": "mapping",
        "key": "t_address",
        "label": "mapping(address => bool)",
        "numberOfBytes": "32",
        "value": "t_bool"
      },
      "t_mapping(t_address,t_mapping(t_address,t_bool))": {
        "encoding": "mapping",
        "key": "t_address",
        "label": "mapping(address => mapping(address => bool))",
        "numberOfBytes": "32",
        "value": "t_mapping(t_address,t_bool)"
      },
      "t_mapping(t_address,t_uint256)": {
        "encoding": "mapping",
        "key": "t_address",
        "label": "mapping(address => uint256)",
        "numberOfBytes": "32",
        "value": "t_uint256"
      },
      "t_mapping(t_uint256,t_address)": {
        "encoding": "mapping",
        "key": "t_uint256",
        "label": "mapping(uint256 => address)",
        "numberOfBytes": "32",
        "value": "t_address"
      },
      "t_string_storage": {
        "encoding": "bytes",
        "label": "string",
        "numberOfBytes": "32"
      },
      "t_uint256": {
        "encoding": "inplace",
        "label": "uint256",
        "numberOfBytes": "32"
      }
    }
  }
}