{
  "address": "0xc2f633850F2C2F2B8049bF9bB051Ae8121F0BFC5",
  "abi": [
    {
      "inputs": [],
      "stateMutability": "nonpayable",
      "type": "constructor"
    },
    {
      "anonymous": false,
      "inputs": [
        {
          "indexed": true,
          "internalType": "address",
          "name": "owner",
          "type": "address"
        },
        {
          "indexed": true,
          "internalType": "address",
          "name": "approved",
          "type": "address"
        },
        {
          "indexed": true,
          "internalType": "uint256",
          "name": "tokenId",
          "type": "uint256"
        }
      ],
      "name": "Approval",
      "type": "event"
    },
    {
      "anonymous": false,
      "inputs": [
        {
          "indexed": true,
          "internalType": "address",
          "name": "owner",
          "type": "address"
        },
        {
          "indexed": true,
          "internalType": "address",
          "name": "operator",
          "type": "address"
        },
        {
          "indexed": false,
          "internalType": "bool",
          "name": "approved",
          "type": "bool"
        }
      ],
      "name": "ApprovalForAll",
      "type": "event"
    },
    {
      "anonymous": false,
      "inputs": [
        {
          "indexed": true,
          "internalType": "address",
          "name": "previousOwner",
          "type": "address"
        },
        {
          "indexed": true,
          "internalType": "address",
          "name": "newOwner",
          "type": "address"
        }
      ],
      "name": "OwnershipTransferred",
      "type": "event"
    },
    {
      "anonymous": false,
      "inputs": [
        {
          "indexed": true,
          "internalType": "address",
          "name": "from",
          "type": "address"
        },
        {
          "indexed": true,
          "internalType": "address",
          "name": "to",
          "type": "address"
        },
        {
          "indexed": true,
          "internalType": "uint256",
          "name": "tokenId",
          "type": "uint256"
        }
      ],
      "name": "Transfer",
      "type": "event"
    },
    {
      "anonymous": false,
      "inputs": [
        {
          "indexed": false,
          "internalType": "address",
          "name": "owner",
          "type": "address"
        },
        {
          "indexed": false,
          "internalType": "uint256",
          "name": "quantity",
          "type": "uint256"
        },
        {
          "indexed": false,
          "internalType": "uint256",
          "name": "totalSupply",
          "type": "uint256"
        }
      ],
      "name": "mintEvent",
      "type": "event"
    },
    {
      "inputs": [],
      "name": "MAX_SAMURAI",
      "outputs": [
        {
          "internalType": "uint256",
          "name": "",
          "type": "uint256"
        }
      ],
      "stateMutability": "view",
      "type": "function"
    },
    {
      "inputs": [],
      "name": "PRICE",
      "outputs": [
        {
          "internalType": "uint256",
          "name": "",
          "type": "uint256"
        }
      ],
      "stateMutability": "view",
      "type": "function"
    },
    {
      "inputs": [],
      "name": "STAGE_LIMIT",
      "outputs": [
        {
          "internalType": "uint256",
          "name": "",
          "type": "uint256"
        }
      ],
      "stateMutability": "view",
      "type": "function"
    },
    {
      "inputs": [
        {
          "internalType": "address",
          "name": "to",
          "type": "address"
        },
        {
          "internalType": "uint256",
          "name": "tokenId",
          "type": "uint256"
        }
      ],
      "name": "approve",
      "outputs": [],
      "stateMutability": "nonpayable",
      "type": "function"
    },
    {
      "inputs": [
        {
          "internalType": "address",
          "name": "owner",
          "type": "address"
        }
      ],
      "name": "balanceOf",
      "outputs": [
        {
          "internalType": "uint256",
          "name": "",
          "type": "uint256"
        }
      ],
      "stateMutability": "view",
      "type": "function"
    },
    {
      "inputs": [
        {
          "internalType": "uint256",
          "name": "tokenId",
          "type": "uint256"
        }
      ],
      "name": "burn",
      "outputs": [],
      "stateMutability": "nonpayable",
      "type": "function"
    },
    {
      "inputs": [
        {
          "internalType": "uint256",
          "name": "quantity",
          "type": "uint256"
        },
        {
          "internalType": "uint256",
          "name": "maxClaimNum",
          "type": "uint256"
        },
        {
          "internalType": "bytes",
          "name": "SIGNATURE",
          "type": "bytes"
        }
      ],
      "name": "claimSamurai",
      "outputs": [],
      "stateMutability": "nonpayable",
      "type": "function"
    },
    {
      "inputs": [
        {
          "internalType": "uint256",
          "name": "tokenId",
          "type": "uint256"
        }
      ],
      "name": "getApproved",
      "outputs": [
        {
          "internalType": "address",
          "name": "",
          "type": "address"
        }
      ],
      "stateMutability": "view",
      "type": "function"
    },
    {
      "inputs": [
        {
          "internalType": "address",
          "name": "_to",
          "type": "address"
        },
        {
          "internalType": "uint256",
          "name": "quantity",
          "type": "uint256"
        }
      ],
      "name": "giveawayMintSamurai",
      "outputs": [],
      "stateMutability": "nonpayable",
      "type": "function"
    },
    {
      "inputs": [],
      "name": "hasClaimStarted",
      "outputs": [
        {
          "internalType": "bool",
          "name": "",
          "type": "bool"
        }
      ],
      "stateMutability": "view",
      "type": "function"
    },
    {
      "inputs": [
        {
          "internalType": "address",
          "name": "",
          "type": "address"
        }
      ],
      "name": "hasClaimed",
      "outputs": [
        {
          "internalType": "uint256",
          "name": "",
          "type": "uint256"
        }
      ],
      "stateMutability": "view",
      "type": "function"
    },
    {
      "inputs": [
        {
          "internalType": "address",
          "name": "",
          "type": "address"
        }
      ],
      "name": "hasPresale",
      "outputs": [
        {
          "internalType": "uint256",
          "name": "",
          "type": "uint256"
        }
      ],
      "stateMutability": "view",
      "type": "function"
    },
    {
      "inputs": [],
      "name": "hasPresaleStarted",
      "outputs": [
        {
          "internalType": "bool",
          "name": "",
          "type": "bool"
        }
      ],
      "stateMutability": "view",
      "type": "function"
    },
    {
      "inputs": [],
      "name": "hasSaleStarted",
      "outputs": [
        {
          "internalType": "bool",
          "name": "",
          "type": "bool"
        }
      ],
      "stateMutability": "view",
      "type": "function"
    },
    {
      "inputs": [
        {
          "internalType": "address",
          "name": "owner",
          "type": "address"
        },
        {
          "internalType": "address",
          "name": "operator",
          "type": "address"
        }
      ],
      "name": "isApprovedForAll",
      "outputs": [
        {
          "internalType": "bool",
          "name": "",
          "type": "bool"
        }
      ],
      "stateMutability": "view",
      "type": "function"
    },
    {
      "inputs": [
        {
          "internalType": "uint256",
          "name": "quantity",
          "type": "uint256"
        },
        {
          "internalType": "uint256",
          "name": "maxClaimNumOnPresale",
          "type": "uint256"
        },
        {
          "internalType": "bytes",
          "name": "SIGNATURE",
          "type": "bytes"
        }
      ],
      "name": "mintPresaleSamurai",
      "outputs": [],
      "stateMutability": "payable",
      "type": "function"
    },
    {
      "inputs": [],
      "name": "name",
      "outputs": [
        {
          "internalType": "string",
          "name": "",
          "type": "string"
        }
      ],
      "stateMutability": "view",
      "type": "function"
    },
    {
      "inputs": [],
      "name": "numClaim",
      "outputs": [
        {
          "internalType": "uint256",
          "name": "",
          "type": "uint256"
        }
      ],
      "stateMutability": "view",
      "type": "function"
    },
    {
      "inputs": [],
      "name": "numGiveaway",
      "outputs": [
        {
          "internalType": "uint256",
          "name": "",
          "type": "uint256"
        }
      ],
      "stateMutability": "view",
      "type": "function"
    },
    {
      "inputs": [],
      "name": "numPresale",
      "outputs": [
        {
          "internalType": "uint256",
          "name": "",
          "type": "uint256"
        }
      ],
      "stateMutability": "view",
      "type": "function"
    },
    {
      "inputs": [],
      "name": "numSale",
      "outputs": [
        {
          "internalType": "uint256",
          "name": "",
          "type": "uint256"
        }
      ],
      "stateMutability": "view",
      "type": "function"
    },
    {
      "inputs": [],
      "name": "owner",
      "outputs": [
        {
          "internalType": "address",
          "name": "",
          "type": "address"
        }
      ],
      "stateMutability": "view",
      "type": "function"
    },
    {
      "inputs": [
        {
          "internalType": "uint256",
          "name": "tokenId",
          "type": "uint256"
        }
      ],
      "name": "ownerOf",
      "outputs": [
        {
          "internalType": "address",
          "name": "",
          "type": "address"
        }
      ],
      "stateMutability": "view",
      "type": "function"
    },
    {
      "inputs": [],
      "name": "presaleStartTimestamp",
      "outputs": [
        {
          "internalType": "uint256",
          "name": "",
          "type": "uint256"
        }
      ],
      "stateMutability": "view",
      "type": "function"
    },
    {
      "inputs": [
        {
          "internalType": "uint256",
          "name": "numPurchase",
          "type": "uint256"
        }
      ],
      "name": "publicMintSamurai",
      "outputs": [],
      "stateMutability": "payable",
      "type": "function"
    },
    {
      "inputs": [],
      "name": "renounceOwnership",
      "outputs": [],
      "stateMutability": "nonpayable",
      "type": "function"
    },
    {
      "inputs": [
        {
          "internalType": "address",
          "name": "from",
          "type": "address"
        },
        {
          "internalType": "address",
          "name": "to",
          "type": "address"
        },
        {
          "internalType": "uint256",
          "name": "tokenId",
          "type": "uint256"
        }
      ],
      "name": "safeTransferFrom",
      "outputs": [],
      "stateMutability": "nonpayable",
      "type": "function"
    },
    {
      "inputs": [
        {
          "internalType": "address",
          "name": "from",
          "type": "address"
        },
        {
          "internalType": "address",
          "name": "to",
          "type": "address"
        },
        {
          "internalType": "uint256",
          "name": "tokenId",
          "type": "uint256"
        },
        {
          "internalType": "bytes",
          "name": "_data",
          "type": "bytes"
        }
      ],
      "name": "safeTransferFrom",
      "outputs": [],
      "stateMutability": "nonpayable",
      "type": "function"
    },
    {
      "inputs": [],
      "name": "saleStartTimestamp",
      "outputs": [
        {
          "internalType": "uint256",
          "name": "",
          "type": "uint256"
        }
      ],
      "stateMutability": "view",
      "type": "function"
    },
    {
      "inputs": [
        {
          "internalType": "address",
          "name": "operator",
          "type": "address"
        },
        {
          "internalType": "bool",
          "name": "approved",
          "type": "bool"
        }
      ],
      "name": "setApprovalForAll",
      "outputs": [],
      "stateMutability": "nonpayable",
      "type": "function"
    },
    {
      "inputs": [
        {
          "internalType": "bool",
          "name": "_hasClaimStarted",
          "type": "bool"
        }
      ],
      "name": "setClaim",
      "outputs": [],
      "stateMutability": "nonpayable",
      "type": "function"
    },
    {
      "inputs": [
        {
          "internalType": "uint256",
          "name": "_MAX_num",
          "type": "uint256"
        }
      ],
      "name": "setMAX_SAMURAI",
      "outputs": [],
      "stateMutability": "nonpayable",
      "type": "function"
    },
    {
      "inputs": [
        {
          "internalType": "bool",
          "name": "_hasPresaleStarted",
          "type": "bool"
        },
        {
          "internalType": "uint256",
          "name": "_presaleStartTimestamp",
          "type": "uint256"
        }
      ],
      "name": "setPresale",
      "outputs": [],
      "stateMutability": "nonpayable",
      "type": "function"
    },
    {
      "inputs": [
        {
          "internalType": "bool",
          "name": "_hasSaleStarted",
          "type": "bool"
        },
        {
          "internalType": "uint256",
          "name": "_saleStartTimestamp",
          "type": "uint256"
        }
      ],
      "name": "setPublicSale",
      "outputs": [],
      "stateMutability": "nonpayable",
      "type": "function"
    },
    {
      "inputs": [
        {
          "internalType": "uint256",
          "name": "_STAGE_LIMIT",
          "type": "uint256"
        }
      ],
      "name": "setSTAGE_LIMIT",
      "outputs": [],
      "stateMutability": "nonpayable",
      "type": "function"
    },
    {
      "inputs": [
        {
          "internalType": "string",
          "name": "_tokenURI",
          "type": "string"
        }
      ],
      "name": "setURI",
      "outputs": [],
      "stateMutability": "nonpayable",
      "type": "function"
    },
    {
      "inputs": [
        {
          "internalType": "uint256",
          "name": "_price",
          "type": "uint256"
        }
      ],
      "name": "set_PRICE",
      "outputs": [],
      "stateMutability": "nonpayable",
      "type": "function"
    },
    {
      "inputs": [
        {
          "internalType": "bytes4",
          "name": "interfaceId",
          "type": "bytes4"
        }
      ],
      "name": "supportsInterface",
      "outputs": [
        {
          "internalType": "bool",
          "name": "",
          "type": "bool"
        }
      ],
      "stateMutability": "view",
      "type": "function"
    },
    {
      "inputs": [],
      "name": "symbol",
      "outputs": [
        {
          "internalType": "string",
          "name": "",
          "type": "string"
        }
      ],
      "stateMutability": "view",
      "type": "function"
    },
    {
      "inputs": [
        {
          "internalType": "uint256",
          "name": "tokenId",
          "type": "uint256"
        }
      ],
      "name": "tokenURI",
      "outputs": [
        {
          "internalType": "string",
          "name": "",
          "type": "string"
        }
      ],
      "stateMutability": "view",
      "type": "function"
    },
    {
      "inputs": [],
      "name": "totalSupply",
      "outputs": [
        {
          "internalType": "uint256",
          "name": "",
          "type": "uint256"
        }
      ],
      "stateMutability": "view",
      "type": "function"
    },
    {
      "inputs": [
        {
          "internalType": "address",
          "name": "from",
          "type": "address"
        },
        {
          "internalType": "address",
          "name": "to",
          "type": "address"
        },
        {
          "internalType": "uint256",
          "name": "tokenId",
          "type": "uint256"
        }
      ],
      "name": "transferFrom",
      "outputs": [],
      "stateMutability": "nonpayable",
      "type": "function"
    },
    {
      "inputs": [
        {
          "internalType": "address",
          "name": "newOwner",
          "type": "address"
        }
      ],
      "name": "transferOwnership",
      "outputs": [],
      "stateMutability": "nonpayable",
      "type": "function"
    },
    {
      "inputs": [
        {
          "internalType": "uint256",
          "name": "maxClaimNum",
          "type": "uint256"
        },
        {
          "internalType": "bytes",
          "name": "SIGNATURE",
          "type": "bytes"
        }
      ],
      "name": "verify",
      "outputs": [
        {
          "internalType": "bool",
          "name": "",
          "type": "bool"
        }
      ],
      "stateMutability": "view",
      "type": "function"
    },
    {
      "inputs": [],
      "name": "withdrawAll",
      "outputs": [],
      "stateMutability": "payable",
      "type": "function"
    }
  ],
  "transactionHash": "0x443d603306c807e2927cf81146e4da9455de116b02487bb6d61498c3e4dae8d4",
  "args": [],
  "solcInputHash": "c91941962060238577ac4c3d379a9904",
  "bytecode": "0x610120604052611a0a600655601e60075567010a741a4627800060085560006009556000600a556000600b556000600c556000600d556001600e60006101000a81548160ff0219169083151502179055506001600e60016101000a81548160ff0219169083151502179055506000600e60026101000a81548160ff0219169083151502179055506040518060600160405280602d815260200162005d67602d9139600f9080519060200190620000b79291906200038d565b506361e4b2ac6012556361e4b3d8601355348015620000d557600080fd5b506040518060400160405280601281526020017f4b6174616e61204e2053616d75726169203200000000000000000000000000008152506040518060400160405280600681526020017f4b4e53322e3000000000000000000000000000000000000000000000000000008152506040518060400160405280601281526020017f4b6174616e61204e2053616d75726169203200000000000000000000000000008152506040518060400160405280600581526020017f312e302e30000000000000000000000000000000000000000000000000000000815250620001ce620001c26200028560201b60201c565b6200028d60201b60201c565b60008280519060200120905060008280519060200120905060007f8b73c3c69bb8fe3d512ecc4cf759cc79239f7b179b0ffacaa9a75d522b39400f90508260c081815250508160e081815250504660a08181525050620002368184846200035160201b60201c565b6080818152505080610100818152505050505050508160019080519060200190620002639291906200038d565b5080600290805190602001906200027c9291906200038d565b5050506200057a565b600033905090565b60008060009054906101000a900473ffffffffffffffffffffffffffffffffffffffff169050816000806101000a81548173ffffffffffffffffffffffffffffffffffffffff021916908373ffffffffffffffffffffffffffffffffffffffff1602179055508173ffffffffffffffffffffffffffffffffffffffff168173ffffffffffffffffffffffffffffffffffffffff167f8be0079c531659141344cd1fd0a4f28419497f9722a3daafe3b4186f6b6457e060405160405180910390a35050565b600083838346306040516020016200036e95949392919062000470565b6040516020818303038152906040528051906020012090509392505050565b8280546200039b9062000515565b90600052602060002090601f016020900481019282620003bf57600085556200040b565b82601f10620003da57805160ff19168380011785556200040b565b828001600101855582156200040b579182015b828111156200040a578251825591602001919060010190620003ed565b5b5090506200041a91906200041e565b5090565b5b80821115620004395760008160009055506001016200041f565b5090565b6200044881620004cd565b82525050565b6200045981620004e1565b82525050565b6200046a816200050b565b82525050565b600060a0820190506200048760008301886200044e565b6200049660208301876200044e565b620004a560408301866200044e565b620004b460608301856200045f565b620004c360808301846200043d565b9695505050505050565b6000620004da82620004eb565b9050919050565b6000819050919050565b600073ffffffffffffffffffffffffffffffffffffffff82169050919050565b6000819050919050565b600060028204905060018216806200052e57607f821691505b602082108114156200054557620005446200054b565b5b50919050565b7f4e487b7100000000000000000000000000000000000000000000000000000000600052602260045260246000fd5b60805160a05160c05160e051610100516157a8620005bf6000396000612fab01526000612fed01526000612fcc01526000612f5801526000612f8001526157a86000f3fe6080604052600436106102725760003560e01c8063715018a61161014f578063b0220015116100c1578063de4f48471161007a578063de4f484714610938578063de9af03814610954578063e985e9c51461097d578063eaeed920146109ba578063ee38c8b7146109e3578063f2fde38b14610a0c57610272565b8063b022001514610828578063b3c6214f14610853578063b88d4fde1461087c578063c341526b146108a5578063c8544312146108d0578063c87b56dd146108fb57610272565b806385852ce41161011357806385852ce414610716578063872b25b0146107535780638d859f3e1461077e5780638da5cb5b146107a957806395d89b41146107d4578063a22cb465146107ff57610272565b8063715018a614610664578063717bf3361461067b57806373b2e80e146106a6578063798611a0146106e3578063853828b61461070c57610272565b80632bf831f0116101e857806354465773116101ac578063544657731461052e5780635edbad0a146105595780636352211e146105845780636456c205146105c157806369cff347146105ea57806370a082311461062757610272565b80632bf831f01461046a5780633c276d861461048657806342842e0e146104b157806342966c68146104da5780634ea37fec1461050357610272565b8063095ea7b31161023a578063095ea7b31461036e5780630a61454b1461039757806318160ddd146103c25780631c8b232d146103ed578063211418ab1461041857806323b872dd1461044157610272565b806301ffc9a71461027757806302fe5305146102b457806306331592146102dd57806306fdde0314610306578063081812fc14610331575b600080fd5b34801561028357600080fd5b5061029e60048036038101906102999190613caf565b610a35565b6040516102ab9190614570565b60405180910390f35b3480156102c057600080fd5b506102db60048036038101906102d69190613d01565b610b17565b005b3480156102e957600080fd5b5061030460048036038101906102ff9190613d46565b610ba9565b005b34801561031257600080fd5b5061031b610c2f565b604051610328919061465a565b60405180910390f35b34801561033d57600080fd5b5061035860048036038101906103539190613d46565b610cc1565b60405161036591906144d2565b60405180910390f35b34801561037a57600080fd5b5061039560048036038101906103909190613c0e565b610d46565b005b3480156103a357600080fd5b506103ac610e5e565b6040516103b99190614abc565b60405180910390f35b3480156103ce57600080fd5b506103d7610e64565b6040516103e49190614abc565b60405180910390f35b3480156103f957600080fd5b50610402610e6a565b60405161040f9190614570565b60405180910390f35b34801561042457600080fd5b5061043f600480360381019061043a9190613c4a565b610e7d565b005b34801561044d57600080fd5b5061046860048036038101906104639190613b08565b610f16565b005b610484600480360381019061047f9190613dc3565b610f76565b005b34801561049257600080fd5b5061049b61133c565b6040516104a89190614abc565b60405180910390f35b3480156104bd57600080fd5b506104d860048036038101906104d39190613b08565b611342565b005b3480156104e657600080fd5b5061050160048036038101906104fc9190613d46565b611362565b005b34801561050f57600080fd5b506105186113ea565b6040516105259190614abc565b60405180910390f35b34801561053a57600080fd5b506105436113f0565b6040516105509190614abc565b60405180910390f35b34801561056557600080fd5b5061056e6113f6565b60405161057b9190614abc565b60405180910390f35b34801561059057600080fd5b506105ab60048036038101906105a69190613d46565b6113fc565b6040516105b891906144d2565b60405180910390f35b3480156105cd57600080fd5b506105e860048036038101906105e39190613d46565b6114df565b005b3480156105f657600080fd5b50610611600480360381019061060c9190613aa3565b611565565b60405161061e9190614abc565b60405180910390f35b34801561063357600080fd5b5061064e60048036038101906106499190613aa3565b61157d565b60405161065b9190614abc565b60405180910390f35b34801561067057600080fd5b506106796116c9565b005b34801561068757600080fd5b50610690611751565b60405161069d9190614570565b60405180910390f35b3480156106b257600080fd5b506106cd60048036038101906106c89190613aa3565b611764565b6040516106da9190614abc565b60405180910390f35b3480156106ef57600080fd5b5061070a60048036038101906107059190613d46565b61177c565b005b610714611802565b005b34801561072257600080fd5b5061073d60048036038101906107389190613d6f565b6118be565b60405161074a9190614570565b60405180910390f35b34801561075f57600080fd5b50610768611965565b6040516107759190614abc565b60405180910390f35b34801561078a57600080fd5b5061079361196b565b6040516107a09190614abc565b60405180910390f35b3480156107b557600080fd5b506107be611971565b6040516107cb91906144d2565b60405180910390f35b3480156107e057600080fd5b506107e961199a565b6040516107f6919061465a565b60405180910390f35b34801561080b57600080fd5b5061082660048036038101906108219190613bd2565b611a2c565b005b34801561083457600080fd5b5061083d611bad565b60405161084a9190614570565b60405180910390f35b34801561085f57600080fd5b5061087a60048036038101906108759190613c73565b611bc0565b005b34801561088857600080fd5b506108a3600480360381019061089e9190613b57565b611c61565b005b3480156108b157600080fd5b506108ba611cc3565b6040516108c79190614abc565b60405180910390f35b3480156108dc57600080fd5b506108e5611cc9565b6040516108f29190614abc565b60405180910390f35b34801561090757600080fd5b50610922600480360381019061091d9190613d46565b611ccf565b60405161092f919061465a565b60405180910390f35b610952600480360381019061094d9190613d46565b611d4b565b005b34801561096057600080fd5b5061097b60048036038101906109769190613c0e565b611fe1565b005b34801561098957600080fd5b506109a4600480360381019061099f9190613acc565b612159565b6040516109b19190614570565b60405180910390f35b3480156109c657600080fd5b506109e160048036038101906109dc9190613c73565b6121ed565b005b3480156109ef57600080fd5b50610a0a6004803603810190610a059190613dc3565b61228e565b005b348015610a1857600080fd5b50610a336004803603810190610a2e9190613aa3565b612506565b005b60007f80ac58cd000000000000000000000000000000000000000000000000000000007bffffffffffffffffffffffffffffffffffffffffffffffffffffffff1916827bffffffffffffffffffffffffffffffffffffffffffffffffffffffff19161480610b0057507f5b5e139f000000000000000000000000000000000000000000000000000000007bffffffffffffffffffffffffffffffffffffffffffffffffffffffff1916827bffffffffffffffffffffffffffffffffffffffffffffffffffffffff1916145b80610b105750610b0f826125fe565b5b9050919050565b610b1f612668565b73ffffffffffffffffffffffffffffffffffffffff16610b3d611971565b73ffffffffffffffffffffffffffffffffffffffff1614610b93576040517f08c379a0000000000000000000000000000000000000000000000000000000008152600401610b8a9061493c565b60405180910390fd5b8181600f9190610ba49291906138e5565b505050565b610bb1612668565b73ffffffffffffffffffffffffffffffffffffffff16610bcf611971565b73ffffffffffffffffffffffffffffffffffffffff1614610c25576040517f08c379a0000000000000000000000000000000000000000000000000000000008152600401610c1c9061493c565b60405180910390fd5b8060068190555050565b606060018054610c3e90614d67565b80601f0160208091040260200160405190810160405280929190818152602001828054610c6a90614d67565b8015610cb75780601f10610c8c57610100808354040283529160200191610cb7565b820191906000526020600020905b815481529060010190602001808311610c9a57829003601f168201915b5050505050905090565b6000610ccc82612670565b610d0b576040517f08c379a0000000000000000000000000000000000000000000000000000000008152600401610d029061491c565b60405180910390fd5b6004600083815260200190815260200160002060009054906101000a900473ffffffffffffffffffffffffffffffffffffffff169050919050565b6000610d51826113fc565b90508073ffffffffffffffffffffffffffffffffffffffff168373ffffffffffffffffffffffffffffffffffffffff161415610dc2576040517f08c379a0000000000000000000000000000000000000000000000000000000008152600401610db9906149dc565b60405180910390fd5b8073ffffffffffffffffffffffffffffffffffffffff16610de1612668565b73ffffffffffffffffffffffffffffffffffffffff161480610e105750610e0f81610e0a612668565b612159565b5b610e4f576040517f08c379a0000000000000000000000000000000000000000000000000000000008152600401610e469061483c565b60405180910390fd5b610e59838361271e565b505050565b60075481565b600d5481565b600e60009054906101000a900460ff1681565b610e85612668565b73ffffffffffffffffffffffffffffffffffffffff16610ea3611971565b73ffffffffffffffffffffffffffffffffffffffff1614610ef9576040517f08c379a0000000000000000000000000000000000000000000000000000000008152600401610ef09061493c565b60405180910390fd5b80600e60026101000a81548160ff02191690831515021790555050565b610f27610f21612668565b826127d7565b610f66576040517f08c379a0000000000000000000000000000000000000000000000000000000008152600401610f5d90614a3c565b60405180910390fd5b610f718383836128b5565b505050565b60011515600e60019054906101000a900460ff16151514610fcc576040517f08c379a0000000000000000000000000000000000000000000000000000000008152600401610fc39061477c565b60405180910390fd5b601354421015611011576040517f08c379a00000000000000000000000000000000000000000000000000000000081526004016110089061481c565b60405180910390fd5b60075461102984600d54612a9490919063ffffffff16565b111561106a576040517f08c379a0000000000000000000000000000000000000000000000000000000008152600401611061906148dc565b60405180910390fd5b61107482826118be565b6110b3576040517f08c379a00000000000000000000000000000000000000000000000000000000081526004016110aa90614a5c565b60405180910390fd5b60008311801561111457508161111184601160003373ffffffffffffffffffffffffffffffffffffffff1673ffffffffffffffffffffffffffffffffffffffff16815260200190815260200160002054612a9490919063ffffffff16565b11155b611153576040517f08c379a000000000000000000000000000000000000000000000000000000000815260040161114a90614a7c565b60405180910390fd5b61116883600854612aaa90919063ffffffff16565b3410156111aa576040517f08c379a00000000000000000000000000000000000000000000000000000000081526004016111a1906149fc565b60405180910390fd5b6006546111c284600d54612a9490919063ffffffff16565b1115611203576040517f08c379a00000000000000000000000000000000000000000000000000000000081526004016111fa90614a1c565b60405180910390fd5b60005b838110156112495761121a33600d54612ac0565b6112306001600d54612a9490919063ffffffff16565b600d81905550808061124190614dca565b915050611206565b5061125f83600954612a9490919063ffffffff16565b6009819055506112b783601160003373ffffffffffffffffffffffffffffffffffffffff1673ffffffffffffffffffffffffffffffffffffffff16815260200190815260200160002054612a9490919063ffffffff16565b601160003373ffffffffffffffffffffffffffffffffffffffff1673ffffffffffffffffffffffffffffffffffffffff168152602001908152602001600020819055507f9670c8b300c38cd3db8d3f9429dd902e67f418c4dd193e2497f06d20efc795603384600d5460405161132f93929190614539565b60405180910390a1505050565b60125481565b61135d83838360405180602001604052806000815250611c61565b505050565b61136a612668565b73ffffffffffffffffffffffffffffffffffffffff16611388611971565b73ffffffffffffffffffffffffffffffffffffffff16146113de576040517f08c379a00000000000000000000000000000000000000000000000000000000081526004016113d59061493c565b60405180910390fd5b6113e781612ade565b50565b60135481565b600b5481565b60095481565b60008060038381548110611439577f4e487b7100000000000000000000000000000000000000000000000000000000600052603260045260246000fd5b9060005260206000200160009054906101000a900473ffffffffffffffffffffffffffffffffffffffff169050600073ffffffffffffffffffffffffffffffffffffffff168173ffffffffffffffffffffffffffffffffffffffff1614156114d6576040517f08c379a00000000000000000000000000000000000000000000000000000000081526004016114cd9061487c565b60405180910390fd5b80915050919050565b6114e7612668565b73ffffffffffffffffffffffffffffffffffffffff16611505611971565b73ffffffffffffffffffffffffffffffffffffffff161461155b576040517f08c379a00000000000000000000000000000000000000000000000000000000081526004016115529061493c565b60405180910390fd5b8060088190555050565b60116020528060005260406000206000915090505481565b60008073ffffffffffffffffffffffffffffffffffffffff168273ffffffffffffffffffffffffffffffffffffffff1614156115ee576040517f08c379a00000000000000000000000000000000000000000000000000000000081526004016115e59061485c565b60405180910390fd5b600080600380549050905060005b818110156116ba576003818154811061163e577f4e487b7100000000000000000000000000000000000000000000000000000000600052603260045260246000fd5b9060005260206000200160009054906101000a900473ffffffffffffffffffffffffffffffffffffffff1673ffffffffffffffffffffffffffffffffffffffff168573ffffffffffffffffffffffffffffffffffffffff1614156116a957826116a690614dca565b92505b806116b390614dca565b90506115fc565b50600090508192505050919050565b6116d1612668565b73ffffffffffffffffffffffffffffffffffffffff166116ef611971565b73ffffffffffffffffffffffffffffffffffffffff1614611745576040517f08c379a000000000000000000000000000000000000000000000000000000000815260040161173c9061493c565b60405180910390fd5b61174f6000612be6565b565b600e60029054906101000a900460ff1681565b60106020528060005260406000206000915090505481565b611784612668565b73ffffffffffffffffffffffffffffffffffffffff166117a2611971565b73ffffffffffffffffffffffffffffffffffffffff16146117f8576040517f08c379a00000000000000000000000000000000000000000000000000000000081526004016117ef9061493c565b60405180910390fd5b8060078190555050565b61180a612668565b73ffffffffffffffffffffffffffffffffffffffff16611828611971565b73ffffffffffffffffffffffffffffffffffffffff161461187e576040517f08c379a00000000000000000000000000000000000000000000000000000000081526004016118759061493c565b60405180910390fd5b3373ffffffffffffffffffffffffffffffffffffffff166108fc479081150290604051600060405180830381858888f193505050506118bc57600080fd5b565b60008061192461191e7f159b8fd053f2ba91664d2db8a48c1216e475560cbaf9c4dc06e5f32265b785236118f0612668565b876040516020016119039392919061458b565b60405160208183030381529060405280519060200120612caa565b84612cc4565b90508073ffffffffffffffffffffffffffffffffffffffff16611945611971565b73ffffffffffffffffffffffffffffffffffffffff161491505092915050565b60065481565b60085481565b60008060009054906101000a900473ffffffffffffffffffffffffffffffffffffffff16905090565b6060600280546119a990614d67565b80601f01602080910402602001604051908101604052809291908181526020018280546119d590614d67565b8015611a225780601f106119f757610100808354040283529160200191611a22565b820191906000526020600020905b815481529060010190602001808311611a0557829003601f168201915b5050505050905090565b611a34612668565b73ffffffffffffffffffffffffffffffffffffffff168273ffffffffffffffffffffffffffffffffffffffff161415611aa2576040517f08c379a0000000000000000000000000000000000000000000000000000000008152600401611a99906147bc565b60405180910390fd5b8060056000611aaf612668565b73ffffffffffffffffffffffffffffffffffffffff1673ffffffffffffffffffffffffffffffffffffffff16815260200190815260200160002060008473ffffffffffffffffffffffffffffffffffffffff1673ffffffffffffffffffffffffffffffffffffffff16815260200190815260200160002060006101000a81548160ff0219169083151502179055508173ffffffffffffffffffffffffffffffffffffffff16611b5c612668565b73ffffffffffffffffffffffffffffffffffffffff167f17307eab39ab6107e8899845ad3d59bd9653f200f220920489ca2b5937696c3183604051611ba19190614570565b60405180910390a35050565b600e60019054906101000a900460ff1681565b611bc8612668565b73ffffffffffffffffffffffffffffffffffffffff16611be6611971565b73ffffffffffffffffffffffffffffffffffffffff1614611c3c576040517f08c379a0000000000000000000000000000000000000000000000000000000008152600401611c339061493c565b60405180910390fd5b81600e60006101000a81548160ff021916908315150217905550806012819055505050565b611c72611c6c612668565b836127d7565b611cb1576040517f08c379a0000000000000000000000000000000000000000000000000000000008152600401611ca890614a3c565b60405180910390fd5b611cbd84848484612ceb565b50505050565b600c5481565b600a5481565b6060611cda82612670565b611d19576040517f08c379a0000000000000000000000000000000000000000000000000000000008152600401611d109061489c565b60405180910390fd5b600f611d2483612d47565b604051602001611d35929190614477565b6040516020818303038152906040529050919050565b60011515600e60009054906101000a900460ff16151514611da1576040517f08c379a0000000000000000000000000000000000000000000000000000000008152600401611d98906149bc565b60405180910390fd5b601254421015611de6576040517f08c379a0000000000000000000000000000000000000000000000000000000008152600401611ddd906146bc565b60405180910390fd5b600081118015611df7575060328111155b611e36576040517f08c379a0000000000000000000000000000000000000000000000000000000008152600401611e2d9061469c565b60405180910390fd5b600754611e4e82600d54612a9490919063ffffffff16565b1115611e8f576040517f08c379a0000000000000000000000000000000000000000000000000000000008152600401611e86906148dc565b60405180910390fd5b600654611ea782600d54612a9490919063ffffffff16565b1115611ee8576040517f08c379a0000000000000000000000000000000000000000000000000000000008152600401611edf90614a9c565b60405180910390fd5b611efd81600854612aaa90919063ffffffff16565b341015611f3f576040517f08c379a0000000000000000000000000000000000000000000000000000000008152600401611f36906149fc565b60405180910390fd5b60005b81811015611f8557611f5633600d54612ac0565b611f6c6001600d54612a9490919063ffffffff16565b600d819055508080611f7d90614dca565b915050611f42565b50611f9b81600a54612a9490919063ffffffff16565b600a819055507f9670c8b300c38cd3db8d3f9429dd902e67f418c4dd193e2497f06d20efc795603382600d54604051611fd693929190614539565b60405180910390a150565b611fe9612668565b73ffffffffffffffffffffffffffffffffffffffff16612007611971565b73ffffffffffffffffffffffffffffffffffffffff161461205d576040517f08c379a00000000000000000000000000000000000000000000000000000000081526004016120549061493c565b60405180910390fd5b60065461207582600d54612a9490919063ffffffff16565b11156120b6576040517f08c379a00000000000000000000000000000000000000000000000000000000081526004016120ad90614a1c565b60405180910390fd5b60005b818110156120fc576120cd83600d54612ac0565b6120e36001600d54612a9490919063ffffffff16565b600d8190555080806120f490614dca565b9150506120b9565b5061211281600c54612a9490919063ffffffff16565b600c819055507f9670c8b300c38cd3db8d3f9429dd902e67f418c4dd193e2497f06d20efc795608282600d5460405161214d93929190614539565b60405180910390a15050565b6000600560008473ffffffffffffffffffffffffffffffffffffffff1673ffffffffffffffffffffffffffffffffffffffff16815260200190815260200160002060008373ffffffffffffffffffffffffffffffffffffffff1673ffffffffffffffffffffffffffffffffffffffff16815260200190815260200160002060009054906101000a900460ff16905092915050565b6121f5612668565b73ffffffffffffffffffffffffffffffffffffffff16612213611971565b73ffffffffffffffffffffffffffffffffffffffff1614612269576040517f08c379a00000000000000000000000000000000000000000000000000000000081526004016122609061493c565b60405180910390fd5b81600e60016101000a81548160ff021916908315150217905550806013819055505050565b60011515600e60029054906101000a900460ff161515146122e4576040517f08c379a00000000000000000000000000000000000000000000000000000000081526004016122db9061475c565b60405180910390fd5b6122ee82826118be565b61232d576040517f08c379a00000000000000000000000000000000000000000000000000000000081526004016123249061499c565b60405180910390fd5b60008311801561238e57508161238b84601060003373ffffffffffffffffffffffffffffffffffffffff1673ffffffffffffffffffffffffffffffffffffffff16815260200190815260200160002054612a9490919063ffffffff16565b11155b6123cd576040517f08c379a00000000000000000000000000000000000000000000000000000000081526004016123c49061497c565b60405180910390fd5b60005b83811015612413576123e433600d54612ac0565b6123fa6001600d54612a9490919063ffffffff16565b600d81905550808061240b90614dca565b9150506123d0565b5061242983600b54612a9490919063ffffffff16565b600b8190555061248183601060003373ffffffffffffffffffffffffffffffffffffffff1673ffffffffffffffffffffffffffffffffffffffff16815260200190815260200160002054612a9490919063ffffffff16565b601060003373ffffffffffffffffffffffffffffffffffffffff1673ffffffffffffffffffffffffffffffffffffffff168152602001908152602001600020819055507f9670c8b300c38cd3db8d3f9429dd902e67f418c4dd193e2497f06d20efc795603384600d546040516124f993929190614539565b60405180910390a1505050565b61250e612668565b73ffffffffffffffffffffffffffffffffffffffff1661252c611971565b73ffffffffffffffffffffffffffffffffffffffff1614612582576040517f08c379a00000000000000000000000000000000000000000000000000000000081526004016125799061493c565b60405180910390fd5b600073ffffffffffffffffffffffffffffffffffffffff168173ffffffffffffffffffffffffffffffffffffffff1614156125f2576040517f08c379a00000000000000000000000000000000000000000000000000000000081526004016125e99061471c565b60405180910390fd5b6125fb81612be6565b50565b60007f01ffc9a7000000000000000000000000000000000000000000000000000000007bffffffffffffffffffffffffffffffffffffffffffffffffffffffff1916827bffffffffffffffffffffffffffffffffffffffffffffffffffffffff1916149050919050565b600033905090565b6000600380549050821080156127175750600073ffffffffffffffffffffffffffffffffffffffff16600383815481106126d3577f4e487b7100000000000000000000000000000000000000000000000000000000600052603260045260246000fd5b9060005260206000200160009054906101000a900473ffffffffffffffffffffffffffffffffffffffff1673ffffffffffffffffffffffffffffffffffffffff1614155b9050919050565b816004600083815260200190815260200160002060006101000a81548173ffffffffffffffffffffffffffffffffffffffff021916908373ffffffffffffffffffffffffffffffffffffffff160217905550808273ffffffffffffffffffffffffffffffffffffffff16612791836113fc565b73ffffffffffffffffffffffffffffffffffffffff167f8c5be1e5ebec7d5bd14f71427d1e84f3dd0314c0f7b2291e5b200ac8c7c3b92560405160405180910390a45050565b60006127e282612670565b612821576040517f08c379a0000000000000000000000000000000000000000000000000000000008152600401612818906147fc565b60405180910390fd5b600061282c836113fc565b90508073ffffffffffffffffffffffffffffffffffffffff168473ffffffffffffffffffffffffffffffffffffffff16148061289b57508373ffffffffffffffffffffffffffffffffffffffff1661288384610cc1565b73ffffffffffffffffffffffffffffffffffffffff16145b806128ac57506128ab8185612159565b5b91505092915050565b8273ffffffffffffffffffffffffffffffffffffffff166128d5826113fc565b73ffffffffffffffffffffffffffffffffffffffff161461292b576040517f08c379a00000000000000000000000000000000000000000000000000000000081526004016129229061495c565b60405180910390fd5b600073ffffffffffffffffffffffffffffffffffffffff168273ffffffffffffffffffffffffffffffffffffffff16141561299b576040517f08c379a00000000000000000000000000000000000000000000000000000000081526004016129929061479c565b60405180910390fd5b6129a6838383612ef4565b6129b160008261271e565b81600382815481106129ec577f4e487b7100000000000000000000000000000000000000000000000000000000600052603260045260246000fd5b9060005260206000200160006101000a81548173ffffffffffffffffffffffffffffffffffffffff021916908373ffffffffffffffffffffffffffffffffffffffff160217905550808273ffffffffffffffffffffffffffffffffffffffff168473ffffffffffffffffffffffffffffffffffffffff167fddf252ad1be2c89b69c2b068fc378daa952ba7f163c4a11628f55a4df523b3ef60405160405180910390a4505050565b60008183612aa29190614b85565b905092915050565b60008183612ab89190614c0c565b905092915050565b612ada828260405180602001604052806000815250612ef9565b5050565b6000612ae9826113fc565b9050612af781600084612ef4565b612b0260008361271e565b600060038381548110612b3e577f4e487b7100000000000000000000000000000000000000000000000000000000600052603260045260246000fd5b9060005260206000200160006101000a81548173ffffffffffffffffffffffffffffffffffffffff021916908373ffffffffffffffffffffffffffffffffffffffff16021790555081600073ffffffffffffffffffffffffffffffffffffffff168273ffffffffffffffffffffffffffffffffffffffff167fddf252ad1be2c89b69c2b068fc378daa952ba7f163c4a11628f55a4df523b3ef60405160405180910390a45050565b60008060009054906101000a900473ffffffffffffffffffffffffffffffffffffffff169050816000806101000a81548173ffffffffffffffffffffffffffffffffffffffff021916908373ffffffffffffffffffffffffffffffffffffffff1602179055508173ffffffffffffffffffffffffffffffffffffffff168173ffffffffffffffffffffffffffffffffffffffff167f8be0079c531659141344cd1fd0a4f28419497f9722a3daafe3b4186f6b6457e060405160405180910390a35050565b6000612cbd612cb7612f54565b83613017565b9050919050565b6000806000612cd3858561304a565b91509150612ce0816130cd565b819250505092915050565b612cf68484846128b5565b612d028484848461341e565b612d41576040517f08c379a0000000000000000000000000000000000000000000000000000000008152600401612d38906146fc565b60405180910390fd5b50505050565b60606000821415612d8f576040518060400160405280600181526020017f30000000000000000000000000000000000000000000000000000000000000008152509050612eef565b600082905060005b60008214612dc1578080612daa90614dca565b915050600a82612dba9190614bdb565b9150612d97565b60008167ffffffffffffffff811115612e03577f4e487b7100000000000000000000000000000000000000000000000000000000600052604160045260246000fd5b6040519080825280601f01601f191660200182016040528015612e355781602001600182028036833780820191505090505b5090505b60008514612ee857600182612e4e9190614c66565b9150600a85612e5d9190614e1d565b6030612e699190614b85565b60f81b818381518110612ea5577f4e487b7100000000000000000000000000000000000000000000000000000000600052603260045260246000fd5b60200101907effffffffffffffffffffffffffffffffffffffffffffffffffffffffffffff1916908160001a905350600a85612ee19190614bdb565b9450612e39565b8093505050505b919050565b505050565b612f0383836135b5565b612f10600084848461341e565b612f4f576040517f08c379a0000000000000000000000000000000000000000000000000000000008152600401612f46906146fc565b60405180910390fd5b505050565b60007f0000000000000000000000000000000000000000000000000000000000000000461415612fa6577f00000000000000000000000000000000000000000000000000000000000000009050613014565b6130117f00000000000000000000000000000000000000000000000000000000000000007f00000000000000000000000000000000000000000000000000000000000000007f000000000000000000000000000000000000000000000000000000000000000061373d565b90505b90565b6000828260405160200161302c92919061449b565b60405160208183030381529060405280519060200120905092915050565b60008060418351141561308c5760008060006020860151925060408601519150606086015160001a905061308087828585613777565b945094505050506130c6565b6040835114156130bd5760008060208501519150604085015190506130b2868383613884565b9350935050506130c6565b60006002915091505b9250929050565b60006004811115613107577f4e487b7100000000000000000000000000000000000000000000000000000000600052602160045260246000fd5b816004811115613140577f4e487b7100000000000000000000000000000000000000000000000000000000600052602160045260246000fd5b141561314b5761341b565b60016004811115613185577f4e487b7100000000000000000000000000000000000000000000000000000000600052602160045260246000fd5b8160048111156131be577f4e487b7100000000000000000000000000000000000000000000000000000000600052602160045260246000fd5b14156131ff576040517f08c379a00000000000000000000000000000000000000000000000000000000081526004016131f69061467c565b60405180910390fd5b60026004811115613239577f4e487b7100000000000000000000000000000000000000000000000000000000600052602160045260246000fd5b816004811115613272577f4e487b7100000000000000000000000000000000000000000000000000000000600052602160045260246000fd5b14156132b3576040517f08c379a00000000000000000000000000000000000000000000000000000000081526004016132aa906146dc565b60405180910390fd5b600360048111156132ed577f4e487b7100000000000000000000000000000000000000000000000000000000600052602160045260246000fd5b816004811115613326577f4e487b7100000000000000000000000000000000000000000000000000000000600052602160045260246000fd5b1415613367576040517f08c379a000000000000000000000000000000000000000000000000000000000815260040161335e906147dc565b60405180910390fd5b6004808111156133a0577f4e487b7100000000000000000000000000000000000000000000000000000000600052602160045260246000fd5b8160048111156133d9577f4e487b7100000000000000000000000000000000000000000000000000000000600052602160045260246000fd5b141561341a576040517f08c379a0000000000000000000000000000000000000000000000000000000008152600401613411906148bc565b60405180910390fd5b5b50565b600061343f8473ffffffffffffffffffffffffffffffffffffffff166138d2565b156135a8578373ffffffffffffffffffffffffffffffffffffffff1663150b7a02613468612668565b8786866040518563ffffffff1660e01b815260040161348a94939291906144ed565b602060405180830381600087803b1580156134a457600080fd5b505af19250505080156134d557506040513d601f19601f820116820180604052508101906134d29190613cd8565b60015b613558573d8060008114613505576040519150601f19603f3d011682016040523d82523d6000602084013e61350a565b606091505b50600081511415613550576040517f08c379a0000000000000000000000000000000000000000000000000000000008152600401613547906146fc565b60405180910390fd5b805181602001fd5b63150b7a0260e01b7bffffffffffffffffffffffffffffffffffffffffffffffffffffffff1916817bffffffffffffffffffffffffffffffffffffffffffffffffffffffff1916149150506135ad565b600190505b949350505050565b600073ffffffffffffffffffffffffffffffffffffffff168273ffffffffffffffffffffffffffffffffffffffff161415613625576040517f08c379a000000000000000000000000000000000000000000000000000000000815260040161361c906148fc565b60405180910390fd5b61362e81612670565b1561366e576040517f08c379a00000000000000000000000000000000000000000000000000000000081526004016136659061473c565b60405180910390fd5b61367a60008383612ef4565b6003829080600181540180825580915050600190039060005260206000200160009091909190916101000a81548173ffffffffffffffffffffffffffffffffffffffff021916908373ffffffffffffffffffffffffffffffffffffffff160217905550808273ffffffffffffffffffffffffffffffffffffffff16600073ffffffffffffffffffffffffffffffffffffffff167fddf252ad1be2c89b69c2b068fc378daa952ba7f163c4a11628f55a4df523b3ef60405160405180910390a45050565b600083838346306040516020016137589594939291906145c2565b6040516020818303038152906040528051906020012090509392505050565b6000807f7fffffffffffffffffffffffffffffff5d576e7357a4501ddfe92f46681b20a08360001c11156137b257600060039150915061387b565b601b8560ff16141580156137ca5750601c8560ff1614155b156137dc57600060049150915061387b565b6000600187878787604051600081526020016040526040516138019493929190614615565b6020604051602081039080840390855afa158015613823573d6000803e3d6000fd5b505050602060405103519050600073ffffffffffffffffffffffffffffffffffffffff168173ffffffffffffffffffffffffffffffffffffffff1614156138725760006001925092505061387b565b80600092509250505b94509492505050565b6000806000807f7fffffffffffffffffffffffffffffffffffffffffffffffffffffffffffffff85169150601b8560ff1c0190506138c487828885613777565b935093505050935093915050565b600080823b905060008111915050919050565b8280546138f190614d67565b90600052602060002090601f016020900481019282613913576000855561395a565b82601f1061392c57803560ff191683800117855561395a565b8280016001018555821561395a579182015b8281111561395957823582559160200191906001019061393e565b5b509050613967919061396b565b5090565b5b8082111561398457600081600090555060010161396c565b5090565b600061399b61399684614afc565b614ad7565b9050828152602081018484840111156139b357600080fd5b6139be848285614d25565b509392505050565b6000813590506139d581615716565b92915050565b6000813590506139ea8161572d565b92915050565b6000813590506139ff81615744565b92915050565b600081519050613a1481615744565b92915050565b600082601f830112613a2b57600080fd5b8135613a3b848260208601613988565b91505092915050565b60008083601f840112613a5657600080fd5b8235905067ffffffffffffffff811115613a6f57600080fd5b602083019150836001820283011115613a8757600080fd5b9250929050565b600081359050613a9d8161575b565b92915050565b600060208284031215613ab557600080fd5b6000613ac3848285016139c6565b91505092915050565b60008060408385031215613adf57600080fd5b6000613aed858286016139c6565b9250506020613afe858286016139c6565b9150509250929050565b600080600060608486031215613b1d57600080fd5b6000613b2b868287016139c6565b9350506020613b3c868287016139c6565b9250506040613b4d86828701613a8e565b9150509250925092565b60008060008060808587031215613b6d57600080fd5b6000613b7b878288016139c6565b9450506020613b8c878288016139c6565b9350506040613b9d87828801613a8e565b925050606085013567ffffffffffffffff811115613bba57600080fd5b613bc687828801613a1a565b91505092959194509250565b60008060408385031215613be557600080fd5b6000613bf3858286016139c6565b9250506020613c04858286016139db565b9150509250929050565b60008060408385031215613c2157600080fd5b6000613c2f858286016139c6565b9250506020613c4085828601613a8e565b9150509250929050565b600060208284031215613c5c57600080fd5b6000613c6a848285016139db565b91505092915050565b60008060408385031215613c8657600080fd5b6000613c94858286016139db565b9250506020613ca585828601613a8e565b9150509250929050565b600060208284031215613cc157600080fd5b6000613ccf848285016139f0565b91505092915050565b600060208284031215613cea57600080fd5b6000613cf884828501613a05565b91505092915050565b60008060208385031215613d1457600080fd5b600083013567ffffffffffffffff811115613d2e57600080fd5b613d3a85828601613a44565b92509250509250929050565b600060208284031215613d5857600080fd5b6000613d6684828501613a8e565b91505092915050565b60008060408385031215613d8257600080fd5b6000613d9085828601613a8e565b925050602083013567ffffffffffffffff811115613dad57600080fd5b613db985828601613a1a565b9150509250929050565b600080600060608486031215613dd857600080fd5b6000613de686828701613a8e565b9350506020613df786828701613a8e565b925050604084013567ffffffffffffffff811115613e1457600080fd5b613e2086828701613a1a565b9150509250925092565b613e3381614c9a565b82525050565b613e4281614cac565b82525050565b613e5181614cb8565b82525050565b613e68613e6382614cb8565b614e13565b82525050565b6000613e7982614b42565b613e838185614b58565b9350613e93818560208601614d34565b613e9c81614f0a565b840191505092915050565b6000613eb282614b4d565b613ebc8185614b69565b9350613ecc818560208601614d34565b613ed581614f0a565b840191505092915050565b6000613eeb82614b4d565b613ef58185614b7a565b9350613f05818560208601614d34565b80840191505092915050565b60008154613f1e81614d67565b613f288186614b7a565b94506001821660008114613f435760018114613f5457613f87565b60ff19831686528186019350613f87565b613f5d85614b2d565b60005b83811015613f7f57815481890152600182019150602081019050613f60565b838801955050505b50505092915050565b6000613f9d601883614b69565b9150613fa882614f1b565b602082019050919050565b6000613fc0602c83614b69565b9150613fcb82614f44565b604082019050919050565b6000613fe3601783614b69565b9150613fee82614f93565b602082019050919050565b6000614006601f83614b69565b915061401182614fbc565b602082019050919050565b6000614029603283614b69565b915061403482614fe5565b604082019050919050565b600061404c602683614b69565b915061405782615034565b604082019050919050565b600061406f601c83614b69565b915061407a82615083565b602082019050919050565b6000614092600283614b7a565b915061409d826150ac565b600282019050919050565b60006140b5601683614b69565b91506140c0826150d5565b602082019050919050565b60006140d8601283614b69565b91506140e3826150fe565b602082019050919050565b60006140fb602483614b69565b915061410682615127565b604082019050919050565b600061411e601983614b69565b915061412982615176565b602082019050919050565b6000614141602283614b69565b915061414c8261519f565b604082019050919050565b6000614164602c83614b69565b915061416f826151ee565b604082019050919050565b6000614187601383614b69565b91506141928261523d565b602082019050919050565b60006141aa603883614b69565b91506141b582615266565b604082019050919050565b60006141cd602a83614b69565b91506141d8826152b5565b604082019050919050565b60006141f0602983614b69565b91506141fb82615304565b604082019050919050565b6000614213601083614b69565b915061421e82615353565b602082019050919050565b6000614236602283614b69565b91506142418261537c565b604082019050919050565b6000614259601783614b69565b9150614264826153cb565b602082019050919050565b600061427c602083614b69565b9150614287826153f4565b602082019050919050565b600061429f602c83614b69565b91506142aa8261541d565b604082019050919050565b60006142c2602083614b69565b91506142cd8261546c565b602082019050919050565b60006142e5602983614b69565b91506142f082615495565b604082019050919050565b6000614308602783614b69565b9150614313826154e4565b604082019050919050565b600061432b601783614b69565b915061433682615533565b602082019050919050565b600061434e601683614b69565b91506143598261555c565b602082019050919050565b6000614371602183614b69565b915061437c82615585565b604082019050919050565b6000614394602483614b69565b915061439f826155d4565b604082019050919050565b60006143b7601483614b69565b91506143c282615623565b602082019050919050565b60006143da603183614b69565b91506143e58261564c565b604082019050919050565b60006143fd601983614b69565b91506144088261569b565b602082019050919050565b6000614420601b83614b69565b915061442b826156c4565b602082019050919050565b6000614443600983614b69565b915061444e826156ed565b602082019050919050565b61446281614d0e565b82525050565b61447181614d18565b82525050565b60006144838285613f11565b915061448f8284613ee0565b91508190509392505050565b60006144a682614085565b91506144b28285613e57565b6020820191506144c28284613e57565b6020820191508190509392505050565b60006020820190506144e76000830184613e2a565b92915050565b60006080820190506145026000830187613e2a565b61450f6020830186613e2a565b61451c6040830185614459565b818103606083015261452e8184613e6e565b905095945050505050565b600060608201905061454e6000830186613e2a565b61455b6020830185614459565b6145686040830184614459565b949350505050565b60006020820190506145856000830184613e39565b92915050565b60006060820190506145a06000830186613e48565b6145ad6020830185613e2a565b6145ba6040830184614459565b949350505050565b600060a0820190506145d76000830188613e48565b6145e46020830187613e48565b6145f16040830186613e48565b6145fe6060830185614459565b61460b6080830184613e2a565b9695505050505050565b600060808201905061462a6000830187613e48565b6146376020830186614468565b6146446040830185613e48565b6146516060830184613e48565b95945050505050565b600060208201905081810360008301526146748184613ea7565b905092915050565b6000602082019050818103600083015261469581613f90565b9050919050565b600060208201905081810360008301526146b581613fb3565b9050919050565b600060208201905081810360008301526146d581613fd6565b9050919050565b600060208201905081810360008301526146f581613ff9565b9050919050565b600060208201905081810360008301526147158161401c565b9050919050565b600060208201905081810360008301526147358161403f565b9050919050565b6000602082019050818103600083015261475581614062565b9050919050565b60006020820190508181036000830152614775816140a8565b9050919050565b60006020820190508181036000830152614795816140cb565b9050919050565b600060208201905081810360008301526147b5816140ee565b9050919050565b600060208201905081810360008301526147d581614111565b9050919050565b600060208201905081810360008301526147f581614134565b9050919050565b6000602082019050818103600083015261481581614157565b9050919050565b600060208201905081810360008301526148358161417a565b9050919050565b600060208201905081810360008301526148558161419d565b9050919050565b60006020820190508181036000830152614875816141c0565b9050919050565b60006020820190508181036000830152614895816141e3565b9050919050565b600060208201905081810360008301526148b581614206565b9050919050565b600060208201905081810360008301526148d581614229565b9050919050565b600060208201905081810360008301526148f58161424c565b9050919050565b600060208201905081810360008301526149158161426f565b9050919050565b6000602082019050818103600083015261493581614292565b9050919050565b60006020820190508181036000830152614955816142b5565b9050919050565b60006020820190508181036000830152614975816142d8565b9050919050565b60006020820190508181036000830152614995816142fb565b9050919050565b600060208201905081810360008301526149b58161431e565b9050919050565b600060208201905081810360008301526149d581614341565b9050919050565b600060208201905081810360008301526149f581614364565b9050919050565b60006020820190508181036000830152614a1581614387565b9050919050565b60006020820190508181036000830152614a35816143aa565b9050919050565b60006020820190508181036000830152614a55816143cd565b9050919050565b60006020820190508181036000830152614a75816143f0565b9050919050565b60006020820190508181036000830152614a9581614413565b9050919050565b60006020820190508181036000830152614ab581614436565b9050919050565b6000602082019050614ad16000830184614459565b92915050565b6000614ae1614af2565b9050614aed8282614d99565b919050565b6000604051905090565b600067ffffffffffffffff821115614b1757614b16614edb565b5b614b2082614f0a565b9050602081019050919050565b60008190508160005260206000209050919050565b600081519050919050565b600081519050919050565b600082825260208201905092915050565b600082825260208201905092915050565b600081905092915050565b6000614b9082614d0e565b9150614b9b83614d0e565b9250827fffffffffffffffffffffffffffffffffffffffffffffffffffffffffffffffff03821115614bd057614bcf614e4e565b5b828201905092915050565b6000614be682614d0e565b9150614bf183614d0e565b925082614c0157614c00614e7d565b5b828204905092915050565b6000614c1782614d0e565b9150614c2283614d0e565b9250817fffffffffffffffffffffffffffffffffffffffffffffffffffffffffffffffff0483118215151615614c5b57614c5a614e4e565b5b828202905092915050565b6000614c7182614d0e565b9150614c7c83614d0e565b925082821015614c8f57614c8e614e4e565b5b828203905092915050565b6000614ca582614cee565b9050919050565b60008115159050919050565b6000819050919050565b60007fffffffff0000000000000000000000000000000000000000000000000000000082169050919050565b600073ffffffffffffffffffffffffffffffffffffffff82169050919050565b6000819050919050565b600060ff82169050919050565b82818337600083830152505050565b60005b83811015614d52578082015181840152602081019050614d37565b83811115614d61576000848401525b50505050565b60006002820490506001821680614d7f57607f821691505b60208210811415614d9357614d92614eac565b5b50919050565b614da282614f0a565b810181811067ffffffffffffffff82111715614dc157614dc0614edb565b5b80604052505050565b6000614dd582614d0e565b91507fffffffffffffffffffffffffffffffffffffffffffffffffffffffffffffffff821415614e0857614e07614e4e565b5b600182019050919050565b6000819050919050565b6000614e2882614d0e565b9150614e3383614d0e565b925082614e4357614e42614e7d565b5b828206905092915050565b7f4e487b7100000000000000000000000000000000000000000000000000000000600052601160045260246000fd5b7f4e487b7100000000000000000000000000000000000000000000000000000000600052601260045260246000fd5b7f4e487b7100000000000000000000000000000000000000000000000000000000600052602260045260246000fd5b7f4e487b7100000000000000000000000000000000000000000000000000000000600052604160045260246000fd5b6000601f19601f8301169050919050565b7f45434453413a20696e76616c6964207369676e61747572650000000000000000600082015250565b7f596f752063616e206d696e74206d696e696d756d20312c206d6178696d756d2060008201527f35302073616d75726169732e0000000000000000000000000000000000000000602082015250565b7f4e4f545f494e5f5055424c49435f53414c455f54494d45000000000000000000600082015250565b7f45434453413a20696e76616c6964207369676e6174757265206c656e67746800600082015250565b7f4552433732313a207472616e7366657220746f206e6f6e20455243373231526560008201527f63656976657220696d706c656d656e7465720000000000000000000000000000602082015250565b7f4f776e61626c653a206e6577206f776e657220697320746865207a65726f206160008201527f6464726573730000000000000000000000000000000000000000000000000000602082015250565b7f4552433732313a20746f6b656e20616c7265616479206d696e74656400000000600082015250565b7f1901000000000000000000000000000000000000000000000000000000000000600082015250565b7f436c61696d65206861736e277420737461727465642e00000000000000000000600082015250565b7f50524553414c455f4e4f545f4143544956450000000000000000000000000000600082015250565b7f4552433732313a207472616e7366657220746f20746865207a65726f2061646460008201527f7265737300000000000000000000000000000000000000000000000000000000602082015250565b7f4552433732313a20617070726f766520746f2063616c6c657200000000000000600082015250565b7f45434453413a20696e76616c6964207369676e6174757265202773272076616c60008201527f7565000000000000000000000000000000000000000000000000000000000000602082015250565b7f4552433732313a206f70657261746f7220717565727920666f72206e6f6e657860008201527f697374656e7420746f6b656e0000000000000000000000000000000000000000602082015250565b7f4e4f545f494e5f50524553414c455f54494d4500000000000000000000000000600082015250565b7f4552433732313a20617070726f76652063616c6c6572206973206e6f74206f7760008201527f6e6572206e6f7220617070726f76656420666f7220616c6c0000000000000000602082015250565b7f4552433732313a2062616c616e636520717565727920666f7220746865207a6560008201527f726f206164647265737300000000000000000000000000000000000000000000602082015250565b7f4552433732313a206f776e657220717565727920666f72206e6f6e657869737460008201527f656e7420746f6b656e0000000000000000000000000000000000000000000000602082015250565b7f544f4b454e5f4e4f545f45584953545300000000000000000000000000000000600082015250565b7f45434453413a20696e76616c6964207369676e6174757265202776272076616c60008201527f7565000000000000000000000000000000000000000000000000000000000000602082015250565b7f5468697320737461676520697320736f6c64206f757421000000000000000000600082015250565b7f4552433732313a206d696e7420746f20746865207a65726f2061646472657373600082015250565b7f4552433732313a20617070726f76656420717565727920666f72206e6f6e657860008201527f697374656e7420746f6b656e0000000000000000000000000000000000000000602082015250565b7f4f776e61626c653a2063616c6c6572206973206e6f7420746865206f776e6572600082015250565b7f4552433732313a207472616e73666572206f6620746f6b656e2074686174206960008201527f73206e6f74206f776e0000000000000000000000000000000000000000000000602082015250565b7f45786365656420746865207175616e7469747920746861742063616e2062652060008201527f636c61696d656400000000000000000000000000000000000000000000000000602082015250565b7f4e6f7420656c696769626c6520666f7220636c61696d2e000000000000000000600082015250565b7f5055424c49435f53414c455f4e4f545f41435449564500000000000000000000600082015250565b7f4552433732313a20617070726f76616c20746f2063757272656e74206f776e6560008201527f7200000000000000000000000000000000000000000000000000000000000000602082015250565b7f45746865722076616c75652073656e742069732062656c6f772074686520707260008201527f6963652e00000000000000000000000000000000000000000000000000000000602082015250565b7f45786365656473204d41585f53414d555241492e000000000000000000000000600082015250565b7f4552433732313a207472616e736665722063616c6c6572206973206e6f74206f60008201527f776e6572206e6f7220617070726f766564000000000000000000000000000000602082015250565b7f4e6f7420656c696769626c6520666f722070726573616c652e00000000000000600082015250565b7f45786365656473206d61782070726573616c65206e756d6265722e0000000000600082015250565b7f536f6c64206f7574210000000000000000000000000000000000000000000000600082015250565b61571f81614c9a565b811461572a57600080fd5b50565b61573681614cac565b811461574157600080fd5b50565b61574d81614cc2565b811461575857600080fd5b50565b61576481614d0e565b811461576f57600080fd5b5056fea26469706673582212205fecc6634365b97087a8492ec9e1953077f52be05ab9f608a88cfb6eafe5826864736f6c63430008040033687474703a2f2f6170692e72616d656e2e6b6174616e616e73616d757261692e6172742f4d657461646174612f",
  "devdoc": {
    "kind": "dev",
    "methods": {
      "approve(address,uint256)": {
        "details": "See {IERC721-approve}."
      },
      "balanceOf(address)": {
        "details": "See {IERC721-balanceOf}."
      },
      "getApproved(uint256)": {
        "details": "See {IERC721-getApproved}."
      },
      "isApprovedForAll(address,address)": {
        "details": "See {IERC721-isApprovedForAll}."
      },
      "name()": {
        "details": "See {IERC721Metadata-name}."
      },
      "owner()": {
        "details": "Returns the address of the current owner."
      },
      "ownerOf(uint256)": {
        "details": "See {IERC721-ownerOf}."
      },
      "renounceOwnership()": {
        "details": "Leaves the contract without owner. It will not be possible to call `onlyOwner` functions anymore. Can only be called by the current owner. NOTE: Renouncing ownership will leave the contract without an owner, thereby removing any functionality that is only available to the owner."
      },
      "safeTransferFrom(address,address,uint256)": {
        "details": "See {IERC721-safeTransferFrom}."
      },
      "safeTransferFrom(address,address,uint256,bytes)": {
        "details": "See {IERC721-safeTransferFrom}."
      },
      "setApprovalForAll(address,bool)": {
        "details": "See {IERC721-setApprovalForAll}."
      },
      "supportsInterface(bytes4)": {
        "details": "See {IERC165-supportsInterface}."
      },
      "symbol()": {
        "details": "See {IERC721Metadata-symbol}."
      },
      "tokenURI(uint256)": {
        "details": "Returns the Uniform Resource Identifier (URI) for `tokenId` token."
      },
      "transferFrom(address,address,uint256)": {
        "details": "See {IERC721-transferFrom}."
      },
      "transferOwnership(address)": {
        "details": "Transfers ownership of the contract to a new account (`newOwner`). Can only be called by the current owner."
      }
    },
    "version": 1
  },
  "userdoc": {
    "kind": "user",
    "methods": {},
    "version": 1
  },
  "storageLayout": {
    "storage": [
      {
        "astId": 7,
        "contract": "contracts/KatanaNSamurai2.sol:KatanaNSamurai2",
        "label": "_owner",
        "offset": 0,
        "slot": "0",
        "type": "t_address"
      },
      {
        "astId": 2845,
        "contract": "contracts/KatanaNSamurai2.sol:KatanaNSamurai2",
        "label": "_name",
        "offset": 0,
        "slot": "1",
        "type": "t_string_storage"
      },
      {
        "astId": 2847,
        "contract": "contracts/KatanaNSamurai2.sol:KatanaNSamurai2",
        "label": "_symbol",
        "offset": 0,
        "slot": "2",
        "type": "t_string_storage"
      },
      {
        "astId": 2850,
        "contract": "contracts/KatanaNSamurai2.sol:KatanaNSamurai2",
        "label": "_owners",
        "offset": 0,
        "slot": "3",
        "type": "t_array(t_address)dyn_storage"
      },
      {
        "astId": 2854,
        "contract": "contracts/KatanaNSamurai2.sol:KatanaNSamurai2",
        "label": "_tokenApprovals",
        "offset": 0,
        "slot": "4",
        "type": "t_mapping(t_uint256,t_address)"
      },
      {
        "astId": 2860,
        "contract": "contracts/KatanaNSamurai2.sol:KatanaNSamurai2",
        "label": "_operatorApprovals",
        "offset": 0,
        "slot": "5",
        "type": "t_mapping(t_address,t_mapping(t_address,t_bool))"
      },
      {
        "astId": 3619,
        "contract": "contracts/KatanaNSamurai2.sol:KatanaNSamurai2",
        "label": "MAX_SAMURAI",
        "offset": 0,
        "slot": "6",
        "type": "t_uint256"
      },
      {
        "astId": 3622,
        "contract": "contracts/KatanaNSamurai2.sol:KatanaNSamurai2",
        "label": "STAGE_LIMIT",
        "offset": 0,
        "slot": "7",
        "type": "t_uint256"
      },
      {
        "astId": 3625,
        "contract": "contracts/KatanaNSamurai2.sol:KatanaNSamurai2",
        "label": "PRICE",
        "offset": 0,
        "slot": "8",
        "type": "t_uint256"
      },
      {
        "astId": 3628,
        "contract": "contracts/KatanaNSamurai2.sol:KatanaNSamurai2",
        "label": "numPresale",
        "offset": 0,
        "slot": "9",
        "type": "t_uint256"
      },
      {
        "astId": 3631,
        "contract": "contracts/KatanaNSamurai2.sol:KatanaNSamurai2",
        "label": "numSale",
        "offset": 0,
        "slot": "10",
        "type": "t_uint256"
      },
      {
        "astId": 3634,
        "contract": "contracts/KatanaNSamurai2.sol:KatanaNSamurai2",
        "label": "numClaim",
        "offset": 0,
        "slot": "11",
        "type": "t_uint256"
      },
      {
        "astId": 3637,
        "contract": "contracts/KatanaNSamurai2.sol:KatanaNSamurai2",
        "label": "numGiveaway",
        "offset": 0,
        "slot": "12",
        "type": "t_uint256"
      },
      {
        "astId": 3640,
        "contract": "contracts/KatanaNSamurai2.sol:KatanaNSamurai2",
        "label": "totalSupply",
        "offset": 0,
        "slot": "13",
        "type": "t_uint256"
      },
      {
        "astId": 3643,
        "contract": "contracts/KatanaNSamurai2.sol:KatanaNSamurai2",
        "label": "hasSaleStarted",
        "offset": 0,
        "slot": "14",
        "type": "t_bool"
      },
      {
        "astId": 3646,
        "contract": "contracts/KatanaNSamurai2.sol:KatanaNSamurai2",
        "label": "hasPresaleStarted",
        "offset": 1,
        "slot": "14",
        "type": "t_bool"
      },
      {
        "astId": 3649,
        "contract": "contracts/KatanaNSamurai2.sol:KatanaNSamurai2",
        "label": "hasClaimStarted",
        "offset": 2,
        "slot": "14",
        "type": "t_bool"
      },
      {
        "astId": 3652,
        "contract": "contracts/KatanaNSamurai2.sol:KatanaNSamurai2",
        "label": "_baseTokenURI",
        "offset": 0,
        "slot": "15",
        "type": "t_string_storage"
      },
      {
        "astId": 3656,
        "contract": "contracts/KatanaNSamurai2.sol:KatanaNSamurai2",
        "label": "hasClaimed",
        "offset": 0,
        "slot": "16",
        "type": "t_mapping(t_address,t_uint256)"
      },
      {
        "astId": 3660,
        "contract": "contracts/KatanaNSamurai2.sol:KatanaNSamurai2",
        "label": "hasPresale",
        "offset": 0,
        "slot": "17",
        "type": "t_mapping(t_address,t_uint256)"
      },
      {
        "astId": 3663,
        "contract": "contracts/KatanaNSamurai2.sol:KatanaNSamurai2",
        "label": "saleStartTimestamp",
        "offset": 0,
        "slot": "18",
        "type": "t_uint256"
      },
      {
        "astId": 3666,
        "contract": "contracts/KatanaNSamurai2.sol:KatanaNSamurai2",
        "label": "presaleStartTimestamp",
        "offset": 0,
        "slot": "19",
        "type": "t_uint256"
      }
    ],
    "types": {
      "t_address": {
        "encoding": "inplace",
        "label": "address",
        "numberOfBytes": "20"
      },
      "t_array(t_address)dyn_storage": {
        "base": "t_address",
        "encoding": "dynamic_array",
        "label": "address[]",
        "numberOfBytes": "32"
      },
      "t_bool": {
        "encoding": "inplace",
        "label": "bool",
        "numberOfBytes": "1"
      },
      "t_mapping(t_address,t_bool)": {
        "encoding": "mapping",
        "key": "t_address",
        "label": "mapping(address => bool)",
        "numberOfBytes": "32",
        "value": "t_bool"
      },
      "t_mapping(t_address,t_mapping(t_address,t_bool))": {
        "encoding": "mapping",
        "key": "t_address",
        "label": "mapping(address => mapping(address => bool))",
        "numberOfBytes": "32",
        "value": "t_mapping(t_address,t_bool)"
      },
      "t_mapping(t_address,t_uint256)": {
        "encoding": "mapping",
        "key": "t_address",
        "label": "mapping(address => uint256)",
        "numberOfBytes": "32",
        "value": "t_uint256"
      },
      "t_mapping(t_uint256,t_address)": {
        "encoding": "mapping",
        "key": "t_uint256",
        "label": "mapping(uint256 => address)",
        "numberOfBytes": "32",
        "value": "t_address"
      },
      "t_string_storage": {
        "encoding": "bytes",
        "label": "string",
        "numberOfBytes": "32"
      },
      "t_uint256": {
        "encoding": "inplace",
        "label": "uint256",
        "numberOfBytes": "32"
      }
    }
  }
}