{
  "address": "0x5CffCFA57a3E73A0fC8e9244355F9F2021745c5f",
  "abi": [
    {
      "inputs": [],
      "stateMutability": "nonpayable",
      "type": "constructor"
    },
    {
      "anonymous": false,
      "inputs": [
        {
          "indexed": true,
          "internalType": "address",
          "name": "owner",
          "type": "address"
        },
        {
          "indexed": true,
          "internalType": "address",
          "name": "approved",
          "type": "address"
        },
        {
          "indexed": true,
          "internalType": "uint256",
          "name": "tokenId",
          "type": "uint256"
        }
      ],
      "name": "Approval",
      "type": "event"
    },
    {
      "anonymous": false,
      "inputs": [
        {
          "indexed": true,
          "internalType": "address",
          "name": "owner",
          "type": "address"
        },
        {
          "indexed": true,
          "internalType": "address",
          "name": "operator",
          "type": "address"
        },
        {
          "indexed": false,
          "internalType": "bool",
          "name": "approved",
          "type": "bool"
        }
      ],
      "name": "ApprovalForAll",
      "type": "event"
    },
    {
      "anonymous": false,
      "inputs": [
        {
          "indexed": true,
          "internalType": "address",
          "name": "previousOwner",
          "type": "address"
        },
        {
          "indexed": true,
          "internalType": "address",
          "name": "newOwner",
          "type": "address"
        }
      ],
      "name": "OwnershipTransferred",
      "type": "event"
    },
    {
      "anonymous": false,
      "inputs": [
        {
          "indexed": true,
          "internalType": "address",
          "name": "from",
          "type": "address"
        },
        {
          "indexed": true,
          "internalType": "address",
          "name": "to",
          "type": "address"
        },
        {
          "indexed": true,
          "internalType": "uint256",
          "name": "tokenId",
          "type": "uint256"
        }
      ],
      "name": "Transfer",
      "type": "event"
    },
    {
      "anonymous": false,
      "inputs": [
        {
          "indexed": false,
          "internalType": "address",
          "name": "owner",
          "type": "address"
        },
        {
          "indexed": false,
          "internalType": "uint256",
          "name": "quantity",
          "type": "uint256"
        },
        {
          "indexed": false,
          "internalType": "uint256",
          "name": "totalSupply",
          "type": "uint256"
        }
      ],
      "name": "mintEvent",
      "type": "event"
    },
    {
      "inputs": [],
      "name": "MAX_PRESALE",
      "outputs": [
        {
          "internalType": "uint256",
          "name": "",
          "type": "uint256"
        }
      ],
      "stateMutability": "view",
      "type": "function"
    },
    {
      "inputs": [],
      "name": "MAX_SAMURAI",
      "outputs": [
        {
          "internalType": "uint256",
          "name": "",
          "type": "uint256"
        }
      ],
      "stateMutability": "view",
      "type": "function"
    },
    {
      "inputs": [],
      "name": "PRICE",
      "outputs": [
        {
          "internalType": "uint256",
          "name": "",
          "type": "uint256"
        }
      ],
      "stateMutability": "view",
      "type": "function"
    },
    {
      "inputs": [
        {
          "internalType": "address",
          "name": "to",
          "type": "address"
        },
        {
          "internalType": "uint256",
          "name": "tokenId",
          "type": "uint256"
        }
      ],
      "name": "approve",
      "outputs": [],
      "stateMutability": "nonpayable",
      "type": "function"
    },
    {
      "inputs": [
        {
          "internalType": "address",
          "name": "owner",
          "type": "address"
        }
      ],
      "name": "balanceOf",
      "outputs": [
        {
          "internalType": "uint256",
          "name": "",
          "type": "uint256"
        }
      ],
      "stateMutability": "view",
      "type": "function"
    },
    {
      "inputs": [
        {
          "internalType": "uint256",
          "name": "quantity",
          "type": "uint256"
        },
        {
          "internalType": "uint256",
          "name": "maxClaimNum",
          "type": "uint256"
        },
        {
          "internalType": "bytes",
          "name": "SIGNATURE",
          "type": "bytes"
        }
      ],
      "name": "claimSamurai",
      "outputs": [],
      "stateMutability": "nonpayable",
      "type": "function"
    },
    {
      "inputs": [
        {
          "internalType": "uint256",
          "name": "tokenId",
          "type": "uint256"
        }
      ],
      "name": "getApproved",
      "outputs": [
        {
          "internalType": "address",
          "name": "",
          "type": "address"
        }
      ],
      "stateMutability": "view",
      "type": "function"
    },
    {
      "inputs": [
        {
          "internalType": "address",
          "name": "_to",
          "type": "address"
        },
        {
          "internalType": "uint256",
          "name": "quantity",
          "type": "uint256"
        }
      ],
      "name": "giveawayMintSamurai",
      "outputs": [],
      "stateMutability": "nonpayable",
      "type": "function"
    },
    {
      "inputs": [],
      "name": "hasClaimeStarted",
      "outputs": [
        {
          "internalType": "bool",
          "name": "",
          "type": "bool"
        }
      ],
      "stateMutability": "view",
      "type": "function"
    },
    {
      "inputs": [
        {
          "internalType": "address",
          "name": "",
          "type": "address"
        }
      ],
      "name": "hasClaimed",
      "outputs": [
        {
          "internalType": "uint256",
          "name": "",
          "type": "uint256"
        }
      ],
      "stateMutability": "view",
      "type": "function"
    },
    {
      "inputs": [
        {
          "internalType": "address",
          "name": "",
          "type": "address"
        }
      ],
      "name": "hasPresale",
      "outputs": [
        {
          "internalType": "uint256",
          "name": "",
          "type": "uint256"
        }
      ],
      "stateMutability": "view",
      "type": "function"
    },
    {
      "inputs": [],
      "name": "hasPresaleStarted",
      "outputs": [
        {
          "internalType": "bool",
          "name": "",
          "type": "bool"
        }
      ],
      "stateMutability": "view",
      "type": "function"
    },
    {
      "inputs": [],
      "name": "hasSaleStarted",
      "outputs": [
        {
          "internalType": "bool",
          "name": "",
          "type": "bool"
        }
      ],
      "stateMutability": "view",
      "type": "function"
    },
    {
      "inputs": [
        {
          "internalType": "address",
          "name": "owner",
          "type": "address"
        },
        {
          "internalType": "address",
          "name": "operator",
          "type": "address"
        }
      ],
      "name": "isApprovedForAll",
      "outputs": [
        {
          "internalType": "bool",
          "name": "",
          "type": "bool"
        }
      ],
      "stateMutability": "view",
      "type": "function"
    },
    {
      "inputs": [
        {
          "internalType": "uint256",
          "name": "quantity",
          "type": "uint256"
        },
        {
          "internalType": "uint256",
          "name": "maxClaimNumOnPresale",
          "type": "uint256"
        },
        {
          "internalType": "bytes",
          "name": "SIGNATURE",
          "type": "bytes"
        }
      ],
      "name": "mintPresaleSamurai",
      "outputs": [],
      "stateMutability": "payable",
      "type": "function"
    },
    {
      "inputs": [
        {
          "internalType": "uint256",
          "name": "numPurchase",
          "type": "uint256"
        }
      ],
      "name": "mintSamurai",
      "outputs": [],
      "stateMutability": "payable",
      "type": "function"
    },
    {
      "inputs": [],
      "name": "name",
      "outputs": [
        {
          "internalType": "string",
          "name": "",
          "type": "string"
        }
      ],
      "stateMutability": "view",
      "type": "function"
    },
    {
      "inputs": [],
      "name": "numClaim",
      "outputs": [
        {
          "internalType": "uint256",
          "name": "",
          "type": "uint256"
        }
      ],
      "stateMutability": "view",
      "type": "function"
    },
    {
      "inputs": [],
      "name": "numGiveaway",
      "outputs": [
        {
          "internalType": "uint256",
          "name": "",
          "type": "uint256"
        }
      ],
      "stateMutability": "view",
      "type": "function"
    },
    {
      "inputs": [],
      "name": "numPresale",
      "outputs": [
        {
          "internalType": "uint256",
          "name": "",
          "type": "uint256"
        }
      ],
      "stateMutability": "view",
      "type": "function"
    },
    {
      "inputs": [],
      "name": "numSale",
      "outputs": [
        {
          "internalType": "uint256",
          "name": "",
          "type": "uint256"
        }
      ],
      "stateMutability": "view",
      "type": "function"
    },
    {
      "inputs": [],
      "name": "owner",
      "outputs": [
        {
          "internalType": "address",
          "name": "",
          "type": "address"
        }
      ],
      "stateMutability": "view",
      "type": "function"
    },
    {
      "inputs": [
        {
          "internalType": "uint256",
          "name": "tokenId",
          "type": "uint256"
        }
      ],
      "name": "ownerOf",
      "outputs": [
        {
          "internalType": "address",
          "name": "",
          "type": "address"
        }
      ],
      "stateMutability": "view",
      "type": "function"
    },
    {
      "inputs": [],
      "name": "pausePresale",
      "outputs": [],
      "stateMutability": "nonpayable",
      "type": "function"
    },
    {
      "inputs": [],
      "name": "pauseSale",
      "outputs": [],
      "stateMutability": "nonpayable",
      "type": "function"
    },
    {
      "inputs": [],
      "name": "renounceOwnership",
      "outputs": [],
      "stateMutability": "nonpayable",
      "type": "function"
    },
    {
      "inputs": [
        {
          "internalType": "address",
          "name": "from",
          "type": "address"
        },
        {
          "internalType": "address",
          "name": "to",
          "type": "address"
        },
        {
          "internalType": "uint256",
          "name": "tokenId",
          "type": "uint256"
        }
      ],
      "name": "safeTransferFrom",
      "outputs": [],
      "stateMutability": "nonpayable",
      "type": "function"
    },
    {
      "inputs": [
        {
          "internalType": "address",
          "name": "from",
          "type": "address"
        },
        {
          "internalType": "address",
          "name": "to",
          "type": "address"
        },
        {
          "internalType": "uint256",
          "name": "tokenId",
          "type": "uint256"
        },
        {
          "internalType": "bytes",
          "name": "_data",
          "type": "bytes"
        }
      ],
      "name": "safeTransferFrom",
      "outputs": [],
      "stateMutability": "nonpayable",
      "type": "function"
    },
    {
      "inputs": [
        {
          "internalType": "address",
          "name": "operator",
          "type": "address"
        },
        {
          "internalType": "bool",
          "name": "approved",
          "type": "bool"
        }
      ],
      "name": "setApprovalForAll",
      "outputs": [],
      "stateMutability": "nonpayable",
      "type": "function"
    },
    {
      "inputs": [
        {
          "internalType": "uint256",
          "name": "_MAX_PS_num",
          "type": "uint256"
        }
      ],
      "name": "setMAX_PRESALE",
      "outputs": [],
      "stateMutability": "nonpayable",
      "type": "function"
    },
    {
      "inputs": [
        {
          "internalType": "uint256",
          "name": "_MAX_num",
          "type": "uint256"
        }
      ],
      "name": "setMAX_SAMURAI",
      "outputs": [],
      "stateMutability": "nonpayable",
      "type": "function"
    },
    {
      "inputs": [
        {
          "internalType": "string",
          "name": "_tokenURI",
          "type": "string"
        }
      ],
      "name": "setURI",
      "outputs": [],
      "stateMutability": "nonpayable",
      "type": "function"
    },
    {
      "inputs": [
        {
          "internalType": "uint256",
          "name": "_price",
          "type": "uint256"
        }
      ],
      "name": "set_PRICE",
      "outputs": [],
      "stateMutability": "nonpayable",
      "type": "function"
    },
    {
      "inputs": [],
      "name": "startPresale",
      "outputs": [],
      "stateMutability": "nonpayable",
      "type": "function"
    },
    {
      "inputs": [],
      "name": "startSale",
      "outputs": [],
      "stateMutability": "nonpayable",
      "type": "function"
    },
    {
      "inputs": [
        {
          "internalType": "bytes4",
          "name": "interfaceId",
          "type": "bytes4"
        }
      ],
      "name": "supportsInterface",
      "outputs": [
        {
          "internalType": "bool",
          "name": "",
          "type": "bool"
        }
      ],
      "stateMutability": "view",
      "type": "function"
    },
    {
      "inputs": [],
      "name": "symbol",
      "outputs": [
        {
          "internalType": "string",
          "name": "",
          "type": "string"
        }
      ],
      "stateMutability": "view",
      "type": "function"
    },
    {
      "inputs": [
        {
          "internalType": "uint256",
          "name": "tokenId",
          "type": "uint256"
        }
      ],
      "name": "tokenURI",
      "outputs": [
        {
          "internalType": "string",
          "name": "",
          "type": "string"
        }
      ],
      "stateMutability": "view",
      "type": "function"
    },
    {
      "inputs": [],
      "name": "totalSupply",
      "outputs": [
        {
          "internalType": "uint256",
          "name": "",
          "type": "uint256"
        }
      ],
      "stateMutability": "view",
      "type": "function"
    },
    {
      "inputs": [
        {
          "internalType": "address",
          "name": "from",
          "type": "address"
        },
        {
          "internalType": "address",
          "name": "to",
          "type": "address"
        },
        {
          "internalType": "uint256",
          "name": "tokenId",
          "type": "uint256"
        }
      ],
      "name": "transferFrom",
      "outputs": [],
      "stateMutability": "nonpayable",
      "type": "function"
    },
    {
      "inputs": [
        {
          "internalType": "address",
          "name": "newOwner",
          "type": "address"
        }
      ],
      "name": "transferOwnership",
      "outputs": [],
      "stateMutability": "nonpayable",
      "type": "function"
    },
    {
      "inputs": [
        {
          "internalType": "uint256",
          "name": "maxClaimNum",
          "type": "uint256"
        },
        {
          "internalType": "bytes",
          "name": "SIGNATURE",
          "type": "bytes"
        }
      ],
      "name": "verify",
      "outputs": [
        {
          "internalType": "bool",
          "name": "",
          "type": "bool"
        }
      ],
      "stateMutability": "view",
      "type": "function"
    },
    {
      "inputs": [],
      "name": "withdrawAll",
      "outputs": [],
      "stateMutability": "payable",
      "type": "function"
    }
  ],
  "transactionHash": "0xd4eaccc93e29443de302bd0f46f7167047dbbab40d737511fda378b5ec834c4e",
  "args": [],
  "solcInputHash": "1958620c68d15fb9868fc559930ca5b4",
  "bytecode": "0x61012060405273d6499dac79a48cf21b7a6344a551a52da943e10c600660006101000a81548173ffffffffffffffffffffffffffffffffffffffff021916908373ffffffffffffffffffffffffffffffffffffffff160217905550600660009054906101000a900473ffffffffffffffffffffffffffffffffffffffff16600760006101000a81548173ffffffffffffffffffffffffffffffffffffffff021916908373ffffffffffffffffffffffffffffffffffffffff16021790555061299060085561177060095566b1a2bc2ec50000600a556000600b556000600c556000600d556000600e556000600f556001601060006101000a81548160ff0219169083151502179055506001601060016101000a81548160ff0219169083151502179055506001601060026101000a81548160ff02191690831515021790555060405180606001604052806027815260200162005c0160279139601190805190602001906200016f92919062000435565b503480156200017d57600080fd5b506040518060400160405280601281526020017f4b6174616e61204e2053616d75726169203200000000000000000000000000008152506040518060400160405280600681526020017f4b4e53322e3000000000000000000000000000000000000000000000000000008152506040518060400160405280601281526020017f4b6174616e61204e2053616d75726169203200000000000000000000000000008152506040518060400160405280600581526020017f312e302e30000000000000000000000000000000000000000000000000000000815250620002766200026a6200032d60201b60201c565b6200033560201b60201c565b60008280519060200120905060008280519060200120905060007f8b73c3c69bb8fe3d512ecc4cf759cc79239f7b179b0ffacaa9a75d522b39400f90508260c081815250508160e081815250504660a08181525050620002de818484620003f960201b60201c565b60808181525050806101008181525050505050505081600190805190602001906200030b92919062000435565b5080600290805190602001906200032492919062000435565b50505062000622565b600033905090565b60008060009054906101000a900473ffffffffffffffffffffffffffffffffffffffff169050816000806101000a81548173ffffffffffffffffffffffffffffffffffffffff021916908373ffffffffffffffffffffffffffffffffffffffff1602179055508173ffffffffffffffffffffffffffffffffffffffff168173ffffffffffffffffffffffffffffffffffffffff167f8be0079c531659141344cd1fd0a4f28419497f9722a3daafe3b4186f6b6457e060405160405180910390a35050565b600083838346306040516020016200041695949392919062000518565b6040516020818303038152906040528051906020012090509392505050565b8280546200044390620005bd565b90600052602060002090601f016020900481019282620004675760008555620004b3565b82601f106200048257805160ff1916838001178555620004b3565b82800160010185558215620004b3579182015b82811115620004b257825182559160200191906001019062000495565b5b509050620004c29190620004c6565b5090565b5b80821115620004e1576000816000905550600101620004c7565b5090565b620004f08162000575565b82525050565b620005018162000589565b82525050565b6200051281620005b3565b82525050565b600060a0820190506200052f6000830188620004f6565b6200053e6020830187620004f6565b6200054d6040830186620004f6565b6200055c606083018562000507565b6200056b6080830184620004e5565b9695505050505050565b6000620005828262000593565b9050919050565b6000819050919050565b600073ffffffffffffffffffffffffffffffffffffffff82169050919050565b6000819050919050565b60006002820490506001821680620005d657607f821691505b60208210811415620005ed57620005ec620005f3565b5b50919050565b7f4e487b7100000000000000000000000000000000000000000000000000000000600052602260045260246000fd5b60805160a05160c05160e0516101005161559a620006676000396000612dc201526000612e0401526000612de301526000612d6f01526000612d97015261559a6000f3fe60806040526004361061025c5760003560e01c806370a0823111610144578063b66a0e5d116100b6578063c87b56dd1161007a578063c87b56dd14610863578063de9af038146108a0578063e136fe73146108c9578063e985e9c5146108f2578063ee38c8b71461092f578063f2fde38b146109585761025c565b8063b66a0e5d146107b1578063b6791cfa146107c8578063b88d4fde146107e4578063c341526b1461080d578063c8544312146108385761025c565b8063872b25b011610108578063872b25b0146106b15780638d859f3e146106dc5780638da5cb5b1461070757806395d89b4114610732578063a22cb4651461075d578063b0220015146107865761025c565b806370a08231146105d9578063715018a61461061657806373b2e80e1461062d578063853828b61461066a57806385852ce4146106745761025c565b80631c8b232d116101dd57806354465773116101a157806354465773146104c957806355367ba9146104f45780635edbad0a1461050b5780636352211e146105365780636456c2051461057357806369cff3471461059c5761025c565b80631c8b232d1461040557806323b872dd146104305780632bf831f01461045957806342842e0e146104755780634d4c4e991461049e5761025c565b806306fdde031161022457806306fdde0314610332578063070f5c091461035d578063081812fc14610374578063095ea7b3146103b157806318160ddd146103da5761025c565b806301ffc9a71461026157806302fe53051461029e57806304c98b2b146102c757806304f60205146102de5780630633159214610309575b600080fd5b34801561026d57600080fd5b5061028860048036038101906102839190613b4d565b610981565b60405161029591906143c8565b60405180910390f35b3480156102aa57600080fd5b506102c560048036038101906102c09190613b9f565b610a63565b005b3480156102d357600080fd5b506102dc610af5565b005b3480156102ea57600080fd5b506102f3610b8e565b60405161030091906143c8565b60405180910390f35b34801561031557600080fd5b50610330600480360381019061032b9190613be4565b610ba1565b005b34801561033e57600080fd5b50610347610c27565b60405161035491906144b2565b60405180910390f35b34801561036957600080fd5b50610372610cb9565b005b34801561038057600080fd5b5061039b60048036038101906103969190613be4565b610d52565b6040516103a8919061432a565b60405180910390f35b3480156103bd57600080fd5b506103d860048036038101906103d39190613ad0565b610dd7565b005b3480156103e657600080fd5b506103ef610eef565b6040516103fc91906148d4565b60405180910390f35b34801561041157600080fd5b5061041a610ef5565b60405161042791906143c8565b60405180910390f35b34801561043c57600080fd5b50610457600480360381019061045291906139ca565b610f08565b005b610473600480360381019061046e9190613c61565b610f68565b005b34801561048157600080fd5b5061049c600480360381019061049791906139ca565b6112a9565b005b3480156104aa57600080fd5b506104b36112c9565b6040516104c091906148d4565b60405180910390f35b3480156104d557600080fd5b506104de6112cf565b6040516104eb91906148d4565b60405180910390f35b34801561050057600080fd5b506105096112d5565b005b34801561051757600080fd5b5061052061136e565b60405161052d91906148d4565b60405180910390f35b34801561054257600080fd5b5061055d60048036038101906105589190613be4565b611374565b60405161056a919061432a565b60405180910390f35b34801561057f57600080fd5b5061059a60048036038101906105959190613be4565b611457565b005b3480156105a857600080fd5b506105c360048036038101906105be9190613965565b6114dd565b6040516105d091906148d4565b60405180910390f35b3480156105e557600080fd5b5061060060048036038101906105fb9190613965565b6114f5565b60405161060d91906148d4565b60405180910390f35b34801561062257600080fd5b5061062b611641565b005b34801561063957600080fd5b50610654600480360381019061064f9190613965565b6116c9565b60405161066191906148d4565b60405180910390f35b6106726116e1565b005b34801561068057600080fd5b5061069b60048036038101906106969190613c0d565b61179d565b6040516106a891906143c8565b60405180910390f35b3480156106bd57600080fd5b506106c6611844565b6040516106d391906148d4565b60405180910390f35b3480156106e857600080fd5b506106f161184a565b6040516106fe91906148d4565b60405180910390f35b34801561071357600080fd5b5061071c611850565b604051610729919061432a565b60405180910390f35b34801561073e57600080fd5b50610747611879565b60405161075491906144b2565b60405180910390f35b34801561076957600080fd5b50610784600480360381019061077f9190613a94565b61190b565b005b34801561079257600080fd5b5061079b611a8c565b6040516107a891906143c8565b60405180910390f35b3480156107bd57600080fd5b506107c6611a9f565b005b6107e260048036038101906107dd9190613be4565b611b38565b005b3480156107f057600080fd5b5061080b60048036038101906108069190613a19565b611d49565b005b34801561081957600080fd5b50610822611dab565b60405161082f91906148d4565b60405180910390f35b34801561084457600080fd5b5061084d611db1565b60405161085a91906148d4565b60405180910390f35b34801561086f57600080fd5b5061088a60048036038101906108859190613be4565b611db7565b60405161089791906144b2565b60405180910390f35b3480156108ac57600080fd5b506108c760048036038101906108c29190613ad0565b611e33565b005b3480156108d557600080fd5b506108f060048036038101906108eb9190613be4565b611fc4565b005b3480156108fe57600080fd5b506109196004803603810190610914919061398e565b61204a565b60405161092691906143c8565b60405180910390f35b34801561093b57600080fd5b5061095660048036038101906109519190613c61565b6120de565b005b34801561096457600080fd5b5061097f600480360381019061097a9190613965565b612425565b005b60007f80ac58cd000000000000000000000000000000000000000000000000000000007bffffffffffffffffffffffffffffffffffffffffffffffffffffffff1916827bffffffffffffffffffffffffffffffffffffffffffffffffffffffff19161480610a4c57507f5b5e139f000000000000000000000000000000000000000000000000000000007bffffffffffffffffffffffffffffffffffffffffffffffffffffffff1916827bffffffffffffffffffffffffffffffffffffffffffffffffffffffff1916145b80610a5c5750610a5b8261251d565b5b9050919050565b610a6b612587565b73ffffffffffffffffffffffffffffffffffffffff16610a89611850565b73ffffffffffffffffffffffffffffffffffffffff1614610adf576040517f08c379a0000000000000000000000000000000000000000000000000000000008152600401610ad690614774565b60405180910390fd5b818160119190610af09291906136fc565b505050565b610afd612587565b73ffffffffffffffffffffffffffffffffffffffff16610b1b611850565b73ffffffffffffffffffffffffffffffffffffffff1614610b71576040517f08c379a0000000000000000000000000000000000000000000000000000000008152600401610b6890614774565b60405180910390fd5b6001601060016101000a81548160ff021916908315150217905550565b601060029054906101000a900460ff1681565b610ba9612587565b73ffffffffffffffffffffffffffffffffffffffff16610bc7611850565b73ffffffffffffffffffffffffffffffffffffffff1614610c1d576040517f08c379a0000000000000000000000000000000000000000000000000000000008152600401610c1490614774565b60405180910390fd5b8060088190555050565b606060018054610c3690614bab565b80601f0160208091040260200160405190810160405280929190818152602001828054610c6290614bab565b8015610caf5780601f10610c8457610100808354040283529160200191610caf565b820191906000526020600020905b815481529060010190602001808311610c9257829003601f168201915b5050505050905090565b610cc1612587565b73ffffffffffffffffffffffffffffffffffffffff16610cdf611850565b73ffffffffffffffffffffffffffffffffffffffff1614610d35576040517f08c379a0000000000000000000000000000000000000000000000000000000008152600401610d2c90614774565b60405180910390fd5b6000601060016101000a81548160ff021916908315150217905550565b6000610d5d8261258f565b610d9c576040517f08c379a0000000000000000000000000000000000000000000000000000000008152600401610d9390614754565b60405180910390fd5b6004600083815260200190815260200160002060009054906101000a900473ffffffffffffffffffffffffffffffffffffffff169050919050565b6000610de282611374565b90508073ffffffffffffffffffffffffffffffffffffffff168373ffffffffffffffffffffffffffffffffffffffff161415610e53576040517f08c379a0000000000000000000000000000000000000000000000000000000008152600401610e4a906147f4565b60405180910390fd5b8073ffffffffffffffffffffffffffffffffffffffff16610e72612587565b73ffffffffffffffffffffffffffffffffffffffff161480610ea15750610ea081610e9b612587565b61204a565b5b610ee0576040517f08c379a0000000000000000000000000000000000000000000000000000000008152600401610ed790614694565b60405180910390fd5b610eea838361263d565b505050565b600f5481565b601060009054906101000a900460ff1681565b610f19610f13612587565b826126f6565b610f58576040517f08c379a0000000000000000000000000000000000000000000000000000000008152600401610f4f90614854565b60405180910390fd5b610f638383836127d4565b505050565b60011515601060019054906101000a900460ff16151514610fbe576040517f08c379a0000000000000000000000000000000000000000000000000000000008152600401610fb590614614565b60405180910390fd5b610fc8828261179d565b611007576040517f08c379a0000000000000000000000000000000000000000000000000000000008152600401610ffe90614874565b60405180910390fd5b60008311801561106857508161106584601360003373ffffffffffffffffffffffffffffffffffffffff1673ffffffffffffffffffffffffffffffffffffffff168152602001908152602001600020546129b390919063ffffffff16565b11155b6110a7576040517f08c379a000000000000000000000000000000000000000000000000000000000815260040161109e90614894565b60405180910390fd5b6110bc83600a546129c990919063ffffffff16565b3410156110fe576040517f08c379a00000000000000000000000000000000000000000000000000000000081526004016110f590614814565b60405180910390fd5b60085461111684600f546129b390919063ffffffff16565b1115611157576040517f08c379a000000000000000000000000000000000000000000000000000000000815260040161114e90614674565b60405180910390fd5b60005b838110156111b657600061117a6001600f546129b390919063ffffffff16565b905061118633826129df565b61119c6001600f546129b390919063ffffffff16565b600f819055505080806111ae90614c0e565b91505061115a565b506111cc83600b546129b390919063ffffffff16565b600b8190555061122483601360003373ffffffffffffffffffffffffffffffffffffffff1673ffffffffffffffffffffffffffffffffffffffff168152602001908152602001600020546129b390919063ffffffff16565b601360003373ffffffffffffffffffffffffffffffffffffffff1673ffffffffffffffffffffffffffffffffffffffff168152602001908152602001600020819055507f9670c8b300c38cd3db8d3f9429dd902e67f418c4dd193e2497f06d20efc795603384600f5460405161129c93929190614391565b60405180910390a1505050565b6112c483838360405180602001604052806000815250611d49565b505050565b60095481565b600d5481565b6112dd612587565b73ffffffffffffffffffffffffffffffffffffffff166112fb611850565b73ffffffffffffffffffffffffffffffffffffffff1614611351576040517f08c379a000000000000000000000000000000000000000000000000000000000815260040161134890614774565b60405180910390fd5b6000601060006101000a81548160ff021916908315150217905550565b600b5481565b600080600383815481106113b1577f4e487b7100000000000000000000000000000000000000000000000000000000600052603260045260246000fd5b9060005260206000200160009054906101000a900473ffffffffffffffffffffffffffffffffffffffff169050600073ffffffffffffffffffffffffffffffffffffffff168173ffffffffffffffffffffffffffffffffffffffff16141561144e576040517f08c379a0000000000000000000000000000000000000000000000000000000008152600401611445906146d4565b60405180910390fd5b80915050919050565b61145f612587565b73ffffffffffffffffffffffffffffffffffffffff1661147d611850565b73ffffffffffffffffffffffffffffffffffffffff16146114d3576040517f08c379a00000000000000000000000000000000000000000000000000000000081526004016114ca90614774565b60405180910390fd5b80600a8190555050565b60136020528060005260406000206000915090505481565b60008073ffffffffffffffffffffffffffffffffffffffff168273ffffffffffffffffffffffffffffffffffffffff161415611566576040517f08c379a000000000000000000000000000000000000000000000000000000000815260040161155d906146b4565b60405180910390fd5b600080600380549050905060005b8181101561163257600381815481106115b6577f4e487b7100000000000000000000000000000000000000000000000000000000600052603260045260246000fd5b9060005260206000200160009054906101000a900473ffffffffffffffffffffffffffffffffffffffff1673ffffffffffffffffffffffffffffffffffffffff168573ffffffffffffffffffffffffffffffffffffffff161415611621578261161e90614c0e565b92505b8061162b90614c0e565b9050611574565b50600090508192505050919050565b611649612587565b73ffffffffffffffffffffffffffffffffffffffff16611667611850565b73ffffffffffffffffffffffffffffffffffffffff16146116bd576040517f08c379a00000000000000000000000000000000000000000000000000000000081526004016116b490614774565b60405180910390fd5b6116c760006129fd565b565b60126020528060005260406000206000915090505481565b6116e9612587565b73ffffffffffffffffffffffffffffffffffffffff16611707611850565b73ffffffffffffffffffffffffffffffffffffffff161461175d576040517f08c379a000000000000000000000000000000000000000000000000000000000815260040161175490614774565b60405180910390fd5b3373ffffffffffffffffffffffffffffffffffffffff166108fc479081150290604051600060405180830381858888f1935050505061179b57600080fd5b565b6000806118036117fd7f159b8fd053f2ba91664d2db8a48c1216e475560cbaf9c4dc06e5f32265b785236117cf612587565b876040516020016117e2939291906143e3565b60405160208183030381529060405280519060200120612ac1565b84612adb565b90508073ffffffffffffffffffffffffffffffffffffffff16611824611850565b73ffffffffffffffffffffffffffffffffffffffff161491505092915050565b60085481565b600a5481565b60008060009054906101000a900473ffffffffffffffffffffffffffffffffffffffff16905090565b60606002805461188890614bab565b80601f01602080910402602001604051908101604052809291908181526020018280546118b490614bab565b80156119015780601f106118d657610100808354040283529160200191611901565b820191906000526020600020905b8154815290600101906020018083116118e457829003601f168201915b5050505050905090565b611913612587565b73ffffffffffffffffffffffffffffffffffffffff168273ffffffffffffffffffffffffffffffffffffffff161415611981576040517f08c379a0000000000000000000000000000000000000000000000000000000008152600401611978906145f4565b60405180910390fd5b806005600061198e612587565b73ffffffffffffffffffffffffffffffffffffffff1673ffffffffffffffffffffffffffffffffffffffff16815260200190815260200160002060008473ffffffffffffffffffffffffffffffffffffffff1673ffffffffffffffffffffffffffffffffffffffff16815260200190815260200160002060006101000a81548160ff0219169083151502179055508173ffffffffffffffffffffffffffffffffffffffff16611a3b612587565b73ffffffffffffffffffffffffffffffffffffffff167f17307eab39ab6107e8899845ad3d59bd9653f200f220920489ca2b5937696c3183604051611a8091906143c8565b60405180910390a35050565b601060019054906101000a900460ff1681565b611aa7612587565b73ffffffffffffffffffffffffffffffffffffffff16611ac5611850565b73ffffffffffffffffffffffffffffffffffffffff1614611b1b576040517f08c379a0000000000000000000000000000000000000000000000000000000008152600401611b1290614774565b60405180910390fd5b6001601060006101000a81548160ff021916908315150217905550565b60011515601060009054906101000a900460ff16151514611b8e576040517f08c379a0000000000000000000000000000000000000000000000000000000008152600401611b8590614514565b60405180910390fd5b600081118015611b9f575060328111155b611bde576040517f08c379a0000000000000000000000000000000000000000000000000000000008152600401611bd5906144f4565b60405180910390fd5b600854611bf682600f546129b390919063ffffffff16565b1115611c37576040517f08c379a0000000000000000000000000000000000000000000000000000000008152600401611c2e906148b4565b60405180910390fd5b611c4c81600a546129c990919063ffffffff16565b341015611c8e576040517f08c379a0000000000000000000000000000000000000000000000000000000008152600401611c8590614814565b60405180910390fd5b60005b81811015611ced576000611cb16001600f546129b390919063ffffffff16565b9050611cbd33826129df565b611cd36001600f546129b390919063ffffffff16565b600f81905550508080611ce590614c0e565b915050611c91565b50611d0381600c546129b390919063ffffffff16565b600c819055507f9670c8b300c38cd3db8d3f9429dd902e67f418c4dd193e2497f06d20efc795603382600f54604051611d3e93929190614391565b60405180910390a150565b611d5a611d54612587565b836126f6565b611d99576040517f08c379a0000000000000000000000000000000000000000000000000000000008152600401611d9090614854565b60405180910390fd5b611da584848484612b02565b50505050565b600e5481565b600c5481565b6060611dc28261258f565b611e01576040517f08c379a0000000000000000000000000000000000000000000000000000000008152600401611df8906146f4565b60405180910390fd5b6011611e0c83612b5e565b604051602001611e1d9291906142cf565b6040516020818303038152906040529050919050565b611e3b612587565b73ffffffffffffffffffffffffffffffffffffffff16611e59611850565b73ffffffffffffffffffffffffffffffffffffffff1614611eaf576040517f08c379a0000000000000000000000000000000000000000000000000000000008152600401611ea690614774565b60405180910390fd5b600854611ec782600f546129b390919063ffffffff16565b1115611f08576040517f08c379a0000000000000000000000000000000000000000000000000000000008152600401611eff90614834565b60405180910390fd5b60005b81811015611f67576000611f2b6001600f546129b390919063ffffffff16565b9050611f3784826129df565b611f4d6001600f546129b390919063ffffffff16565b600f81905550508080611f5f90614c0e565b915050611f0b565b50611f7d81600e546129b390919063ffffffff16565b600e819055507f9670c8b300c38cd3db8d3f9429dd902e67f418c4dd193e2497f06d20efc795608282600f54604051611fb893929190614391565b60405180910390a15050565b611fcc612587565b73ffffffffffffffffffffffffffffffffffffffff16611fea611850565b73ffffffffffffffffffffffffffffffffffffffff1614612040576040517f08c379a000000000000000000000000000000000000000000000000000000000815260040161203790614774565b60405180910390fd5b8060098190555050565b6000600560008473ffffffffffffffffffffffffffffffffffffffff1673ffffffffffffffffffffffffffffffffffffffff16815260200190815260200160002060008373ffffffffffffffffffffffffffffffffffffffff1673ffffffffffffffffffffffffffffffffffffffff16815260200190815260200160002060009054906101000a900460ff16905092915050565b6000600760009054906101000a900473ffffffffffffffffffffffffffffffffffffffff1673ffffffffffffffffffffffffffffffffffffffff16638462151c336040518263ffffffff1660e01b815260040161213b919061432a565b60006040518083038186803b15801561215357600080fd5b505afa158015612167573d6000803e3d6000fd5b505050506040513d6000823e3d601f19601f820116820180604052508101906121909190613b0c565b905060011515601060019054906101000a900460ff161515146121e8576040517f08c379a00000000000000000000000000000000000000000000000000000000081526004016121df906145b4565b60405180910390fd5b6121f2838361179d565b612231576040517f08c379a0000000000000000000000000000000000000000000000000000000008152600401612228906147d4565b60405180910390fd5b6000841180156122935750805161229085601260003373ffffffffffffffffffffffffffffffffffffffff1673ffffffffffffffffffffffffffffffffffffffff168152602001908152602001600020546129b390919063ffffffff16565b11155b6122d2576040517f08c379a00000000000000000000000000000000000000000000000000000000081526004016122c9906147b4565b60405180910390fd5b60005b848110156123315760006122f56001600f546129b390919063ffffffff16565b905061230133826129df565b6123176001600f546129b390919063ffffffff16565b600f8190555050808061232990614c0e565b9150506122d5565b5061234784600d546129b390919063ffffffff16565b600d8190555061239f84601260003373ffffffffffffffffffffffffffffffffffffffff1673ffffffffffffffffffffffffffffffffffffffff168152602001908152602001600020546129b390919063ffffffff16565b601260003373ffffffffffffffffffffffffffffffffffffffff1673ffffffffffffffffffffffffffffffffffffffff168152602001908152602001600020819055507f9670c8b300c38cd3db8d3f9429dd902e67f418c4dd193e2497f06d20efc795603385600f5460405161241793929190614391565b60405180910390a150505050565b61242d612587565b73ffffffffffffffffffffffffffffffffffffffff1661244b611850565b73ffffffffffffffffffffffffffffffffffffffff16146124a1576040517f08c379a000000000000000000000000000000000000000000000000000000000815260040161249890614774565b60405180910390fd5b600073ffffffffffffffffffffffffffffffffffffffff168173ffffffffffffffffffffffffffffffffffffffff161415612511576040517f08c379a000000000000000000000000000000000000000000000000000000000815260040161250890614574565b60405180910390fd5b61251a816129fd565b50565b60007f01ffc9a7000000000000000000000000000000000000000000000000000000007bffffffffffffffffffffffffffffffffffffffffffffffffffffffff1916827bffffffffffffffffffffffffffffffffffffffffffffffffffffffff1916149050919050565b600033905090565b6000600380549050821080156126365750600073ffffffffffffffffffffffffffffffffffffffff16600383815481106125f2577f4e487b7100000000000000000000000000000000000000000000000000000000600052603260045260246000fd5b9060005260206000200160009054906101000a900473ffffffffffffffffffffffffffffffffffffffff1673ffffffffffffffffffffffffffffffffffffffff1614155b9050919050565b816004600083815260200190815260200160002060006101000a81548173ffffffffffffffffffffffffffffffffffffffff021916908373ffffffffffffffffffffffffffffffffffffffff160217905550808273ffffffffffffffffffffffffffffffffffffffff166126b083611374565b73ffffffffffffffffffffffffffffffffffffffff167f8c5be1e5ebec7d5bd14f71427d1e84f3dd0314c0f7b2291e5b200ac8c7c3b92560405160405180910390a45050565b60006127018261258f565b612740576040517f08c379a000000000000000000000000000000000000000000000000000000000815260040161273790614654565b60405180910390fd5b600061274b83611374565b90508073ffffffffffffffffffffffffffffffffffffffff168473ffffffffffffffffffffffffffffffffffffffff1614806127ba57508373ffffffffffffffffffffffffffffffffffffffff166127a284610d52565b73ffffffffffffffffffffffffffffffffffffffff16145b806127cb57506127ca818561204a565b5b91505092915050565b8273ffffffffffffffffffffffffffffffffffffffff166127f482611374565b73ffffffffffffffffffffffffffffffffffffffff161461284a576040517f08c379a000000000000000000000000000000000000000000000000000000000815260040161284190614794565b60405180910390fd5b600073ffffffffffffffffffffffffffffffffffffffff168273ffffffffffffffffffffffffffffffffffffffff1614156128ba576040517f08c379a00000000000000000000000000000000000000000000000000000000081526004016128b1906145d4565b60405180910390fd5b6128c5838383612d0b565b6128d060008261263d565b816003828154811061290b577f4e487b7100000000000000000000000000000000000000000000000000000000600052603260045260246000fd5b9060005260206000200160006101000a81548173ffffffffffffffffffffffffffffffffffffffff021916908373ffffffffffffffffffffffffffffffffffffffff160217905550808273ffffffffffffffffffffffffffffffffffffffff168473ffffffffffffffffffffffffffffffffffffffff167fddf252ad1be2c89b69c2b068fc378daa952ba7f163c4a11628f55a4df523b3ef60405160405180910390a4505050565b600081836129c191906149c9565b905092915050565b600081836129d79190614a50565b905092915050565b6129f9828260405180602001604052806000815250612d10565b5050565b60008060009054906101000a900473ffffffffffffffffffffffffffffffffffffffff169050816000806101000a81548173ffffffffffffffffffffffffffffffffffffffff021916908373ffffffffffffffffffffffffffffffffffffffff1602179055508173ffffffffffffffffffffffffffffffffffffffff168173ffffffffffffffffffffffffffffffffffffffff167f8be0079c531659141344cd1fd0a4f28419497f9722a3daafe3b4186f6b6457e060405160405180910390a35050565b6000612ad4612ace612d6b565b83612e2e565b9050919050565b6000806000612aea8585612e61565b91509150612af781612ee4565b819250505092915050565b612b0d8484846127d4565b612b1984848484613235565b612b58576040517f08c379a0000000000000000000000000000000000000000000000000000000008152600401612b4f90614554565b60405180910390fd5b50505050565b60606000821415612ba6576040518060400160405280600181526020017f30000000000000000000000000000000000000000000000000000000000000008152509050612d06565b600082905060005b60008214612bd8578080612bc190614c0e565b915050600a82612bd19190614a1f565b9150612bae565b60008167ffffffffffffffff811115612c1a577f4e487b7100000000000000000000000000000000000000000000000000000000600052604160045260246000fd5b6040519080825280601f01601f191660200182016040528015612c4c5781602001600182028036833780820191505090505b5090505b60008514612cff57600182612c659190614aaa565b9150600a85612c749190614c61565b6030612c8091906149c9565b60f81b818381518110612cbc577f4e487b7100000000000000000000000000000000000000000000000000000000600052603260045260246000fd5b60200101907effffffffffffffffffffffffffffffffffffffffffffffffffffffffffffff1916908160001a905350600a85612cf89190614a1f565b9450612c50565b8093505050505b919050565b505050565b612d1a83836133cc565b612d276000848484613235565b612d66576040517f08c379a0000000000000000000000000000000000000000000000000000000008152600401612d5d90614554565b60405180910390fd5b505050565b60007f0000000000000000000000000000000000000000000000000000000000000000461415612dbd577f00000000000000000000000000000000000000000000000000000000000000009050612e2b565b612e287f00000000000000000000000000000000000000000000000000000000000000007f00000000000000000000000000000000000000000000000000000000000000007f0000000000000000000000000000000000000000000000000000000000000000613554565b90505b90565b60008282604051602001612e439291906142f3565b60405160208183030381529060405280519060200120905092915050565b600080604183511415612ea35760008060006020860151925060408601519150606086015160001a9050612e978782858561358e565b94509450505050612edd565b604083511415612ed4576000806020850151915060408501519050612ec986838361369b565b935093505050612edd565b60006002915091505b9250929050565b60006004811115612f1e577f4e487b7100000000000000000000000000000000000000000000000000000000600052602160045260246000fd5b816004811115612f57577f4e487b7100000000000000000000000000000000000000000000000000000000600052602160045260246000fd5b1415612f6257613232565b60016004811115612f9c577f4e487b7100000000000000000000000000000000000000000000000000000000600052602160045260246000fd5b816004811115612fd5577f4e487b7100000000000000000000000000000000000000000000000000000000600052602160045260246000fd5b1415613016576040517f08c379a000000000000000000000000000000000000000000000000000000000815260040161300d906144d4565b60405180910390fd5b60026004811115613050577f4e487b7100000000000000000000000000000000000000000000000000000000600052602160045260246000fd5b816004811115613089577f4e487b7100000000000000000000000000000000000000000000000000000000600052602160045260246000fd5b14156130ca576040517f08c379a00000000000000000000000000000000000000000000000000000000081526004016130c190614534565b60405180910390fd5b60036004811115613104577f4e487b7100000000000000000000000000000000000000000000000000000000600052602160045260246000fd5b81600481111561313d577f4e487b7100000000000000000000000000000000000000000000000000000000600052602160045260246000fd5b141561317e576040517f08c379a000000000000000000000000000000000000000000000000000000000815260040161317590614634565b60405180910390fd5b6004808111156131b7577f4e487b7100000000000000000000000000000000000000000000000000000000600052602160045260246000fd5b8160048111156131f0577f4e487b7100000000000000000000000000000000000000000000000000000000600052602160045260246000fd5b1415613231576040517f08c379a000000000000000000000000000000000000000000000000000000000815260040161322890614714565b60405180910390fd5b5b50565b60006132568473ffffffffffffffffffffffffffffffffffffffff166136e9565b156133bf578373ffffffffffffffffffffffffffffffffffffffff1663150b7a0261327f612587565b8786866040518563ffffffff1660e01b81526004016132a19493929190614345565b602060405180830381600087803b1580156132bb57600080fd5b505af19250505080156132ec57506040513d601f19601f820116820180604052508101906132e99190613b76565b60015b61336f573d806000811461331c576040519150601f19603f3d011682016040523d82523d6000602084013e613321565b606091505b50600081511415613367576040517f08c379a000000000000000000000000000000000000000000000000000000000815260040161335e90614554565b60405180910390fd5b805181602001fd5b63150b7a0260e01b7bffffffffffffffffffffffffffffffffffffffffffffffffffffffff1916817bffffffffffffffffffffffffffffffffffffffffffffffffffffffff1916149150506133c4565b600190505b949350505050565b600073ffffffffffffffffffffffffffffffffffffffff168273ffffffffffffffffffffffffffffffffffffffff16141561343c576040517f08c379a000000000000000000000000000000000000000000000000000000000815260040161343390614734565b60405180910390fd5b6134458161258f565b15613485576040517f08c379a000000000000000000000000000000000000000000000000000000000815260040161347c90614594565b60405180910390fd5b61349160008383612d0b565b6003829080600181540180825580915050600190039060005260206000200160009091909190916101000a81548173ffffffffffffffffffffffffffffffffffffffff021916908373ffffffffffffffffffffffffffffffffffffffff160217905550808273ffffffffffffffffffffffffffffffffffffffff16600073ffffffffffffffffffffffffffffffffffffffff167fddf252ad1be2c89b69c2b068fc378daa952ba7f163c4a11628f55a4df523b3ef60405160405180910390a45050565b6000838383463060405160200161356f95949392919061441a565b6040516020818303038152906040528051906020012090509392505050565b6000807f7fffffffffffffffffffffffffffffff5d576e7357a4501ddfe92f46681b20a08360001c11156135c9576000600391509150613692565b601b8560ff16141580156135e15750601c8560ff1614155b156135f3576000600491509150613692565b600060018787878760405160008152602001604052604051613618949392919061446d565b6020604051602081039080840390855afa15801561363a573d6000803e3d6000fd5b505050602060405103519050600073ffffffffffffffffffffffffffffffffffffffff168173ffffffffffffffffffffffffffffffffffffffff16141561368957600060019250925050613692565b80600092509250505b94509492505050565b6000806000807f7fffffffffffffffffffffffffffffffffffffffffffffffffffffffffffffff85169150601b8560ff1c0190506136db8782888561358e565b935093505050935093915050565b600080823b905060008111915050919050565b82805461370890614bab565b90600052602060002090601f01602090048101928261372a5760008555613771565b82601f1061374357803560ff1916838001178555613771565b82800160010185558215613771579182015b82811115613770578235825591602001919060010190613755565b5b50905061377e9190613782565b5090565b5b8082111561379b576000816000905550600101613783565b5090565b60006137b26137ad84614914565b6148ef565b905080838252602082019050828560208602820111156137d157600080fd5b60005b8581101561380157816137e78882613950565b8452602084019350602083019250506001810190506137d4565b5050509392505050565b600061381e61381984614940565b6148ef565b90508281526020810184848401111561383657600080fd5b613841848285614b69565b509392505050565b60008135905061385881615508565b92915050565b600082601f83011261386f57600080fd5b815161387f84826020860161379f565b91505092915050565b6000813590506138978161551f565b92915050565b6000813590506138ac81615536565b92915050565b6000815190506138c181615536565b92915050565b600082601f8301126138d857600080fd5b81356138e884826020860161380b565b91505092915050565b60008083601f84011261390357600080fd5b8235905067ffffffffffffffff81111561391c57600080fd5b60208301915083600182028301111561393457600080fd5b9250929050565b60008135905061394a8161554d565b92915050565b60008151905061395f8161554d565b92915050565b60006020828403121561397757600080fd5b600061398584828501613849565b91505092915050565b600080604083850312156139a157600080fd5b60006139af85828601613849565b92505060206139c085828601613849565b9150509250929050565b6000806000606084860312156139df57600080fd5b60006139ed86828701613849565b93505060206139fe86828701613849565b9250506040613a0f8682870161393b565b9150509250925092565b60008060008060808587031215613a2f57600080fd5b6000613a3d87828801613849565b9450506020613a4e87828801613849565b9350506040613a5f8782880161393b565b925050606085013567ffffffffffffffff811115613a7c57600080fd5b613a88878288016138c7565b91505092959194509250565b60008060408385031215613aa757600080fd5b6000613ab585828601613849565b9250506020613ac685828601613888565b9150509250929050565b60008060408385031215613ae357600080fd5b6000613af185828601613849565b9250506020613b028582860161393b565b9150509250929050565b600060208284031215613b1e57600080fd5b600082015167ffffffffffffffff811115613b3857600080fd5b613b448482850161385e565b91505092915050565b600060208284031215613b5f57600080fd5b6000613b6d8482850161389d565b91505092915050565b600060208284031215613b8857600080fd5b6000613b96848285016138b2565b91505092915050565b60008060208385031215613bb257600080fd5b600083013567ffffffffffffffff811115613bcc57600080fd5b613bd8858286016138f1565b92509250509250929050565b600060208284031215613bf657600080fd5b6000613c048482850161393b565b91505092915050565b60008060408385031215613c2057600080fd5b6000613c2e8582860161393b565b925050602083013567ffffffffffffffff811115613c4b57600080fd5b613c57858286016138c7565b9150509250929050565b600080600060608486031215613c7657600080fd5b6000613c848682870161393b565b9350506020613c958682870161393b565b925050604084013567ffffffffffffffff811115613cb257600080fd5b613cbe868287016138c7565b9150509250925092565b613cd181614ade565b82525050565b613ce081614af0565b82525050565b613cef81614afc565b82525050565b613d06613d0182614afc565b614c57565b82525050565b6000613d1782614986565b613d21818561499c565b9350613d31818560208601614b78565b613d3a81614d4e565b840191505092915050565b6000613d5082614991565b613d5a81856149ad565b9350613d6a818560208601614b78565b613d7381614d4e565b840191505092915050565b6000613d8982614991565b613d9381856149be565b9350613da3818560208601614b78565b80840191505092915050565b60008154613dbc81614bab565b613dc681866149be565b94506001821660008114613de15760018114613df257613e25565b60ff19831686528186019350613e25565b613dfb85614971565b60005b83811015613e1d57815481890152600182019150602081019050613dfe565b838801955050505b50505092915050565b6000613e3b6018836149ad565b9150613e4682614d5f565b602082019050919050565b6000613e5e602c836149ad565b9150613e6982614d88565b604082019050919050565b6000613e816014836149ad565b9150613e8c82614dd7565b602082019050919050565b6000613ea4601f836149ad565b9150613eaf82614e00565b602082019050919050565b6000613ec76032836149ad565b9150613ed282614e29565b604082019050919050565b6000613eea6026836149ad565b9150613ef582614e78565b604082019050919050565b6000613f0d601c836149ad565b9150613f1882614ec7565b602082019050919050565b6000613f306002836149be565b9150613f3b82614ef0565b600282019050919050565b6000613f536016836149ad565b9150613f5e82614f19565b602082019050919050565b6000613f766024836149ad565b9150613f8182614f42565b604082019050919050565b6000613f996019836149ad565b9150613fa482614f91565b602082019050919050565b6000613fbc6017836149ad565b9150613fc782614fba565b602082019050919050565b6000613fdf6022836149ad565b9150613fea82614fe3565b604082019050919050565b6000614002602c836149ad565b915061400d82615032565b604082019050919050565b60006140256018836149ad565b915061403082615081565b602082019050919050565b60006140486038836149ad565b9150614053826150aa565b604082019050919050565b600061406b602a836149ad565b9150614076826150f9565b604082019050919050565b600061408e6029836149ad565b915061409982615148565b604082019050919050565b60006140b16010836149ad565b91506140bc82615197565b602082019050919050565b60006140d46022836149ad565b91506140df826151c0565b604082019050919050565b60006140f76020836149ad565b91506141028261520f565b602082019050919050565b600061411a602c836149ad565b915061412582615238565b604082019050919050565b600061413d6020836149ad565b915061414882615287565b602082019050919050565b60006141606029836149ad565b915061416b826152b0565b604082019050919050565b60006141836027836149ad565b915061418e826152ff565b604082019050919050565b60006141a66017836149ad565b91506141b18261534e565b602082019050919050565b60006141c96021836149ad565b91506141d482615377565b604082019050919050565b60006141ec6024836149ad565b91506141f7826153c6565b604082019050919050565b600061420f6014836149ad565b915061421a82615415565b602082019050919050565b60006142326031836149ad565b915061423d8261543e565b604082019050919050565b60006142556019836149ad565b91506142608261548d565b602082019050919050565b6000614278601b836149ad565b9150614283826154b6565b602082019050919050565b600061429b6009836149ad565b91506142a6826154df565b602082019050919050565b6142ba81614b52565b82525050565b6142c981614b5c565b82525050565b60006142db8285613daf565b91506142e78284613d7e565b91508190509392505050565b60006142fe82613f23565b915061430a8285613cf5565b60208201915061431a8284613cf5565b6020820191508190509392505050565b600060208201905061433f6000830184613cc8565b92915050565b600060808201905061435a6000830187613cc8565b6143676020830186613cc8565b61437460408301856142b1565b81810360608301526143868184613d0c565b905095945050505050565b60006060820190506143a66000830186613cc8565b6143b360208301856142b1565b6143c060408301846142b1565b949350505050565b60006020820190506143dd6000830184613cd7565b92915050565b60006060820190506143f86000830186613ce6565b6144056020830185613cc8565b61441260408301846142b1565b949350505050565b600060a08201905061442f6000830188613ce6565b61443c6020830187613ce6565b6144496040830186613ce6565b61445660608301856142b1565b6144636080830184613cc8565b9695505050505050565b60006080820190506144826000830187613ce6565b61448f60208301866142c0565b61449c6040830185613ce6565b6144a96060830184613ce6565b95945050505050565b600060208201905081810360008301526144cc8184613d45565b905092915050565b600060208201905081810360008301526144ed81613e2e565b9050919050565b6000602082019050818103600083015261450d81613e51565b9050919050565b6000602082019050818103600083015261452d81613e74565b9050919050565b6000602082019050818103600083015261454d81613e97565b9050919050565b6000602082019050818103600083015261456d81613eba565b9050919050565b6000602082019050818103600083015261458d81613edd565b9050919050565b600060208201905081810360008301526145ad81613f00565b9050919050565b600060208201905081810360008301526145cd81613f46565b9050919050565b600060208201905081810360008301526145ed81613f69565b9050919050565b6000602082019050818103600083015261460d81613f8c565b9050919050565b6000602082019050818103600083015261462d81613faf565b9050919050565b6000602082019050818103600083015261464d81613fd2565b9050919050565b6000602082019050818103600083015261466d81613ff5565b9050919050565b6000602082019050818103600083015261468d81614018565b9050919050565b600060208201905081810360008301526146ad8161403b565b9050919050565b600060208201905081810360008301526146cd8161405e565b9050919050565b600060208201905081810360008301526146ed81614081565b9050919050565b6000602082019050818103600083015261470d816140a4565b9050919050565b6000602082019050818103600083015261472d816140c7565b9050919050565b6000602082019050818103600083015261474d816140ea565b9050919050565b6000602082019050818103600083015261476d8161410d565b9050919050565b6000602082019050818103600083015261478d81614130565b9050919050565b600060208201905081810360008301526147ad81614153565b9050919050565b600060208201905081810360008301526147cd81614176565b9050919050565b600060208201905081810360008301526147ed81614199565b9050919050565b6000602082019050818103600083015261480d816141bc565b9050919050565b6000602082019050818103600083015261482d816141df565b9050919050565b6000602082019050818103600083015261484d81614202565b9050919050565b6000602082019050818103600083015261486d81614225565b9050919050565b6000602082019050818103600083015261488d81614248565b9050919050565b600060208201905081810360008301526148ad8161426b565b9050919050565b600060208201905081810360008301526148cd8161428e565b9050919050565b60006020820190506148e960008301846142b1565b92915050565b60006148f961490a565b90506149058282614bdd565b919050565b6000604051905090565b600067ffffffffffffffff82111561492f5761492e614d1f565b5b602082029050602081019050919050565b600067ffffffffffffffff82111561495b5761495a614d1f565b5b61496482614d4e565b9050602081019050919050565b60008190508160005260206000209050919050565b600081519050919050565b600081519050919050565b600082825260208201905092915050565b600082825260208201905092915050565b600081905092915050565b60006149d482614b52565b91506149df83614b52565b9250827fffffffffffffffffffffffffffffffffffffffffffffffffffffffffffffffff03821115614a1457614a13614c92565b5b828201905092915050565b6000614a2a82614b52565b9150614a3583614b52565b925082614a4557614a44614cc1565b5b828204905092915050565b6000614a5b82614b52565b9150614a6683614b52565b9250817fffffffffffffffffffffffffffffffffffffffffffffffffffffffffffffffff0483118215151615614a9f57614a9e614c92565b5b828202905092915050565b6000614ab582614b52565b9150614ac083614b52565b925082821015614ad357614ad2614c92565b5b828203905092915050565b6000614ae982614b32565b9050919050565b60008115159050919050565b6000819050919050565b60007fffffffff0000000000000000000000000000000000000000000000000000000082169050919050565b600073ffffffffffffffffffffffffffffffffffffffff82169050919050565b6000819050919050565b600060ff82169050919050565b82818337600083830152505050565b60005b83811015614b96578082015181840152602081019050614b7b565b83811115614ba5576000848401525b50505050565b60006002820490506001821680614bc357607f821691505b60208210811415614bd757614bd6614cf0565b5b50919050565b614be682614d4e565b810181811067ffffffffffffffff82111715614c0557614c04614d1f565b5b80604052505050565b6000614c1982614b52565b91507fffffffffffffffffffffffffffffffffffffffffffffffffffffffffffffffff821415614c4c57614c4b614c92565b5b600182019050919050565b6000819050919050565b6000614c6c82614b52565b9150614c7783614b52565b925082614c8757614c86614cc1565b5b828206905092915050565b7f4e487b7100000000000000000000000000000000000000000000000000000000600052601160045260246000fd5b7f4e487b7100000000000000000000000000000000000000000000000000000000600052601260045260246000fd5b7f4e487b7100000000000000000000000000000000000000000000000000000000600052602260045260246000fd5b7f4e487b7100000000000000000000000000000000000000000000000000000000600052604160045260246000fd5b6000601f19601f8301169050919050565b7f45434453413a20696e76616c6964207369676e61747572650000000000000000600082015250565b7f596f752063616e206d696e74206d696e696d756d20312c206d6178696d756d2060008201527f35302073616d75726169732e0000000000000000000000000000000000000000602082015250565b7f53616c65206861736e277420737461727465642e000000000000000000000000600082015250565b7f45434453413a20696e76616c6964207369676e6174757265206c656e67746800600082015250565b7f4552433732313a207472616e7366657220746f206e6f6e20455243373231526560008201527f63656976657220696d706c656d656e7465720000000000000000000000000000602082015250565b7f4f776e61626c653a206e6577206f776e657220697320746865207a65726f206160008201527f6464726573730000000000000000000000000000000000000000000000000000602082015250565b7f4552433732313a20746f6b656e20616c7265616479206d696e74656400000000600082015250565b7f1901000000000000000000000000000000000000000000000000000000000000600082015250565b7f436c61696d65206861736e277420737461727465642e00000000000000000000600082015250565b7f4552433732313a207472616e7366657220746f20746865207a65726f2061646460008201527f7265737300000000000000000000000000000000000000000000000000000000602082015250565b7f4552433732313a20617070726f766520746f2063616c6c657200000000000000600082015250565b7f50726573616c65206861736e277420737461727465642e000000000000000000600082015250565b7f45434453413a20696e76616c6964207369676e6174757265202773272076616c60008201527f7565000000000000000000000000000000000000000000000000000000000000602082015250565b7f4552433732313a206f70657261746f7220717565727920666f72206e6f6e657860008201527f697374656e7420746f6b656e0000000000000000000000000000000000000000602082015250565b7f4578636565647320746865204d41585f53414d555241492e0000000000000000600082015250565b7f4552433732313a20617070726f76652063616c6c6572206973206e6f74206f7760008201527f6e6572206e6f7220617070726f76656420666f7220616c6c0000000000000000602082015250565b7f4552433732313a2062616c616e636520717565727920666f7220746865207a6560008201527f726f206164647265737300000000000000000000000000000000000000000000602082015250565b7f4552433732313a206f776e657220717565727920666f72206e6f6e657869737460008201527f656e7420746f6b656e0000000000000000000000000000000000000000000000602082015250565b7f544f4b454e5f4e4f545f45584953545300000000000000000000000000000000600082015250565b7f45434453413a20696e76616c6964207369676e6174757265202776272076616c60008201527f7565000000000000000000000000000000000000000000000000000000000000602082015250565b7f4552433732313a206d696e7420746f20746865207a65726f2061646472657373600082015250565b7f4552433732313a20617070726f76656420717565727920666f72206e6f6e657860008201527f697374656e7420746f6b656e0000000000000000000000000000000000000000602082015250565b7f4f776e61626c653a2063616c6c6572206973206e6f7420746865206f776e6572600082015250565b7f4552433732313a207472616e73666572206f6620746f6b656e2074686174206960008201527f73206e6f74206f776e0000000000000000000000000000000000000000000000602082015250565b7f45786365656420746865207175616e7469747920746861742063616e2062652060008201527f636c61696d656400000000000000000000000000000000000000000000000000602082015250565b7f4e6f7420656c696769626c6520666f7220636c61696d2e000000000000000000600082015250565b7f4552433732313a20617070726f76616c20746f2063757272656e74206f776e6560008201527f7200000000000000000000000000000000000000000000000000000000000000602082015250565b7f45746865722076616c75652073656e742069732062656c6f772074686520707260008201527f6963652e00000000000000000000000000000000000000000000000000000000602082015250565b7f45786365656473204d41585f53414d555241492e000000000000000000000000600082015250565b7f4552433732313a207472616e736665722063616c6c6572206973206e6f74206f60008201527f776e6572206e6f7220617070726f766564000000000000000000000000000000602082015250565b7f4e6f7420656c696769626c6520666f722070726573616c652e00000000000000600082015250565b7f45786365656473206d61782070726573616c65206e756d6265722e0000000000600082015250565b7f536f6c64206f7574210000000000000000000000000000000000000000000000600082015250565b61551181614ade565b811461551c57600080fd5b50565b61552881614af0565b811461553357600080fd5b50565b61553f81614b06565b811461554a57600080fd5b50565b61555681614b52565b811461556157600080fd5b5056fea2646970667358221220f8847b0d2287aeab3bf3dc04ab4a3929cf68eec916a7c9dd54fe80273c81caab64736f6c63430008040033687474703a2f2f6170692e6b6174616e616e73616d757261692e6172742f4d657461646174612f",
  "devdoc": {
    "kind": "dev",
    "methods": {
      "approve(address,uint256)": {
        "details": "See {IERC721-approve}."
      },
      "balanceOf(address)": {
        "details": "See {IERC721-balanceOf}."
      },
      "getApproved(uint256)": {
        "details": "See {IERC721-getApproved}."
      },
      "isApprovedForAll(address,address)": {
        "details": "See {IERC721-isApprovedForAll}."
      },
      "name()": {
        "details": "See {IERC721Metadata-name}."
      },
      "owner()": {
        "details": "Returns the address of the current owner."
      },
      "ownerOf(uint256)": {
        "details": "See {IERC721-ownerOf}."
      },
      "renounceOwnership()": {
        "details": "Leaves the contract without owner. It will not be possible to call `onlyOwner` functions anymore. Can only be called by the current owner. NOTE: Renouncing ownership will leave the contract without an owner, thereby removing any functionality that is only available to the owner."
      },
      "safeTransferFrom(address,address,uint256)": {
        "details": "See {IERC721-safeTransferFrom}."
      },
      "safeTransferFrom(address,address,uint256,bytes)": {
        "details": "See {IERC721-safeTransferFrom}."
      },
      "setApprovalForAll(address,bool)": {
        "details": "See {IERC721-setApprovalForAll}."
      },
      "supportsInterface(bytes4)": {
        "details": "See {IERC165-supportsInterface}."
      },
      "symbol()": {
        "details": "See {IERC721Metadata-symbol}."
      },
      "tokenURI(uint256)": {
        "details": "Returns the Uniform Resource Identifier (URI) for `tokenId` token."
      },
      "transferFrom(address,address,uint256)": {
        "details": "See {IERC721-transferFrom}."
      },
      "transferOwnership(address)": {
        "details": "Transfers ownership of the contract to a new account (`newOwner`). Can only be called by the current owner."
      }
    },
    "version": 1
  },
  "userdoc": {
    "kind": "user",
    "methods": {},
    "version": 1
  },
  "storageLayout": {
    "storage": [
      {
        "astId": 7,
        "contract": "contracts/KatanaNSamurai2.sol:KatanaNSamurai2",
        "label": "_owner",
        "offset": 0,
        "slot": "0",
        "type": "t_address"
      },
      {
        "astId": 2845,
        "contract": "contracts/KatanaNSamurai2.sol:KatanaNSamurai2",
        "label": "_name",
        "offset": 0,
        "slot": "1",
        "type": "t_string_storage"
      },
      {
        "astId": 2847,
        "contract": "contracts/KatanaNSamurai2.sol:KatanaNSamurai2",
        "label": "_symbol",
        "offset": 0,
        "slot": "2",
        "type": "t_string_storage"
      },
      {
        "astId": 2850,
        "contract": "contracts/KatanaNSamurai2.sol:KatanaNSamurai2",
        "label": "_owners",
        "offset": 0,
        "slot": "3",
        "type": "t_array(t_address)dyn_storage"
      },
      {
        "astId": 2854,
        "contract": "contracts/KatanaNSamurai2.sol:KatanaNSamurai2",
        "label": "_tokenApprovals",
        "offset": 0,
        "slot": "4",
        "type": "t_mapping(t_uint256,t_address)"
      },
      {
        "astId": 2860,
        "contract": "contracts/KatanaNSamurai2.sol:KatanaNSamurai2",
        "label": "_operatorApprovals",
        "offset": 0,
        "slot": "5",
        "type": "t_mapping(t_address,t_mapping(t_address,t_bool))"
      },
      {
        "astId": 3628,
        "contract": "contracts/KatanaNSamurai2.sol:KatanaNSamurai2",
        "label": "KNS1Address",
        "offset": 0,
        "slot": "6",
        "type": "t_address"
      },
      {
        "astId": 3634,
        "contract": "contracts/KatanaNSamurai2.sol:KatanaNSamurai2",
        "label": "KNS1Contract",
        "offset": 0,
        "slot": "7",
        "type": "t_contract(KNS1Interface)3613"
      },
      {
        "astId": 3637,
        "contract": "contracts/KatanaNSamurai2.sol:KatanaNSamurai2",
        "label": "MAX_SAMURAI",
        "offset": 0,
        "slot": "8",
        "type": "t_uint256"
      },
      {
        "astId": 3640,
        "contract": "contracts/KatanaNSamurai2.sol:KatanaNSamurai2",
        "label": "MAX_PRESALE",
        "offset": 0,
        "slot": "9",
        "type": "t_uint256"
      },
      {
        "astId": 3643,
        "contract": "contracts/KatanaNSamurai2.sol:KatanaNSamurai2",
        "label": "PRICE",
        "offset": 0,
        "slot": "10",
        "type": "t_uint256"
      },
      {
        "astId": 3646,
        "contract": "contracts/KatanaNSamurai2.sol:KatanaNSamurai2",
        "label": "numPresale",
        "offset": 0,
        "slot": "11",
        "type": "t_uint256"
      },
      {
        "astId": 3649,
        "contract": "contracts/KatanaNSamurai2.sol:KatanaNSamurai2",
        "label": "numSale",
        "offset": 0,
        "slot": "12",
        "type": "t_uint256"
      },
      {
        "astId": 3652,
        "contract": "contracts/KatanaNSamurai2.sol:KatanaNSamurai2",
        "label": "numClaim",
        "offset": 0,
        "slot": "13",
        "type": "t_uint256"
      },
      {
        "astId": 3655,
        "contract": "contracts/KatanaNSamurai2.sol:KatanaNSamurai2",
        "label": "numGiveaway",
        "offset": 0,
        "slot": "14",
        "type": "t_uint256"
      },
      {
        "astId": 3658,
        "contract": "contracts/KatanaNSamurai2.sol:KatanaNSamurai2",
        "label": "totalSupply",
        "offset": 0,
        "slot": "15",
        "type": "t_uint256"
      },
      {
        "astId": 3661,
        "contract": "contracts/KatanaNSamurai2.sol:KatanaNSamurai2",
        "label": "hasSaleStarted",
        "offset": 0,
        "slot": "16",
        "type": "t_bool"
      },
      {
        "astId": 3664,
        "contract": "contracts/KatanaNSamurai2.sol:KatanaNSamurai2",
        "label": "hasPresaleStarted",
        "offset": 1,
        "slot": "16",
        "type": "t_bool"
      },
      {
        "astId": 3667,
        "contract": "contracts/KatanaNSamurai2.sol:KatanaNSamurai2",
        "label": "hasClaimeStarted",
        "offset": 2,
        "slot": "16",
        "type": "t_bool"
      },
      {
        "astId": 3670,
        "contract": "contracts/KatanaNSamurai2.sol:KatanaNSamurai2",
        "label": "_baseTokenURI",
        "offset": 0,
        "slot": "17",
        "type": "t_string_storage"
      },
      {
        "astId": 3674,
        "contract": "contracts/KatanaNSamurai2.sol:KatanaNSamurai2",
        "label": "hasClaimed",
        "offset": 0,
        "slot": "18",
        "type": "t_mapping(t_address,t_uint256)"
      },
      {
        "astId": 3678,
        "contract": "contracts/KatanaNSamurai2.sol:KatanaNSamurai2",
        "label": "hasPresale",
        "offset": 0,
        "slot": "19",
        "type": "t_mapping(t_address,t_uint256)"
      }
    ],
    "types": {
      "t_address": {
        "encoding": "inplace",
        "label": "address",
        "numberOfBytes": "20"
      },
      "t_array(t_address)dyn_storage": {
        "base": "t_address",
        "encoding": "dynamic_array",
        "label": "address[]",
        "numberOfBytes": "32"
      },
      "t_bool": {
        "encoding": "inplace",
        "label": "bool",
        "numberOfBytes": "1"
      },
      "t_contract(KNS1Interface)3613": {
        "encoding": "inplace",
        "label": "contract KNS1Interface",
        "numberOfBytes": "20"
      },
      "t_mapping(t_address,t_bool)": {
        "encoding": "mapping",
        "key": "t_address",
        "label": "mapping(address => bool)",
        "numberOfBytes": "32",
        "value": "t_bool"
      },
      "t_mapping(t_address,t_mapping(t_address,t_bool))": {
        "encoding": "mapping",
        "key": "t_address",
        "label": "mapping(address => mapping(address => bool))",
        "numberOfBytes": "32",
        "value": "t_mapping(t_address,t_bool)"
      },
      "t_mapping(t_address,t_uint256)": {
        "encoding": "mapping",
        "key": "t_address",
        "label": "mapping(address => uint256)",
        "numberOfBytes": "32",
        "value": "t_uint256"
      },
      "t_mapping(t_uint256,t_address)": {
        "encoding": "mapping",
        "key": "t_uint256",
        "label": "mapping(uint256 => address)",
        "numberOfBytes": "32",
        "value": "t_address"
      },
      "t_string_storage": {
        "encoding": "bytes",
        "label": "string",
        "numberOfBytes": "32"
      },
      "t_uint256": {
        "encoding": "inplace",
        "label": "uint256",
        "numberOfBytes": "32"
      }
    }
  }
}