{
  "address": "0xf84D479C8430656C806153D9f9Da468eb7Ce00B1",
  "abi": [
    {
      "inputs": [],
      "stateMutability": "nonpayable",
      "type": "constructor"
    },
    {
      "anonymous": false,
      "inputs": [
        {
          "indexed": true,
          "internalType": "address",
          "name": "owner",
          "type": "address"
        },
        {
          "indexed": true,
          "internalType": "address",
          "name": "approved",
          "type": "address"
        },
        {
          "indexed": true,
          "internalType": "uint256",
          "name": "tokenId",
          "type": "uint256"
        }
      ],
      "name": "Approval",
      "type": "event"
    },
    {
      "anonymous": false,
      "inputs": [
        {
          "indexed": true,
          "internalType": "address",
          "name": "owner",
          "type": "address"
        },
        {
          "indexed": true,
          "internalType": "address",
          "name": "operator",
          "type": "address"
        },
        {
          "indexed": false,
          "internalType": "bool",
          "name": "approved",
          "type": "bool"
        }
      ],
      "name": "ApprovalForAll",
      "type": "event"
    },
    {
      "anonymous": false,
      "inputs": [
        {
          "indexed": true,
          "internalType": "address",
          "name": "previousOwner",
          "type": "address"
        },
        {
          "indexed": true,
          "internalType": "address",
          "name": "newOwner",
          "type": "address"
        }
      ],
      "name": "OwnershipTransferred",
      "type": "event"
    },
    {
      "anonymous": false,
      "inputs": [
        {
          "indexed": true,
          "internalType": "address",
          "name": "from",
          "type": "address"
        },
        {
          "indexed": true,
          "internalType": "address",
          "name": "to",
          "type": "address"
        },
        {
          "indexed": true,
          "internalType": "uint256",
          "name": "tokenId",
          "type": "uint256"
        }
      ],
      "name": "Transfer",
      "type": "event"
    },
    {
      "anonymous": false,
      "inputs": [
        {
          "indexed": false,
          "internalType": "address",
          "name": "owner",
          "type": "address"
        },
        {
          "indexed": false,
          "internalType": "uint256",
          "name": "quantity",
          "type": "uint256"
        },
        {
          "indexed": false,
          "internalType": "uint256",
          "name": "totalSupply",
          "type": "uint256"
        }
      ],
      "name": "mintEvent",
      "type": "event"
    },
    {
      "inputs": [],
      "name": "MAX_SAMURAI",
      "outputs": [
        {
          "internalType": "uint256",
          "name": "",
          "type": "uint256"
        }
      ],
      "stateMutability": "view",
      "type": "function"
    },
    {
      "inputs": [],
      "name": "PRICE",
      "outputs": [
        {
          "internalType": "uint256",
          "name": "",
          "type": "uint256"
        }
      ],
      "stateMutability": "view",
      "type": "function"
    },
    {
      "inputs": [
        {
          "internalType": "address",
          "name": "to",
          "type": "address"
        },
        {
          "internalType": "uint256",
          "name": "tokenId",
          "type": "uint256"
        }
      ],
      "name": "approve",
      "outputs": [],
      "stateMutability": "nonpayable",
      "type": "function"
    },
    {
      "inputs": [
        {
          "internalType": "address",
          "name": "owner",
          "type": "address"
        }
      ],
      "name": "balanceOf",
      "outputs": [
        {
          "internalType": "uint256",
          "name": "",
          "type": "uint256"
        }
      ],
      "stateMutability": "view",
      "type": "function"
    },
    {
      "inputs": [
        {
          "internalType": "uint256",
          "name": "quantity",
          "type": "uint256"
        },
        {
          "internalType": "uint256",
          "name": "maxClaimNum",
          "type": "uint256"
        },
        {
          "internalType": "bytes",
          "name": "SIGNATURE",
          "type": "bytes"
        }
      ],
      "name": "claimSamurai",
      "outputs": [],
      "stateMutability": "nonpayable",
      "type": "function"
    },
    {
      "inputs": [
        {
          "internalType": "uint256",
          "name": "tokenId",
          "type": "uint256"
        }
      ],
      "name": "getApproved",
      "outputs": [
        {
          "internalType": "address",
          "name": "",
          "type": "address"
        }
      ],
      "stateMutability": "view",
      "type": "function"
    },
    {
      "inputs": [
        {
          "internalType": "address",
          "name": "_to",
          "type": "address"
        },
        {
          "internalType": "uint256",
          "name": "quantity",
          "type": "uint256"
        }
      ],
      "name": "giveawayMintSamurai",
      "outputs": [],
      "stateMutability": "nonpayable",
      "type": "function"
    },
    {
      "inputs": [],
      "name": "hasClaimStarted",
      "outputs": [
        {
          "internalType": "bool",
          "name": "",
          "type": "bool"
        }
      ],
      "stateMutability": "view",
      "type": "function"
    },
    {
      "inputs": [
        {
          "internalType": "address",
          "name": "",
          "type": "address"
        }
      ],
      "name": "hasClaimed",
      "outputs": [
        {
          "internalType": "uint256",
          "name": "",
          "type": "uint256"
        }
      ],
      "stateMutability": "view",
      "type": "function"
    },
    {
      "inputs": [
        {
          "internalType": "address",
          "name": "",
          "type": "address"
        }
      ],
      "name": "hasPresale",
      "outputs": [
        {
          "internalType": "uint256",
          "name": "",
          "type": "uint256"
        }
      ],
      "stateMutability": "view",
      "type": "function"
    },
    {
      "inputs": [],
      "name": "hasPresaleStarted",
      "outputs": [
        {
          "internalType": "bool",
          "name": "",
          "type": "bool"
        }
      ],
      "stateMutability": "view",
      "type": "function"
    },
    {
      "inputs": [],
      "name": "hasSaleStarted",
      "outputs": [
        {
          "internalType": "bool",
          "name": "",
          "type": "bool"
        }
      ],
      "stateMutability": "view",
      "type": "function"
    },
    {
      "inputs": [
        {
          "internalType": "address",
          "name": "owner",
          "type": "address"
        },
        {
          "internalType": "address",
          "name": "operator",
          "type": "address"
        }
      ],
      "name": "isApprovedForAll",
      "outputs": [
        {
          "internalType": "bool",
          "name": "",
          "type": "bool"
        }
      ],
      "stateMutability": "view",
      "type": "function"
    },
    {
      "inputs": [
        {
          "internalType": "uint256",
          "name": "quantity",
          "type": "uint256"
        },
        {
          "internalType": "uint256",
          "name": "maxClaimNumOnPresale",
          "type": "uint256"
        },
        {
          "internalType": "bytes",
          "name": "SIGNATURE",
          "type": "bytes"
        }
      ],
      "name": "mintPresaleSamurai",
      "outputs": [],
      "stateMutability": "payable",
      "type": "function"
    },
    {
      "inputs": [
        {
          "internalType": "uint256",
          "name": "numPurchase",
          "type": "uint256"
        }
      ],
      "name": "mintSamurai",
      "outputs": [],
      "stateMutability": "payable",
      "type": "function"
    },
    {
      "inputs": [],
      "name": "name",
      "outputs": [
        {
          "internalType": "string",
          "name": "",
          "type": "string"
        }
      ],
      "stateMutability": "view",
      "type": "function"
    },
    {
      "inputs": [],
      "name": "numClaim",
      "outputs": [
        {
          "internalType": "uint256",
          "name": "",
          "type": "uint256"
        }
      ],
      "stateMutability": "view",
      "type": "function"
    },
    {
      "inputs": [],
      "name": "numGiveaway",
      "outputs": [
        {
          "internalType": "uint256",
          "name": "",
          "type": "uint256"
        }
      ],
      "stateMutability": "view",
      "type": "function"
    },
    {
      "inputs": [],
      "name": "numPresale",
      "outputs": [
        {
          "internalType": "uint256",
          "name": "",
          "type": "uint256"
        }
      ],
      "stateMutability": "view",
      "type": "function"
    },
    {
      "inputs": [],
      "name": "numSale",
      "outputs": [
        {
          "internalType": "uint256",
          "name": "",
          "type": "uint256"
        }
      ],
      "stateMutability": "view",
      "type": "function"
    },
    {
      "inputs": [],
      "name": "owner",
      "outputs": [
        {
          "internalType": "address",
          "name": "",
          "type": "address"
        }
      ],
      "stateMutability": "view",
      "type": "function"
    },
    {
      "inputs": [
        {
          "internalType": "uint256",
          "name": "tokenId",
          "type": "uint256"
        }
      ],
      "name": "ownerOf",
      "outputs": [
        {
          "internalType": "address",
          "name": "",
          "type": "address"
        }
      ],
      "stateMutability": "view",
      "type": "function"
    },
    {
      "inputs": [],
      "name": "pauseClaim",
      "outputs": [],
      "stateMutability": "nonpayable",
      "type": "function"
    },
    {
      "inputs": [],
      "name": "pausePresale",
      "outputs": [],
      "stateMutability": "nonpayable",
      "type": "function"
    },
    {
      "inputs": [],
      "name": "pauseSale",
      "outputs": [],
      "stateMutability": "nonpayable",
      "type": "function"
    },
    {
      "inputs": [],
      "name": "renounceOwnership",
      "outputs": [],
      "stateMutability": "nonpayable",
      "type": "function"
    },
    {
      "inputs": [
        {
          "internalType": "address",
          "name": "from",
          "type": "address"
        },
        {
          "internalType": "address",
          "name": "to",
          "type": "address"
        },
        {
          "internalType": "uint256",
          "name": "tokenId",
          "type": "uint256"
        }
      ],
      "name": "safeTransferFrom",
      "outputs": [],
      "stateMutability": "nonpayable",
      "type": "function"
    },
    {
      "inputs": [
        {
          "internalType": "address",
          "name": "from",
          "type": "address"
        },
        {
          "internalType": "address",
          "name": "to",
          "type": "address"
        },
        {
          "internalType": "uint256",
          "name": "tokenId",
          "type": "uint256"
        },
        {
          "internalType": "bytes",
          "name": "_data",
          "type": "bytes"
        }
      ],
      "name": "safeTransferFrom",
      "outputs": [],
      "stateMutability": "nonpayable",
      "type": "function"
    },
    {
      "inputs": [
        {
          "internalType": "address",
          "name": "operator",
          "type": "address"
        },
        {
          "internalType": "bool",
          "name": "approved",
          "type": "bool"
        }
      ],
      "name": "setApprovalForAll",
      "outputs": [],
      "stateMutability": "nonpayable",
      "type": "function"
    },
    {
      "inputs": [
        {
          "internalType": "uint256",
          "name": "_MAX_num",
          "type": "uint256"
        }
      ],
      "name": "setMAX_SAMURAI",
      "outputs": [],
      "stateMutability": "nonpayable",
      "type": "function"
    },
    {
      "inputs": [
        {
          "internalType": "string",
          "name": "_tokenURI",
          "type": "string"
        }
      ],
      "name": "setURI",
      "outputs": [],
      "stateMutability": "nonpayable",
      "type": "function"
    },
    {
      "inputs": [
        {
          "internalType": "uint256",
          "name": "_price",
          "type": "uint256"
        }
      ],
      "name": "set_PRICE",
      "outputs": [],
      "stateMutability": "nonpayable",
      "type": "function"
    },
    {
      "inputs": [],
      "name": "startClaim",
      "outputs": [],
      "stateMutability": "nonpayable",
      "type": "function"
    },
    {
      "inputs": [],
      "name": "startPresale",
      "outputs": [],
      "stateMutability": "nonpayable",
      "type": "function"
    },
    {
      "inputs": [],
      "name": "startSale",
      "outputs": [],
      "stateMutability": "nonpayable",
      "type": "function"
    },
    {
      "inputs": [
        {
          "internalType": "bytes4",
          "name": "interfaceId",
          "type": "bytes4"
        }
      ],
      "name": "supportsInterface",
      "outputs": [
        {
          "internalType": "bool",
          "name": "",
          "type": "bool"
        }
      ],
      "stateMutability": "view",
      "type": "function"
    },
    {
      "inputs": [],
      "name": "symbol",
      "outputs": [
        {
          "internalType": "string",
          "name": "",
          "type": "string"
        }
      ],
      "stateMutability": "view",
      "type": "function"
    },
    {
      "inputs": [
        {
          "internalType": "uint256",
          "name": "tokenId",
          "type": "uint256"
        }
      ],
      "name": "tokenURI",
      "outputs": [
        {
          "internalType": "string",
          "name": "",
          "type": "string"
        }
      ],
      "stateMutability": "view",
      "type": "function"
    },
    {
      "inputs": [],
      "name": "totalSupply",
      "outputs": [
        {
          "internalType": "uint256",
          "name": "",
          "type": "uint256"
        }
      ],
      "stateMutability": "view",
      "type": "function"
    },
    {
      "inputs": [
        {
          "internalType": "address",
          "name": "from",
          "type": "address"
        },
        {
          "internalType": "address",
          "name": "to",
          "type": "address"
        },
        {
          "internalType": "uint256",
          "name": "tokenId",
          "type": "uint256"
        }
      ],
      "name": "transferFrom",
      "outputs": [],
      "stateMutability": "nonpayable",
      "type": "function"
    },
    {
      "inputs": [
        {
          "internalType": "address",
          "name": "newOwner",
          "type": "address"
        }
      ],
      "name": "transferOwnership",
      "outputs": [],
      "stateMutability": "nonpayable",
      "type": "function"
    },
    {
      "inputs": [
        {
          "internalType": "uint256",
          "name": "maxClaimNum",
          "type": "uint256"
        },
        {
          "internalType": "bytes",
          "name": "SIGNATURE",
          "type": "bytes"
        }
      ],
      "name": "verify",
      "outputs": [
        {
          "internalType": "bool",
          "name": "",
          "type": "bool"
        }
      ],
      "stateMutability": "view",
      "type": "function"
    },
    {
      "inputs": [],
      "name": "withdrawAll",
      "outputs": [],
      "stateMutability": "payable",
      "type": "function"
    }
  ],
  "transactionHash": "0x559251f28ce1ef97f402e7dbc5d45499d1bf682d36664843370a81d22c1cd556",
  "args": [],
  "solcInputHash": "7ef6ad4f3d6c94706982550eb5305d4f",
  "bytecode": "0x610120604052611a0a60065567010a741a46278000600755600060085560006009556000600a556000600b556000600c556000600d60006101000a81548160ff0219169083151502179055506000600d60016101000a81548160ff0219169083151502179055506000600d60026101000a81548160ff0219169083151502179055506040518060600160405280602781526020016200592660279139600e9080519060200190620000b292919062000378565b50348015620000c057600080fd5b506040518060400160405280601281526020017f4b6174616e61204e2053616d75726169203200000000000000000000000000008152506040518060400160405280600681526020017f4b4e53322e3000000000000000000000000000000000000000000000000000008152506040518060400160405280601281526020017f4b6174616e61204e2053616d75726169203200000000000000000000000000008152506040518060400160405280600581526020017f312e302e30000000000000000000000000000000000000000000000000000000815250620001b9620001ad6200027060201b60201c565b6200027860201b60201c565b60008280519060200120905060008280519060200120905060007f8b73c3c69bb8fe3d512ecc4cf759cc79239f7b179b0ffacaa9a75d522b39400f90508260c081815250508160e081815250504660a08181525050620002218184846200033c60201b60201c565b60808181525050806101008181525050505050505081600190805190602001906200024e92919062000378565b5080600290805190602001906200026792919062000378565b50505062000565565b600033905090565b60008060009054906101000a900473ffffffffffffffffffffffffffffffffffffffff169050816000806101000a81548173ffffffffffffffffffffffffffffffffffffffff021916908373ffffffffffffffffffffffffffffffffffffffff1602179055508173ffffffffffffffffffffffffffffffffffffffff168173ffffffffffffffffffffffffffffffffffffffff167f8be0079c531659141344cd1fd0a4f28419497f9722a3daafe3b4186f6b6457e060405160405180910390a35050565b60008383834630604051602001620003599594939291906200045b565b6040516020818303038152906040528051906020012090509392505050565b828054620003869062000500565b90600052602060002090601f016020900481019282620003aa5760008555620003f6565b82601f10620003c557805160ff1916838001178555620003f6565b82800160010185558215620003f6579182015b82811115620003f5578251825591602001919060010190620003d8565b5b50905062000405919062000409565b5090565b5b80821115620004245760008160009055506001016200040a565b5090565b6200043381620004b8565b82525050565b6200044481620004cc565b82525050565b6200045581620004f6565b82525050565b600060a08201905062000472600083018862000439565b62000481602083018762000439565b62000490604083018662000439565b6200049f60608301856200044a565b620004ae608083018462000428565b9695505050505050565b6000620004c582620004d6565b9050919050565b6000819050919050565b600073ffffffffffffffffffffffffffffffffffffffff82169050919050565b6000819050919050565b600060028204905060018216806200051957607f821691505b6020821081141562000530576200052f62000536565b5b50919050565b7f4e487b7100000000000000000000000000000000000000000000000000000000600052602260045260246000fd5b60805160a05160c05160e0516101005161537c620005aa6000396000612d2801526000612d6a01526000612d4901526000612cd501526000612cfd015261537c6000f3fe60806040526004361061025c5760003560e01c8063717bf33611610144578063b66a0e5d116100b6578063c87b56dd1161007a578063c87b56dd1461084f578063de9af0381461088c578063e985e9c5146108b5578063ecbfc077146108f2578063ee38c8b714610909578063f2fde38b146109325761025c565b8063b66a0e5d1461079d578063b6791cfa146107b4578063b88d4fde146107d0578063c341526b146107f9578063c8544312146108245761025c565b80638d859f3e116101085780638d859f3e146106b15780638da5cb5b146106dc5780638ff095f91461070757806395d89b411461071e578063a22cb46514610749578063b0220015146107725761025c565b8063717bf336146105d757806373b2e80e14610602578063853828b61461063f57806385852ce414610649578063872b25b0146106865761025c565b806323b872dd116101dd5780635edbad0a116101a15780635edbad0a146104b55780636352211e146104e05780636456c2051461051d57806369cff3471461054657806370a0823114610583578063715018a6146105c05761025c565b806323b872dd146104055780632bf831f01461042e57806342842e0e1461044a578063544657731461047357806355367ba91461049e5761025c565b8063070f5c0911610224578063070f5c0914610332578063081812fc14610349578063095ea7b31461038657806318160ddd146103af5780631c8b232d146103da5761025c565b806301ffc9a71461026157806302fe53051461029e57806304c98b2b146102c757806306331592146102de57806306fdde0314610307575b600080fd5b34801561026d57600080fd5b50610288600480360381019061028391906139c7565b61095b565b604051610295919061421f565b60405180910390f35b3480156102aa57600080fd5b506102c560048036038101906102c09190613a19565b610a3d565b005b3480156102d357600080fd5b506102dc610acf565b005b3480156102ea57600080fd5b5061030560048036038101906103009190613a5e565b610b68565b005b34801561031357600080fd5b5061031c610bee565b6040516103299190614309565b60405180910390f35b34801561033e57600080fd5b50610347610c80565b005b34801561035557600080fd5b50610370600480360381019061036b9190613a5e565b610d19565b60405161037d9190614181565b60405180910390f35b34801561039257600080fd5b506103ad60048036038101906103a8919061398b565b610d9e565b005b3480156103bb57600080fd5b506103c4610eb6565b6040516103d1919061470b565b60405180910390f35b3480156103e657600080fd5b506103ef610ebc565b6040516103fc919061421f565b60405180910390f35b34801561041157600080fd5b5061042c60048036038101906104279190613885565b610ecf565b005b61044860048036038101906104439190613adb565b610f2f565b005b34801561045657600080fd5b50610471600480360381019061046c9190613885565b611257565b005b34801561047f57600080fd5b50610488611277565b604051610495919061470b565b60405180910390f35b3480156104aa57600080fd5b506104b361127d565b005b3480156104c157600080fd5b506104ca611316565b6040516104d7919061470b565b60405180910390f35b3480156104ec57600080fd5b5061050760048036038101906105029190613a5e565b61131c565b6040516105149190614181565b60405180910390f35b34801561052957600080fd5b50610544600480360381019061053f9190613a5e565b6113ff565b005b34801561055257600080fd5b5061056d60048036038101906105689190613820565b611485565b60405161057a919061470b565b60405180910390f35b34801561058f57600080fd5b506105aa60048036038101906105a59190613820565b61149d565b6040516105b7919061470b565b60405180910390f35b3480156105cc57600080fd5b506105d56115e9565b005b3480156105e357600080fd5b506105ec611671565b6040516105f9919061421f565b60405180910390f35b34801561060e57600080fd5b5061062960048036038101906106249190613820565b611684565b604051610636919061470b565b60405180910390f35b61064761169c565b005b34801561065557600080fd5b50610670600480360381019061066b9190613a87565b611758565b60405161067d919061421f565b60405180910390f35b34801561069257600080fd5b5061069b6117ff565b6040516106a8919061470b565b60405180910390f35b3480156106bd57600080fd5b506106c6611805565b6040516106d3919061470b565b60405180910390f35b3480156106e857600080fd5b506106f161180b565b6040516106fe9190614181565b60405180910390f35b34801561071357600080fd5b5061071c611834565b005b34801561072a57600080fd5b506107336118cd565b6040516107409190614309565b60405180910390f35b34801561075557600080fd5b50610770600480360381019061076b919061394f565b61195f565b005b34801561077e57600080fd5b50610787611ae0565b604051610794919061421f565b60405180910390f35b3480156107a957600080fd5b506107b2611af3565b005b6107ce60048036038101906107c99190613a5e565b611b8c565b005b3480156107dc57600080fd5b506107f760048036038101906107f291906138d4565b611d84565b005b34801561080557600080fd5b5061080e611de6565b60405161081b919061470b565b60405180910390f35b34801561083057600080fd5b50610839611dec565b604051610846919061470b565b60405180910390f35b34801561085b57600080fd5b5061087660048036038101906108719190613a5e565b611df2565b6040516108839190614309565b60405180910390f35b34801561089857600080fd5b506108b360048036038101906108ae919061398b565b611e6e565b005b3480156108c157600080fd5b506108dc60048036038101906108d79190613849565b611fe6565b6040516108e9919061421f565b60405180910390f35b3480156108fe57600080fd5b5061090761207a565b005b34801561091557600080fd5b50610930600480360381019061092b9190613adb565b612113565b005b34801561093e57600080fd5b5061095960048036038101906109549190613820565b61238b565b005b60007f80ac58cd000000000000000000000000000000000000000000000000000000007bffffffffffffffffffffffffffffffffffffffffffffffffffffffff1916827bffffffffffffffffffffffffffffffffffffffffffffffffffffffff19161480610a2657507f5b5e139f000000000000000000000000000000000000000000000000000000007bffffffffffffffffffffffffffffffffffffffffffffffffffffffff1916827bffffffffffffffffffffffffffffffffffffffffffffffffffffffff1916145b80610a365750610a3582612483565b5b9050919050565b610a456124ed565b73ffffffffffffffffffffffffffffffffffffffff16610a6361180b565b73ffffffffffffffffffffffffffffffffffffffff1614610ab9576040517f08c379a0000000000000000000000000000000000000000000000000000000008152600401610ab0906145ab565b60405180910390fd5b8181600e9190610aca929190613662565b505050565b610ad76124ed565b73ffffffffffffffffffffffffffffffffffffffff16610af561180b565b73ffffffffffffffffffffffffffffffffffffffff1614610b4b576040517f08c379a0000000000000000000000000000000000000000000000000000000008152600401610b42906145ab565b60405180910390fd5b6001600d60016101000a81548160ff021916908315150217905550565b610b706124ed565b73ffffffffffffffffffffffffffffffffffffffff16610b8e61180b565b73ffffffffffffffffffffffffffffffffffffffff1614610be4576040517f08c379a0000000000000000000000000000000000000000000000000000000008152600401610bdb906145ab565b60405180910390fd5b8060068190555050565b606060018054610bfd906149b6565b80601f0160208091040260200160405190810160405280929190818152602001828054610c29906149b6565b8015610c765780601f10610c4b57610100808354040283529160200191610c76565b820191906000526020600020905b815481529060010190602001808311610c5957829003601f168201915b5050505050905090565b610c886124ed565b73ffffffffffffffffffffffffffffffffffffffff16610ca661180b565b73ffffffffffffffffffffffffffffffffffffffff1614610cfc576040517f08c379a0000000000000000000000000000000000000000000000000000000008152600401610cf3906145ab565b60405180910390fd5b6000600d60016101000a81548160ff021916908315150217905550565b6000610d24826124f5565b610d63576040517f08c379a0000000000000000000000000000000000000000000000000000000008152600401610d5a9061458b565b60405180910390fd5b6004600083815260200190815260200160002060009054906101000a900473ffffffffffffffffffffffffffffffffffffffff169050919050565b6000610da98261131c565b90508073ffffffffffffffffffffffffffffffffffffffff168373ffffffffffffffffffffffffffffffffffffffff161415610e1a576040517f08c379a0000000000000000000000000000000000000000000000000000000008152600401610e119061462b565b60405180910390fd5b8073ffffffffffffffffffffffffffffffffffffffff16610e396124ed565b73ffffffffffffffffffffffffffffffffffffffff161480610e685750610e6781610e626124ed565b611fe6565b5b610ea7576040517f08c379a0000000000000000000000000000000000000000000000000000000008152600401610e9e906144cb565b60405180910390fd5b610eb183836125a3565b505050565b600c5481565b600d60009054906101000a900460ff1681565b610ee0610eda6124ed565b8261265c565b610f1f576040517f08c379a0000000000000000000000000000000000000000000000000000000008152600401610f169061468b565b60405180910390fd5b610f2a83838361273a565b505050565b60011515600d60019054906101000a900460ff16151514610f85576040517f08c379a0000000000000000000000000000000000000000000000000000000008152600401610f7c9061446b565b60405180910390fd5b610f8f8282611758565b610fce576040517f08c379a0000000000000000000000000000000000000000000000000000000008152600401610fc5906146ab565b60405180910390fd5b60008311801561102f57508161102c84601060003373ffffffffffffffffffffffffffffffffffffffff1673ffffffffffffffffffffffffffffffffffffffff1681526020019081526020016000205461291990919063ffffffff16565b11155b61106e576040517f08c379a0000000000000000000000000000000000000000000000000000000008152600401611065906146cb565b60405180910390fd5b6110838360075461292f90919063ffffffff16565b3410156110c5576040517f08c379a00000000000000000000000000000000000000000000000000000000081526004016110bc9061464b565b60405180910390fd5b6006546110dd84600c5461291990919063ffffffff16565b111561111e576040517f08c379a00000000000000000000000000000000000000000000000000000000081526004016111159061466b565b60405180910390fd5b60005b838110156111645761113533600c54612945565b61114b6001600c5461291990919063ffffffff16565b600c81905550808061115c90614a19565b915050611121565b5061117a8360085461291990919063ffffffff16565b6008819055506111d283601060003373ffffffffffffffffffffffffffffffffffffffff1673ffffffffffffffffffffffffffffffffffffffff1681526020019081526020016000205461291990919063ffffffff16565b601060003373ffffffffffffffffffffffffffffffffffffffff1673ffffffffffffffffffffffffffffffffffffffff168152602001908152602001600020819055507f9670c8b300c38cd3db8d3f9429dd902e67f418c4dd193e2497f06d20efc795603384600c5460405161124a939291906141e8565b60405180910390a1505050565b61127283838360405180602001604052806000815250611d84565b505050565b600a5481565b6112856124ed565b73ffffffffffffffffffffffffffffffffffffffff166112a361180b565b73ffffffffffffffffffffffffffffffffffffffff16146112f9576040517f08c379a00000000000000000000000000000000000000000000000000000000081526004016112f0906145ab565b60405180910390fd5b6000600d60006101000a81548160ff021916908315150217905550565b60085481565b60008060038381548110611359577f4e487b7100000000000000000000000000000000000000000000000000000000600052603260045260246000fd5b9060005260206000200160009054906101000a900473ffffffffffffffffffffffffffffffffffffffff169050600073ffffffffffffffffffffffffffffffffffffffff168173ffffffffffffffffffffffffffffffffffffffff1614156113f6576040517f08c379a00000000000000000000000000000000000000000000000000000000081526004016113ed9061450b565b60405180910390fd5b80915050919050565b6114076124ed565b73ffffffffffffffffffffffffffffffffffffffff1661142561180b565b73ffffffffffffffffffffffffffffffffffffffff161461147b576040517f08c379a0000000000000000000000000000000000000000000000000000000008152600401611472906145ab565b60405180910390fd5b8060078190555050565b60106020528060005260406000206000915090505481565b60008073ffffffffffffffffffffffffffffffffffffffff168273ffffffffffffffffffffffffffffffffffffffff16141561150e576040517f08c379a0000000000000000000000000000000000000000000000000000000008152600401611505906144eb565b60405180910390fd5b600080600380549050905060005b818110156115da576003818154811061155e577f4e487b7100000000000000000000000000000000000000000000000000000000600052603260045260246000fd5b9060005260206000200160009054906101000a900473ffffffffffffffffffffffffffffffffffffffff1673ffffffffffffffffffffffffffffffffffffffff168573ffffffffffffffffffffffffffffffffffffffff1614156115c957826115c690614a19565b92505b806115d390614a19565b905061151c565b50600090508192505050919050565b6115f16124ed565b73ffffffffffffffffffffffffffffffffffffffff1661160f61180b565b73ffffffffffffffffffffffffffffffffffffffff1614611665576040517f08c379a000000000000000000000000000000000000000000000000000000000815260040161165c906145ab565b60405180910390fd5b61166f6000612963565b565b600d60029054906101000a900460ff1681565b600f6020528060005260406000206000915090505481565b6116a46124ed565b73ffffffffffffffffffffffffffffffffffffffff166116c261180b565b73ffffffffffffffffffffffffffffffffffffffff1614611718576040517f08c379a000000000000000000000000000000000000000000000000000000000815260040161170f906145ab565b60405180910390fd5b3373ffffffffffffffffffffffffffffffffffffffff166108fc479081150290604051600060405180830381858888f1935050505061175657600080fd5b565b6000806117be6117b87f159b8fd053f2ba91664d2db8a48c1216e475560cbaf9c4dc06e5f32265b7852361178a6124ed565b8760405160200161179d9392919061423a565b60405160208183030381529060405280519060200120612a27565b84612a41565b90508073ffffffffffffffffffffffffffffffffffffffff166117df61180b565b73ffffffffffffffffffffffffffffffffffffffff161491505092915050565b60065481565b60075481565b60008060009054906101000a900473ffffffffffffffffffffffffffffffffffffffff16905090565b61183c6124ed565b73ffffffffffffffffffffffffffffffffffffffff1661185a61180b565b73ffffffffffffffffffffffffffffffffffffffff16146118b0576040517f08c379a00000000000000000000000000000000000000000000000000000000081526004016118a7906145ab565b60405180910390fd5b6000600d60026101000a81548160ff021916908315150217905550565b6060600280546118dc906149b6565b80601f0160208091040260200160405190810160405280929190818152602001828054611908906149b6565b80156119555780601f1061192a57610100808354040283529160200191611955565b820191906000526020600020905b81548152906001019060200180831161193857829003601f168201915b5050505050905090565b6119676124ed565b73ffffffffffffffffffffffffffffffffffffffff168273ffffffffffffffffffffffffffffffffffffffff1614156119d5576040517f08c379a00000000000000000000000000000000000000000000000000000000081526004016119cc9061444b565b60405180910390fd5b80600560006119e26124ed565b73ffffffffffffffffffffffffffffffffffffffff1673ffffffffffffffffffffffffffffffffffffffff16815260200190815260200160002060008473ffffffffffffffffffffffffffffffffffffffff1673ffffffffffffffffffffffffffffffffffffffff16815260200190815260200160002060006101000a81548160ff0219169083151502179055508173ffffffffffffffffffffffffffffffffffffffff16611a8f6124ed565b73ffffffffffffffffffffffffffffffffffffffff167f17307eab39ab6107e8899845ad3d59bd9653f200f220920489ca2b5937696c3183604051611ad4919061421f565b60405180910390a35050565b600d60019054906101000a900460ff1681565b611afb6124ed565b73ffffffffffffffffffffffffffffffffffffffff16611b1961180b565b73ffffffffffffffffffffffffffffffffffffffff1614611b6f576040517f08c379a0000000000000000000000000000000000000000000000000000000008152600401611b66906145ab565b60405180910390fd5b6001600d60006101000a81548160ff021916908315150217905550565b60011515600d60009054906101000a900460ff16151514611be2576040517f08c379a0000000000000000000000000000000000000000000000000000000008152600401611bd99061436b565b60405180910390fd5b600081118015611bf3575060328111155b611c32576040517f08c379a0000000000000000000000000000000000000000000000000000000008152600401611c299061434b565b60405180910390fd5b600654611c4a82600c5461291990919063ffffffff16565b1115611c8b576040517f08c379a0000000000000000000000000000000000000000000000000000000008152600401611c82906146eb565b60405180910390fd5b611ca08160075461292f90919063ffffffff16565b341015611ce2576040517f08c379a0000000000000000000000000000000000000000000000000000000008152600401611cd99061464b565b60405180910390fd5b60005b81811015611d2857611cf933600c54612945565b611d0f6001600c5461291990919063ffffffff16565b600c819055508080611d2090614a19565b915050611ce5565b50611d3e8160095461291990919063ffffffff16565b6009819055507f9670c8b300c38cd3db8d3f9429dd902e67f418c4dd193e2497f06d20efc795603382600c54604051611d79939291906141e8565b60405180910390a150565b611d95611d8f6124ed565b8361265c565b611dd4576040517f08c379a0000000000000000000000000000000000000000000000000000000008152600401611dcb9061468b565b60405180910390fd5b611de084848484612a68565b50505050565b600b5481565b60095481565b6060611dfd826124f5565b611e3c576040517f08c379a0000000000000000000000000000000000000000000000000000000008152600401611e339061452b565b60405180910390fd5b600e611e4783612ac4565b604051602001611e58929190614126565b6040516020818303038152906040529050919050565b611e766124ed565b73ffffffffffffffffffffffffffffffffffffffff16611e9461180b565b73ffffffffffffffffffffffffffffffffffffffff1614611eea576040517f08c379a0000000000000000000000000000000000000000000000000000000008152600401611ee1906145ab565b60405180910390fd5b600654611f0282600c5461291990919063ffffffff16565b1115611f43576040517f08c379a0000000000000000000000000000000000000000000000000000000008152600401611f3a9061466b565b60405180910390fd5b60005b81811015611f8957611f5a83600c54612945565b611f706001600c5461291990919063ffffffff16565b600c819055508080611f8190614a19565b915050611f46565b50611f9f81600b5461291990919063ffffffff16565b600b819055507f9670c8b300c38cd3db8d3f9429dd902e67f418c4dd193e2497f06d20efc795608282600c54604051611fda939291906141e8565b60405180910390a15050565b6000600560008473ffffffffffffffffffffffffffffffffffffffff1673ffffffffffffffffffffffffffffffffffffffff16815260200190815260200160002060008373ffffffffffffffffffffffffffffffffffffffff1673ffffffffffffffffffffffffffffffffffffffff16815260200190815260200160002060009054906101000a900460ff16905092915050565b6120826124ed565b73ffffffffffffffffffffffffffffffffffffffff166120a061180b565b73ffffffffffffffffffffffffffffffffffffffff16146120f6576040517f08c379a00000000000000000000000000000000000000000000000000000000081526004016120ed906145ab565b60405180910390fd5b6001600d60026101000a81548160ff021916908315150217905550565b60011515600d60029054906101000a900460ff16151514612169576040517f08c379a00000000000000000000000000000000000000000000000000000000081526004016121609061440b565b60405180910390fd5b6121738282611758565b6121b2576040517f08c379a00000000000000000000000000000000000000000000000000000000081526004016121a99061460b565b60405180910390fd5b60008311801561221357508161221084600f60003373ffffffffffffffffffffffffffffffffffffffff1673ffffffffffffffffffffffffffffffffffffffff1681526020019081526020016000205461291990919063ffffffff16565b11155b612252576040517f08c379a0000000000000000000000000000000000000000000000000000000008152600401612249906145eb565b60405180910390fd5b60005b838110156122985761226933600c54612945565b61227f6001600c5461291990919063ffffffff16565b600c81905550808061229090614a19565b915050612255565b506122ae83600a5461291990919063ffffffff16565b600a8190555061230683600f60003373ffffffffffffffffffffffffffffffffffffffff1673ffffffffffffffffffffffffffffffffffffffff1681526020019081526020016000205461291990919063ffffffff16565b600f60003373ffffffffffffffffffffffffffffffffffffffff1673ffffffffffffffffffffffffffffffffffffffff168152602001908152602001600020819055507f9670c8b300c38cd3db8d3f9429dd902e67f418c4dd193e2497f06d20efc795603384600c5460405161237e939291906141e8565b60405180910390a1505050565b6123936124ed565b73ffffffffffffffffffffffffffffffffffffffff166123b161180b565b73ffffffffffffffffffffffffffffffffffffffff1614612407576040517f08c379a00000000000000000000000000000000000000000000000000000000081526004016123fe906145ab565b60405180910390fd5b600073ffffffffffffffffffffffffffffffffffffffff168173ffffffffffffffffffffffffffffffffffffffff161415612477576040517f08c379a000000000000000000000000000000000000000000000000000000000815260040161246e906143cb565b60405180910390fd5b61248081612963565b50565b60007f01ffc9a7000000000000000000000000000000000000000000000000000000007bffffffffffffffffffffffffffffffffffffffffffffffffffffffff1916827bffffffffffffffffffffffffffffffffffffffffffffffffffffffff1916149050919050565b600033905090565b60006003805490508210801561259c5750600073ffffffffffffffffffffffffffffffffffffffff1660038381548110612558577f4e487b7100000000000000000000000000000000000000000000000000000000600052603260045260246000fd5b9060005260206000200160009054906101000a900473ffffffffffffffffffffffffffffffffffffffff1673ffffffffffffffffffffffffffffffffffffffff1614155b9050919050565b816004600083815260200190815260200160002060006101000a81548173ffffffffffffffffffffffffffffffffffffffff021916908373ffffffffffffffffffffffffffffffffffffffff160217905550808273ffffffffffffffffffffffffffffffffffffffff166126168361131c565b73ffffffffffffffffffffffffffffffffffffffff167f8c5be1e5ebec7d5bd14f71427d1e84f3dd0314c0f7b2291e5b200ac8c7c3b92560405160405180910390a45050565b6000612667826124f5565b6126a6576040517f08c379a000000000000000000000000000000000000000000000000000000000815260040161269d906144ab565b60405180910390fd5b60006126b18361131c565b90508073ffffffffffffffffffffffffffffffffffffffff168473ffffffffffffffffffffffffffffffffffffffff16148061272057508373ffffffffffffffffffffffffffffffffffffffff1661270884610d19565b73ffffffffffffffffffffffffffffffffffffffff16145b8061273157506127308185611fe6565b5b91505092915050565b8273ffffffffffffffffffffffffffffffffffffffff1661275a8261131c565b73ffffffffffffffffffffffffffffffffffffffff16146127b0576040517f08c379a00000000000000000000000000000000000000000000000000000000081526004016127a7906145cb565b60405180910390fd5b600073ffffffffffffffffffffffffffffffffffffffff168273ffffffffffffffffffffffffffffffffffffffff161415612820576040517f08c379a00000000000000000000000000000000000000000000000000000000081526004016128179061442b565b60405180910390fd5b61282b838383612c71565b6128366000826125a3565b8160038281548110612871577f4e487b7100000000000000000000000000000000000000000000000000000000600052603260045260246000fd5b9060005260206000200160006101000a81548173ffffffffffffffffffffffffffffffffffffffff021916908373ffffffffffffffffffffffffffffffffffffffff160217905550808273ffffffffffffffffffffffffffffffffffffffff168473ffffffffffffffffffffffffffffffffffffffff167fddf252ad1be2c89b69c2b068fc378daa952ba7f163c4a11628f55a4df523b3ef60405160405180910390a4505050565b6000818361292791906147d4565b905092915050565b6000818361293d919061485b565b905092915050565b61295f828260405180602001604052806000815250612c76565b5050565b60008060009054906101000a900473ffffffffffffffffffffffffffffffffffffffff169050816000806101000a81548173ffffffffffffffffffffffffffffffffffffffff021916908373ffffffffffffffffffffffffffffffffffffffff1602179055508173ffffffffffffffffffffffffffffffffffffffff168173ffffffffffffffffffffffffffffffffffffffff167f8be0079c531659141344cd1fd0a4f28419497f9722a3daafe3b4186f6b6457e060405160405180910390a35050565b6000612a3a612a34612cd1565b83612d94565b9050919050565b6000806000612a508585612dc7565b91509150612a5d81612e4a565b819250505092915050565b612a7384848461273a565b612a7f8484848461319b565b612abe576040517f08c379a0000000000000000000000000000000000000000000000000000000008152600401612ab5906143ab565b60405180910390fd5b50505050565b60606000821415612b0c576040518060400160405280600181526020017f30000000000000000000000000000000000000000000000000000000000000008152509050612c6c565b600082905060005b60008214612b3e578080612b2790614a19565b915050600a82612b37919061482a565b9150612b14565b60008167ffffffffffffffff811115612b80577f4e487b7100000000000000000000000000000000000000000000000000000000600052604160045260246000fd5b6040519080825280601f01601f191660200182016040528015612bb25781602001600182028036833780820191505090505b5090505b60008514612c6557600182612bcb91906148b5565b9150600a85612bda9190614a6c565b6030612be691906147d4565b60f81b818381518110612c22577f4e487b7100000000000000000000000000000000000000000000000000000000600052603260045260246000fd5b60200101907effffffffffffffffffffffffffffffffffffffffffffffffffffffffffffff1916908160001a905350600a85612c5e919061482a565b9450612bb6565b8093505050505b919050565b505050565b612c808383613332565b612c8d600084848461319b565b612ccc576040517f08c379a0000000000000000000000000000000000000000000000000000000008152600401612cc3906143ab565b60405180910390fd5b505050565b60007f0000000000000000000000000000000000000000000000000000000000000000461415612d23577f00000000000000000000000000000000000000000000000000000000000000009050612d91565b612d8e7f00000000000000000000000000000000000000000000000000000000000000007f00000000000000000000000000000000000000000000000000000000000000007f00000000000000000000000000000000000000000000000000000000000000006134ba565b90505b90565b60008282604051602001612da992919061414a565b60405160208183030381529060405280519060200120905092915050565b600080604183511415612e095760008060006020860151925060408601519150606086015160001a9050612dfd878285856134f4565b94509450505050612e43565b604083511415612e3a576000806020850151915060408501519050612e2f868383613601565b935093505050612e43565b60006002915091505b9250929050565b60006004811115612e84577f4e487b7100000000000000000000000000000000000000000000000000000000600052602160045260246000fd5b816004811115612ebd577f4e487b7100000000000000000000000000000000000000000000000000000000600052602160045260246000fd5b1415612ec857613198565b60016004811115612f02577f4e487b7100000000000000000000000000000000000000000000000000000000600052602160045260246000fd5b816004811115612f3b577f4e487b7100000000000000000000000000000000000000000000000000000000600052602160045260246000fd5b1415612f7c576040517f08c379a0000000000000000000000000000000000000000000000000000000008152600401612f739061432b565b60405180910390fd5b60026004811115612fb6577f4e487b7100000000000000000000000000000000000000000000000000000000600052602160045260246000fd5b816004811115612fef577f4e487b7100000000000000000000000000000000000000000000000000000000600052602160045260246000fd5b1415613030576040517f08c379a00000000000000000000000000000000000000000000000000000000081526004016130279061438b565b60405180910390fd5b6003600481111561306a577f4e487b7100000000000000000000000000000000000000000000000000000000600052602160045260246000fd5b8160048111156130a3577f4e487b7100000000000000000000000000000000000000000000000000000000600052602160045260246000fd5b14156130e4576040517f08c379a00000000000000000000000000000000000000000000000000000000081526004016130db9061448b565b60405180910390fd5b60048081111561311d577f4e487b7100000000000000000000000000000000000000000000000000000000600052602160045260246000fd5b816004811115613156577f4e487b7100000000000000000000000000000000000000000000000000000000600052602160045260246000fd5b1415613197576040517f08c379a000000000000000000000000000000000000000000000000000000000815260040161318e9061454b565b60405180910390fd5b5b50565b60006131bc8473ffffffffffffffffffffffffffffffffffffffff1661364f565b15613325578373ffffffffffffffffffffffffffffffffffffffff1663150b7a026131e56124ed565b8786866040518563ffffffff1660e01b8152600401613207949392919061419c565b602060405180830381600087803b15801561322157600080fd5b505af192505050801561325257506040513d601f19601f8201168201806040525081019061324f91906139f0565b60015b6132d5573d8060008114613282576040519150601f19603f3d011682016040523d82523d6000602084013e613287565b606091505b506000815114156132cd576040517f08c379a00000000000000000000000000000000000000000000000000000000081526004016132c4906143ab565b60405180910390fd5b805181602001fd5b63150b7a0260e01b7bffffffffffffffffffffffffffffffffffffffffffffffffffffffff1916817bffffffffffffffffffffffffffffffffffffffffffffffffffffffff19161491505061332a565b600190505b949350505050565b600073ffffffffffffffffffffffffffffffffffffffff168273ffffffffffffffffffffffffffffffffffffffff1614156133a2576040517f08c379a00000000000000000000000000000000000000000000000000000000081526004016133999061456b565b60405180910390fd5b6133ab816124f5565b156133eb576040517f08c379a00000000000000000000000000000000000000000000000000000000081526004016133e2906143eb565b60405180910390fd5b6133f760008383612c71565b6003829080600181540180825580915050600190039060005260206000200160009091909190916101000a81548173ffffffffffffffffffffffffffffffffffffffff021916908373ffffffffffffffffffffffffffffffffffffffff160217905550808273ffffffffffffffffffffffffffffffffffffffff16600073ffffffffffffffffffffffffffffffffffffffff167fddf252ad1be2c89b69c2b068fc378daa952ba7f163c4a11628f55a4df523b3ef60405160405180910390a45050565b600083838346306040516020016134d5959493929190614271565b6040516020818303038152906040528051906020012090509392505050565b6000807f7fffffffffffffffffffffffffffffff5d576e7357a4501ddfe92f46681b20a08360001c111561352f5760006003915091506135f8565b601b8560ff16141580156135475750601c8560ff1614155b156135595760006004915091506135f8565b60006001878787876040516000815260200160405260405161357e94939291906142c4565b6020604051602081039080840390855afa1580156135a0573d6000803e3d6000fd5b505050602060405103519050600073ffffffffffffffffffffffffffffffffffffffff168173ffffffffffffffffffffffffffffffffffffffff1614156135ef576000600192509250506135f8565b80600092509250505b94509492505050565b6000806000807f7fffffffffffffffffffffffffffffffffffffffffffffffffffffffffffffff85169150601b8560ff1c019050613641878288856134f4565b935093505050935093915050565b600080823b905060008111915050919050565b82805461366e906149b6565b90600052602060002090601f01602090048101928261369057600085556136d7565b82601f106136a957803560ff19168380011785556136d7565b828001600101855582156136d7579182015b828111156136d65782358255916020019190600101906136bb565b5b5090506136e491906136e8565b5090565b5b808211156137015760008160009055506001016136e9565b5090565b60006137186137138461474b565b614726565b90508281526020810184848401111561373057600080fd5b61373b848285614974565b509392505050565b600081359050613752816152ea565b92915050565b60008135905061376781615301565b92915050565b60008135905061377c81615318565b92915050565b60008151905061379181615318565b92915050565b600082601f8301126137a857600080fd5b81356137b8848260208601613705565b91505092915050565b60008083601f8401126137d357600080fd5b8235905067ffffffffffffffff8111156137ec57600080fd5b60208301915083600182028301111561380457600080fd5b9250929050565b60008135905061381a8161532f565b92915050565b60006020828403121561383257600080fd5b600061384084828501613743565b91505092915050565b6000806040838503121561385c57600080fd5b600061386a85828601613743565b925050602061387b85828601613743565b9150509250929050565b60008060006060848603121561389a57600080fd5b60006138a886828701613743565b93505060206138b986828701613743565b92505060406138ca8682870161380b565b9150509250925092565b600080600080608085870312156138ea57600080fd5b60006138f887828801613743565b945050602061390987828801613743565b935050604061391a8782880161380b565b925050606085013567ffffffffffffffff81111561393757600080fd5b61394387828801613797565b91505092959194509250565b6000806040838503121561396257600080fd5b600061397085828601613743565b925050602061398185828601613758565b9150509250929050565b6000806040838503121561399e57600080fd5b60006139ac85828601613743565b92505060206139bd8582860161380b565b9150509250929050565b6000602082840312156139d957600080fd5b60006139e78482850161376d565b91505092915050565b600060208284031215613a0257600080fd5b6000613a1084828501613782565b91505092915050565b60008060208385031215613a2c57600080fd5b600083013567ffffffffffffffff811115613a4657600080fd5b613a52858286016137c1565b92509250509250929050565b600060208284031215613a7057600080fd5b6000613a7e8482850161380b565b91505092915050565b60008060408385031215613a9a57600080fd5b6000613aa88582860161380b565b925050602083013567ffffffffffffffff811115613ac557600080fd5b613ad185828601613797565b9150509250929050565b600080600060608486031215613af057600080fd5b6000613afe8682870161380b565b9350506020613b0f8682870161380b565b925050604084013567ffffffffffffffff811115613b2c57600080fd5b613b3886828701613797565b9150509250925092565b613b4b816148e9565b82525050565b613b5a816148fb565b82525050565b613b6981614907565b82525050565b613b80613b7b82614907565b614a62565b82525050565b6000613b9182614791565b613b9b81856147a7565b9350613bab818560208601614983565b613bb481614b59565b840191505092915050565b6000613bca8261479c565b613bd481856147b8565b9350613be4818560208601614983565b613bed81614b59565b840191505092915050565b6000613c038261479c565b613c0d81856147c9565b9350613c1d818560208601614983565b80840191505092915050565b60008154613c36816149b6565b613c4081866147c9565b94506001821660008114613c5b5760018114613c6c57613c9f565b60ff19831686528186019350613c9f565b613c758561477c565b60005b83811015613c9757815481890152600182019150602081019050613c78565b838801955050505b50505092915050565b6000613cb56018836147b8565b9150613cc082614b6a565b602082019050919050565b6000613cd8602c836147b8565b9150613ce382614b93565b604082019050919050565b6000613cfb6014836147b8565b9150613d0682614be2565b602082019050919050565b6000613d1e601f836147b8565b9150613d2982614c0b565b602082019050919050565b6000613d416032836147b8565b9150613d4c82614c34565b604082019050919050565b6000613d646026836147b8565b9150613d6f82614c83565b604082019050919050565b6000613d87601c836147b8565b9150613d9282614cd2565b602082019050919050565b6000613daa6002836147c9565b9150613db582614cfb565b600282019050919050565b6000613dcd6016836147b8565b9150613dd882614d24565b602082019050919050565b6000613df06024836147b8565b9150613dfb82614d4d565b604082019050919050565b6000613e136019836147b8565b9150613e1e82614d9c565b602082019050919050565b6000613e366017836147b8565b9150613e4182614dc5565b602082019050919050565b6000613e596022836147b8565b9150613e6482614dee565b604082019050919050565b6000613e7c602c836147b8565b9150613e8782614e3d565b604082019050919050565b6000613e9f6038836147b8565b9150613eaa82614e8c565b604082019050919050565b6000613ec2602a836147b8565b9150613ecd82614edb565b604082019050919050565b6000613ee56029836147b8565b9150613ef082614f2a565b604082019050919050565b6000613f086010836147b8565b9150613f1382614f79565b602082019050919050565b6000613f2b6022836147b8565b9150613f3682614fa2565b604082019050919050565b6000613f4e6020836147b8565b9150613f5982614ff1565b602082019050919050565b6000613f71602c836147b8565b9150613f7c8261501a565b604082019050919050565b6000613f946020836147b8565b9150613f9f82615069565b602082019050919050565b6000613fb76029836147b8565b9150613fc282615092565b604082019050919050565b6000613fda6027836147b8565b9150613fe5826150e1565b604082019050919050565b6000613ffd6017836147b8565b915061400882615130565b602082019050919050565b60006140206021836147b8565b915061402b82615159565b604082019050919050565b60006140436024836147b8565b915061404e826151a8565b604082019050919050565b60006140666014836147b8565b9150614071826151f7565b602082019050919050565b60006140896031836147b8565b915061409482615220565b604082019050919050565b60006140ac6019836147b8565b91506140b78261526f565b602082019050919050565b60006140cf601b836147b8565b91506140da82615298565b602082019050919050565b60006140f26009836147b8565b91506140fd826152c1565b602082019050919050565b6141118161495d565b82525050565b61412081614967565b82525050565b60006141328285613c29565b915061413e8284613bf8565b91508190509392505050565b600061415582613d9d565b91506141618285613b6f565b6020820191506141718284613b6f565b6020820191508190509392505050565b60006020820190506141966000830184613b42565b92915050565b60006080820190506141b16000830187613b42565b6141be6020830186613b42565b6141cb6040830185614108565b81810360608301526141dd8184613b86565b905095945050505050565b60006060820190506141fd6000830186613b42565b61420a6020830185614108565b6142176040830184614108565b949350505050565b60006020820190506142346000830184613b51565b92915050565b600060608201905061424f6000830186613b60565b61425c6020830185613b42565b6142696040830184614108565b949350505050565b600060a0820190506142866000830188613b60565b6142936020830187613b60565b6142a06040830186613b60565b6142ad6060830185614108565b6142ba6080830184613b42565b9695505050505050565b60006080820190506142d96000830187613b60565b6142e66020830186614117565b6142f36040830185613b60565b6143006060830184613b60565b95945050505050565b600060208201905081810360008301526143238184613bbf565b905092915050565b6000602082019050818103600083015261434481613ca8565b9050919050565b6000602082019050818103600083015261436481613ccb565b9050919050565b6000602082019050818103600083015261438481613cee565b9050919050565b600060208201905081810360008301526143a481613d11565b9050919050565b600060208201905081810360008301526143c481613d34565b9050919050565b600060208201905081810360008301526143e481613d57565b9050919050565b6000602082019050818103600083015261440481613d7a565b9050919050565b6000602082019050818103600083015261442481613dc0565b9050919050565b6000602082019050818103600083015261444481613de3565b9050919050565b6000602082019050818103600083015261446481613e06565b9050919050565b6000602082019050818103600083015261448481613e29565b9050919050565b600060208201905081810360008301526144a481613e4c565b9050919050565b600060208201905081810360008301526144c481613e6f565b9050919050565b600060208201905081810360008301526144e481613e92565b9050919050565b6000602082019050818103600083015261450481613eb5565b9050919050565b6000602082019050818103600083015261452481613ed8565b9050919050565b6000602082019050818103600083015261454481613efb565b9050919050565b6000602082019050818103600083015261456481613f1e565b9050919050565b6000602082019050818103600083015261458481613f41565b9050919050565b600060208201905081810360008301526145a481613f64565b9050919050565b600060208201905081810360008301526145c481613f87565b9050919050565b600060208201905081810360008301526145e481613faa565b9050919050565b6000602082019050818103600083015261460481613fcd565b9050919050565b6000602082019050818103600083015261462481613ff0565b9050919050565b6000602082019050818103600083015261464481614013565b9050919050565b6000602082019050818103600083015261466481614036565b9050919050565b6000602082019050818103600083015261468481614059565b9050919050565b600060208201905081810360008301526146a48161407c565b9050919050565b600060208201905081810360008301526146c48161409f565b9050919050565b600060208201905081810360008301526146e4816140c2565b9050919050565b60006020820190508181036000830152614704816140e5565b9050919050565b60006020820190506147206000830184614108565b92915050565b6000614730614741565b905061473c82826149e8565b919050565b6000604051905090565b600067ffffffffffffffff82111561476657614765614b2a565b5b61476f82614b59565b9050602081019050919050565b60008190508160005260206000209050919050565b600081519050919050565b600081519050919050565b600082825260208201905092915050565b600082825260208201905092915050565b600081905092915050565b60006147df8261495d565b91506147ea8361495d565b9250827fffffffffffffffffffffffffffffffffffffffffffffffffffffffffffffffff0382111561481f5761481e614a9d565b5b828201905092915050565b60006148358261495d565b91506148408361495d565b9250826148505761484f614acc565b5b828204905092915050565b60006148668261495d565b91506148718361495d565b9250817fffffffffffffffffffffffffffffffffffffffffffffffffffffffffffffffff04831182151516156148aa576148a9614a9d565b5b828202905092915050565b60006148c08261495d565b91506148cb8361495d565b9250828210156148de576148dd614a9d565b5b828203905092915050565b60006148f48261493d565b9050919050565b60008115159050919050565b6000819050919050565b60007fffffffff0000000000000000000000000000000000000000000000000000000082169050919050565b600073ffffffffffffffffffffffffffffffffffffffff82169050919050565b6000819050919050565b600060ff82169050919050565b82818337600083830152505050565b60005b838110156149a1578082015181840152602081019050614986565b838111156149b0576000848401525b50505050565b600060028204905060018216806149ce57607f821691505b602082108114156149e2576149e1614afb565b5b50919050565b6149f182614b59565b810181811067ffffffffffffffff82111715614a1057614a0f614b2a565b5b80604052505050565b6000614a248261495d565b91507fffffffffffffffffffffffffffffffffffffffffffffffffffffffffffffffff821415614a5757614a56614a9d565b5b600182019050919050565b6000819050919050565b6000614a778261495d565b9150614a828361495d565b925082614a9257614a91614acc565b5b828206905092915050565b7f4e487b7100000000000000000000000000000000000000000000000000000000600052601160045260246000fd5b7f4e487b7100000000000000000000000000000000000000000000000000000000600052601260045260246000fd5b7f4e487b7100000000000000000000000000000000000000000000000000000000600052602260045260246000fd5b7f4e487b7100000000000000000000000000000000000000000000000000000000600052604160045260246000fd5b6000601f19601f8301169050919050565b7f45434453413a20696e76616c6964207369676e61747572650000000000000000600082015250565b7f596f752063616e206d696e74206d696e696d756d20312c206d6178696d756d2060008201527f35302073616d75726169732e0000000000000000000000000000000000000000602082015250565b7f53616c65206861736e277420737461727465642e000000000000000000000000600082015250565b7f45434453413a20696e76616c6964207369676e6174757265206c656e67746800600082015250565b7f4552433732313a207472616e7366657220746f206e6f6e20455243373231526560008201527f63656976657220696d706c656d656e7465720000000000000000000000000000602082015250565b7f4f776e61626c653a206e6577206f776e657220697320746865207a65726f206160008201527f6464726573730000000000000000000000000000000000000000000000000000602082015250565b7f4552433732313a20746f6b656e20616c7265616479206d696e74656400000000600082015250565b7f1901000000000000000000000000000000000000000000000000000000000000600082015250565b7f436c61696d65206861736e277420737461727465642e00000000000000000000600082015250565b7f4552433732313a207472616e7366657220746f20746865207a65726f2061646460008201527f7265737300000000000000000000000000000000000000000000000000000000602082015250565b7f4552433732313a20617070726f766520746f2063616c6c657200000000000000600082015250565b7f50726573616c65206861736e277420737461727465642e000000000000000000600082015250565b7f45434453413a20696e76616c6964207369676e6174757265202773272076616c60008201527f7565000000000000000000000000000000000000000000000000000000000000602082015250565b7f4552433732313a206f70657261746f7220717565727920666f72206e6f6e657860008201527f697374656e7420746f6b656e0000000000000000000000000000000000000000602082015250565b7f4552433732313a20617070726f76652063616c6c6572206973206e6f74206f7760008201527f6e6572206e6f7220617070726f76656420666f7220616c6c0000000000000000602082015250565b7f4552433732313a2062616c616e636520717565727920666f7220746865207a6560008201527f726f206164647265737300000000000000000000000000000000000000000000602082015250565b7f4552433732313a206f776e657220717565727920666f72206e6f6e657869737460008201527f656e7420746f6b656e0000000000000000000000000000000000000000000000602082015250565b7f544f4b454e5f4e4f545f45584953545300000000000000000000000000000000600082015250565b7f45434453413a20696e76616c6964207369676e6174757265202776272076616c60008201527f7565000000000000000000000000000000000000000000000000000000000000602082015250565b7f4552433732313a206d696e7420746f20746865207a65726f2061646472657373600082015250565b7f4552433732313a20617070726f76656420717565727920666f72206e6f6e657860008201527f697374656e7420746f6b656e0000000000000000000000000000000000000000602082015250565b7f4f776e61626c653a2063616c6c6572206973206e6f7420746865206f776e6572600082015250565b7f4552433732313a207472616e73666572206f6620746f6b656e2074686174206960008201527f73206e6f74206f776e0000000000000000000000000000000000000000000000602082015250565b7f45786365656420746865207175616e7469747920746861742063616e2062652060008201527f636c61696d656400000000000000000000000000000000000000000000000000602082015250565b7f4e6f7420656c696769626c6520666f7220636c61696d2e000000000000000000600082015250565b7f4552433732313a20617070726f76616c20746f2063757272656e74206f776e6560008201527f7200000000000000000000000000000000000000000000000000000000000000602082015250565b7f45746865722076616c75652073656e742069732062656c6f772074686520707260008201527f6963652e00000000000000000000000000000000000000000000000000000000602082015250565b7f45786365656473204d41585f53414d555241492e000000000000000000000000600082015250565b7f4552433732313a207472616e736665722063616c6c6572206973206e6f74206f60008201527f776e6572206e6f7220617070726f766564000000000000000000000000000000602082015250565b7f4e6f7420656c696769626c6520666f722070726573616c652e00000000000000600082015250565b7f45786365656473206d61782070726573616c65206e756d6265722e0000000000600082015250565b7f536f6c64206f7574210000000000000000000000000000000000000000000000600082015250565b6152f3816148e9565b81146152fe57600080fd5b50565b61530a816148fb565b811461531557600080fd5b50565b61532181614911565b811461532c57600080fd5b50565b6153388161495d565b811461534357600080fd5b5056fea26469706673582212203b3115e209ea669d3d6adb363e1b553bf495080b5ddc0dce1d01b3ee6879e17264736f6c63430008040033687474703a2f2f6170692e6b6174616e616e73616d757261692e6172742f4d657461646174612f",
  "devdoc": {
    "kind": "dev",
    "methods": {
      "approve(address,uint256)": {
        "details": "See {IERC721-approve}."
      },
      "balanceOf(address)": {
        "details": "See {IERC721-balanceOf}."
      },
      "getApproved(uint256)": {
        "details": "See {IERC721-getApproved}."
      },
      "isApprovedForAll(address,address)": {
        "details": "See {IERC721-isApprovedForAll}."
      },
      "name()": {
        "details": "See {IERC721Metadata-name}."
      },
      "owner()": {
        "details": "Returns the address of the current owner."
      },
      "ownerOf(uint256)": {
        "details": "See {IERC721-ownerOf}."
      },
      "renounceOwnership()": {
        "details": "Leaves the contract without owner. It will not be possible to call `onlyOwner` functions anymore. Can only be called by the current owner. NOTE: Renouncing ownership will leave the contract without an owner, thereby removing any functionality that is only available to the owner."
      },
      "safeTransferFrom(address,address,uint256)": {
        "details": "See {IERC721-safeTransferFrom}."
      },
      "safeTransferFrom(address,address,uint256,bytes)": {
        "details": "See {IERC721-safeTransferFrom}."
      },
      "setApprovalForAll(address,bool)": {
        "details": "See {IERC721-setApprovalForAll}."
      },
      "supportsInterface(bytes4)": {
        "details": "See {IERC165-supportsInterface}."
      },
      "symbol()": {
        "details": "See {IERC721Metadata-symbol}."
      },
      "tokenURI(uint256)": {
        "details": "Returns the Uniform Resource Identifier (URI) for `tokenId` token."
      },
      "transferFrom(address,address,uint256)": {
        "details": "See {IERC721-transferFrom}."
      },
      "transferOwnership(address)": {
        "details": "Transfers ownership of the contract to a new account (`newOwner`). Can only be called by the current owner."
      }
    },
    "version": 1
  },
  "userdoc": {
    "kind": "user",
    "methods": {},
    "version": 1
  },
  "storageLayout": {
    "storage": [
      {
        "astId": 7,
        "contract": "contracts/KatanaNSamurai2.sol:KatanaNSamurai2",
        "label": "_owner",
        "offset": 0,
        "slot": "0",
        "type": "t_address"
      },
      {
        "astId": 2845,
        "contract": "contracts/KatanaNSamurai2.sol:KatanaNSamurai2",
        "label": "_name",
        "offset": 0,
        "slot": "1",
        "type": "t_string_storage"
      },
      {
        "astId": 2847,
        "contract": "contracts/KatanaNSamurai2.sol:KatanaNSamurai2",
        "label": "_symbol",
        "offset": 0,
        "slot": "2",
        "type": "t_string_storage"
      },
      {
        "astId": 2850,
        "contract": "contracts/KatanaNSamurai2.sol:KatanaNSamurai2",
        "label": "_owners",
        "offset": 0,
        "slot": "3",
        "type": "t_array(t_address)dyn_storage"
      },
      {
        "astId": 2854,
        "contract": "contracts/KatanaNSamurai2.sol:KatanaNSamurai2",
        "label": "_tokenApprovals",
        "offset": 0,
        "slot": "4",
        "type": "t_mapping(t_uint256,t_address)"
      },
      {
        "astId": 2860,
        "contract": "contracts/KatanaNSamurai2.sol:KatanaNSamurai2",
        "label": "_operatorApprovals",
        "offset": 0,
        "slot": "5",
        "type": "t_mapping(t_address,t_mapping(t_address,t_bool))"
      },
      {
        "astId": 3619,
        "contract": "contracts/KatanaNSamurai2.sol:KatanaNSamurai2",
        "label": "MAX_SAMURAI",
        "offset": 0,
        "slot": "6",
        "type": "t_uint256"
      },
      {
        "astId": 3622,
        "contract": "contracts/KatanaNSamurai2.sol:KatanaNSamurai2",
        "label": "PRICE",
        "offset": 0,
        "slot": "7",
        "type": "t_uint256"
      },
      {
        "astId": 3625,
        "contract": "contracts/KatanaNSamurai2.sol:KatanaNSamurai2",
        "label": "numPresale",
        "offset": 0,
        "slot": "8",
        "type": "t_uint256"
      },
      {
        "astId": 3628,
        "contract": "contracts/KatanaNSamurai2.sol:KatanaNSamurai2",
        "label": "numSale",
        "offset": 0,
        "slot": "9",
        "type": "t_uint256"
      },
      {
        "astId": 3631,
        "contract": "contracts/KatanaNSamurai2.sol:KatanaNSamurai2",
        "label": "numClaim",
        "offset": 0,
        "slot": "10",
        "type": "t_uint256"
      },
      {
        "astId": 3634,
        "contract": "contracts/KatanaNSamurai2.sol:KatanaNSamurai2",
        "label": "numGiveaway",
        "offset": 0,
        "slot": "11",
        "type": "t_uint256"
      },
      {
        "astId": 3637,
        "contract": "contracts/KatanaNSamurai2.sol:KatanaNSamurai2",
        "label": "totalSupply",
        "offset": 0,
        "slot": "12",
        "type": "t_uint256"
      },
      {
        "astId": 3640,
        "contract": "contracts/KatanaNSamurai2.sol:KatanaNSamurai2",
        "label": "hasSaleStarted",
        "offset": 0,
        "slot": "13",
        "type": "t_bool"
      },
      {
        "astId": 3643,
        "contract": "contracts/KatanaNSamurai2.sol:KatanaNSamurai2",
        "label": "hasPresaleStarted",
        "offset": 1,
        "slot": "13",
        "type": "t_bool"
      },
      {
        "astId": 3646,
        "contract": "contracts/KatanaNSamurai2.sol:KatanaNSamurai2",
        "label": "hasClaimStarted",
        "offset": 2,
        "slot": "13",
        "type": "t_bool"
      },
      {
        "astId": 3649,
        "contract": "contracts/KatanaNSamurai2.sol:KatanaNSamurai2",
        "label": "_baseTokenURI",
        "offset": 0,
        "slot": "14",
        "type": "t_string_storage"
      },
      {
        "astId": 3653,
        "contract": "contracts/KatanaNSamurai2.sol:KatanaNSamurai2",
        "label": "hasClaimed",
        "offset": 0,
        "slot": "15",
        "type": "t_mapping(t_address,t_uint256)"
      },
      {
        "astId": 3657,
        "contract": "contracts/KatanaNSamurai2.sol:KatanaNSamurai2",
        "label": "hasPresale",
        "offset": 0,
        "slot": "16",
        "type": "t_mapping(t_address,t_uint256)"
      }
    ],
    "types": {
      "t_address": {
        "encoding": "inplace",
        "label": "address",
        "numberOfBytes": "20"
      },
      "t_array(t_address)dyn_storage": {
        "base": "t_address",
        "encoding": "dynamic_array",
        "label": "address[]",
        "numberOfBytes": "32"
      },
      "t_bool": {
        "encoding": "inplace",
        "label": "bool",
        "numberOfBytes": "1"
      },
      "t_mapping(t_address,t_bool)": {
        "encoding": "mapping",
        "key": "t_address",
        "label": "mapping(address => bool)",
        "numberOfBytes": "32",
        "value": "t_bool"
      },
      "t_mapping(t_address,t_mapping(t_address,t_bool))": {
        "encoding": "mapping",
        "key": "t_address",
        "label": "mapping(address => mapping(address => bool))",
        "numberOfBytes": "32",
        "value": "t_mapping(t_address,t_bool)"
      },
      "t_mapping(t_address,t_uint256)": {
        "encoding": "mapping",
        "key": "t_address",
        "label": "mapping(address => uint256)",
        "numberOfBytes": "32",
        "value": "t_uint256"
      },
      "t_mapping(t_uint256,t_address)": {
        "encoding": "mapping",
        "key": "t_uint256",
        "label": "mapping(uint256 => address)",
        "numberOfBytes": "32",
        "value": "t_address"
      },
      "t_string_storage": {
        "encoding": "bytes",
        "label": "string",
        "numberOfBytes": "32"
      },
      "t_uint256": {
        "encoding": "inplace",
        "label": "uint256",
        "numberOfBytes": "32"
      }
    }
  }
}